:020000040800F2
:100000000000042049470008F9390008FF390008BA
:10001000053A00080B3A0008113A00089947000811
:10002000000000000000000000000000173A000877
:10003000253A000800000000333A0008413A000861
:100040009947000899470008994700089947000810
:100050009947000899470008994700089947000800
:1000600099470008994700089947000899470008F0
:1000700099470008994700089947000899470008E0
:1000800099470008994700089947000899470008D0
:1000900099470008994700089947000899470008C0
:1000A00099470008994700089947000899470008B0
:1000B00099470008994700089947000899470008A0
:1000C0009947000899470008994700089947000890
:1000D0009947000899470008994700089947000880
:1000E00099470008994700084D3A000899470008C9
:1000F0009947000899470008994700089947000860
:10010000994700089947000899470008994700084F
:10011000994700089947000899470008994700083F
:10012000994700089947000899470008994700082F
:10013000994700089947000899470008613A000864
:10014000793A00089947000899470008994700083C
:1001500099470008994700089947000899470008FF
:1001600099470008913A0008994700089947000804
:1001700099470008000000009947000800000000AF
:1001800099470008994700089947000899470008CF
:1001900099470008994700089947000899470008BF
:1001A00099470008994700089947000899470008AF
:1001B0009947000800000000994700089947000887
:1001C0009947000800000000994700089947000877
:1001D000994700089947000899470008994700087F
:1001E000994700089947000899470008994700086F
:0401F000000000000B
:1001F40010B5054C237833B9044B13B1044800E01F
:1002040000BF0123237010BDD413002000000000A0
:100214003C0B010808B5034B1BB10349034800E03C
:1002240000BF08BD00000000D81300203C0B0108EB
:1002340053B94AB9002908BF00281CBF4FF0FF3149
:100244004FF0FF3000F082B9ADF1080C6DE904CE37
:1002540000F006F8DDF804E0DDE9022304B070479D
:100264002DE9F04F099D04460F46002B48D18A42E0
:10027400944661D9B2FA82F343B1C3F120019F409D
:1002840002FA03FC9C4020FA01F10F434FEA1C419F
:100294001FFA8CFE220CB7FBF1F601FB167706FB66
:1002A4000EF042EA0742904208D91CEB020206F122
:1002B400FF3702D2904200F237813E46121AA4B2AE
:1002C400B2FBF1F001FB102200FB0EFE44EA0244F3
:1002D400A64508D91CEB040400F1FF3202D2A6455E
:1002E40000F21C81104640EA0640A4EB0E040026EE
:1002F4001DB1DC400023C5E900433146BDE8F08F61
:100304008B4209D9002D00F0FD800026C5E90001CB
:1003140030463146BDE8F08FB3FA83F6002E4BD158
:100324008B42C0F0F280824240F2EF803046002DD2
:10033400E3D0C5E90047E0E702B9FFDEB2FA82F391
:10034400002B40F09D80891A4FEA124E97B2012685
:10035400200CB1FBFEF20EFB121140EA014107FB37
:1003640002F088420FD91CEB010102F1FF382CBFC7
:100374004FF001094FF00009884203D9B9F1000F89
:1003840000F0CF804246091AA4B2B1FBFEF00EFB86
:10039400101100FB07F744EA0144A74208D91CEBFB
:1003A400040400F1FF3102D2A74200F2B4800846EF
:1003B400E41B40EA02409BE7C6F12007B34001FA80
:1003C40006F422FA07FCF940B2404CEA030C20FA86
:1003D40007F34FEA1C491C431FFA8CFE00FA06F38C
:1003E400200CB1FBF9F809FB181140EA014108FBA4
:1003F4000EF088420FD91CEB010108F1FF3A2CBF23
:100404004FF0010B4FF0000B884203D9BBF1000FF2
:1004140000F08D80D046091AA4B2B1FBF9F009FBB3
:10042400101100FB0EFE44EA01418E4507D91CEB76
:10043400010100F1FF3401D28E457FD8204640EA05
:100444000840A1EB0E01A0FB029841454C46C6466C
:1004540002D306D14B4504D20138B9EB020468EB50
:100464000C0E002D70D01A1B61EB0E0122FA06F35C
:1004740001FA07F7F14000261F43C5E900713CE784
:1004840002FA03FCC3F1200001FA03F221FA00F698
:100494004FEA1C4E24FA00F11FFA8CF79C401143DA
:1004A400B6FBFEF00A0C0EFB106642EA064200FBA5
:1004B40007F696420ED91CEB020200F1FF382CBF5E
:1004C4004FF001094FF00009964202D9B9F1000F2B
:1004D40031D04046921B89B2B2FBFEF60EFB1622C7
:1004E40041EA024106FB07F28A4207D91CEB0101EB
:1004F40006F1FF3801D28A4223D84646891A46EAD1
:10050400004625E72E462846F7E6841A61EB0303E6
:1005140001201F460BE76444023849E7644402386B
:10052400E1E6023A61442EE7023E6244C6E6A8F1DF
:10053400020861446FE702386244CBE70238614441
:100544007DE7023E6144D9E72E46D6E6704700BFF8
:1005540080B584B000AF786039600023FB737B689A
:10056400002B14BF01230023DAB23B68002B14BF15
:1005740001230023DBB21340DBB2002B22D07B68C3
:10058400BB60BB685A783B681A70BB689A783B6852
:100594005A70BB685A793B68DA70BB681B79002BC8
:1005A4000DD0BB681A793B689A703B68181DBB680C
:1005B400991D3B689B781A460FF02AF904E0FD2345
:1005C400FB7301E0FE23FB730EF09EFC97F90F30E2
:1005D40018461037BD4680BD80B584B000AF786042
:1005E4000023FB737B68002B29D07B681B78032BCB
:1005F40022D87B681B78032B0AD17B685B78052B98
:1006040006D101224FF40061114804F0E1FD05E038
:1006140000224FF400610E4804F0DAFD7B685B7839
:1006240018467B681B7819460A4A83000B4452F823
:1006340023307868984704E0FC23FB7301E0FE2331
:10064400FB7397F90F3018461037BD4680BD00BFC5
:10065400001402420000002080B5ADF5027D00AF19
:1006640007F50273A3F50173186007F50273A3F588
:10067400FE7207F50273A3F501731968104601F0C1
:10068400B9FF07F58673184AF72118460FF0EEF8FC
:100694000346A7F80632B7F80632DAB207F5027352
:1006A400A3F5FE735A7107F50273A3F5FE735B7924
:1006B4001A4607F5867107F10C03063318460FF046
:1006C400A7F807F10C030121184602F001F807F11D
:1006D4000C034FF4807118460EF0DEFB00BF07F5E3
:1006E4000277BD4680BD00BF540B010880B5ADF54F
:1006F400047D02AF07F50273A3F50173186007F5D3
:100704000273A3F5FE7207F50273A3F5017319686A
:10071400104601F06FFF07F50273A3F501731B6820
:100724005B781A4607F58670184B019340F6EF7311
:1007340000931346164AF8210FF098F80346A7F8D9
:100744000632B7F80632DAB207F50273A3F5FE7380
:100754005A71B7F8062207F5867107F10C030633C0
:1007640018460FF055F807F10C030121184601F063
:10077400AFFF07F10C034FF4807118460EF08CFBA9
:1007840000BF07F50277BD4680BD00BF700B0108AE
:10079400640B010880B5ADF5067D02AF07F504735F
:1007A400A3F50373186007F50473A3F5017207F545
:1007B4000473A3F503731968104601F01BFF07F5D2
:1007C4000473A3F503731B689B78002B09D107F509
:1007D4008673264AF82118460FF048F8C7F80C0229
:1007E4001FE007F50473A3F503731B681B7987F8EF
:1007F4000B3240F6AD43A7F808327F23A7F8063240
:1008040097F80B12B7F80832B7F8062207F5867086
:10081400019200930B46164AF8210FF027F8C7F807
:100824000C02D7F80C32DAB207F50473A3F501739E
:100834005A71D7F80C2207F5867107F10C030633B9
:1008440018460EF0E5FF07F10C030121184601F0EC
:100854003FFF07F10C034FF4807118460EF01CFBA8
:1008640000BF07F50477BD4680BD00BF540B0108E7
:100874008C0B010880B5ADF5027D00AF07F502735E
:10088400A3F50173186007F50273A3F5FE7207F56B
:100894000273A3F501731968104601F0ABFE07F566
:1008A4000273A3F501731B689B78002B0BD107F52A
:1008B4008873274AF72118460EF0D8FF03469BB2E7
:1008C400A7F80E311EE007F50273A3F501731B6848
:1008D4001A1D07F50273A3F501731B689B789BB27D
:1008E4001946104601F036FF07F50273A3F50173AC
:1008F4001B68DB7899B207F5877207F58870C823FF
:1009040001F03AFFB7F80E31DAB207F50273A3F536
:10091400FE735A71B7F80E311A4607F5887107F15C
:100924000C03063318460EF073FF07F10C03012184
:10093400184601F0CDFE07F10C034FF48071184600
:100944000EF0AAFA00BF07F50277BD4680BD00BFCE
:10095400540B010880B5ADF5027D00AF07F50273B5
:10096400A3F50173186007F50273A3F580730022E1
:100974001A600433F322002118460EF056FF07F5DF
:100984000273A3F5007207F50273A3F501731968E6
:10099400104601F02FFE07F50273A3F501731B68DF
:1009A4009B78002B0AD107F584733E4AF721184639
:1009B4000EF05CFF0346A7F806326EE03A4B0022C5
:1009C4001A703A4802F0D5FD3949384802F0E3FD7F
:1009D400142003F057FF354802F0B9FD0023C7F88F
:1009E400003207F50273A3F501731B681A1D07F59E
:1009F4000273A3F501731B689B789BB219461046DA
:100A040001F0F2FED7F800320133C7F80032D7F80C
:100A14000032284A934205D8234B1B78DBB2002BC3
:100A2400F0D000E000BF214802F0A3FD1F4BB3F853
:100A34005E309BB2F72B07D81C4BB3F85E309BB2E9
:100A4400C3F1F703A7F80632B7F80632DAB207F5AE
:100A54000273A3F500735A71B7F8062207F108036D
:100A64000633134918460EF0D3FEF722002110482E
:100A74000EF0DBFE0D4802F057FE0B4B00221A70FD
:100A840007F108030121184601F022FE07F10803CB
:100A94004FF4807118460EF0FFF900BF07F5027796
:100AA400BD4680BD540B0108581500209C1700203A
:100AB40030180020DF93040080B5ADF5027D00AF4F
:100AC40007F50273A3F50173186007F50273A3F524
:100AD400FE7207F50273A3F501731968104601F05D
:100AE40089FD07F50273A3F501731B689B78002B3E
:100AF4000AD107F586733D4AF72118460EF0B6FE73
:100B04000346A7F8063249E007F50273A3F501731B
:100B14001B689B78022B40D107F50273A3F5017380
:100B24001B681B79184601F099FF034687F80532C4
:100B340007F50273A3F501731B685B79184601F08E
:100B44008DFF034687F8043297F80432002B02D055
:100B5400012B11D022E097F80532184603F0E0FD8E
:100B640097F8053207F58670214AF7210EF07EFECC
:100B74000346A7F8063211E097F80532184603F049
:100B8400B3FD97F8053207F586701A4AF7210EF07F
:100B94006DFE0346A7F8063200E000BFB7F8063240
:100BA400DAB207F50273A3F5FE735A7107F50273FF
:100BB400A3F5FE735B791A4607F5867107F10C03FA
:100BC400063318460EF024FE07F10C0301211846E3
:100BD40001F07EFD07F10C034FF4807118460EF00E
:100BE4005BF900BF07F50277BD4680BD540B0108D1
:100BF400980B0108A00B010880B5ADF5027D00AF8C
:100C040007F50273A3F50173186007F50273A3F5E2
:100C1400FE7207F50273A3F501731968104601F01B
:100C2400E9FC07F50273A3F501731B689B78002B9D
:100C34000BD107F58873284AF72118460EF016FEE3
:100C440003469BB2A7F80E311EE007F50273A3F525
:100C540001731B681A1D07F50273A3F501731B6862
:100C64009B789BB21946104601F074FD07F5027398
:100C7400A3F501731B68DB7899B207F5877207F552
:100C84008870C82301F078FDB7F80E31DAB207F5A1
:100C94000273A3F5FE735A7107F50273A3F5FE738D
:100CA4005B791A4607F5887107F10C030633184679
:100CB4000EF0AEFD07F10C030121184601F008FD0A
:100CC40007F10C034FF4807118460EF0E5F800BFED
:100CD40007F50277BD4680BD540B010880B5ADF51C
:100CE400027D00AF07F50273A3F50173186007F5E1
:100CF4000273A3F5807300221A600433F3220021E7
:100D040018460EF092FD07F50273A3F5007207F57D
:100D14000273A3F501731968104601F06BFC07F523
:100D24000273A3F501731B689B78002B0AD107F5A6
:100D340084733E4AF72118460EF098FD0346A7F83F
:100D440006326EE03A4B00221A703A4802F011FC67
:100D54003949384802F01FFC0A2003F093FD354856
:100D640002F0F5FB0023C7F8003207F50273A3F580
:100D740001731B681A1D07F50273A3F501731B6841
:100D84009B789BB21946104601F040FDD7F800321B
:100D94000133C7F80032D7F80032284A934205D805
:100DA400234B1B78DBB2002BF0D000E000BF2148BE
:100DB40002F0DFFB1F4BB3F85E309BB2F72B07D872
:100DC4001C4BB3F85E309BB2C3F1F703A7F80632AD
:100DD400B7F80632DAB207F50273A3F500735A7155
:100DE400B7F8062207F108030633134918460EF034
:100DF4000FFDF722002110480EF017FD0D4802F0F8
:100E040093FC0B4B00221A7007F1080301211846CA
:100E140001F05EFC07F108034FF4807118460EF0F0
:100E24003BF800BF07F50277BD4680BD540B0108AF
:100E340059150020EC15002028190020DF93040028
:100E440080B5ADF5027D00AF07F50273A3F501731C
:100E5400186007F50273A3F5FE7207F50273A3F594
:100E640001731968104601F0C5FB07F50273A3F579
:100E740001731B689B78002B0BD107F58873284AF4
:100E8400F72118460EF0F2FC03469BB2A7F80E3188
:100E94001EE007F50273A3F501731B681A1D07F51D
:100EA4000273A3F501731B689B789BB21946104625
:100EB40001F088FC07F50273A3F501731B68DB7866
:100EC40099B207F5877207F58870C82301F0A0FD71
:100ED400B7F80E31DAB207F50273A3F5FE735A714F
:100EE40007F50273A3F5FE735B791A4607F588715B
:100EF40007F10C03063318460EF08AFC07F10C03C5
:100F04000121184601F0E4FB07F10C034FF4807152
:100F140018460DF0C1FF00BF07F50277BD4680BD3E
:100F2400540B010880B5ADF5027D00AF07F50273DF
:100F3400A3F50173186007F50273A3F5FE7207F5B4
:100F44000273A3F501731968104601F053FB07F50A
:100F54000273A3F501731B689B78002B0BD107F573
:100F64008873284AF72118460EF080FC03469BB28A
:100F7400A7F80E311EE007F50273A3F501731B6891
:100F84001A1D07F50273A3F501731B689B789BB2C6
:100F94001946104601F0DEFB07F50273A3F5017351
:100FA4001B68DB7899B207F5877207F58870C82348
:100FB40001F0E2FBB7F80E31DAB207F50273A3F5DC
:100FC400FE735A7107F50273A3F5FE735B791A4633
:100FD40007F5887107F10C03063318460EF018FC68
:100FE40007F10C030121184601F072FB07F10C0311
:100FF4004FF4807118460DF04FFF00BF07F50277DC
:10100400BD4680BD540B010880B5ADF5027D00AF2F
:1010140007F50273A3F50173186007F50273A3F5CE
:10102400FE7207F50273A3F501731968104601F007
:10103400E1FA07F50273A3F501731B689B78002B93
:101044000BD107F58873284AF72118460EF00EFCD9
:1010540003469BB2A7F80E311EE007F50273A3F511
:1010640001731B681A1D07F50273A3F501731B684E
:101074009B789BB21946104601F06CFB07F502738E
:10108400A3F501731B68DB7899B207F5877207F53E
:101094008870C82301F070FBB7F80E31DAB207F597
:1010A4000273A3F5FE735A7107F50273A3F5FE7379
:1010B4005B791A4607F5887107F10C030633184665
:1010C4000EF0A6FB07F10C030121184601F000FB0A
:1010D40007F10C034FF4807118460DF0DDFE00BFDC
:1010E40007F50277BD4680BD540B010880B5ADF508
:1010F400027D00AF07F50273A3F50173186007F5CD
:101104000273A3F5FE7207F50273A3F50173196860
:10111400104601F06FFA07F50273A3F501731B681B
:101124009B78002B0BD107F58873284AF7211846C2
:101134000EF09CFB03469BB2A7F80E311EE007F5A8
:101144000273A3F501731B681A1D07F50273A3F557
:1011540001731B689B789BB21946104601F0FAFA9A
:1011640007F50273A3F501731B68DB7899B207F5E1
:10117400877207F58870C82301F0FEFAB7F80E31BC
:10118400DAB207F50273A3F5FE735A7107F5027319
:10119400A3F5FE735B791A4607F5887107F10C0312
:1011A400063318460EF034FB07F10C0301211846F0
:1011B40001F08EFA07F10C034FF4807118460DF01C
:1011C4006BFE00BF07F50277BD4680BD540B0108D6
:1011D40080B5ADF5027D00AF07F50273A3F5017389
:1011E400186007F50273A3F5FE7207F50273A3F501
:1011F40001731968104601F0FDF907F50273A3F5B0
:1012040001731B689B78002B0BD107F58873284A60
:10121400F72118460EF02AFB03469BB2A7F80E31BD
:101224001EE007F50273A3F501731B681A1D07F589
:101234000273A3F501731B689B789BB21946104691
:1012440001F0C0FA07F50273A3F501731B68DB789C
:1012540099B207F5877207F58870C82301F0D8FBA7
:10126400B7F80E31DAB207F50273A3F5FE735A71BB
:1012740007F50273A3F5FE735B791A4607F58871C7
:1012840007F10C03063318460EF0C2FA07F10C03FB
:101294000121184601F01CFA07F10C034FF4807188
:1012A40018460DF0F9FD00BF07F50277BD4680BD75
:1012B400540B010880B5ADF5047D00AF07F5047348
:1012C400A3F50373186007F50473A3F5FE7207F51D
:1012D4000473A3F503731968104601F08BF907F53D
:1012E4000473A3F501734D4A92E8030083E80300F5
:1012F40007F50473A3F503731B689B78002B0AD1CD
:1013040007F58A73464AF72118460EF0AFFA0346EA
:10131400A7F80E3259E007F50473A3F503731B68AD
:101324009B78022B50D107F50473A3F503731B6854
:101334001B79184601F092FB034687F80D3207F536
:101344000473A3F503731B685B79184601F086FBED
:10135400034687F80C3297F80C32002B02D0012B8D
:1013640019D032E097F80D3207F50472A2F5017234
:10137400D35C9BB2002219462A4803F029FF97F850
:101384000D3207F58A70284AF7210EF06FFA0346EA
:10139400A7F80E3219E097F80D3207F50472A2F59A
:1013A4000172D35C9BB2012219461E4803F010FF60
:1013B40097F80D3207F58A701C4AF7210EF056FA99
:1013C4000346A7F80E3200E000BFB7F80E32DAB2D7
:1013D40007F50473A3F5FE735A7107F50473A3F5B7
:1013E400FE735B791A4607F58A7107F11403063315
:1013F40018460EF00DFA07F114030121184601F006
:1014040067F907F114034FF4807118460DF044FD99
:1014140000BF07F50477BD4680BD00BFA80B0108D7
:10142400540B010800100242980B0108A00B01089C
:1014340080B5ADF5027D00AF07F50273A3F5017326
:1014440018600023C7F80C3107F58873F3220021D4
:1014540018460EF0EAF907F50273A3F5FE7207F5D4
:101464000273A3F501731968104601F0C3F807F578
:101474000273A3F501731B689B78002B0AD107F54F
:1014840086731E4AF72118460EF0F0F90346A7F8B2
:1014940006320AE01A4B1B6807F58670194A0821C0
:1014A4000EF0E4F90346A7F80632B7F80632DAB2CA
:1014B40007F50273A3F5FE735A7107F50273A3F5DA
:1014C400FE735B791A4607F5867107F10C03063340
:1014D40018460EF09DF907F10C030121184601F09E
:1014E400F7F807F10C034FF4807118460DF0D4FCA3
:1014F40000BF07F50277BD4680BD00BF540B01084D
:101504002C180020B00B010880B5ADF5027D00AFAA
:1015140007F50273A3F50173186007F50273A3F5C9
:10152400FE7207F50273A3F501731968104601F002
:1015340061F807F50273A3F501731B689B78002B10
:101544000BD107F58873284AF72118460EF08EF957
:1015540003469BB2A7F80E311EE007F50273A3F50C
:1015640001731B681A1D07F50273A3F501731B6849
:101574009B789BB21946104601F0ECF807F502730C
:10158400A3F501731B68DB7899B207F5877207F539
:101594008870C82301F0F0F8B7F80E31DAB207F515
:1015A4000273A3F5FE735A7107F50273A3F5FE7374
:1015B4005B791A4607F5887107F10C030633184660
:1015C4000EF026F907F10C030121184601F080F80A
:1015D40007F10C034FF4807118460DF05DFC00BF59
:1015E40007F50277BD4680BD540B010880B5ADF503
:1015F400027D00AF07F50273A3F50173186007F5C8
:101604000273A3F5FE7207F50273A3F5017319685B
:10161400104600F0EFFF07F50273A3F501731B6892
:101624009B78002B0BD107F58873284AF7211846BD
:101634000EF01CF903469BB2A7F80E311EE007F525
:101644000273A3F501731B681A1D07F50273A3F552
:1016540001731B689B789BB21946104601F07AF817
:1016640007F50273A3F501731B68DB7899B207F5DC
:10167400877207F58870C82301F07EF8B7F80E3139
:10168400DAB207F50273A3F5FE735A7107F5027314
:10169400A3F5FE735B791A4607F5887107F10C030D
:1016A400063318460EF0B4F807F10C03012118466E
:1016B40001F00EF807F10C034FF4807118460DF099
:1016C400EBFB00BF07F50277BD4680BD540B010854
:1016D40080B5ADF5027D00AF07F50273A3F5017384
:1016E400186007F50273A3F5FE7207F50273A3F5FC
:1016F40001731968104600F07DFF07F50273A3F526
:1017040001731B689B78002B0BD107F58873284A5B
:10171400F72118460EF0AAF803469BB2A7F80E313B
:101724001EE007F50273A3F501731B681A1D07F584
:101734000273A3F501731B689B789BB2194610468C
:1017440001F008F807F50273A3F501731B68DB7851
:1017540099B207F5877207F58870C82301F00CF871
:10176400B7F80E31DAB207F50273A3F5FE735A71B6
:1017740007F50273A3F5FE735B791A4607F58871C2
:1017840007F10C03063318460EF042F807F10C0378
:101794000121184600F09CFF07F10C034FF48071FF
:1017A40018460DF079FB00BF07F50277BD4680BDF2
:1017B400540B010880B5ADF5027D00AF07F5027347
:1017C400A3F50173186007F50273A3F5FE7207F51C
:1017D4000273A3F501731968104600F00BFF07F5B7
:1017E4000273A3F501731B689B78002B0BD107F5DB
:1017F4008873284AF72118460EF038F803469BB23E
:10180400A7F80E311EE007F50273A3F501731B68F8
:101814001A1D07F50273A3F501731B689B789BB22D
:101824001946104600F0CEFF07F50273A3F50173C5
:101834001B68DB7899B207F5877207F58870C823AF
:1018440001F0E6F8B7F80E31DAB207F50273A3F542
:10185400FE735A7107F50273A3F5FE735B791A469A
:1018640007F5887107F10C03063318460DF0D0FF15
:1018740007F10C030121184600F02AFF07F10C03BD
:101884004FF4807118460DF007FB00BF07F502778F
:10189400BD4680BD540B010880B5ADF5027D00AF97
:1018A40007F50273A3F50173186007F50273A3F536
:1018B400FE7207F50273A3F501731968104600F070
:1018C40099FE07F50273A3F501731B689B78002B3F
:1018D4000BD107F58873284AF72118460DF0C6FF87
:1018E40003469BB2A7F80E311EE007F50273A3F579
:1018F40001731B681A1D07F50273A3F501731B68B6
:101904009B789BB21946104600F024FF07F502733A
:10191400A3F501731B68DB7899B207F5877207F5A5
:101924008870C82300F028FFB7F80E31DAB207F543
:101934000273A3F5FE735A7107F50273A3F5FE73E0
:101944005B791A4607F5887107F10C0306331846CC
:101954000DF05EFF07F10C030121184600F0B8FEFC
:1019640007F10C034FF4807118460DF095FA00BF8F
:1019740007F50277BD4680BD540B010880B5ADF56F
:10198400027D00AF07F50273A3F50173186007F534
:101994000273A3F5FE7207F50273A3F501731968C8
:1019A400104600F027FE07F50273A3F501731B68C8
:1019B4009B78002B0BD107F58873284AF72118462A
:1019C4000DF054FF03469BB2A7F80E311EE007F555
:1019D4000273A3F501731B681A1D07F50273A3F5BF
:1019E40001731B689B789BB21946104600F0B2FE47
:1019F40007F50273A3F501731B68DB7899B207F549
:101A0400877207F58870C82300F0B6FEB7F80E3168
:101A1400DAB207F50273A3F5FE735A7107F5027380
:101A2400A3F5FE735B791A4607F5887107F10C0379
:101A3400063318460DF0ECFE07F10C03012118469D
:101A440000F046FE07F10C034FF4807118460DF0C8
:101A540023FA00BF07F50277BD4680BD540B010889
:101A640080B5ADF5027D00AF07F50273A3F50173F0
:101A7400186007F50273A3F5FE7207F50273A3F568
:101A840001731968104600F0B5FD07F50273A3F55C
:101A940001731B689B78002B0BD107F58873284AC8
:101AA400F72118460DF0E2FE03469BB2A7F80E316B
:101AB4001EE007F50273A3F501731B681A1D07F5F1
:101AC4000273A3F501731B689B789BB219461046F9
:101AD40000F078FE07F50273A3F501731B68DB7849
:101AE40099B207F5877207F58870C82300F090FF54
:101AF400B7F80E31DAB207F50273A3F5FE735A7123
:101B040007F50273A3F5FE735B791A4607F588712E
:101B140007F10C03063318460DF07AFE07F10C03A7
:101B24000121184600F0D4FD07F10C034FF4807135
:101B340018460DF0B1F900BF07F50277BD4680BD28
:101B4400540B010880B5ADF5027D00AF07F50273B3
:101B5400A3F50173186007F50273A3F5FE7207F588
:101B64000273A3F501731968104600F043FD07F5ED
:101B74000273A3F501731B689B78002B0BD107F547
:101B84008873284AF72118460DF070FE03469BB26D
:101B9400A7F80E311EE007F50273A3F501731B6865
:101BA4001A1D07F50273A3F501731B689B789BB29A
:101BB4001946104600F0CEFD07F50273A3F5017334
:101BC4001B68DB7899B207F5877207F58870C8231C
:101BD40000F0D2FDB7F80E31DAB207F50273A3F5BF
:101BE400FE735A7107F50273A3F5FE735B791A4607
:101BF40007F5887107F10C03063318460DF008FE4B
:101C040007F10C030121184600F062FD07F10C03F3
:101C14004FF4807118460DF03FF900BF07F50277C5
:101C2400BD4680BD540B010880B5ADF5027D00AF03
:101C340007F50273A3F50173186007F50273A3F5A2
:101C4400FE7207F50273A3F501731968104600F0DC
:101C5400D1FC07F50273A3F501731B689B78002B75
:101C64000BD107F58873284AF72118460DF0FEFDBD
:101C740003469BB2A7F80E311EE007F50273A3F5E5
:101C840001731B681A1D07F50273A3F501731B6822
:101C94009B789BB21946104600F094FD07F5027339
:101CA400A3F501731B68DB7899B207F5877207F512
:101CB4008870C82300F0ACFEB7F80E31DAB207F52D
:101CC4000273A3F5FE735A7107F50273A3F5FE734D
:101CD4005B791A4607F5887107F10C030633184639
:101CE4000DF096FD07F10C030121184600F0F0FCFD
:101CF40007F10C034FF4807118460DF0CDF800BFC6
:101D040007F50277BD4680BD540B010880B5ADF5DB
:101D1400027D00AF07F50273A3F50173186007F5A0
:101D24000273A3F5FE7207F50273A3F50173196834
:101D3400104600F05FFC07F50273A3F501731B68FE
:101D44009B78002B0BD107F58873284AF721184696
:101D54000DF08CFD03469BB2A7F80E311EE007F58B
:101D64000273A3F501731B681A1D07F50273A3F52B
:101D740001731B689B789BB21946104600F0EAFC7D
:101D840007F50273A3F501731B68DB7899B207F5B5
:101D9400877207F58870C82300F0EEFCB7F80E319F
:101DA400DAB207F50273A3F5FE735A7107F50273ED
:101DB400A3F5FE735B791A4607F5887107F10C03E6
:101DC400063318460DF024FD07F10C0301211846D3
:101DD40000F07EFC07F10C034FF4807118460DF0FF
:101DE4005BF800BF07F50277BD4680BD540B0108C0
:101DF40080B5ADF5027D00AF07F50273A3F501735D
:101E0400186007F50273A3F5FE7207F50273A3F5D4
:101E140001731968104600F0EDFB07F50273A3F592
:101E240001731B689B78002B0BD107F58873284A34
:101E3400F72118460DF01AFD03469BB2A7F80E31A0
:101E44001EE007F50273A3F501731B681A1D07F55D
:101E54000273A3F501731B689B789BB21946104665
:101E640000F0B0FC07F50273A3F501731B68DB787F
:101E740099B207F5877207F58870C82300F0C8FD8A
:101E8400B7F80E31DAB207F50273A3F5FE735A718F
:101E940007F50273A3F5FE735B791A4607F588719B
:101EA40007F10C03063318460DF0B2FC07F10C03DE
:101EB4000121184600F00CFC07F10C034FF480716B
:101EC40018460CF0E9FF00BF07F50277BD4680BD58
:101ED400540B010880B5ADF5027D00AF07F5027320
:101EE400A3F50173186007F50273A3F5FE7207F5F5
:101EF4000273A3F501731968104600F07BFB07F524
:101F04000273A3F501731B689B78002B0BD107F5B3
:101F14008873284AF72118460DF0A8FC03469BB2A3
:101F2400A7F80E311EE007F50273A3F501731B68D1
:101F34001A1D07F50273A3F501731B689B789BB206
:101F44001946104600F006FC07F50273A3F5017369
:101F54001B68DB7899B207F5877207F58870C82388
:101F640000F00AFCB7F80E31DAB207F50273A3F5F4
:101F7400FE735A7107F50273A3F5FE735B791A4673
:101F840007F5887107F10C03063318460DF040FC81
:101F940007F10C030121184600F09AFB07F10C032A
:101FA4004FF4807118460CF077FF00BF07F50277F5
:101FB400BD4680BD540B010880B5ADF5027D00AF70
:101FC40007F50273A3F50173186007F50273A3F50F
:101FD400FE7207F50273A3F501731968104600F049
:101FE40009FB07F50273A3F501731B689B78002BAB
:101FF4000BD107F58873284AF72118460DF036FCF3
:1020040003469BB2A7F80E311EE007F50273A3F551
:1020140001731B681A1D07F50273A3F501731B688E
:102024009B789BB21946104600F0CCFB07F502736F
:10203400A3F501731B68DB7899B207F5877207F57E
:102044008870C82300F0E4FCB7F80E31DAB207F563
:102054000273A3F5FE735A7107F50273A3F5FE73B9
:102064005B791A4607F5887107F10C0306331846A5
:102074000DF0CEFB07F10C030121184600F028FBFC
:1020840007F10C034FF4807118460CF005FF00BFF4
:1020940007F50277BD4680BD540B010880B5ADF548
:1020A400027D00AF07F50273A3F50173186007F50D
:1020B4000273A3F5FE7207F50273A3F501731968A1
:1020C400104600F097FA07F50273A3F501731B6835
:1020D4009B78002B0BD107F58873284AF721184603
:1020E4000DF0C4FB03469BB2A7F80E311EE007F5C2
:1020F4000273A3F501731B681A1D07F50273A3F598
:1021040001731B689B789BB21946104600F022FBB2
:1021140007F50273A3F501731B68DB7899B207F521
:10212400877207F58870C82300F026FBB7F80E31D4
:10213400DAB207F50273A3F5FE735A7107F5027359
:10214400A3F5FE735B791A4607F5887107F10C0352
:10215400063318460DF05CFB07F10C030121184609
:1021640000F0B6FA07F10C034FF4807118460CF036
:1021740093FE00BF07F50277BD4680BD540B0108EE
:1021840080B5ADF5027D00AF07F50273A3F50173C9
:10219400186007F50273A3F5FE7207F50273A3F541
:1021A40001731968104600F025FA07F50273A3F5C8
:1021B40001731B689B78002B0BD107F58873284AA1
:1021C400F72118460DF052FB03469BB2A7F80E31D7
:1021D4001EE007F50273A3F501731B681A1D07F5CA
:1021E4000273A3F501731B689B789BB219461046D2
:1021F40000F0E8FA07F50273A3F501731B68DB78B6
:1022040099B207F5877207F58870C82300F000FCBF
:10221400B7F80E31DAB207F50273A3F5FE735A71FB
:1022240007F50273A3F5FE735B791A4607F5887107
:1022340007F10C03063318460DF0EAFA07F10C0314
:102244000121184600F044FA07F10C034FF48071A1
:1022540018460CF021FE00BF07F50277BD4680BD8D
:10226400540B010880B5ADF5027D00AF07F502738C
:10227400A3F50173186007F50273A3F5FE7207F561
:102284000273A3F501731968104600F0B3F907F55A
:102294000273A3F501731B689B78002B0BD107F520
:1022A4008873284AF72118460DF0E0FA03469BB2DA
:1022B400A7F80E311EE007F50273A3F501731B683E
:1022C4001A1D07F50273A3F501731B689B789BB273
:1022D4001946104600F03EFA07F50273A3F50173A0
:1022E4001B68DB7899B207F5877207F58870C823F5
:1022F40000F042FAB7F80E31DAB207F50273A3F52B
:10230400FE735A7107F50273A3F5FE735B791A46DF
:1023140007F5887107F10C03063318460DF078FAB7
:1023240007F10C030121184600F0D2F907F10C0360
:102334004FF4807118460CF0AFFD00BF07F502772B
:10234400BD4680BD540B010880B5ADF5027D00AFDC
:1023540007F50273A3F50173186007F50273A3F57B
:10236400FE7207F50273A3F501731968104600F0B5
:1023740041F907F50273A3F501731B689B78002BE1
:102384000BD107F58873284AF72118460DF06EFA29
:1023940003469BB2A7F80E311EE007F50273A3F5BE
:1023A40001731B681A1D07F50273A3F501731B68FB
:1023B4009B789BB21946104600F004FA07F50273A5
:1023C400A3F501731B68DB7899B207F5877207F5EB
:1023D4008870C82300F01CFBB7F80E31DAB207F599
:1023E4000273A3F5FE735A7107F50273A3F5FE7326
:1023F4005B791A4607F5887107F10C030633184612
:102404000DF006FA07F10C030121184600F060F9FB
:1024140007F10C034FF4807118460CF03DFD00BF2A
:1024240007F50277BD4680BD540B010880B5ADF5B4
:10243400027D00AF07F50273A3F50173186007F579
:102444000273A3F5FE7207F50273A3F5017319680D
:10245400104600F0CFF807F50273A3F501731B686B
:102464009B78002B0BD107F58873284AF72118466F
:102474000DF0FCF903469BB2A7F80E311EE007F5F8
:102484000273A3F501731B681A1D07F50273A3F504
:1024940001731B689B789BB21946104600F092F9B1
:1024A40007F50273A3F501731B68DB7899B207F58E
:1024B400877207F58870C82300F0AAFAB7F80E31BE
:1024C400DAB207F50273A3F5FE735A7107F50273C6
:1024D400A3F5FE735B791A4607F5887107F10C03BF
:1024E400063318460DF094F907F10C030121184640
:1024F40000F0EEF807F10C034FF4807118460CF06D
:10250400CBFC00BF07F50277BD4680BD540B010824
:1025140080B5ADF5027D00AF07F50273A3F5017335
:10252400186007F50273A3F5FE7207F50273A3F5AD
:1025340001731968104600F05DF807F50273A3F5FE
:1025440001731B689B78002B0BD107F58873284A0D
:10255400F72118460DF08AF903469BB2A7F80E310D
:102564001EE007F50273A3F501731B681A1D07F536
:102574000273A3F501731B689B789BB2194610463E
:1025840000F020F907F50273A3F501731B68DB78EB
:1025940099B207F5877207F58870C82300F038FAF6
:1025A400B7F80E31DAB207F50273A3F5FE735A7168
:1025B40007F50273A3F5FE735B791A4607F5887174
:1025C40007F10C03063318460DF022F907F10C034A
:1025D4000121184600F07CF807F10C034FF48071D8
:1025E40018460CF059FC00BF07F50277BD4680BDC4
:1025F400540B010880B5C2B000AF07F58473A3F58E
:102604008273186007F58473A3F58473196007F562
:102614008473A3F5807324221A7007F58473A3F5D9
:1026240084731B681A7807F58473A3F580735A7052
:1026340007F58473A3F584731B685A7807F58473CC
:10264400A3F580739A7007F58473A3F580730E2243
:10265400DA7007F108030633F722002118460DF05B
:10266400E4F807F58473A3F5807300221A7107F563
:102674008473A3F5807300225A7107F58473A3F55C
:102684008073002283F8FD20002283F8FE2007F5E2
:102694008473A3F580730D2283F8FF2007F58473F8
:1026A400A3F582731A6807F58473A3F58073104643
:1026B40019464FF480731A460DF0AAF807F584738F
:1026C400A3F58273186807F58477BD4680BD0000C2
:1026D40080B485B000AF78600B46FB704FF6FF7393
:1026E400FB810023BB81FB78012B05D17B685B79DF
:1026F4009BB20633BB8104E07B681B799BB2063333
:10270400BB8101237B8114E0FB891B021AB2FB8984
:102714001B0A9BB218467B897968CB5C43400C4901
:1027240031F813301BB253401BB2FB817B89013358
:102734007B817A89BB899A42E6D37B68FA89A3F8BC
:10274400FD2000BF1437BD465DF8047B704700BF11
:10275400F00F002080B582B000AF78600B467B801C
:102764007A8864237968034807F0C2F900BF083700
:10277400BD4680BD7C16002080B586B000AFF860F1
:102784007A603B600B467B817A893B68F9680C4828
:1027940007F044FA0346FB75FB7D002B02D0FB7D5A
:1027A400032B08D1064BB3F85E309BB27A89D31A57
:1027B4009AB27B681A8000BF1837BD4680BD00BF3F
:1027C4007C16002080B582B000AF78600B467B8019
:1027D4007A8864237968034807F08AF900BF0837C8
:1027E400BD4680BD0C17002080B582B000AF786074
:1027F4000B467B807A8864237968034807F078F96C
:1028040000BF0837BD4680BD9C17002080B582B04C
:1028140000AF78600B467B807A886423796803482C
:1028240007F066F900BF0837BD4680BDEC150020EF
:1028340080B58AB002AFF860B9603B601346FB8094
:10284400FB68D3F88830202B40F0DC80BB68002B79
:1028540002D0FB88002B01D10123D4E0FB6893F85C
:102864008030012B01D10223CDE0FB68012283F8E3
:102874008020FB680022C3F88C20FB682222C3F866
:102884008820FB680022DA6601F0F0FF7861FB68BB
:10289400FA88A3F85C20FB68FA88A3F85E20FB683A
:1028A4009B68B3F5805F0ED1FB681B69002B05D1D3
:1028B400FB6840F2FF12A3F860202DE0FB68FF22C2
:1028C400A3F8602028E0FB689B68002B0DD1FB680F
:1028D4001B69002B04D1FB68FF22A3F860201BE0D6
:1028E400FB687F22A3F8602016E0FB689B68B3F1C5
:1028F400805F0DD1FB681B69002B04D1FB687F222C
:10290400A3F8602008E0FB683F22A3F8602003E0FE
:10291400FB680022A3F86020FB68B3F860307B8278
:10292400FB689B68B3F5805F08D1FB681B69002BCB
:1029340004D10023FB61BB68BB6103E0BB68FB619E
:102944000023BB61FB68002283F880204EE03B68D3
:1029540000937B6900222021F86807F020FE0346DB
:10296400002B01D003234EE0FB69002B1AD1FB6836
:102974001B685B6A9AB27B8A13409AB2BB691A805D
:10298400BB691B880D2B09D1FB68B3F85E309BB281
:10299400013B9AB2FB68A3F85E202DE0BB690233C9
:1029A400BB611AE0FB681B685B6ADAB27B8ADBB244
:1029B4001340DAB2FB691A70FB691B780D2B09D13D
:1029C400FB68B3F85E309BB2013B9AB2FB68A3F894
:1029D4005E2011E0FB690133FB61FB68B3F85E30F4
:1029E4009BB2013B9AB2FB68A3F85E20FB68B3F884
:1029F4005E309BB2002BAAD1FB682022C3F888204A
:102A0400002300E0022318462037BD4680BD0000A5
:102A140080B586B000AFF8607A603B600B467B817E
:102A24007A893B68F9680C48FFF702FF0346FB7597
:102A3400FB7D002B02D0FB7D032B08D1064BB3F8A2
:102A44005E309BB27A89D31A9AB27B681A8000BF2F
:102A54001837BD4680BD00BF0C17002080B485B078
:102A640000AF0346FB710023FB73FB792F2B06D9C0
:102A7400FB79392B03D8FB79303BFB7367E0FB7997
:102A8400413B252B60D801A252F823F0292B0008E2
:102A94002F2B0008352B00083B2B0008412B000886
:102AA400472B00084D2B00084D2B00084D2B000828
:102AB4004D2B00084D2B00084D2B00084D2B000812
:102AC4004D2B00084D2B00084D2B00084D2B000802
:102AD4004D2B00084D2B00084D2B00084D2B0008F2
:102AE4004D2B00084D2B00084D2B00084D2B0008E2
:102AF4004D2B00084D2B00084D2B00084D2B0008D2
:102B04004D2B00084D2B00084D2B0008292B0008E5
:102B14002F2B0008352B00083B2B0008412B000805
:102B2400472B00080A23FB7311E00B23FB730EE011
:102B34000C23FB730BE00D23FB7308E00E23FB73E4
:102B440005E00F23FB7302E00023FB7300BFFB7B54
:102B540018461437BD465DF8047B704780B500AF56
:102B6400204B214A1A601F4B00225A601D4B4FF420
:102B740040729A601B4B0022DA601A4B00221A74CE
:102B8400184B00225A74174B00229A74154B0122D9
:102B94005A61144B01229A61124B0222DA61114BE1
:102BA40002221A620F4B01225A620E4B01229A62D0
:102BB4000C4B0122DA620B4B01221A63094B0022EF
:102BC4005A63084B00229A63064B0022DA630548D5
:102BD40001F0D6FF0346002B01D000F0B3FC00BF88
:102BE40080BD00BFF013002000A4004080B5AEB04B
:102BF40000AF786007F1A40300221A605A609A605B
:102C0400DA601A6107F110039422002118460CF0CF
:102C14000CFE7B681B68224A93423CD14FF0007340
:102C24003B614FF08073BB6707F11003184605F052
:102C34000BFD0346002B01D000F084FC194BDB6D27
:102C4400184A43F40073D365164BDB6D03F4007329
:102C5400FB60FB68134BDB6C124A43F00803D3643C
:102C6400104BDB6C03F00803BB60BB680323C7F89D
:102C7400A4300223C7F8A8300023C7F8AC300023DF
:102C8400C7F8B0300923C7F8B43007F1A4031946D4
:102C9400054802F01DF900BFB837BD4680BD00BF2E
:102CA40000A4004000100240000C024280B58CB029
:102CB40000AF07F11C0300221A605A609A60DA60C0
:102CC4001A61AB4BDB6CAA4A43F01003D364A84BE4
:102CD400DB6C03F01003BB61BB69A54BDB6CA44A3E
:102CE40043F00403D364A24BDB6C03F004037B6165
:102CF4007B699F4BDB6C9E4A43F02003D3649C4B5F
:102D0400DB6C03F020033B613B69994BDB6C984A15
:102D140043F00103D364964BDB6C03F00103FB60C7
:102D2400FB68934BDB6C924A43F00203D364904BF1
:102D3400DB6C03F00203BB60BB688D4BDB6C8C4A1D
:102D440043F04003D3648A4BDB6C03F040037B60A5
:102D54007B6804F077FC864BDB6C854A43F0080300
:102D6400D364834BDB6C03F008033B603B680022B5
:102D740048F6FF717F4802F02BFA00224FF47C6181
:102D84007D4802F025FA002203217C4802F020FA53
:102D940001220421794802F01BFA0122102178480B
:102DA40002F016FA0022E721764802F011FA012215
:102DB4000221754802F00CFA01224FF4E0416D48FB
:102DC40002F006FA00220C216F4802F001FA48F6DC
:102DD400FF73FB6101233B6200237B620023BB6220
:102DE40007F11C031946634802F072F83C23FB61A7
:102DF40000233B6200237B6207F11C0319465E48F3
:102E040002F066F84FF47073FB6101233B62012307
:102E14007B620023BB6207F11C031946564802F08B
:102E240057F84FF44063FB6101233B6200237B624C
:102E34000023BB6207F11C0319464F4802F048F80F
:102E44000323FB6101233B6202237B620023BB62F9
:102E540007F11C031946494802F03AF80423FB61C0
:102E640001233B6201237B620023BB6207F11C0345
:102E74001946424802F02CF80823FB6100233B6208
:102E840001237B6207F11C0319463C4802F020F839
:102E94001023FB6101233B6201237B620023BB629D
:102EA40007F11C031946364802F012F8E723FB61C8
:102EB40001233B6200237B620023BB6207F11C03F6
:102EC4001946304802F004F80123FB6100233B62F9
:102ED40001237B6207F11C0319462B4801F0F8FF1C
:102EE4000223FB6101233B6201237B620023BB625B
:102EF40007F11C031946244801F0EAFF4FF4E043AC
:102F0400FB6101233B6201237B620023BB6207F167
:102F14001C031946174801F0DBFF0C23FB61012356
:102F24003B6202237B620023BB6207F11C03194648
:102F3400154801F0CDFF4023FB6100233B620023D1
:102F44007B6207F11C031946104801F0C1FF1023EE
:102F5400FB610F4B3B6200237B6207F11C031946A4
:102F6400084801F0B5FF00BF3037BD4680BD00BF43
:102F74000010024000100242001402420008024203
:102F8400000002420004024200180242000C024205
:102F94000000111080B500AF1B4B1C4A1A601A4B7D
:102FA4001B4A5A60184B00229A60174B0122DA60C0
:102FB400154B00221A61144B00225A61124B002255
:102FC4009A61114B0022DA610F4B00221A620E48FB
:102FD40002F016F90346002B01D000F0B3FA0021E9
:102FE400094802F06DFD0346002B01D000F0AAFA57
:102FF4000021054802F0AFFD0346002B01D000F08C
:10300400A1FA00BF80BD00BF54140020005400404A
:10301400CC88802080B5AEB000AF786007F1A403FF
:1030240000221A605A609A60DA601A6107F110038C
:103034009422002118460CF0F8FB7B681B68224A96
:1030440093423DD140233B610023FB6507F110030C
:10305400184605F0F9FA0346002B01D000F072FA85
:103064001A4BDB6C194A43F04003D364174BDB6CF7
:1030740003F04003FB60FB6804F0E4FA4FF4C04340
:10308400C7F8A4301223C7F8A8300123C7F8AC301E
:103094000023C7F8B0300423C7F8B43007F1A40301
:1030A40019460B4801F014FF084B9B6D074A43F483
:1030B40000139365054B9B6D03F40013BB60BB6861
:1030C40000BFB837BD4680BD005400400010024028
:1030D4000018024280B500AF02F08AFD0346002BBF
:1030E40001D000F02FFA00BF80BD000080B582B08F
:1030F40000AF7860391D4FF6FF730122034806F0D4
:10310400F7FC7B6818460837BD4680BD5C15002077
:1031140080B586B000AFF860B9607A6000237B6147
:1031240009E0BB685A1CBA601B781846FFF7DEFF3B
:103134007B6901337B617A697B689A42F1DB7B6846
:1031440018461837BD4680BD80B483B000AF2A4B03
:10315400D3F89430002B02DA0123FB713DE0264BB7
:10316400D3F8943003F08043002B02D00223FB7188
:1031740033E0214BD3F8943003F00053002B02D0FA
:103184000323FB7129E01C4BD3F8943003F08053E4
:10319400002B02D00423FB711FE0174BD3F89430AB
:1031A40003F08063002B02D00723FB7115E0124B60
:1031B400D3F8943003F00073002B02D00523FB7185
:1031C4000BE00D4BD3F8943003F00063002B02D0D6
:1031D4000823FB7101E00023FB71074BD3F8943003
:1031E400054A43F40003C2F89430FB7918460C37BF
:1031F400BD465DF8047B70470010024080B485B082
:1032040000AF0346FB71204BFB60FB79082B30D8E1
:1032140001A252F823F000BF4132000847320008EF
:103224004D32000853320008593200086B3200084E
:103234005F3200086532000871320008134BFB60EE
:103244001AE0134BFB6017E0124BFB6014E0124BC7
:10325400FB6011E0114BFB600EE0114BFB600BE0D7
:10326400104BFB6008E0104BFB6005E00F4BFB606C
:1032740002E0064BFB6000BFFB6818461437BD46EE
:103284005DF8047B704700BFB40B0108B80B01085C
:10329400C00B0108D00B0108E80B0108040C01085D
:1032A400140C0108440C0108600C01087C0C010892
:1032B40080B500AF0E2001F017FA642001F0E2FAA5
:1032C400062001F011FA642001F0DCFA064800F04F
:1032D40050F9064800F04DF9072001F005FA642082
:1032E40001F0D0FA00BF80BD9C170020EC1500202F
:1032F400B0B5C0B000AF01F04EFAFFF725FF0346AA
:103304001A46574B1A7000F0CBF8FFF7CFFCFFF7C3
:1033140025FC00F085FD00F0CFFD00F019FE00F063
:1033240067FE00F0B5FE0BF0F1FCFFF7D3FEFFF7EC
:1033340031FE00F0A9FA00F0F9FC494B1B7818465D
:10334400FFF75CFF0346194646480CF077FA4649F6
:1033540046480CF073FA01F0B9FA0346194644489A
:103364000CF06CFA01F0CAFA0346194641480CF015
:1033740065FA01F0D1FA044601F0DAFA054601F0E3
:10338400E3FA03462A4621463B480CF057FA01F07B
:10339400A7FA0346194639480CF050FA04F0A0FF86
:1033A4000346194636480CF049FA05F035F8034649
:1033B400194634480CF042FA0BF0A6FD01F06EF900
:1033C40000224FF48061304801F002FF00224FF4E4
:1033D40000612D4801F0FCFE01224FF400612B48EE
:1033E40001F0F6FE01224FF40071284801F0F0FECE
:1033F400FFF75EFF264B1B68264A1360264B1B789B
:10340400012B29D13B4619462448FDF7A1F8034670
:1034140087F8FF3097F9FF30002B1DD13B46184643
:10342400FDF7DAF8034687F8FE3097F9FE300633E5
:10343400062B13D801A252F823F000BF6134000810
:103444006134000861340008613400086134000804
:10345400613400086134000800BFCFE700BFCDE746
:10346400A0140020940C0108B00C0108CC0C010835
:10347400E40C0108040D01081C0D01083C0D0108B1
:103484005C0D0108880D010800140242001002427C
:1034940000FC07082C180020042E0020042D002016
:1034A40080B598B000AF07F11803482200211846F0
:1034B4000CF0BBF93B1D00221A605A609A60DA6076
:1034C4001A61002004F052F80346002B01D000F0EA
:1034D40039F82223BB614FF480737B6201233B6480
:1034E4004023BB6202237B640223BB640123FB648D
:1034F4000D233B6507237B650223BB650223FB6524
:1035040007F11803184604F0E1F80346002B01D034
:1035140000F018F80F237B600323BB600023FB60DB
:1035240000233B6100237B613B1D0521184604F009
:10353400AFFD0346002B01D000F004F800BF603754
:10354400BD4680BD80B400AF72B600BFFEE780B454
:1035540083B000AF78607B681B681A687B681B685F
:1035640042F001021A6000BF0C37BD465DF8047BCF
:10357400704780B483B000AF78607B681B681A68BA
:103584007B681B6822F001021A6000BF0C37BD463D
:103594005DF8047B704780B582B000AF7860396015
:1035A400F7223968786800F031F90346002B01D01E
:1035B400FFF7C8FF00BF0837BD4680BD80B485B0A3
:1035C40000AF786039607B68B3F86030FB8100231A
:1035D4007B737B681B685B6A7B817B89D9B2FB89BF
:1035E400DAB27B689B6D0A40D2B21A707B689B6D1D
:1035F4001B787B737B689B6D5A1C7B689A657B6820
:10360400B3F85E309BB2013B9AB27B68A3F85E20AC
:103614007B68B3F85E309BB2002B08D17B689A6D4F
:103624007B68B3F85C305B421A447B689A657B7BA9
:103634000A2B02D13B6801221A7000BF1437BD4621
:103644005DF8047B704780B485B000AFF860B96062
:103654001346FB80FB68BA689A65FB68FA88A3F88E
:103664005C20FB68FA88A3F85E20FB6800221A67D6
:10367400FB689B68B3F5805F0ED1FB681B69002B68
:1036840005D1FB6840F2FF12A3F860202DE0FB682F
:10369400FF22A3F8602028E0FB689B68002B0DD173
:1036A400FB681B69002B04D1FB68FF22A3F8602090
:1036B4001BE0FB687F22A3F8602016E0FB689B6890
:1036C400B3F1805F0DD1FB681B69002B04D1FB684B
:1036D4007F22A3F8602008E0FB683F22A3F8602063
:1036E40003E0FB680022A3F86020FB680022C3F813
:1036F4008C20FB68002283F88020FB681B689A6991
:10370400FB681B6842F008029A61FB681B681A6830
:10371400FB681B6842F020021A6000231846143725
:10372400BD465DF8047B704780B483B000AF786019
:103734007B6800229A657B680022A3F85C207B6882
:103744000022A3F85E207B6800221A677B689B68CE
:10375400B3F5805F0ED17B681B69002B05D17B68B4
:1037640040F2FF12A3F860202DE07B68FF22A3F84B
:10377400602028E07B689B68002B0DD17B681B6967
:10378400002B04D17B68FF22A3F860201BE07B6838
:103794007F22A3F8602016E07B689B68B3F1805F0A
:1037A4000DD17B681B69002B04D17B687F22A3F8B1
:1037B400602008E07B683F22A3F8602003E07B6878
:1037C4000022A3F860207B680022C3F88C207B6869
:1037D400002283F880207B6800221A677B681B68BC
:1037E4001A687B681B6822F020021A607B681B68D9
:1037F4009A697B681B6842F008029A6100231846A4
:103804000C37BD465DF8047B7047000080B584B07A
:1038140000AFF860B9601346FB80BB68002B02D090
:10382400FB88002B01D1012328E0FB6893F880304A
:10383400012B01D1022321E0FB68012283F88020BF
:10384400FB680022DA66FB681B680E4A93420ED0BE
:10385400FB681B685B6803F40003002B07D0FB685C
:103864001B681A68FB681B6842F080621A60FB8858
:103874001A46B968F868FFF7E6FE0346184610379B
:10388400BD4680BD0080004080B500AF1B4B1C4A84
:103894001A601A4B4FF482725A60184B00229A60D5
:1038A400164B4FF4E062DA60144B00221A61134B9A
:1038B40000225A61114B4FF400729A610F4B282277
:1038C400DA610E4B00221A620C4B00225A620B4B37
:1038D40000229A62094B0722DA62084B00221A631B
:1038E400064B08225A63054805F0C4FB0346002B27
:1038F40001D0FFF727FE00BF80BD00BFA414002045
:103904000030014080B58AB000AF786007F114033D
:1039140000221A605A609A60DA601A617B681B6838
:103924001F4A934237D11F4B1B6E1E4A43F48053E8
:1039340013661C4B1B6E03F480533B613B69194BAC
:10394400DB6C184A43F00103D364164BDB6C03F0C1
:103954000103FB60FB68A0237B610223BB6100239E
:10396400FB6100233B6205237B6207F114031946C4
:103974000D4801F0ADFA40237B610223BB610123B2
:10398400FB6100233B6205237B6207F114031946A4
:10399400054801F09DFA00BF2837BD4680BD00BF31
:1039A40000300140001002400000024280B582B0A5
:1039B40000AF0F4B1B6E0E4A43F0010313660C4B12
:1039C4001B6E03F001037B607B68094B9B6D084A07
:1039D40043F080539365064B9B6D03F080533B602B
:1039E4003B6803F03FFE00BF0837BD4680BD00BF03
:1039F4000010024080B400AFFEE780B400AFFEE7E1
:103A040080B400AFFEE780B400AFFEE780B400AF3F
:103A1400FEE780B400AF00BFBD465DF8047B70478D
:103A240080B400AF00BFBD465DF8047B704780B42E
:103A340000AF00BFBD465DF8047B704780B500AFA2
:103A440000F000FF00BF80BD80B500AF024805F064
:103A54000BFC00BF80BD00BF0C15002080B500AF7B
:103A640002490348FFF7AAFD00BF80BD5815002096
:103A74009C17002080B500AF02490348FFF79EFD64
:103A840000BF80BD59150020EC15002080B500AFA3
:103A9400024802F0C4F900BF80BD00BF0830002016
:103AA40080B586B000AFF860B9607A6000237B61AE
:103AB4000AE000E000BF0146BB685A1CBA60CAB203
:103AC4001A707B6901337B617A697B689A42F0DB07
:103AD4007B6818461837BD4680BD80B483B000AFFC
:103AE40078604FF0FF3318460C37BD465DF8047B11
:103AF400704780B483B000AF786039603B684FF49E
:103B040000525A60002318460C37BD465DF8047B0A
:103B1400704780B483B000AF7860012318460C3737
:103B2400BD465DF8047B704780B485B000AFF86093
:103B3400B9607A60002318461437BD465DF8047BEB
:103B44007047000080B586B000AF7860144A154B0A
:103B5400D31A7B617B693B61134B1B68002B02D139
:103B6400114B124A1A60104B1A687B6813443A6965
:103B74009A4207D20BF022FE03460C221A604FF041
:103B8400FF3309E0084B1B68FB60074B1A687B682E
:103B94001344054A1360FB6818461837BD4680BDB8
:103BA4000000042000040000081500203035002027
:103BB40080B400AF064BD3F88830054A43F4700351
:103BC400C2F8883000BFBD465DF8047B704700BF73
:103BD40000ED00E080B487B000AF4F4B1B6803F0EA
:103BE4000803002B07D14C4BD3F894301B0A03F085
:103BF4000F037B6105E0484B1B681B0903F00F03AF
:103C04007B61464A7B6952F823307B61424B9B6857
:103C140003F00C030C2B66D801A252F823F000BF6A
:103C2400593C0008EB3C0008EB3C0008EB3C000866
:103C3400613C0008EB3C0008EB3C0008EB3C00084E
:103C4400693C0008EB3C0008EB3C0008EB3C000836
:103C5400713C0008324A7B69136048E0304B314ABA
:103C64001A6044E02E4B2F4A1A6040E02A4BDB686E
:103C740003F00303FB60284BDB681B0903F00F030D
:103C84000133BB60FB68022B03D0FB68032B06D017
:103C94000BE0244ABB68B2FBF3F33B610BE0214A1F
:103CA400BB68B2FBF3F33B6105E07A69BB68B2FB26
:103CB400F3F33B6100BF184BDB681B0A03F07F0280
:103CC4003B6902FB03F33B61134BDB685B0E03F0C0
:103CD400030301335B007B603A697B68B2FBF3F357
:103CE4000F4A136003E00E4A7B69136000BF0A4B5E
:103CF4009B681B0903F00F030B4AD35C3B60084B22
:103D04001A683B6822FA03F3054A136000BF1C37A4
:103D1400BD465DF8047B704700100240180E010890
:103D2400F01100200024F400000E010880B588B0D2
:103D340000AF07F1100300221A605A609A60DA603B
:103D44003B1D00221A605A609A60204B204A1A6078
:103D54001E4B67225A601D4B00229A601B4B4FF684
:103D6400FF72DA60194B00221A61184B00225A6163
:103D7400164B00229A61154805F01FFA0346002BE2
:103D840001D0FFF7DFFB4FF480533B6107F11003D1
:103D940019460E4805F087FB0346002B01D0FFF7B8
:103DA400D1FB00237B600023BB600023FB603B1D31
:103DB4001946064805F0A6FD0346002B01D0FFF77F
:103DC400C1FB00BF2037BD4680BD00BF0C150020DD
:103DD400002C014080B584B000AF78607B681B681C
:103DE4000D4A934213D10D4B1B6E0C4A43F40063EE
:103DF40013660A4B1B6E03F40063FB60FB6800222E
:103E040000212A2000F087FE2A2000F09EFE00BF39
:103E14001037BD4680BD00BF002C01400010024099
:103E240080B500AF224B234A1A60214B4FF4E13294
:103E34005A601F4B00229A601D4B0022DA601C4B13
:103E440000221A611A4B0C225A61194B00229A6102
:103E5400174B00221A62164B00225A62144B00229E
:103E64009A62134B00225A66114805F0F1FD03468D
:103E7400002B01D0FFF766FB00210D4806F0B1FCD2
:103E84000346002B01D0FFF75DFB0021084806F034
:103E9400E6FC0346002B01D0FFF754FB044806F070
:103EA40067FC0346002B01D0FFF74CFB00BF80BD2D
:103EB4005C1500200080004080B500AF224B234AEF
:103EC4001A60214B4FF416525A601F4B00229A601D
:103ED4001D4B0022DA601C4B00221A611A4B0C2283
:103EE4005A61194B00229A61174B0022DA61164B72
:103EF40000221A62144B00225A62134B00229A6267
:103F0400114805F0A5FD0346002B01D0FFF71AFB6D
:103F140000210D4806F065FC0346002B01D0FFF795
:103F240011FB0021084806F09AFC0346002B01D03F
:103F3400FFF708FB044806F01BFC0346002B01D0E6
:103F4400FFF700FB00BF80BDEC150020004C0040D3
:103F540080B500AF244B254A1A60234B4FF4E1325D
:103F64005A60214B00229A601F4B0022DA601E4BDC
:103F740000221A611C4B0C225A611B4B00229A61CD
:103F8400194B0022DA61184B00221A62164B0022E8
:103F94005A62154B00229A62002300220021124823
:103FA40006F07DFB0346002B01D0FFF7CBFA00217E
:103FB4000D4806F016FC0346002B01D0FFF7C2FAA9
:103FC4000021094806F04BFC0346002B01D0FFF703
:103FD400B9FA054806F0CCFB0346002B01D0FFF7E5
:103FE400B1FA00BF80BD00BF7C160020003801403C
:103FF40080B500AF244B254A1A60234B4FF4E132BD
:104004005A60214B00229A601F4B0022DA601E4B3B
:1040140000221A611C4B0C225A611B4B00229A612C
:10402400194B0022DA61184B00221A62164B002247
:104034005A62154B00229A62002300220021124882
:1040440006F02DFB0346002B01D0FFF77BFA00217D
:104054000D4806F0C6FB0346002B01D0FFF772FAA9
:104064000021094806F0FBFB0346002B01D0FFF7B3
:1040740069FA054806F07CFB0346002B01D0FFF7E4
:1040840061FA00BF80BD00BF0C170020004400404F
:1040940080B500AF224B234A1A60214B4FF41652CD
:1040A4005A601F4B00229A601D4B0022DA601C4BA1
:1040B40000221A611A4B0C225A61194B00229A6190
:1040C400174B0022DA61164B00221A62144B0022AD
:1040D4005A62134B00229A62114805F0B9FC034658
:1040E400002B01D0FFF72EFA00210D4806F079FBD2
:1040F4000346002B01D0FFF725FA0021084806F0FB
:10410400AEFB0346002B01D0FFF71CFA044806F06F
:104114002FFB0346002B01D0FFF714FA00BF80BD2C
:104124009C1700200048004080B5B8B000AF78600C
:1041340007F1CC0300221A605A609A60DA601A61AF
:1041440007F138039422002118460BF06EFB7B68BC
:104154001B68AA4A93423FD12023BB630023C7F8BC
:10416400803007F13803184604F06EFA0346002B3A
:1041740001D0FFF7E7F9A24BDB6DA14A43F001033D
:10418400D3659F4BDB6D03F001037B637B6B9C4B1F
:10419400DB6C9B4A43F04003D364994BDB6C03F024
:1041A40040033B633B6B03F04DFA4FF4C073C7F815
:1041B400CC300223C7F8D0300023C7F8D430002312
:1041C400C7F8D8300823C7F8DC3007F1CC03194608
:1041D4008C4800F07DFE6AE17B681B688A4A934242
:1041E40043D10823BB630023BB6707F13803184698
:1041F40004F02AFA0346002B01D0FFF7A3F9804B01
:104204009B6D7F4A43F4002393657D4B9B6D03F4C0
:104214000023FB62FB6A7A4BDB6C794A43F00103AF
:10422400D364774BDB6C03F00103BB62BB6A0323EB
:10423400C7F8CC300223C7F8D0300023C7F8D430F5
:104244000023C7F8D8300823C7F8DC3007F1CC03C3
:1042540019466E4800F03CFE00220021402000F088
:104264005AFC402000F071FC21E17B681B68684A1D
:10427400934260D10123BB630023FB6607F138033B
:10428400184604F0E1F90346002B01D0FFF75AF970
:104294005B4B1B6E5A4A43F480431366584B1B6EA8
:1042A40003F480437B627B6A554BDB6C544A43F0D6
:1042B4000103D364524BDB6C03F001033B623B6AA2
:1042C4004F4BDB6C4E4A43F04003D3644C4BDB6CE6
:1042D40003F04003FB61FB6903F0B4F94FF4C063DE
:1042E400C7F8CC300223C7F8D0300023C7F8D43045
:1042F4000023C7F8D8300723C7F8DC3007F1CC0314
:104304001946424800F0E4FD4FF48053C7F8CC301E
:104314000223C7F8D0300023C7F8D4300023C7F8ED
:10432400D8300723C7F8DC3007F1CC0319463548E9
:1043340000F0CEFDBBE07B681B68364A93426DD12A
:104344000223BB6300233B6707F13803184604F0DC
:104354007BF90346002B01D0FFF7F4F8284B9B6D43
:10436400274A43F400339365254B9B6D03F40033D4
:10437400BB61BB69224BDB6C214A43F00103D3646C
:104384001F4BDB6C03F001037B617B691C4BDB6C13
:104394001B4A43F00803D364194BDB6C03F0080396
:1043A4003B613B690C23C7F8CC300223C7F8D030FB
:1043B4000023C7F8D4300023C7F8D8300723C7F840
:1043C400DC3007F1CC031946104800F081FD1023BE
:1043D400C7F8CC300223C7F8D0300023C7F8D43054
:1043E4000023C7F8D8300723C7F8DC3007F1CC0323
:1043F4001946094800F06CFD59E000BF00800040F8
:104404000010024000180242004C0040000002422A
:104414000038014000440040000C02427B681B68E5
:10442400254A934243D10423BB6300237B6707F1EE
:104434003803184604F008F90346002B01D0FFF7AF
:1044440081F81E4B9B6D1D4A43F4802393651B4BDF
:104454009B6D03F48023FB60FB68184BDB6C174AED
:1044640043F00203D364154BDB6C03F00203BB601F
:10447400BB684FF44063C7F8CC300223C7F8D03090
:104484000023C7F8D4300023C7F8D8300723C7F86F
:10449400DC3007F1CC031946094800F019FD00226D
:1044A40000213F2000F037FB3F2000F04EFB00BF0F
:1044B400E037BD4680BD00BF004800400010024008
:1044C4000004024280B584B000AFF860B9601346BE
:1044D400FB71FB68BA681A60FB795B00DAB2FB68AF
:1044E4001A71F86800F05EF8FB685B791A460021DF
:1044F400F86800F06FF8FB689B791A460121F868A8
:1045040000F068F800BF1037BD4680BD80B582B0AA
:1045140000AF78600B46FB701346BB70BB78002B72
:1045240007D0F97800234FF48052786800F00CF833
:1045340006E0F9784FF480530022786800F004F81C
:1045440000BF0837BD4680BD80B586B000AFF860B7
:10455400084611461A460346FB720B463B81134636
:10456400FB80FB7A9B00DBB206221344FB753B897C
:10457400DBB23B743B891B0A9BB2DBB27B74FB88C6
:10458400DBB2BB74FB881B0A9BB2DBB2FB7407F182
:104594001002F97D0423F86800F03FF800BF1837D3
:1045A400BD4680BD80B586B002AF786006233B73FC
:1045B4007B68186807F10C0264230093012300212F
:1045C40000F0AEFE03461A467B68DA7100BF10376E
:1045D400BD4680BD80B588B004AF78600B46FB70E3
:1045E4001346BB70BB783B737B6818687B681B7988
:1045F40099B2FB789AB2642302930123019307F1E1
:104604000C030093012300F07FFF03461A467B68E6
:10461400DA7100BF1037BD4680BD90B58BB004AFD2
:10462400F8607A601A460B46FB721346BB72FB684D
:104634005B7903F02003DBB2002B15D0FB6818680C
:10464400FB681B7999B2FB7A9AB2BB7A9BB2642459
:10465400029401937B680093012300F055FF034605
:104664001A46FB68DA7115E00023FB750EE0FA7A4E
:10467400FB7D1344D9B2FB7D7A6813441B781A4638
:10468400F868FFF7A7FFFB7D0133FB75FA7DBB7A62
:104694009A42ECD300BF1C37BD4690BD80B500AF35
:1046A4000F4A53796FF3041353710D4A537943F04E
:1046B400200353710A4A537943F080035371084A23
:1046C40093796FF304139371054A937943F00403C8
:1046D4009371402203490248FFF7F4FE00BF80BDF6
:1046E400201A00205414002080B582B000AF034685
:1046F400FB71FB79012219460848FFF707FF0A20DE
:1047040000F0C0F8F97900234FF400620348FFF782
:104714001BFF00BF0837BD4680BD00BF201A002024
:1047240080B582B000AF0346FB71FB7900221946C5
:104734000348FFF7EBFE00BF0837BD4680BD00BF4E
:10474400201A0020DFF834D0FFF732FA002103E00A
:104754000B4B5B58435004310A480B4B42189A42A6
:10476400F6D30A4A02E0002342F8043B084B9A427B
:10477400F9D30BF029F8FEF7BBFDFEE70000042097
:10478400280F010800000020D4130020D4130020B7
:104794002C350020FEE780B582B000AF0023FB710A
:1047A400042000F0ADF9FFF715FA002000F00EF830
:1047B4000346002B02D00123FB7101E0FFF7F6F85A
:1047C400FB7918460837BD4680BD000080B584B02B
:1047D40000AF78600023FB73174B1B78002B23D0AA
:1047E400164B1A68144B1B7819464FF47A73B3FBB3
:1047F400F1F3B2FBF3F3184600F0B5F90346002BCE
:104804000FD17B68072B09D8002279684FF0FF305D
:1048140000F081F90A4A7B68136007E00123FB7307
:1048240004E00123FB7301E00123FB73FB7B1846C7
:104834001037BD4680BD00BFF8110020F0110020E4
:10484400F411002080B400AF064B1B781A46064BC7
:104854001B681344044A136000BFBD465DF8047B23
:10486400704700BFF8110020281A002080B400AF60
:10487400034B1B681846BD465DF8047B704700BFB8
:10488400281A002080B584B000AF7860FFF7EEFFEF
:10489400B8607B68FB60FB68B3F1FF3F05D00A4B4F
:1048A4001B781A46FB681344FB6000BFFFF7DEFF6A
:1048B4000246BB68D31AFA689A42F7D800BF00BF11
:1048C4001037BD4680BD00BFF811002080B400AF92
:1048D400024B1846BD465DF8047B70470004000196
:1048E40080B400AF044B1B681B0C9BB21846BD463A
:1048F4005DF8047B704700BF004004E080B400AF63
:10490400044B1B68C3F30B031846BD465DF8047BD8
:10491400704700BF004004E080B400AF034B1B6845
:104924001846BD465DF8047B704700BF9005FA0B3E
:1049340080B400AF034B1B681846BD465DF8047B8A
:10494400704700BF9405FA0B80B400AF034B1B689B
:104954001846BD465DF8047B704700BF9805FA0B06
:1049640080B485B000AF78607B6803F00703FB6018
:104974000C4BDB68BB60BA684FF6FF031340BB60A7
:10498400FB681A02BB68134343F0BF6343F400336C
:10499400BB60044ABB68D36000BF1437BD465DF8F2
:1049A400047B704700ED00E080B400AF044BDB688B
:1049B4001B0A03F007031846BD465DF8047B7047E5
:1049C40000ED00E080B483B000AF0346FB7197F9BB
:1049D4000730002B0BDBFB7903F01F02074997F923
:1049E40007305B09012000FA02F241F8232000BFDE
:1049F4000C37BD465DF8047B704700BF00E100E062
:104A040080B483B000AF03463960FB7197F9073077
:104A1400002B0ADB3B68DAB20C4997F907305201E4
:104A2400D2B20B4483F800230AE03B68DAB20849A7
:104A3400FB7903F00F03043B5201D2B20B441A7604
:104A440000BF0C37BD465DF8047B704700E100E011
:104A540000ED00E080B489B000AFF860B9607A601E
:104A6400FB6803F00703FB61FB69C3F10703032B36
:104A740028BF0323BB61FB690333062B02D9FB69FF
:104A8400043B00E000237B614FF0FF32BB6902FA74
:104A940003F3DA43BB681A407B699A404FF0FF3155
:104AA4007B6901FA03F3D9437B680B40134318462F
:104AB4002437BD465DF8047B7047000080B582B0A2
:104AC40000AF78607B68013BB3F1807F01D30123A1
:104AD4000FE00A4A7B68013B536007214FF0FF3027
:104AE400FFF78EFF054B00229A60044B07221A60E1
:104AF400002318460837BD4680BD00BF10E000E023
:104B040080B582B000AF78607868FFF729FF00BFF6
:104B14000837BD4680BD80B586B000AF0346B96096
:104B24007A60FB73FFF740FF78617A68B968786947
:104B3400FFF790FF024697F90F3011461846FFF72A
:104B44005FFF00BF1837BD4680BD80B582B000AF9F
:104B54000346FB7197F907301846FFF733FF00BF90
:104B64000837BD4680BD80B582B000AF78607868F4
:104B7400FFF7A4FF034618460837BD4680BD000072
:104B840080B584B000AF78607B68002B01D101232D
:104B940042E17B6893F85C30DBB2002B06D17B6882
:104BA400002283F85D207868FEF720F87B681B6894
:104BB4009A697B681B6822F010029A61FFF756FE1F
:104BC400F86012E0FFF752FE0246FB68D31A0A2B84
:104BD4000BD97B681B6E43F001027B681A667B6805
:104BE400032283F85C20012316E17B681B689B6920
:104BF40003F00803082BE5D07B681B689A697B687F
:104C04001B6842F001029A61FFF730FEF86012E07F
:104C1400FFF72CFE0246FB68D31A0A2B0BD97B68DC
:104C24001B6E43F001027B681A667B68032283F8DB
:104C34005C200123F0E07B681B689B6903F001039F
:104C4400002BE5D07B681B689A697B681B6842F07F
:104C540002029A61724A7B685B6813607B681B7C02
:104C6400012B08D17B681B689A697B681B6822F05A
:104C740040029A6107E07B681B689A697B681B683D
:104C840042F040029A617B685B7C012B08D17B680F
:104C94001B689A697B681B6842F480429A6107E04A
:104CA4007B681B689A697B681B6822F480429A615E
:104CB4007B689B7C012B08D17B681B689A697B68A5
:104CC4001B6822F480529A6107E07B681B689A692A
:104CD4007B681B6842F480529A617B681B689B69FD
:104CE40023F440717B689A687B681B680A439A6165
:104CF4007B681B689A697B681B6822F0A4029A612E
:104D04007B681B681A697B681B6822F010021A61B1
:104D14007B68DB68012B08D17B681B689A697B6818
:104D24001B6842F004029A612CE07B68DB68002B6C
:104D340028D07B68DB68022B1CD07B681B689A69CF
:104D44007B681B6842F080029A617B681B681A6961
:104D54007B681B6842F010021A617B68DB68032BD6
:104D640010D17B681B689A697B681B6842F020023B
:104D74009A6107E07B681B689A697B681B6842F04C
:104D840020029A617B689B69013B5A067B68DB6958
:104D9400013B1B021A437B681B6A013B42EA030185
:104DA4007B685B69013B1A047B681B680A43DA6110
:104DB4007B689B68B3F5407F15D17B689B6A5A1E5C
:104DC4007B68DB6A013B1B021A437B681B6B013B5C
:104DD4001B0142EA03017B685B6A013B1A047B689E
:104DE4001B680A43DA607B681B68D3F8C0107B68D1
:104DF400DA6B7B681B680A43C3F8C020786800F04C
:104E040011F87B6800229A657B6800221A667B6829
:104E1400012283F85C20002318461037BD4680BD6C
:104E240000A5004080B485B000AF7860274BBB601C
:104E34007B68BA681A647B681B68D3F8803023F4F3
:104E4400F8117B685B6B1A047B681B680A43C3F820
:104E54008020BB6803F170027B685A647B681B681E
:104E6400D3F8803023F070617B689B6B1A067B68F3
:104E74001B680A43C3F88020BB6803F1B0027B6857
:104E84009A64BB6803F5C4727B68DA64BB6803F593
:104E940018727B681A65BB6803F51E727B685A65D5
:104EA400BB68FB6005E0FB6800221A60FB68043302
:104EB400FB60BB6803F55473FA689A42F3D300BFEE
:104EC40000BF1437BD465DF8047B704700AC00405A
:104ED40080B487B000AF7860396000237B6158E10B
:104EE4003B681A6801217B6901FA03F31340FB60F4
:104EF400FB68002B00F04A813B685B68012B0BD0F8
:104F04003B685B68022B07D03B685B68112B03D0BE
:104F14003B685B68122B30D17B689B683B617B6983
:104F24005B00032202FA03F3DB433A6913403B615B
:104F34003B68DA687B695B0002FA03F33A6913435E
:104F44003B617B683A699A607B685B683B610122DC
:104F54007B6902FA03F3DB433A6913403B613B6824
:104F64005B681B0903F001027B6902FA03F33A69E7
:104F740013433B617B683A695A607B68DB683B6139
:104F84007B695B00032202FA03F3DB433A691340B3
:104F94003B613B689A687B695B0002FA03F33A69F8
:104FA40013433B617B683A69DA603B685B68022BB8
:104FB40003D03B685B68122B23D17B69DA087B68DA
:104FC400083253F822303B617B6903F007039B00EE
:104FD4000F2202FA03F3DB433A6913403B613B6857
:104FE4001A697B6903F007039B0002FA03F33A6929
:104FF40013433B617B69DA087B680832396943F8FB
:1050040022107B681B683B617B695B00032202FA08
:1050140003F3DB433A6913403B613B685B6803F08D
:1050240003027B695B0002FA03F33A6913433B61B1
:105034007B683A691A603B685B6803F08053002B15
:1050440000F0A4805A4A7B699B08183352F8233035
:105054003B617B6903F00303DB000F2202FA03F3D5
:10506400DB433A6913403B617B68524A934225D043
:105074007B68514A93421FD07B68504A934219D0AF
:105084007B684F4A934213D07B684E4A93420DD0BB
:105094007B684D4A934207D07B684C4A934201D1C6
:1050A40006230CE007230AE0052308E0042306E0B6
:1050B400032304E0022302E0012300E000237A69D1
:1050C40002F00302D20093403A6913433B6138492A
:1050D4007B699B0818333A6941F82320344BD3F891
:1050E40080303B61FB68DB433A6913403B613B68BA
:1050F4005B6803F48033002B03D03A69FB681343E5
:105104003B612B4A3B69C2F88030294BD3F8843089
:105114003B61FB68DB433A6913403B613B685B6876
:1051240003F40033002B03D03A69FB6813433B615B
:105134001F4A3B69C2F884301D4B1B683B61FB6806
:10514400DB433A6913403B613B685B6803F48013BB
:10515400002B03D03A69FB6813433B61144A3B6953
:105164001360134B5B683B61FB68DB433A69134094
:105174003B613B685B6803F40013002B03D03A697E
:10518400FB6813433B610A4A3B6953607B69013303
:105194007B613B681A687B6922FA03F3002B7FF476
:1051A4009FAE00BF00BF1C37BD465DF8047B70474F
:1051B40000F40240000002420004024200080242DD
:1051C400000C024200100242001402420018024283
:1051D40080B483B000AF78600B467B8013467B704D
:1051E4007B78002B03D07A887B689A6102E07A8806
:1051F4007B689A6200BF0C37BD465DF8047B70473C
:1052040080B582B000AF78607B68002B01D10123A8
:1052140081E07B6893F84130DBB2002B06D17B68D8
:10522400002283F840207868FDF7F4FE7B6824228E
:1052340083F841207B681B681A687B681B6822F02E
:1052440001021A607B685A687B681B6822F07062EE
:105254001A617B681B689A687B681B6822F40042A9
:105264009A607B68DB68012B07D17B689A687B684E
:105274001B6842F400429A6006E07B689A687B6887
:105284001B6842F404429A607B68DB68022B04D1F9
:105294007B681B684FF400625A607B681B685B681C
:1052A4007A68126843F0007343F4004353607B68E8
:1052B4001B68DA687B681B6822F40042DA607B684A
:1052C4001A697B685B6942EA03017B689B691A027D
:1052D4007B681B680A43DA607B68D9697B681A6A51
:1052E4007B681B680A431A607B681B681A687B68C2
:1052F4001B6842F001021A607B6800225A647B68D2
:10530400202283F841207B6800221A637B680022F4
:1053140083F84220002318460837BD4680BD0000AC
:1053240080B588B002AFF8607A601A460B467B817C
:1053340013463B81FB6893F84130DBB2202B40F0ED
:10534400DA80FB6893F84030012B01D10223D3E0CB
:10535400FB68012283F84020FFF788FA78617B69B3
:105364000093192301224FF40041F86800F058FA21
:105374000346002B01D00123BEE0FB68212283F801
:105384004120FB68102283F84220FB6800225A6403
:10539400FB687A685A62FB683A895A85FB6800227E
:1053A4005A63FB685B8D9BB2FF2B0ED9FB68FF220F
:1053B4001A85FB681B8DDAB27989514B00934FF043
:1053C4008073F86800F04EFB6CE0FB685B8D9AB26A
:1053D400FB681A85FB681B8DDAB27989484B009308
:1053E4004FF00073F86800F03DFB5BE07A69396ABE
:1053F400F86800F055FA0346002B01D001237BE046
:10540400FB685B6A1A78FB681B689A62FB685B6AD4
:105414005A1CFB685A62FB685B8D9BB2013B9AB2D3
:10542400FB685A85FB681B8D013B9AB2FB681A85A1
:10543400FB685B8D9BB2002B34D0FB681B8D002B6B
:1054440030D17B6900933B6A00228021F86800F028
:10545400E7F90346002B01D001234DE0FB685B8D87
:105464009BB2FF2B0ED9FB68FF221A85FB681B8DAC
:10547400DAB27989002300934FF08073F86800F062
:10548400F1FA0FE0FB685B8D9AB2FB681A85FB6842
:105494001B8DDAB27989002300934FF00073F8680A
:1054A40000F0E0FAFB685B8D9BB2002B9ED17A6919
:1054B400396AF86800F034FA0346002B01D001235E
:1054C4001AE0FB681B682022DA61FB681B685968D4
:1054D400FB681A680B4B0B405360FB68202283F86F
:1054E4004120FB68002283F84220FB68002283F8F5
:1054F4004020002300E0022318461837BD4680BD33
:105504000020008000E800FE80B588B002AFF8609B
:10551400084611461A4603467B810B463B811346D7
:10552400FB80FB6893F84130DBB2202B40F0F9801C
:105534003B6A002B02D0BB8C002B05D1FB684FF4D7
:1055440000725A640123EDE0FB6893F84030012BAC
:1055540001D10223E6E0FB68012283F84020FFF733
:1055640085F978617B690093192301224FF4004186
:10557400F86800F055F90346002B01D00123D1E06F
:10558400FB68212283F84120FB68402283F84220F3
:10559400FB6800225A64FB683A6A5A62FB68BA8C58
:1055A4005A85FB6800225A63F8883A8979897B69AD
:1055B4000193BB6A00930346F86800F0B9F8034608
:1055C400002B05D0FB68002283F840200123A9E0CA
:1055D400FB685B8D9BB2FF2B0ED9FB68FF221A85FB
:1055E400FB681B8DDAB27989002300934FF0807336
:1055F400F86800F037FA0FE0FB685B8D9AB2FB683D
:105604001A85FB681B8DDAB27989002300934FF069
:105614000073F86800F026FA7A69B96AF86800F04D
:105624003FF90346002B01D001237BE0FB685B6A52
:105634001A78FB681B689A62FB685B6A5A1CFB68F1
:105644005A62FB685B8D9BB2013B9AB2FB685A8538
:10565400FB681B8D013B9AB2FB681A85FB685B8D66
:105664009BB2002B34D0FB681B8D002B30D17B699F
:105674000093BB6A00228021F86800F0D1F8034649
:10568400002B01D001234DE0FB685B8D9BB2FF2B07
:105694000ED9FB68FF221A85FB681B8DDAB2798963
:1056A400002300934FF08073F86800F0DBF90FE0FB
:1056B400FB685B8D9AB2FB681A85FB681B8DDAB2B6
:1056C4007989002300934FF00073F86800F0CAF959
:1056D400FB685B8D9BB2002B9ED17A69B96AF8682E
:1056E40000F01EF90346002B01D001231AE0FB68E9
:1056F4001B682022DA61FB681B685968FB681A681A
:105704000A4B0B405360FB68202283F84120FB685E
:10571400002283F84220FB68002283F84020002303
:1057240000E0022318461837BD4680BD00E800FE9D
:1057340080B586B002AFF860084611461A460346A3
:105744007B810B463B811346FB80FB88DAB2798967
:10575400204B00934FF08073F86800F083F9FA69E6
:10576400B969F86800F09CF80346002B01D00123C6
:105774002CE0FB88012B05D13B89DAB2FB681B685E
:105784009A6215E03B891B0A9BB2DAB2FB681B687C
:105794009A62FA69B969F86800F082F80346002B46
:1057A40001D0012312E03B89DAB2FB681B689A62DC
:1057B400FB690093BB6900228021F86800F030F88F
:1057C4000346002B01D0012300E0002318461037C4
:1057D400BD4680BD0020008080B483B000AF7860F7
:1057E4007B681B689B6903F00203022B03D17B686F
:1057F4001B6800229A627B681B689B6903F00103A3
:10580400012B07D07B681B689A697B681B6842F090
:1058140001029A6100BF0C37BD465DF8047B7047F6
:1058240080B584B000AFF860B9603B601346FB718B
:1058340022E03B68B3F1FF3F1ED0FFF717F80246A2
:10584400BB69D31A3A689A4202D33B68002B13D13E
:10585400FB685B6C43F02002FB685A64FB682022FF
:1058640083F84120FB68002283F84220FB68002271
:1058740083F8402001230FE0FB681B689A69BB682A
:105884001340BA689A420CBF01230023DBB21A46C4
:10589400FB799A42CDD0002318461037BD4680BD0F
:1058A40080B584B000AFF860B9607A602CE07A68A3
:1058B400B968F86800F070F80346002B01D00123A2
:1058C4002AE0BB68B3F1FF3F1ED0FEF7CFFF0246CC
:1058D4007B68D31ABA689A4202D3BB68002B13D1EF
:1058E400FB685B6C43F02002FB685A64FB6820226F
:1058F40083F84120FB68002283F84220FB680022E1
:1059040083F84020012307E0FB681B689B6903F0D0
:105914000203022BCBD1002318461037BD4680BDAD
:1059240080B584B000AFF860B9607A6028E07A6826
:10593400B968F86800F030F80346002B01D0012361
:1059440026E0FEF793FF02467B68D31ABA689A42B0
:1059540002D3BB68002B13D1FB685B6C43F02002BD
:10596400FB685A64FB68202283F84120FB6800220C
:1059740083F84220FB68002283F84020012307E0DB
:10598400FB681B689B6903F02003202BCFD1002305
:1059940018461037BD4680BD80B584B000AFF860AE
:1059A400B9607A60FB681B689B6903F01003102BD5
:1059B40051D122E0BB68B3F1FF3F1ED0FEF756FF82
:1059C40002467B68D31ABA689A4202D3BB68002B9A
:1059D40013D1FB685B6C43F02002FB685A64FB68DC
:1059E400202283F84120FB68002283F84220FB68D0
:1059F400002283F8402001232EE0FB681B689B698A
:105A040003F02003202BD5D1FB681B681022DA6138
:105A1400FB681B682022DA61F868FFF7DDFEFB688B
:105A24001B685968FB681A680D4B0B405360FB6890
:105A34005B6C43F00402FB685A64FB68202283F821
:105A44004120FB68002283F84220FB68002283F88F
:105A54004020012300E0002318461037BD4680BDD6
:105A640000E800FE80B485B000AFF8607B600B46B0
:105A74007B8113467B72FB681B685A68BB695B0DAC
:105A840003F480610D4B0B43DB4302EA03017B8982
:105A9400C3F309027B7A1B0403F47F031A437B6874
:105AA4001A43BB691A43FB681B680A435A6000BF68
:105AB4001437BD465DF8047B704700BFFF63FF03E6
:105AC40080B483B000AF786039607B6893F841306C
