:020000040800F2
:100000000040002089180008790900087B090008D1
:100010007D0900087F090008810900080000000030
:10002000000000000000000000000000830900083C
:1000300085090008000000008709000889090008F8
:10004000D1180008D1180008D1180008D1180008EC
:10005000D1180008D1180008D1180008D1180008DC
:10006000D1180008D1180008D1180008D1180008CC
:10007000D1180008D118000891090008A10900084A
:10008000D1180008D1180008D1180008D1180008AC
:10009000D1180008D1180008D1180008D11800089C
:1000A00000000000D1180008D1180008D11800087D
:1000B000D1180008B1090008C1090008D1180008CA
:1000C000D1180008D1180008D1180008D10900087B
:1000D000D1180008E1090008D1180008D11800085B
:1000E000D1180008D1180008D1180008D11800084C
:1000F000D11800080000000000000000000000000F
:1001000000000000000000000000000000000000EF
:1001100000000000000000000000000000000000DF
:1001200000000000000000000000000000000000CF
:0C01300000000000000000005FF808F173
:10013C0010B5054C237833B9044B13B10448AFF315
:10014C0000800123237010BDA800002000000000D7
:10015C004856000808B5034B1BB103490348AFF3DD
:10016C00008008BD00000000AC00002048560008CC
:10017C00034613F8012B002AFBD1181A01387047DB
:10018C0053B94AB9002908BF00281CBF4FF0FF31F2
:10019C004FF0FF3000F076B9ADF1080C6DE904CEEC
:1001AC0000F006F8DDF804E0DDE9022304B0704746
:1001BC002DE9F047089E0D4604468846002B4DD18C
:1001CC008A42944668D9B2FA82F252B101FA02F329
:1001DC00C2F1200120FA01F10CFA02FC41EA0308F9
:1001EC0094404FEA1C41B8FBF1F71FFA8CFE01FB5F
:1001FC00178807FB0EF0230C43EA084398420AD9F0
:10020C001CEB030307F1FF3580F01E81984240F28E
:10021C001B81023F63441B1AB3FBF1F001FB10334B
:10022C0000FB0EFEA4B244EA0344A6450AD91CEB1B
:10023C00040400F1FF3380F00981A64540F20681E9
:10024C00644402380021A4EB0E0440EA07401EB1BE
:10025C000023D440C6E90043BDE8F0878B4208D99F
:10026C00002E00F0EE800021C6E900050846BDE82E
:10027C00F087B3FA83F100294AD1AB4202D3824210
:10028C0000F2FC80841A65EB030301209846002ED3
:10029C00E2D0C6E90048DFE702B9FFDEB2FA82F22B
:1002AC00002A40F09180A1EB0C0001214FEA1C4781
:1002BC001FFA8CFEB0FBF7F307FB1300250C45EA85
:1002CC0000450EFB03F0A84208D91CEB050503F111
:1002DC00FF3802D2A84200F2CE8043462D1AB5FB5D
:1002EC00F7F007FB10550EFB00FEA4B244EA0544E0
:1002FC00A64508D91CEB040400F1FF3502D2A64533
:10030C0000F2B6802846A4EB0E0440EA03409EE7B8
:10031C00C1F120078B4022FA07FC4CEA030C25FAAA
:10032C0007FA4FEA1C49BAFBF9F820FA07F309FB64
:10033C0018AA8D401FFA8CFE1D4300FA01F308FB2E
:10034C000EF02C0C44EA0A44A04202FA01F20BD93A
:10035C001CEB040408F1FF3A80F08880A04240F2C4
:10036C008580A8F102086444241AB4FBF9F009FB57
:10037C00104400FB0EFEADB245EA0444A64508D974
:10038C001CEB040400F1FF356CD2A6456AD9023887
:10039C00644440EA0840A0FB0295A4EB0E04AC4276
:1003AC00C846AE4656D353D0002E69D0B3EB0802E4
:1003BC0064EB0E0422FA01F304FA07F71F43CC4056
:1003CC00C6E90074002147E70CFA02FCC2F12001D7
:1003DC0025FA01F34FEA1C4720FA01F195400D4331
:1003EC00B3FBF7F107FB11331FFA8CFE280C40EA24
:1003FC00034001FB0EF3834204FA02F408D91CEB10
:10040C00000001F1FF382FD283422DD9023960440C
:10041C00C01AB0FBF7F307FB1300ADB245EA004579
:10042C0003FB0EF0A84208D91CEB050503F1FF38BD
:10043C0016D2A84214D9023B6544281A43EA01415A
:10044C0038E73146304607E72F46E4E61846F9E62A
:10045C004B45A9D2B9EB020865EB0C0E0138A3E7AA
:10046C004346EAE7284694E74146D1E7D0467BE786
:10047C006444023847E7023B65442FE7084606E729
:10048C003146E9E6704700BF00B585B00023019303
:10049C00029303931548164A026043608360C3605D
:1004AC00036143618361C361036280F824300122DC
:1004BC00826280F82C3010224263836380F83C30D7
:1004CC0001F01EFE60B900230193012202920393F6
:1004DC0001A9064801F0E2FE28B905B05DF804FB5D
:1004EC0000F0D4F8EFE700F0D1F8F6E7C4000020F4
:1004FC000024014000B589B00023039304930593B5
:10050C00069307930268114B9A4202D009B05DF82A
:10051C0004FB03F58A331A6A42F400721A621A6AEF
:10052C0002F400720192019ADA6942F00102DA6176
:10053C00DB6903F001030293029BFF230393032364
:10054C00049303A9024802F01DF9DFE700240140DF
:10055C000000024000B583B00E4BDA6942F08072A5
:10056C00DA61DB6903F080730193019B0022114671
:10057C000E2001F071FF0E2001F0A6FF00221146A3
:10058C000F2001F069FF0F2001F09EFF03B05DF812
:10059C0004FB00BF00380240F0B589B0002403947E
:1005AC000494059406940794224BDA6942F02002D5
:1005BC00DA61DA6902F020020092009ADA6942F0FC
:1005CC000102DA61DA6902F001020192019ADA6938
:1005DC0042F00202DA61DB6903F002030293029B30
:1005EC00154F22460421384602F0B4F9134D224629
:1005FC004FF48071284602F0ADF901224FF400410E
:10060C00284602F0A7F904230393012604960594C7
:10061C00069403A9384602F0B5F84FF4014303934E
:10062C0004960594069403A9284602F0ABF809B089
:10063C00F0BD00BF00380240000402400000024040
:10064C0008B50268034B9A4200D008BD01F08EFC3D
:10065C00FBE700BF0038014008B50268034B9A4223
:10066C0000D008BD002001F097FCFAE700380140EB
:10067C0008B50268034B9A4200D008BD012001F076
:10068C008BFCFAE700380140036C704772B6FEE74A
:10069C0000B595B03422002107A804F059FA0023C4
:1006AC0002930393049305930693009301931C49BF
:1006BC000A6822F4C05242F400620A600A220792CD
:1006CC0001220A9210210B910C920222109211938A
:1006DC0012934FF48003139307A802F089F9C0B961
:1006EC000F23029303230393002304930593069390
:1006FC00012102A802F04CFC68B9012300934FF4CD
:10070C0000330193684602F057FD30B915B05DF81F
:10071C0004FBFFF7BBFFFFF7B9FFFFF7B7FF00BF05
:10072C0000700040F0B585B001F0B4FCFFF7B0FFED
:10073C00FFF732FFFFF70EFF00F0DAFA00F05EF879
:10074C0000F0F2F900F062FAFFF79EFE00F07CF880
:10075C00224F4FF400423946214800F021FE214B34
:10076C001870FF238DF80F301F4E96E80300019090
:10077C008DF808100024CDF809408DF80D400DF1CE
:10078C000F0000F0AFFD01A800F0CCFD174D0A22C0
:10079C0006F10C01284604F0F7F90A2201A9A81861
:1007AC0004F0F2F99DF80F302B754FF480733A4634
:1007BC0005210F4801F06EFB00F05EFB0D4B1A6833
:1007CC000D4B1A6000E001340A2001F085FC01F0A9
:1007DC0073FBC72CF7DD0024F6E700BF00000240D6
:1007EC003C01002018010020605600082400002065
:1007FC00A0020020E07F00088405002008B509480D
:10080C00094B0360002343607F228260FF22C26099
:10081C0003614361836102F0AEFD00B908BDFFF7CF
:10082C0035FFFBE71C010020002800400268044B48
:10083C009A4200D07047034B0122C3F8D826F9E73F
:10084C00002800400000474208B50C480C4B0360E0
:10085C004FF48273436000238360C3604FF40072D3
:10086C0082613822C26183620A23C36202F0CAFE2B
:10087C0000B908BDFFF70AFFFBE700BF3C010020F1
:10088C000030014070B588B00023039304930593A6
:10089C00069307930268214B9A4201D008B070BDB1
:1008AC0003F584331A6A42F480521A621A6A02F40B
:1008BC0080520092009ADA6942F00102DA61DA6938
:1008CC0002F001020192019ADA6942F00202DA6145
:1008DC00DB6903F002030293029B4FF4C0530393B2
:1008EC0002240494032606960525079503A90C48B3
:1008FC0001F048FF08230393049400240594069602
:10090C00079503A9074801F03DFF22462146232005
:10091C0001F0A2FD232001F0D7FDBFE7003001401C
:10092C00000002400004024084B00F4B5A6A42F0AF
:10093C0000425A625A6A02F000420192019A1A6A03
:10094C0042F001021A621A6A02F001020292029A41
:10095C005A6A42F080525A625B6A03F080530393E6
:10096C00039B04B0704700BF00380240FEE7FEE76F
:10097C00FEE7FEE7FEE770477047704708B501F0E9
:10098C0099FB08BD08B5024801F09AFE08BD00BFEE
:10099C005C02002008B5024801F092FE08BD00BFC1
:1009AC001802002008B5024803F03EFC08BD00BF49
:1009BC009801002008B5024803F036FC08BD00BFC2
:1009CC00D801002008B5024803F02CF908BD00BF7F
:1009DC003C01002008B5024803F0FAFE08BD00BF38
:1009EC00A002002010B503460C4A0D490D480068C2
:1009FC0040B10C4800680344521A934206D8094A85
:100A0C00136010BD0748084C0460F2E704F076F858
:100A1C000C2303604FF0FF30F3E700BF00400020D1
:100A2C000004000094010020F82E00207047000004
:100A3C0000B583B00368174A934205D0164A934217
:100A4C0015D003B05DF804FB144B5A6A42F0020255
:100A5C005A625B6A03F002030093009B002211466A
:100A6C001D2001F0F9FC1D2001F02EFDE9E70B4BD8
:100A7C005A6A42F004025A625B6A03F0040301935F
:100A8C00019B002211461E2001F0E6FC1E2001F005
:100A9C001BFDD6E70004004000080040003802406F
:100AAC0000B589B000230393049305930693079331
:100ABC000368194A934205D0184A934216D009B0DC
:100ACC005DF804FB164BDA6942F00202DA61DB696D
:100ADC0003F002030193019B33230393022304933A
:100AEC00079303A90F4801F04DFEE8E70C4BDA69B8
:100AFC0042F00202DA61DB6903F002030293029B0B
:100B0C004FF47073039302230493079303A90548CE
:100B1C0001F038FED3E700BF00040040000800409D
:100B2C00003802400004024000B58BB0002306934D
:100B3C0007930893099304930593009301930293ED
:100B4C0003933048304A02600122426083604FF4C4
:100B5C007A62C26003618023436103F0DCF90028F0
:100B6C0037D14FF48053069306A9264803F0EAFACE
:100B7C00002831D1234803F0F3F980BB0023049300
:100B8C00059304A91F4803F0EDFB58BB60230093A9
:100B9C00002201920292039269461A4803F06AFA03
:100BAC0018BB04226946174803F064FA00BB0822FC
:100BBC006946144803F05EFAE8B90C2269461148FC
:100BCC0003F058FAD0B90F48FFF76AFF0BB05DF885
:100BDC0004FBFFF75BFDC4E7FFF758FDCAE7FFF71F
:100BEC0055FDCBE7FFF752FDD0E7FFF74FFDD8E7F8
:100BFC00FFF74CFDDBE7FFF749FDDEE7FFF746FDAE
:100C0C00E1E700BF980100200004004000B58BB064
:100C1C000023069307930893099304930593009379
:100C2C000193029303933048304A026001224260E0
:100C3C0083604FF47A62C26003618023436103F0E6
:100C4C006AF9002837D14FF48053069306A9264839
:100C5C0003F078FA002831D1234803F081F980BBE6
:100C6C0000230493059304A91F4803F07BFB58BB96
:100C7C0060230093002201920292039269461A4863
:100C8C0003F0F8F918BB04226946174803F0F2F98F
:100C9C0000BB08226946144803F0ECF9E8B90C22B1
:100CAC006946114803F0E6F9D0B90F48FFF7F8FE92
:100CBC000BB05DF804FBFFF7E9FCC4E7FFF7E6FCBB
:100CCC00CAE7FFF7E3FCCBE7FFF7E0FCD0E7FFF761
:100CDC00DDFCD8E7FFF7DAFCDBE7FFF7D7FCDEE754
:100CEC00FFF7D4FCE1E700BFD8010020000800406A
:100CFC0008B50A480A4B03604FF4E1334360002304
:100D0C008360C36003610C2242618361C36103F0A1
:100D1C001FFC00B908BDFFF7B9FCFBE7A0020020DF
:100D2C000038014010B588B0002303930493059359
:100D3C000693079302682D4B9A4201D008B010BD60
:100D4C00044603F580331A6A42F480421A621A6A26
:100D5C0002F480420192019ADA6942F00102DA61EE
:100D6C00DB6903F001030293029B4FF4C06303930E
:100D7C0002230493032306930723079303A91C4818
:100D8C0001F000FD1B481C4B036000234360836093
:100D9C008022C260036143618361C36101F0D2FBB5
:100DAC00F0B9144BA3635C621448154B0360102319
:100DBC004360002383608022C260036143618361CE
:100DCC00C36101F0BFFB70B90C4B63635C62002222
:100DDC001146252001F040FB252001F075FBADE705
:100DEC00FFF754FCDDE7FFF751FCEDE7003801405D
:100DFC000000024018020020586002405C020020F3
:100E0C004460024084B08DE80F009DF800308BB137
:100E1C00042B0FD0012B13D0052B11D0022B13D088
:100E2C00062B11D0032B01D0072B06D1039B149A50
:100E3C001A6402E0039B149A5A63002004B07047B2
:100E4C00039B149A9A63F8E7039B149ADA63F4E70A
:100E5C0084B008B50DF1080C8CE80F00604610F852
:100E6C000C2B044B53F8221003F09EF8BDE80840FD
:100E7C0004B070470400002030B591B04FF0000E64
:100E8C0016E00EEB8E0C354B03EB0C1C0CF10C0C22
:100E9C00334C0FCCACE80F000FCCACE80F000FCCF0
:100EAC00ACE80F0094E80F008CE80F000EF1010E77
:100EBC00BEF1070F2AD8294A0EEB8E03190102EB5B
:100ECC00031302F801E000229A605A804FF47A7101
:100EDC00998083F84D2083F84C20BEF1030FD0DCB1
:100EEC000EEB8E0C1D4B03EB0C1C0CF10C0C1D4C67
:100EFC000FCCACE80F000FCCACE80F000FCCACE87B
:100F0C000F0094E80F008CE80F00CFE70025072DA9
:100F1C001FD805EB8504114B03EB0414EC4604F1CC
:100F2C00100EBEE80F00ACE80F00BEE80F00ACE8F6
:100F3C000F00BEE80F00ACE80F009EE80F008CE835
:100F4C000F0094E80F00FFF783FF034610B901353B
:100F5C00DDE70023184611B030BD00BFE4020020CD
:100F6C00D801002098010020072808D800EB800049
:100F7C00044B03EB001043880B80002070470220C9
:100F8C00704700BFE402002007280CD8B1F57A7F27
:100F9C0001D94FF47A7100EB8000044B03EB001085
:100FAC008180002070470220704700BFE4020020BF
:100FBC000378194301707047037823EA0103037027
:100FCC007047000030B593B0072827D8044600EBD3
:100FDC008005144B03EB051500231093EC4605F12B
:100FEC00100EBEE80F00ACE80F00BEE80F00ACE836
:100FFC000F00BEE80F00ACE80F009EE80F008CE875
:10100C000F0095E80F00FFF7FDFE054638B90121EA
:10101C00A140C9B20448FFF7CFFF00E002252846E3
:10102C0013B030BDE402002064050020F0B593B08D
:10103C00072847D80446B9B300EB8003224A02EBD9
:10104C0003139E888E4200D30E4640F2B6339E4266
:10105C002ED8374604EB84051B4B03EB0515109774
:10106C00EC4605F1100EBEE80F00ACE80F00BEE830
:10107C000F00ACE80F00BEE80F00ACE80F009EE8D4
:10108C000F008CE80F0095E80F00FFF7BBFE05463C
:10109C0038B986B90C4B04EB840203EB021297604F
:1010AC005680284613B0F0BDFFF78CFF0546F8E7D5
:1010BC0040F2B637CEE70121A140C9B20348FFF791
:1010CC0077FFE7E70225ECE7E40200206405002047
:1010DC0003780B4214BF01200020704710B582B07A
:1010EC000C468DF8070001210DF10700FFF7F0FF0A
:1010FC00002834D102210DF10700FFF7E9FF002889
:10110C0035D104210DF10700FFF7E2FF002836D19D
:10111C0008210DF10700FFF7DBFF002837D1102164
:10112C000DF10700FFF7D4FF002838D120210DF175
:10113C000700FFF7CDFF002839D140210DF1070042
:10114C00FFF7C6FF00283AD180210DF10700FFF709
:10115C00BFFF00283BD10023184602B010BD21462A
:10116C000020FFF763FF03460028C3D0F4E72146B5
:10117C000120FFF75BFF03460028C2D0ECE72146B5
:10118C000220FFF753FF03460028C1D0E4E72146B5
:10119C000320FFF74BFF03460028C0D0DCE72146B5
:1011AC000420FFF743FF03460028BFD0D4E72146B5
:1011BC000520FFF73BFF03460028BED0CCE72146B5
:1011CC000620FFF733FF03460028BDD0C4E72146B5
:1011DC000720FFF72BFF0346BEE700B583B08DF861
:1011EC00070001210DF10700FFF772FF002835D130
:1011FC0002210DF10700FFF76BFF002835D1042108
:10120C000DF10700FFF764FF002835D108210DF11F
:10121C000700FFF75DFF002835D110210DF1070005
:10122C00FFF756FF002835D120210DF10700FFF7FD
:10123C004FFF002835D140210DF10700FFF748FF83
:10124C00002835D180210DF10700FFF741FF002860
:10125C0035D10023184603B05DF804FB0020FFF7DE
:10126C00B1FE03460028C3D0F4E70120FFF7AAFE25
:10127C0003460028C3D0EDE70220FFF7A3FE034688
:10128C000028C3D0E6E70320FFF79CFE03460028A6
:10129C00C3D0DFE70420FFF795FE03460028C3D038
:1012AC00D8E70520FFF78EFE03460028C3D0D1E710
:1012BC000620FFF787FE03460028C3D0CAE70720A5
:1012CC00FFF780FE0346C5E708B50346002201215F
:1012DC00024800F09BFC024B187008BD680500200A
:1012EC008005002008B5034600220121024800F0C9
:1012FC0081FC024B187008BD680500208005002099
:10130C0000B583B00346009101221146034800F05A
:10131C00B1FC034B187003B05DF804FB68050020AA
:10132C008005002000B583B003460A2200920122FA
:10133C001146044800F07CFC034B187003B05DF8B8
:10134C0004FB00BF680500208005002008B503469B
:10135C0001220221024800F059FC024B187008BD12
:10136C00680500208005002008B5034602221146BE
:10137C00024800F04BFC024B187008BD68050020B9
:10138C008005002008B5034600220221024800F027
:10139C003DFC024B187008BD68050020800500203C
:1013AC0008B513460A4601460D4800F0BBFB0D4B31
:1013BC00187000B108BD0A4843F6FF73C3600123DF
:1013CC0003824FF480734382402383820623C382BB
:1013DC00642100F0C7FB0028ECD00420EAE700BF32
:1013EC00680500208005002038B5044690F891303F
:1013FC001B330022114650F8230003F081FCC5B2C8
:10140C0094F891301C330022114654F8230003F059
:10141C0077FC013D81B2E8B2FFF7B6FD50B9084B3D
:10142C001B88B4F8942007490979074800F0E6FDB9
:10143C00002038BD0821024800F01CFAEFE700BF7D
:10144C00820500208C0500209856000808B5054B35
:10145C001B68B0F8942004490979044800F0CEFDCB
:10146C00002008BD840500208C050020985600083B
:10147C0000B583B0B0F89420064B1B780093064B54
:10148C001B8806490979064800F0B8FD002003B016
:10149C005DF804FB81050020820500208C050020EE
:1014AC00A856000800B583B0B0F89420064B009302
:1014BC00064B1B8806490979064800F09FFD002061
:1014CC0003B05DF804FB00BF24000020820500205F
:1014DC008C050020BC56000808B5054B1B88B0F8DD
:1014EC00942004490979044800F088FD002008BDC7
:1014FC00820500208C0500209856000810B584B099
:10150C0004460021ADF80E1090F891301B330A46BA
:10151C0050F8230003F0F4FBC0B201380DF10E01BA
:10152C00C0B2FFF721FD70B9BDF80E300093084B27
:10153C001B88B4F8942007490979074800F05EFD30
:10154C00002004B010BD0821014800F093F9EBE72E
:10155C00820500208C050020D056000810B50446EA
:10156C0090F891301B330022114650F8230003F001
:10157C00C7FBC0B2FFF731FE50B9084B1B88B4F85B
:10158C00942007490979074800F038FD002010BD68
:10159C000821024800F06EF9EFE700BF8205002039
:1015AC008C0500209856000810B5044690F8913030
:1015BC001B330022114650F8230003F0A1FBC0B2EC
:1015CC000138C0B2FFF7FEFC50B9084B1B88B4F8C9
:1015DC00942007490979074800F010FD002010BD40
:1015EC000821024800F046F9EFE700BF8205002011
:1015FC008C0500209856000838B5044690F89130B8
:10160C001B331022002150F8230003F079FBC5B2E4
:10161C0094F891301C330022114654F8230003F047
:10162C006FFB81B22846FFF759FD50B9074B1B8859
:10163C00B4F8942006490979064800F0DFFC002034
:10164C0038BD0821014800F015F9EFE782050020AC
:10165C008C0500209856000838B5044690F8913057
:10166C001B330022114650F8230003F049FBC5B28E
:10167C0094F891301C330022114654F8230003F0E7
:10168C003FFB013D81B2E8B2FFF7D0FC50B9084BEB
:10169C001B88B4F8942007490979074800F0AEFC80
:1016AC00002038BD0821024800F0E4F8EFE700BF45
:1016BC00820500208C0500209856000810B50446C1
:1016CC0090F891301B330022114650F8230003F0A0
:1016DC0017FBC0B2FFF748FE48B9074B1B88B4F89C
:1016EC00942006490979064800F088FC10BD0821B1
:1016FC00014800F0BFF8F0E7820500208C050020BF
:10170C009856000810B5044690F891301B3300220F
:10171C00114650F8230003F0F3FAC0B2FFF716FE9F
:10172C0048B9074B1B88B4F8942006490979064838
:10173C0000F064FC10BD0821014800F09BF8F0E7B4
:10174C00820500208C0500209856000810B584B046
:10175C00044690F891301B330A2250F8231001A84C
:10176C0003F012FA0A2101A8FFF7CAFD50B9084B81
:10177C001B88B4F8942007490979074800F03EFC0F
:10178C0004B010BD0821024800F074F8EFE700BF68
:10179C00820500208C0500209856000838B50546B7
:1017AC0090F891301B331022002150F8230003F0E5
:1017BC00A7FAC4B22046FFF787FD50B9074B1C713E
:1017CC00074B1B88B5F894202146064800F016FC00
:1017DC0038BD0821024800F04DF8EFE78C050020D9
:1017EC00820500209856000810B5044690F89130F8
:1017FC001B330022114650F8230003F081FAC0B2CB
:10180C00FFF7C0FD48B9074B1B88B4F89420064974
:10181C000979064800F0F2FB10BD0821014800F0E0
:10182C0029F8F0E7820500208C0500209856000866
:10183C0010B586B0044603A8FFF774FD60B903AB7E
:10184C000093084B1B88B4F8942007490979074882
:10185C0000F0D4FB06B010BD0821024800F00AF8D5
:10186C00EDE700BF820500208C050020BC56000867
:10187C000220704703881943018070470C480D49BA
:10188C000D4A002302E0D458C4500433C4188C42CF
:10189C00F9D30A4A0A4C002301E013600432A24235
:1018AC00FBD3FFF7C3F803F02FF9FEF73BFF7047AC
:1018BC0000000020A800002064590008A8000020A7
:1018CC00F82E0020FEE7808A013901FB002080B24F
:1018DC007047000010B5044C00222270018940684A
:1018EC0001F038F8207810BD8805002010B5054CA3
:1018FC000023237001220189406801F02BF8207825
:10190C0010BD00BF8805002008B5642301F0D0FE8F
:10191C00014B187008BD00BF8905002038B504467E
:10192C00074D00232B70FFF7D5FF012205492068D6
:10193C00FFF7EAFF28702046FFF7D8FF287838BD5C
:10194C00880500201858000838B50446074D0023B8
:10195C002B70FFF7BFFF012205492068FFF7D4FF6A
:10196C0028702046FFF7C2FF287838BD8805002074
:10197C001758000808B5642302F092F8014B187050
:10198C0008BD00BF8905002070B504460E460A4DFF
:10199C0000232B70FFF79EFF012208492068FFF7F8
:1019AC00B3FF012231462068FFF7E4FF2870204680
:1019BC00FFF79CFF287870BD88050020155800089B
:1019CC002DE9F04383B004460E4615461F46BDF87C
:1019DC002880FFF778FF628AB24243D38146238A7C
:1019EC00B3423FD8A38AAB4242D345449D4243DC29
:1019FC0000238DF807300DF107012046FFF7C4FFD7
:101A0C00204B1870012000F067FB9DF8073013F095
:101A1C00010F35D1C9F307238DF804308DF80590EB
:101A2C002046FFF77BFF012000F056FB2046FFF716
:101A3C0051FF012214492068FFF766FF022201A919
:101A4C002068FFF761FF424639462068FFF75CFFCC
:101A5C000C4D28702046FFF749FF0F2000F03CFB8F
:101A6C00287802E00620074B187003B0BDE8F0831D
:101A7C000520044B1870F8E70720024B1870F4E7A8
:101A8C000220F2E788050020195800082DE9F041E2
:101A9C0082B004460D4617461E46BDF82080FFF75F
:101AAC0012FFB4F812C0AC452AD3238AAB4227D814
:101ABC00A38ABB422AD300EB0803013BE2689342A2
:101ACC0028D8C0F307238DF804308DF80500204684
:101ADC00FFF700FF012211492068FFF715FF0222D2
:101AEC0001A92068FFF710FF424631462068FFF736
:101AFC0041FF0B4D28702046FFF7F8FE287802E0D6
:101B0C000620074B187002B0BDE8F0810520044B8D
:101B1C001870F8E70520024B1870F4E71658000807
:101B2C008805002010B4844600200D4C2070CCF8A1
:101B3C000010CCF80420ACF8083043F6FF73CCF856
:101B4C000C300123ACF810304FF48073ACF8123029
:101B5C004023ACF814300623ACF8163010BC704798
:101B6C008805002070B582B006460D46012403E0BE
:101B7C00012000F0B1FA0134AC4206D2306802F018
:101B8C00DDF81A4B18700128F2D1A5422BD0FF2397
:101B9C008DF807303046FFF7C1FE154B187008B1B1
:101BAC00012021E00DF107013046FFF7EDFE104B4F
:101BBC0018709DF80730022B01D0012014E030463C
:101BCC00FFF7C2FE0A4B187008B101200CE00DF1B2
:101BDC0007013046FFF7D8FE054B18709DF807300B
:101BEC0013B1012000E0012002B070BD8A05002075
:101BFC008805002010B582B001240094FFF746FF41
:101C0C00014B187002B010BD8805002000B585B0DE
:101C1C008DF80F30012300930DF10F03FFF7D0FE69
:101C2C00024B187005B05DF804FB00BF880500205E
:101C3C00F0B583B002AF1E463D8BEB1DDB086C4646
:101C4C00A4EBC3039D466C4644F8085B2346FFF7A0
:101C5C001DFF074B187040B10437BD46F0BDA15CA9
:101C6C00B15401329542FADCF6E70022FAE700BFE4
:101C7C0088050020B0B582B002AF1D463C8AE31D3A
:101C8C00DB08EC46ACEBC3039D4602AB4FF0000CFB
:101C9C0005E015F80CE003F80CE00CF1010C6445C0
:101CAC00F7DC0094FFF78CFE014B1870BD46B0BDFD
:101CBC008805002010B50B4B00221A700A4C01222B
:101CCC00A189A06800F046FE084B1B78084A32F840
:101CDC0013206520074900FB0311206802F068FC03
:101CEC0010BD00BF390000208C050020A20500208B
:101CFC00B42D00204006002070B582B004463B4D48
:101D0C006522294602F040FF0023394A13702B70DC
:101D1C00384A137023783E2B02D0002002B070BDDD
:101D2C00002384F8903084F8913084F89230FF22AC
:101D3C0084F89320A4F89430A4F8963001AA2E4984
:101D4C00601C02F068FF0546002848D0042102F010
:101D5C002EFF022801D90020E0E71022002128469E
:101D6C0002F0CEFFC0B284F89300244B1B7998424A
:101D7C0037D10026092E12D88DB106F11A0344F87A
:101D8C00235094F89030013384F8903001AA1A490A
:101D9C00002002F040FF05460136F6B2EAE794F85F
:101DAC009030043BDBB2062B1DD8E56E042128468F
:101DBC0002F0FDFE042801D90020AFE7102200211B
:101DCC00284602F09DFFA4F89400022384F8913079
:101DDC0094F89030023B84F8923001209EE700206A
:101DEC009CE700209AE7002098E700BF7C2E00209B
:101DFC003C0600203D0600201C5800088C050020E5
:101E0C0090F89030002B3FD02DE9F047074690F822
:101E1C0092A090F89180AAEB080A5FFA8AFA002443
:101E2C000AE004EB440902EB8909D9F8083038467A
:101E3C00984727E00134E4B2144B1B78A34220D915
:101E4C0008F11A0357F82360114B04EB440103EB20
:101E5C00810215792A4653F82110304602F080FE93
:101E6C000028E7D13046FEF783F98542E2D104EB36
:101E7C004403074A02EB83035B795345D1D001201D
:101E8C0000E00220BDE8F0870220704714580008DB
:101E9C005457000810B5064C20602171A260A38134
:101EAC000023A373E3730222024902F00BFE10BD60
:101EBC008C050020A005002008B5244B00221A74C4
:101ECC005A74234B1B782BB3224B1B78224A127863
:101EDC0093421FD0214A32F8132072B1652A03D9DC
:101EEC001E4A652122F813101C4A32F81310652083
:101EFC001B4A00FB0320FFF7DDFE164A1378013363
:101F0C00DBB21370632B02D9134600221A700F4BED
:101F1C0001221A74134B1B7803B908BD1248FFF742
:101F2C00EBFE18B9094B02221A74F6E70E48FFF7BC
:101F3C0067FF064B587418B9044B03221A74ECE76C
:101F4C000948FFF795FC014B1874E6E78C05002057
:101F5C0039000020A2050020E12E0020B42D002025
:101F6C00400600203D060020A405002010B5074BBC
:101F7C0001221A70064C0022A189A06800F0EAFC2C
:101F8C0002220449206802F09DFD10BD390000209A
:101F9C008C050020A005002008B5134B1B78642B82
:101FAC0007D9124B002283F86420114B01221A70BE
:101FBC0010E0104A125C0D49CA540A2A01D00D2AAD
:101FCC0005D10A4A0021D154094A0121117001336B
:101FDC00054A137000B908BD02220649064B186861
:101FEC0002F070FDF7E700BF3C0600207C2E0020BD
:101FFC003D060020A00500208C0500200FB410B574
:10200C0082B00D4A1478631CDBB21370632B02D9B7
:10201C00134600221A7005AB01936521049A0748F8
:10202C0001FB040002F0A2FE054B23F8140002B0E1
:10203C00BDE8104004B07047E12E0020400600209F
:10204C00B42D0020104B1B680BB90120704710B544
:10205C0004464FF47A70B0FBF3F30C4A1068B0FBF3
:10206C00F3F000F03FFA68B90F2C01D901200AE017
:10207C00002221464FF0FF3000F0EEF9044B1C60BB
:10208C00002000E0012010BD3C00002000000020DA
:10209C004000002010B5032000F0CCF90F20FFF712
:1020AC00D1FF10B10124204610BD0446FEF73CFCC4
:1020BC00F9E70000034A1368034909680B441360ED
:1020CC00704700BFE42E00203C000020014B186834
:1020DC00704700BFE42E002038B50446FFF7F6FF2A
:1020EC000546B4F1FF3F02D0044B1B681C44FFF7BC
:1020FC00EDFF401BA042FAD338BD00BF3C000020CE
:10210C00002800F0BC8070B582B00446C36C002B74
:10211C005FD0E36C13F0100F40F0B380E36C23F44A
:10212C00885323F0020343F00203E364564A5368D6
:10213C0023F4403361680B435360E36862691343D3
:10214C0094F83C104FF4007292FAA2F2B2FA82F2B6
:10215C0001FA02F21343226A1A4394F82400022370
:10216C0093FAA3F3B3FA83F300FA03F31343626B0A
:10217C00102A02D0A16B0A43134325682A6812F077
:10218C00400214D1A1690B43A168E6693143266969
:10219C00B6F5807F30D0012E2BD00A4394F82C104A
:1021AC0001292BD06868394901400A436A602168CB
:1021BC008868374A02401A438A602269B2F5807FE8
:1021CC0033D0012A31D021680A6B22F0F8720A63ED
:1021DC003AE0036580F848302E4B1A6A42F001024F
:1021EC001A621B6A03F001030193019BFEF782F94B
:1021FC008FE74FF48072D0E73246CEE760B9216B9F
:10220C0001394FF4604090FAA0F0B0FA80F08140B0
:10221C0041F400610A43C5E7E16C41F02001E1643F
:10222C00216D41F001012165BCE725682A6B22F084
:10223C00F872A16A01394FF0F87090FAA0F0B0FA78
:10224C0080F081400A432A6322689168124A0A404E
:10225C009A420BD0E36C23F0120343F01003E364B7
:10226C00236D43F00103236501200BE00020206562
:10227C00E36C23F0030343F00103E36402E0012069
:10228C007047012002B070BD00270140FF16FCFC16
:10229C008DF1FFC000380240FEFF80BF30B482B029
:1022AC000023019390F84830012B00F0BD800123EE
:1022BC0080F848304B68062B2CD80468226C03EB52
:1022CC008303053B4FF01F0C0CFA03FC22EA0C02B3
:1022DC000D6805FA03F3134323640B68092B5BD8D1
:1022EC000468626903EB43034FF0070C0CFA03FC20
:1022FC0022EA0C028D6805FA03F3134363610B6841
:10230C00103B012B6CD9002380F84830184602B0E2
:10231C0030BC70470C2B0ED80568EA6B03EB8303BB
:10232C00233B1F249C4022EA04020C6804FA03F3AA
:10233C001343EB63D1E7122B0ED80568AA6B03EBA2
:10234C008303413B1F249C4022EA04020C6804FADC
:10235C0003F31343AB63C0E7182B0ED805686A6B05
:10236C0003EB83035F3B1F249C4022EA04020C68AE
:10237C0004FA03F313436B63AFE705682A6B03EBB3
:10238C0083037D3B1F249C4022EA04020C6804FA60
:10239C0003F313432B63A0E7132B0ED805682A69AC
:1023AC0003EB43031E3B07249C4022EA04028C6887
:1023BC0004FA03F313432B61A1E71A2B0ED805681B
:1023CC00EA6803EB43033C3B07249C4022EA0402EB
:1023DC008C6804FA03F31343EB6090E700BF8EE7BD
:1023EC00124B5B6813F4000F8DD1104A536843F401
:1023FC00000353600B68102B85D10D4B1B6802F149
:10240C00467202F52D3202F28332A2FB03239B0C9F
:10241C0003EB83035B00019302E0019B013B0193FF
:10242C00019B002BF9D16EE7022070E700270140D9
:10243C0000000020074AD36823F4E0631B041B0C44
:10244C00000200F4E060034343F0BF6343F4003345
:10245C00D360704700ED00E000B5194BDB68C3F3A7
:10246C000223C3F1070CBCF1040F28BF4FF0040C7E
:10247C0003F1040EBEF1060F18D9033B4FF0FF3EDB
:10248C000EFA0CFC21EA0C0199400EFA03F322EA35
:10249C000303194300280BDB0901C9B200F16040AA
:1024AC0000F5614080F800135DF804FB0023E5E7BC
:1024BC0000F00F000901C9B2024B1954F4E700BF38
:1024CC0000ED00E014ED00E0002807DB00F01F0237
:1024DC00400901239340024A42F82030704700BF64
:1024EC0000E100E00138B0F1807F0BD24FF0E02327
:1024FC005861054AF02182F82310002098610722C8
:10250C001A6170470120704700ED00E010B4046CB4
:10251C0004F01C0C012404FA0CF4D0F83CC0CCF8E8
:10252C000440046863604368102B05D0036899600D
:10253C000368DA6010BC704703689A600368D9605E
:10254C00F8E7000060B310B402460168154B0B4469
:10255C001548A0FB03031B099B001364134BD363A7
:10256C00022382F82130086820F4FF4020F070002C
:10257C00536894682343D4682343146923435469F0
:10258C00234394692343D469234303430B60002002
:10259C009063012382F8213082F8200010BC704730
:1025AC0001207047F89FFDBFCDCCCCCC0060024021
:1025BC0038B5044690F82000012832D0012084F868
:1025CC00200094F82100C0B2012804D0002384F824
:1025DC002030022038BD022084F821000020A063A6
:1025EC002568286820F0010028602046FFF78EFF40
:1025FC00E36A5BB12268136843F00E031360226830
:10260C00136843F0010313600020E3E722681368AA
:10261C0023F0040313602268136843F00A03136069
:10262C00EDE70220D6E790F82130DBB2022B06D082
:10263C0004238363002380F8203001207047026854
:10264C00136823F00E0313600268136823F0010370
:10265C001360036C03F01C03C16B012202FA03F339
:10266C004B6080F82120002380F8203018467047FA
:10267C0008B590F82130DBB2022B03D0042383631E
:10268C00012008BD0268136823F00E031360026872
:10269C00136823F001031360036C03F01C03C16B7C
:1026AC00012202FA03F34B6080F82120002380F80A
:1026BC002030436B13B198470020E2E70020E0E79D
:1026CC0038B5C36B196804682568036C03F01C03E8
:1026DC0004229A400A4215D015F0040F12D0236838
:1026EC0013F0200F03D1236823F004032360036C41
:1026FC0003F01C02C16B042393404B60C36A03B10B
:10270C00984738BD02229A400A421CD015F0020F9D
:10271C0019D0236813F0200F06D1236823F00A0385
:10272C002360012380F82130036C03F01C02C16B81
:10273C00022393404B60002380F82030836A002BE7
:10274C00DFD09847DDE7082202FA03F30B42D8D01A
:10275C0015F0080FD5D0236823F00E032360036C0B
:10276C0003F01C03C16B012202FA03F34B6082637A
:10277C0080F82120002380F82030036B002BC0D080
:10278C009847BEE770B582B0002365E085685E00AF
:10279C000324B44025EA0405CC68B4402C4384607F
:1027AC00446824EA0C0C4C68C4F300149C4044EAC2
:1027BC000C04446061E0DD08083550F8256003F036
:1027CC0007044FEA840C0F2404FA0CF426EA040ED6
:1027DC000C6904FA0CF444EA0E0440F8254063E05A
:1027EC00042400E0002404FA0EF42C430CF1020C37
:1027FC00544D45F82C40544C2568D44325EA020628
:10280C00D1F804C01CF4803F01D042EA05064E4DBD
:10281C002E606D6804EA0506D1F804C01CF4003F74
:10282C0001D042EA0506484D6E60AD6804EA050623
:10283C00D1F804C01CF4801F01D042EA0506424DB9
:10284C00AE60ED682C404E6816F4001F01D042EAD1
:10285C0005043D4AD46001330A6832FA03F46FD0A0
:10286C004FF0010C0CFA03FC1CEA0202F3D04C688A
:10287C0004F00304013C012C88D94C6804F00304D7
:10288C00032C0CD0C4685D004FF0030C0CFA05FC53
:10289C0024EA0C0C8C68AC4044EA0C04C4604C6810
:1028AC0004F00304022C86D004684FEA430E4FF068
:1028BC00030C0CFA0EFC24EA0C0C4C6804F0030418
:1028CC0004FA0EF444EA0C0404604C6814F4403F1F
:1028DC00C1D01E4C256A45F001052562246A04F01E
:1028EC0001040194019C4FEA930C0CF10205154C68
:1028FC0054F8255003F003044FEA840E0F2404FA15
:10290C000EF425EA0405124CA0423FF46BAF04F51B
:10291C008064A0420ED004F58064A0420CD004F573
:10292C008064A0420AD004F58064A0423FF458AF02
:10293C00052458E7012456E7022454E7032452E700
:10294C0002B070BD0000014000040140003802409C
:10295C00000002400AB1816170470904816170472F
:10296C0010B483B01F4B9B6813F0F00328D11D4AA1
:10297C00526A12F0805F10D01B4A126802F4C052E7
:10298C00B2F5C05F1DD1B0F5404F1AD1174A13688C
:10299C0043F004031360012313E012494A6A42F026
:1029AC0080524A624A6A02F080520192019A0E4A9F
:1029BC00126802F4C0524C6A24F080544C62DFE777
:1029CC0000230A490A6822F001021A430A600A68C5
:1029DC0002F001029A4203D1002003B010BC7047F0
:1029EC000120FAE70038024000700040003C024031
:1029FC00002800F05E82F0B583B00446A24B9D68BF
:102A0C0005F00C059E6806F48036036813F0010F80
:102A1C001DD0082D12D00C2D0ED06368012B35D093
:102A2C00002B49D1984B1A6822F480321A601A682C
:102A3C0022F480221A602EE0002EEED0924B1B68FE
:102A4C0013F4003F03D06368002B00F0348223683A
:102A5C0013F0020F68D0042D55D00C2D51D0E36823
:102A6C00002B00F0C780894B01221A60FFF72EFB68
:102A7C000646854B1B6813F0020F40F0B280FFF73F
:102A8C0025FB801B0228F4D903201DE27E4A136823
:102A9C0043F480331360636823B3FFF717FB0746D7
:102AAC00794B1B6813F4003FD1D1FFF70FFBC01B10
:102ABC006428F5D9032007E2052B09D0724B1A685C
:102ACC0022F480321A601A6822F480221A60E2E73B
:102ADC006D4B1A6842F480221A601A6842F48032F4
:102AEC001A60D8E7FFF7F2FA0746674B1B6813F436
:102AFC00003FACD0FFF7EAFAC01B6428F5D90320DD
:102B0C00E2E1002EABD1604B1B6813F0020F03D037
:102B1C00E368012B40F0D1815B4A536823F4F853EE
:102B2C00216943EA01235360236813F0100F3BD053
:102B3C00002D40F08580544B1B6813F4007F03D0AC
:102B4C00A369002B00F0BB81206A4F4B5B6803F438
:102B5C006043984260D9FFF703FF002840F0B18131
:102B6C00494A536823F46043216A0B43536053680A
:102B7C0023F07F43E16943EA01635360236A5B0BF3
:102B8C005A1C4FF4004393403F4A9268C2F303121D
:102B9C003F498A5CD3403F4A13603F4B1868FFF7AC
:102BAC0051FA002840F09081236813F0080F00F0D0
:102BBC009B806369002B00F08480344B0122C3F8A6
:102BCC008026FFF783FA06462F4B5B6B13F0020F40
:102BDC0040F08A80FFF77AFA801B0228F4D9032090
:102BEC0072E1294A536823F4F853216943EA01231B
:102BFC00536099E7254B00221A60FFF767FA0646E7
:102C0C00214B1B6813F0020F8ED0FFF75FFA801B6D
:102C1C000228F5D9032057E11B4A536823F460437B
:102C2C0018435060536823F07F43E16943EA016322
:102C3C005360206AFFF794FE00289FD0012043E1E7
:102C4C00A3695BB3114B01221A62FFF73FFA0646E8
:102C5C000D4B1B6813F4007F06D1FFF737FA801B6E
:102C6C000228F5D903202FE1074A536823F4604367
:102C7C00216A0B435360536823F07F43E16943EAB5
:102C8C000163536090E700BF0038024000004742E8
:102C9C007456000800000020400000208F4B0022DA
:102CAC001A62FFF713FA06468D4B1B6813F4007F6C
:102CBC003FF47AAFFFF70AFA801B0228F4D90320FD
:102CCC0002E1864B0022C3F88026FFF7FFF9064687
:102CDC00834B5B6B13F0020F06D0FFF7F7F9801BE9
:102CEC000228F5D90320EFE0236813F0040F79D004
:102CFC007B4B5B6A13F0805F0BD1794B5A6A42F0C5
:102D0C0080525A625B6A03F080530193019B012647
:102D1C0000E00026734B1B6813F4807F0ED0A36871
:102D2C00012B1FD0002B35D16D4B5A6B22F48072C6
:102D3C005A635A6B22F480625A6318E0694A13682A
:102D4C0043F480731360FFF7C1F90746654B1B68AA
:102D5C0013F4807FE3D1FFF7B9F9C01B6428F5D9D0
:102D6C000320B1E05E4A536B43F480735363A36852
:102D7C0033B3FFF7ABF90746594B5B6B13F4007F8A
:102D8C002FD1FFF7A3F9C01B41F288339842F3D936
:102D9C00032099E0052B09D0514B5A6B22F4807219
:102DAC005A635A6B22F480625A63E0E74C4B5A6BBD
:102DBC0042F480625A635A6B42F480725A63D6E7CB
:102DCC00FFF784F90746464B5B6B13F4007F08D082
:102DDC00FFF77CF9C01B41F288339842F3D90320EA
:102DEC0072E0C6B9636A002B6DD00C2D4CD0022B4F
:102DFC0017D03A4B00221A66FFF768F90446384B95
:102E0C001B6813F0007F3DD0FFF760F9001B022810
:102E1C00F5D9032058E0324A536A23F080535362A9
:102E2C00E0E72E4B00221A66FFF750F905462C4BB3
:102E3C001B6813F0007F06D0FFF748F9401B0228EF
:102E4C00F5D9032040E026498B6823F47D03A26A60
:102E5C00E06A0243206B024313438B601F4B012239
:102E6C001A66FFF733F904461D4B1B6813F0007FFD
:102E7C0006D1FFF72BF9001B0228F5D9032023E01C
:102E8C00002021E000201FE0012B1FD0144B9B6879
:102E9C0003F48031A26A91421AD103F47012E16AF0
:102EAC008A4217D103F44003226B934214D10020C1
:102EBC000AE001207047012006E0012004E0012017
:102ECC0002E0012000E0002003B0F0BD0120FBE790
:102EDC000120F9E70120F7E70120F5E70000474260
:102EEC00003802400070004008B5254B9A6802F08B
:102EFC000C03082B3FD00C2B0AD0042B3DD0204BBD
:102F0C005868C0F34230431C4FF40040984035E001
:102F1C00C2F383431B4911F803C0C2F3815201323F
:102F2C00174B9B6813F4803F06D017480023ACFB6B
:102F3C000001FDF725F921E04FEA4C11B1EB0C0033
:102F4C006EEB0E0E4FEA8E1343EA90638101091A61
:102F5C0063EB0E03DB0043EA5173C90011EB0C0C5D
:102F6C0043F10003990200234FEA8C2041EA9C5163
:102F7C00FDF706F902E0044800E0044808BD00BF74
:102F8C00003802408C56000800366E010024F40014
:102F9C00002800F0D98070B50C4605466E4B1B68B6
:102FAC0003F001038B420DD2012928D06A4A136821
:102FBC0023F0010323431360136803F00103A342BE
:102FCC0040F0C4802B6813F0020F06D0634A93685C
:102FDC0023F0F003A9680B4393602B6813F0010FE7
:102FEC0072D06B68022B10D0032B32D0012B37D050
:102FFC005A4A126812F4007F0DD101209DE0564A06
:10300C00136843F004031360D0E7544A126812F4B7
:10301C00003F00F09D8051498A6822F0030213435F
:10302C008B60FFF753F806466B68022B1FD0032BFF
:10303C002CD0012B39D0494B9B6813F00C0F43D08B
:10304C00FFF744F8801B41F288339842F3D90320F0
:10305C0073E0424A126812F0007FDCD101206CE070
:10306C003E4A126812F0020FD5D1012065E03B4BAD
:10307C009B6803F00C03082B26D0FFF727F8831B63
:10308C0041F288329342F2D9032056E0334B9B68CD
:10309C0003F00C030C2B17D0FFF718F8801B41F230
:1030AC0088339842F2D9032047E02C4B9B6803F0FD
:1030BC000C03042B08D0FFF709F8801B41F288336E
:1030CC009842F2D9032038E0234B1B6803F001032C
:1030DC00A3420CD9012C31D01F4A136823F00103F1
:1030EC0023431360136803F00103A34232D12B680E
:1030FC0013F0040F06D0194A936823F4E063E968CF
:10310C000B4393602B6813F0080F07D0134A936896
:10311C0023F46053296943EAC1039360FFF7E4FE8B
:10312C000E4B9B68C3F303130D4AD35CD8400D4B75
:10313C0018600D4B1868FEF785FF70BD064A1368C2
:10314C0043F004031360C7E7012070470120F4E744
:10315C000120F2E70120F0E7003C02400038024079
:10316C00745600080000002040000020014B186835
:10317C00704700BF0000002008B5FFF7F7FF044BB5
:10318C009B68C3F30223034AD35CD84008BD00BF3D
:10319C00003802408456000808B5FFF7E7FF044BDF
:1031AC009B68C3F3C223034AD35CD84008BD00BF5D
:1031BC00003802408456000870B582B0036813F0E2
:1031CC00010F00F091800446494B5B6A13F0805F5D
:1031DC0053D1474B5A6A42F080525A625B6A03F0F1
:1031EC0080530193019B0125424B1B6813F4807F94
:1031FC0045D03F4B1B6803F0C043626802F0C041EE
:10320C00994204D002F44033B3F5403F4BD0384BD5
:10321C005B6B13F4403316D002F440329A4212D056
:10322C00236813F0010F0ED0314A536B23F4403056
:10323C0031490126C1F8DC660026C1F8DC66506312
:10324C0013F4807F36D1236813F0010F0CD0636820
:10325C0003F44032B2F5403F3DD025494B6B6268D8
:10326C0002F4403213434B63012D3ED1204A536A82
:10327C0023F080535362002537E00025B4E71D4A44
:10328C00136843F480731360FEF720FF0646194B56
:10329C001B6813F4807FACD1FEF718FF831B642BE3
:1032AC00F5D9032521E0124B1B6813F4003FAED077
:1032BC0001251AE0FEF70AFF06460D4B5B6B13F473
:1032CC00007FC0D1FEF702FF801B41F28833984289
:1032DC00F3D9032509E006490A6822F0C04203F03D
:1032EC00C04313430B60B8E70025284602B070BDFD
:1032FC0000380240007000400000474238B50368B7
:10330C009A6812F0200F01D0002038BD0446DA680C
:10331C0022F0A002DA60FEF7D9FE05462368DB68CE
:10332C0013F0200F07D1FEF7D1FE431BB3F57A7FC4
:10333C00F4D90320E9E70020E7E738B50368DA6839
:10334C0012F0400F01D0002038BD04464FF0FF3280
:10335C00DA60FEF7BBFE05462368DB6813F0400F0E
:10336C0007D1FEF7B3FE431BB3F57A7FF4D90320E4
:10337C00EAE70020E8E738B500285CD00446437F34
:10338C00002B41D0022363772368CA225A62236838
:10339C0053225A622046FFF7D0FF0546002837D14A
:1033AC002268936823F4E00323F0400393602168C0
:1033BC008A686368206903436069034313438B6025
:1033CC002368E2681A6122681369A16843EA014321
:1033DC0013612268D36823F08003D36023689B6851
:1033EC0013F0200F1BD02268136C23F4802313647A
:1033FC002268136CA1690B4313642368FF225A6281
:10340C0001236377284638BD0377FDF70FFAB9E738
:10341C002368FF225A62042363770125F2E72046D2
:10342C00FFF76CFF0028DED02368FF225A620423CA
:10343C0063770125E6E70125E4E700002DE9F04775
:10344C0082B00546884617461E46FEF73FFE0A9B8D
:10345C001B1A03EB0609FEF739FE82462B4B1B6841
:10346C00C3F3CB3309FB03F301932B689C6838EA55
:10347C0004030CBF4FF0010C4FF0000CBC4540D0C6
:10348C00B6F1FF3FF1D0FEF721FEA0EB0A00484554
:10349C000AD2B9F1000F07D0019A02B14A46019B3A
:1034AC00013B01939146E0E72A68536823F0E0035F
:1034BC0053606B68B3F5827F0BD0AB6AB3F5005FDA
:1034CC0014D0012385F85130002385F850300320A7
:1034DC0018E0AB68B3F5004F02D0B3F5806FECD1B8
:1034EC002A68136823F040031360E6E72A68136820
:1034FC0023F4005313602A68136843F400531360D9
:10350C00DFE7002002B0BDE8F08700BF000000201C
:10351C0010B584B00446164B1868164BA3FB00304C
:10352C00400D4FF47A7303FB00F003906368B3F51E
:10353C00827F0BD0039BBBB1039B013B039323689E
:10354C009B6813F0800FF5D100200EE000920B4623
:10355C00002280212046FFF771FF30B1636D43F0EC
:10356C0020036365032000E0002004B010BD00BF01
:10357C0000000020819F5E1610B582B004460B46F9
:10358C004168B1F5827F14D06168B1F5827F2AD190
:10359C00A168B1F5806F19D00092002280212046DD
:1035AC00FFF74CFF30B3636D43F0200363650320DA
:1035BC0020E08168B1F5004F02D0B1F5806FE3D106
:1035CC002068016821F040010160DDE700920022D3
:1035DC0001212046FFF732FF60B1636D43F02003F9
:1035EC006365032006E00092002201212046FFF7CC
:1035FC0025FF08B902B010BD636D43F0200363656D
:10360C000320F7E7002851D010B50446436A33B9BC
:10361C004368B3F5827F05D00023C36102E0002329
:10362C00036143610023A36294F85130002B37D01F
:10363C00022384F851302268136823F0400313608E
:10364C00636803F48273A26802F404421343E268D1
:10365C0002F400621343226902F00202134362690E
:10366C0002F001021343A26902F400721343E269EF
:10367C0002F038021343226A02F080021343A26A5A
:10368C0002F40052216813430B60638B226803F031
:10369C000403536000206065012384F8513010BD91
:1036AC0084F850302046FDF7EDF8C1E70120704753
:1036BC002DE9F04383B01D4690F85030012B00F0FB
:1036CC00D180044688469146012380F85030FEF79D
:1036DC00FDFC074694F85160F6B2012E40F0AF8025
:1036EC00B8F1000F00F0AC80B9F1000F00F0A88029
:1036FC00032384F8513000236365C4F83080A4F8A8
:10370C003490A4F83690A363A387E387636423649F
:10371C00A368B3F5004F1ED023681A6812F0400F4F
:10372C0003D11A6842F040021A60E368B3F5006FE7
:10373C001CD0636813B1B9F1010F52D1226B23680D
:10374C0012781A73236B01332363E38E9BB2013B14
:10375C009BB2E38645E02268136823F040031360B4
:10376C002268136843F480431360D5E7636813B190
:10377C00B9F1010F16D1226B23681288DA60236B22
:10378C0002332363E38E9BB2013B9BB2E38609E0D9
:10379C00FEF79CFCC01BA84202D3B5F1FF3F59D1E8
:1037AC00002D59D0E38E9BB2002B33D023689A683E
:1037BC0012F0020FECD0226B1288DA60236B02330A
:1037CC002363E38E9BB2013B9BB2E386EAE7FEF7F1
:1037DC007DFCC01BA84202D3B5F1FF3F3ED1002DAA
:1037EC003ED0E38E9BB2ABB123689A6812F0020F05
:1037FC00EDD0226B12781A73236B01332363B4F868
:10380C0036C01FFA8CFC0CF1FF3C1FFA8CFCA4F8A0
:10381C0036C0E6E73A4629462046FFF779FE08B15E
:10382C0020236365A36833B901932368DA68019296
:10383C009B680193019B636D13B9002600E002267F
:10384C00012384F85130002384F85030304603B003
:10385C00BDE8F0830326F3E70326F1E70326EFE741
:10386C000326EDE70226F1E72DE9F04383B01F466E
:10387C000A9D90F85030012B00F0108104468846C8
:10388C009146012380F85030FEF720FC064694F850
:10389C005130DBB26268012B0AD0B2F5827F40F066
:1038AC00E380A268002A40F0E980042B40F0E88015
:1038BC00B8F1000F00F0E680B9F1000F00F0E480E1
:1038CC00002F00F0E38094F85130DBB2042B02D0CF
:1038DC00052384F8513000236365C4F83890E787DA
:1038EC00A787C4F83080E786A786236463642368BF
:1038FC001A6812F0400F03D11A6842F040021A60A5
:10390C00E368B3F5006F11D063680BB1012F0BD1D5
:10391C00226B236812781A73236B01332363E38EB3
:10392C009BB2013B9BB2E38601276BE063680BB152
:10393C00012F0BD1226B23681288DA60236B0233C0
:10394C002363E38E9BB2013B9BB2E38601271CE011
:10395C0023689A6812F0010F0ED0E28F92B25AB11E
:10396C00DA68A36B1A80A36B0233A363E38F9BB259
:10397C00013B9BB2E3870127FEF7A8FB801BA84203
:10398C0003D3B5F1FF3F40F08380E38E9BB21BB9AC
:10399C00E38F9BB2002B53D023689A6812F0020F6E
:1039AC00D6D0E28E92B2002AD2D0002FD0D0226B89
:1039BC001288DA60236B02332363E38E9BB2013BE4
:1039CC009BB2E3860027C3E723689A6812F0010FC5
:1039DC000ED0E28F92B25AB1DA68A36B1A70A36B55
:1039EC000133A363E38F9BB2013B9BB2E3870127B7
:1039FC00FEF76CFB831BAB4202D3B5F1FF3F49D101
:103A0C00002D49D0E38E9BB213B9E38F9BB2BBB1AF
:103A1C0023689A6812F0020FD6D0E28E92B2002A76
:103A2C00D2D0002FD0D0226B12781A73236B0133B3
:103A3C002363E38E9BB2013B9BB2E3860027C3E773
:103A4C00324629462046FFF763FD48B9A36863B99F
:103A5C0001932368DA6801929B680193019B04E04F
:103A6C0020236365012000E00220012384F85130FB
:103A7C00002384F8503003B0BDE8F0830220F4E753
:103A8C000220F2E70120F0E70120EEE70120ECE74D
:103A9C000320EAE70320E8E70320E6E70220EAE751
:103AAC002DE9F04383B00446884691461D46406894
:103ABC00B0F5827F38D094F85030012B00F0AE80F6
:103ACC00012384F85030FEF701FB074694F851604F
:103ADC00F6B2012E40F08F80B8F1000F00F08C8010
:103AEC00B9F1000F00F08880042384F851300023D2
:103AFC006365C4F83880A4F83C90A4F83E90236326
:103B0C00A386E38623646364A368B3F5004F19D0DE
:103B1C0023681A6812F0400F03D11A6842F0400271
:103B2C001A60E3681BB341E0A368002BC3D10423E4
:103B3C0084F85130009513460A462046FFF794FE50
:103B4C0006465FE02268136823F040031360226886
:103B5C00136823F480431360DAE7FEF7B7FAC01B4F
:103B6C00A84202D3B5F1FF3F50D1002D50D0E38FC6
:103B7C009BB2002B33D023689A6812F0010FECD063
:103B8C00A26B1B7B1370A36B0133A363E38F9BB2FC
:103B9C00013B9BB2E387EAE7FEF798FAC01BA84209
:103BAC0002D3B5F1FF3F35D1002D35D0E38F9BB259
:103BBC00ABB123689A6812F0010FEDD0DA68A36BF1
:103BCC001A80A36B0233A363B4F83EC01FFA8CFCBB
:103BDC000CF1FF3C1FFA8CFCA4F83EC0E6E73A4619
:103BEC0029462046FFF7C8FC08B120236365636DA6
:103BFC0013B9002600E00226012384F8513000237B
:103C0C0084F85030304603B0BDE8F0830326F3E768
:103C1C000326F1E70326EFE70326EDE70226F1E79B
:103C2C007047000030B585B004460268516893684F
:103C3C00C3F3801013F0400F05D113F0010F02D025
:103C4C0011F0400F5AD113F0020F02D011F0800F77
:103C5C0058D1C3F3401513F0200F01D1002854D0D4
:103C6C0011F0200F51D078B194F85130DBB2032B06
:103C7C004DD0636D43F00403636500230193D36857
:103C8C00019393680193019B65B1636D43F001034C
:103C9C0063650023039393680393136823F0400335
:103CAC001360039B636D002B2FD02268536823F0A5
:103CBC00E0035360012384F8513011F0030F2ED030
:103CCC002268536823F003035360E36C4BB1164A2C
:103CDC005A63E06CFEF7CCFC18B1636D43F0400303
:103CEC006365A36C8BB1104A5A63A06CFEF7C0FCE1
:103CFC0058B1636D43F04003636506E0236C2046C6
:103D0C00984702E0636C2046984705B030BD00230D
:103D1C000293D368029393680293029BF5E72046C3
:103D2C00FFF77EFFF1E700BF393D000808B5406A98
:103D3C000023C387C386FFF773FF08BD90F85100BB
:103D4C00704700000368B0F1804F06D0184A9042CB
:103D5C0003D002F58062904203D123F070034A68CD
:103D6C001343B0F1804F12D0114A90420FD002F59C
:103D7C00806290420BD002F58032904207D002F55F
:103D8C008062904203D002F58062904203D123F40A
:103D9C004073CA68134323F080030A69134303601A
:103DAC008B68C3620B68836201234361704700BF59
:103DBC000004004010B4036A23F001030362036A99
:103DCC004468826922F0730C0A6842EA0C0223F000
:103DDC00020C8B6843EA0C03446082614A684263BC
:103DEC00036210BC704710B4036A23F01003036223
:103DFC00036A4468826922F4E642D1F800C042EAC0
:103E0C000C2223F02003D1F808C043EA0C134460C1
:103E1C0082614A688263036210BC704710B4036A03
:103E2C0023F480730362036A4468C26922F0730C42
:103E3C000A6842EA0C0223F40073D1F808C043EA82
:103E4C000C234460C2614A68C263036210BC7047B1
:103E5C0010B4036A23F480530362036A4468C26992
:103E6C0022F4E642D1F800C042EA0C2223F40053BB
:103E7C00D1F808C043EA0C334460C2614A6802645A
:103E8C00036210BC704710B4036A046A24F0010486
:103E9C000462846924F0F00C4CEA021223F00A0349
:103EAC000B438261036210BC704710B4046A24F0A7
:103EBC00100404628469036A24F4704C4CEA0232E4
:103ECC0023F0A00343EA01138261036210BC704724
:103EDC00836823F070030B4343F007038360704740
:103EEC0010B4846824F47F4C42EA03220A4342EA69
:103EFC000C02826010BC704701F01F01012303FA11
:103F0C0001FC036A23EA0C030362036A02FA01F15F
:103F1C000B430362704700B310B5044690F8393078
:103F2C00B3B1022384F83930214651F8040BFFF762
:103F3C0009FF012384F83E3084F83A3084F83B3092
:103F4C0084F83C3084F83D3084F83930002010BDC2
:103F5C0080F83830FCF76CFDE3E7012070477047C0
:103F6C0000B310B5044690F83930B3B1022384F88D
:103F7C003930214651F8040BFFF7E4FE012384F895
:103F8C003E3084F83A3084F83B3084F83C3084F886
:103F9C003D3084F83930002010BD80F83830FFF700
:103FAC00DEFFE3E70120704710B50446084631BB3D
:103FBC0094F83A30DBB2013B18BF0123002B52D1ED
:103FCC00002835D1022384F83A30012201462068BA
:103FDC00FFF792FF2368B3F1804F39D0244A934204
:103FEC0036D002F58062934232D002F58032934291
:103FFC002ED01A6842F001021A60002034E0042925
:10400C0008D008290DD094F83D30DBB2013B18BF25
:10401C000123D3E794F83B30DBB2013B18BF0123FB
:10402C00CCE794F83C30DBB2013B18BF0123C5E769
:10403C00042805D0082807D0022384F83D30C4E7B3
:10404C00022384F83B30C0E7022384F83C30BCE701
:10405C009A6802F00702062A07D01A6842F0010299
:10406C001A60002000E0012010BD0020FCE700BF1A
:10407C000004004038B590F83830012B60D004466D
:10408C000D46012380F838300C2A1AD8DFE802F0EC
:10409C00071919191D191919311919194400006832
:1040AC00FFF788FE2268936943F008039361226846
:1040BC00936923F00403936122689369E9680B43C5
:1040CC009361002084F8380038BD0068FFF78BFE40
:1040DC002268936943F4006393612268936923F423
:1040EC008063936122689369E96843EA01239361D1
:1040FC00E7E70068FFF792FE2268D36943F00803F4
:10410C00D3612268D36923F00403D3612268D36995
:10411C00E9680B43D361D4E70068FFF799FE226886
:10412C00D36943F40063D3612268D36923F48063B9
:10413C00D3612268D369E96843EA0123D361C0E7FC
:10414C000220C1E790F83830012B66D010B5044638
:10415C00012380F83830022380F8393002689368E4
:10416C0023F47F4323F0770393600B68602B40D0DC
:10417C0022D8402B47D00BD9502B0ED1CA68496896
:10418C000068FFF780FE50212068FFF7A1FE04E0D5
:10419C00202B0CD008D9302B09D0012384F83930CE
:1041AC00002084F8380010BD0BB1102BF5D1194646
:1041BC002068FFF78DFEF0E7702B0ED0B3F5005F93
:1041CC00EBD1CB684A6889680068FFF789FE2268E2
:1041DC00936843F480439360DFE7CB684A6889684F
:1041EC000068FFF77DFE2268936843F077039360C5
:1041FC00D3E7CA6849680068FFF757FE602120685A
:10420C00FFF766FEC9E7CA6849680068FFF73BFE1E
:10421C0040212068FFF75CFEBFE702207047704723
:10422C00704770477047704710B5044603681A69A9
:10423C0012F0020F11D0DA6812F0020F0DD06FF0ED
:10424C0002021A610123037603689B6913F0030FC2
:10425C005ED0FFF7E6FF0023237623681A6912F07D
:10426C00040F12D0DA6812F0040F0ED06FF00402B3
:10427C001A610223237623689B6913F4407F4DD087
:10428C002046FFF7CEFF0023237623681A6912F02D
:10429C00080F12D0DA6812F0080F0ED06FF0080277
:1042AC001A61042323762368DB6913F0030F3CD0D7
:1042BC002046FFF7B6FF0023237623681A6912F015
:1042CC00100F12D0DA6812F0100F0ED06FF010022F
:1042DC001A61082323762368DB6913F4407F2BD003
:1042EC002046FFF79EFF0023237623681A6912F0FD
:1042FC00010F03D0DA6812F0010F24D123681A6978
:10430C0012F0400F03D0DA6812F0400F22D110BD2A
:10431C00FFF786FF2046FFF785FF9CE72046FFF757
:10432C007FFF2046FFF77EFFADE72046FFF778FFC3
:10433C002046FFF777FFBEE72046FFF771FF2046C8
:10434C00FFF770FFCFE76FF001021A612046FFF70D
:10435C0066FFD3E76FF040021A612046FFF763FF58
:10436C00D5E7000090F83830012B2CD010B4012385
:10437C0080F83830022380F8393003685A689C681A
:10438C0022F0700C0A6842EA0C025A600368B3F11E
:10439C00804F0AD00D4A934207D002F580629342B7
:1043AC0003D002F58032934204D124F080044A6891
:1043BC0014439C60012380F83930002380F8383096
:1043CC00184610BC70470220704700BF0004004024
:1043DC000268D36823F0C003D360202380F83D30FB
:1043EC0070470268D36823F49073D36002685369F2
:1043FC0023F001035361036B012B05D0202380F8BC
:10440C003E300023036370470268D36823F0100327
:10441C00D360F3E790F83D30DBB2212B01D00220C2
:10442C0070478368B3F5805F17D0036A5A1C026229
:10443C001A7803685A60C38C9BB2013B9BB2C3844D
:10444C004BB90268D36823F08003D3600268D36849
:10445C0043F04003D360002070470369002BE4D184
:10446C00036A1B880268C3F308035360036A0233B0
:10447C000362E0E738B504460268136923F440533D
:10448C00C1680B4313618368026913434269134388
:10449C00C2691A430168CB6823F4164323F00C035A
:1044AC001343CB600268536923F4407381690B4357
:1044BC0053610268244B9A4223D0FEF75DFEE369F8
:1044CC00B3F5004F20D000EB800202EB8202606853
:1044DC008000B2FBF0F21D48A0FB023149096423B5
:1044EC0003FB11231B013233A0FB03235B0903F0F5
:1044FC00F00202EB011203F00F03216813448B60EE
:10450C0038BDFEF749FEDAE700EB800000EB8000D7
:10451C0063685B00B0FBF3F00C4DA5FB0032510956
:10452C00642303FB1103DB003233A5FB03235B097C
:10453C005A0002F4F87202EB011203F0070321682F
:10454C0013448B60DCE700BF003801401F85EB5142
:10455C0058B310B5044690F83D300BB3242384F8BF
:10456C003D302268D36823F40053D3602046FFF714
:10457C0081FF2268136923F4904313612268536905
:10458C0023F02A0353612268D36843F40053D360A9
:10459C0000202064202384F83D3084F83E3010BD88
:1045AC0080F83C30FCF7BEFBD8E7012070470000D8
:1045BC0038B590F83D30DBB2202B31D104460029C0
:1045CC0030D0002A30D090F83C30012B2ED0012373
:1045DC0080F83C3001628284C2840025056421236A
:1045EC0080F83D30436B12489862636B1148D86277
:1045FC00636B11481863636B5D6320681346021D7F
:10460C00606BFDF7D5FF23686FF040021A6084F8E9
:10461C003C502268536943F080035361284600E004
:10462C00022038BD0120FCE70120FAE70220F8E760
:10463C0049460008954600089F46000808B5034601
:10464C00406A1B681B6813F0200F0CD10023C38435
:10465C000268536923F0800353610268D36843F006
:10466C004003D36008BDFBF7EBFFFBE708B501681F
:10467C00CA6822F04002CA60202280F83D20FBF775
:10468C00DFFF002008BD704708B5406AFFF7FBFF4D
:10469C0008BD10B5446A23685A6994F83D30DBB202
:1046AC00212B10D023685A6902F0400294F83E3056
:1046BC00DBB2222B11D0236C43F010032364204671
:1046CC00FBF7E2FF10BD02F08002002AEAD00023C3
:1046DC00E3842046FFF77CFEE4E7002AEBD00023BE
:1046EC00E3852046FFF77DFEE5E708B5406A002329
:1046FC00C385C384FBF7C8FF08BD704790F83E30F4
:10470C00DBB2222B60D18368B3F5805F46D0826A1E
:10471C00B3F5805F04D0002B4DD10369002B4AD137
:10472C0003685B681370836A01338362C38D9BB229
:10473C00013B9BB2C385002B48D100B583B0026806
:10474C00D36823F02003D3600268D36823F480730A
:10475C00D3600268536923F001035361202380F86E
:10476C003E30036B012B2CD1002303630268D3680A
:10477C0023F01003D36003681A6812F0100F06D0F0
:10478C00002201921A6801925B680193019B818D52
:10479C00FFF7B3FF002003B05DF804FB0269002AA9
:1047AC00B5D1826A03685B68C3F308031380836A1C
:1047BC0002338362BAE703685B6803F07F0313700C
:1047CC00B1E7FBF755FFE5E7022070470020704783
:1047DC0030B583B0044602681368D068516913F091
:1047EC000F0505D113F0200F02D010F0200F19D1B6
:1047FC002DB111F0010119D110F4907F16D1216B5C
:10480C00012975D013F0800F03D010F0800F40F009
:10481C00D78013F0400F03D010F0400F40F0D4803D
:10482C0003B030BD2046FFF769FFF9E713F0010F25
:10483C0006D010F4807F03D0226C42F00102226477
:10484C0013F0040F04D019B1226C42F0020222645E
:10485C0013F0020F04D019B1226C42F0040222644E
:10486C0013F0080F07D010F0200F00D119B1226CF3
:10487C0042F008022264226C002AD1D013F0200FDF
:10488C0002D010F0200F21D123685B6903F04003A4
:10489C00226C12F0080F00D123B32046FFF7A1FDC4
:1048AC0023685A6912F0400F18D05A6922F040025E
:1048BC005A61A36B73B1464A5A63A06BFDF7D8FEDD
:1048CC000028ADD0A06B436B9847A9E72046FFF7B3
:1048DC0015FFD9E72046FBF7D7FEA1E72046FBF7EB
:1048EC00D3FE9DE72046FBF7CFFE0023236497E71A
:1048FC0013F0100F86D010F0100F83D0002301930B
:10490C001368019353680193019B536913F0400F93
:10491C0032D0A16B0B685B689BB2002B80D0A08D52
:10492C0098427FF67DAFE3858B69202B08D1A18D52
:10493C00E38D9BB2C91A89B22046FFF7DEFE6FE702
:10494C00D36823F48073D3602268536923F0010386
:10495C0053612268536923F040035361202384F888
:10496C003E30002323632268D36823F01003D36006
:10497C00A06BFDF758FEDAE7A18DE38D9BB2C91A47
:10498C0089B2E38D9BB2002B3FF44AAF00293FF470
:10499C0047AFD36823F49073D3602268536923F034
:1049AC0001035361202384F83E30002323632268E3
:1049BC00D36823F01003D3602046FFF79EFE2FE749
:1049CC002046FFF727FD2BE72046FFF74FFE27E792
:1049DC00F746000808B5406A036B012B02D0FBF7C1
:1049EC003BFE08BD818D4908FFF787FEF9E708B546
:1049FC000346406A1B681B6813F0200F16D1002376
:104A0C00C3850268D36823F48073D360026853694A
:104A1C0023F0010353610268536923F0400353618F
:104A2C00202380F83E30036B012B05D0036B012B48
:104A3C0008D0FBF71DFE08BD0268D36823F01003F5
:104A4C00D360F3E7818DFFF758FEF4E730B583B000
:104A5C00044613468162828500250564222280F873
:104A6C003E20826B14489062A26B1448D062A26BF9
:104A7C0013481063A26B556320680A46011DA06B96
:104A8C00FDF796FD019523681A6801925A68019208
:104A9C00019A84F83C50DA6842F48072DA60226839
:104AAC00536943F0010353612268536943F0400397
:104ABC005361284603B030BDFB490008E1490008AA
:104ACC009F46000808B590F83E30DBB2202B0DD184
:104ADC0071B17AB190F83C30012B0DD0012380F8E4
:104AEC003C3000230363FFF7B1FF00E0022008BD58
:104AFC000120FCE70120FAE70220F8E7014B1868D7
:104B0C00704700BF4400002070B500260C4D0D4CC2
:104B1C00641BA410A64209D100F090FD00260A4D9A
:104B2C000A4C641BA410A64205D170BD55F8043B79
:104B3C0098470136EEE755F8043B98470136F2E703
:104B4C005C5900085C5900085C5900086059000861
:104B5C0003460244934200D1704703F8011BF9E766
:104B6C00034610B572B10139841813F8010B11F812
:104B7C00012F904201D1A34201D1801A10BD00280F
:104B8C00F3D1FAE71046F9E7034610B5013932B113
:104B9C0011F8014F013A03F8014B002CF7D1002119
:104BAC001A44934200D110BD03F8011BF9E70246E9
:104BBC0010B501448A42134603D01C780132002CF4
:104BCC00F8D1181A10BDF0B508B9106888B10446B0
:104BDC000F46204614F8015B17F8016B1EB965B936
:104BEC002846156005E0B542F6D1002BF0D11460D3
:104BFC000370F0BD1C460CE015B90E4614F8013BD1
:104C0C0016F8015BAB42F7D1002BF3D0002304F86C
:104C1C00013C1460EDE70123FFF7D5BF2DE9F0430C
:104C2C0086460D46354F284615F8014BE65D16F0C5
:104C3C000806F8D12D2C2FD101262C78851C002BA1
:104C4C0057D0102B09D1302C07D1287800F0DF0079
:104C5C00582849D110236C7802354FF0FF38B8FB37
:104C6C00F3F8002703FB08F938466FEA0909A4F1A9
:104C7C00300CBCF1090F14D86446A34222DD002F7E
:104C8C001DDB80451BD301D1A14518DB012700FB9F
:104C9C00034015F8014BEAE72B2C04BF2C78851C3C
:104CAC00CDE7A4F1410CBCF1190F01D8373CE4E776
:104CBC00A4F1610CBCF1190F04D8573CDDE74FF09F
:104CCC00FF37E6E7002F07DA22234FF0FF30CEF84C
:104CDC00003032B9BDE8F08306B14042002AF9D069
:104CEC0007B1691E1160F5E73024002BB5D10823FC
:104CFC00B3E7302CA9D00A23AFE700BF1F58000838
:104D0C0013460A46014602480068FFF787BF00BFFA
:104D1C004400002030B51446002C05461A469BB0C2
:104D2C0005DA8B2303604FF0FF301BB030BD4FF41E
:104D3C000273ADF80C300CBF234604F1FF33029321
:104D4C0005934FF6FF7300910491ADF80E30694650
:104D5C001E9B00F075F8431CBCBF8B232B60002CF2
:104D6C00E3D00022009B1A70DFE7000007B5009328
:104D7C0013460A46014603480068FFF7CBFF03B011
:104D8C005DF804FB440000202DE9F0478E68824654
:104D9C009E420C4690461F4638D88A8912F4906F72
:104DAC0032D0256809690133A5EB010965694B44CB
:104DBC0005EB450505EBD5756D109D4238BF1D46BD
:104DCC00530531D5294600F06FFB064650B90C232C
:104DDC004FF0FF30CAF80030A38943F04003A381A1
:104DEC00BDE8F0874A46216900F0CEFAA38923F486
:104DFC00906343F08003A38126614E4426603E46B7
:104E0C006561A5EB0905A560BE4200D93E46324658
:104E1C004146206800F0C6FAA36800209B1BA360E3
:104E2C00236833442360DBE72A4600F0B1FB0646D7
:104E3C000028E1D15046216900F0CEFAC7E7000006
:104E4C002DE9F04F98468B8907461B060D461446F4
:104E5C009DB00ED50B6963B9402100F025FB28608D
:104E6C00286120B90C233B604FF0FF30D1E0402388
:104E7C006B610023099320238DF8293030234FF0E8
:104E8C000109CDF80C80DFF8A4818DF82A30234677
:104E9C009A4613F8012B0AB1252AF9D1BAEB040B67
:104EAC000BD05B46224629463846FFF76DFF013092
:104EBC0000F0AA80099A5A4409929AF80030002B03
:104ECC0000F0A28000234FF0FF32CDE905230AF158
:104EDC00010A049307938DF853301A935446052214
:104EEC0014F8011B514800F041FA049AD8B9D006C5
:104EFC0044BF20238DF85330110744BF2B238DF86A
:104F0C0053309AF800302A2B15D0544600204FF01D
:104F1C000A0C079A214611F8013B303B092B4ED95C
:104F2C00B0B1079214E0A0EB080309FA03F31343A2
:104F3C00A2460493D2E7039B191D1B680391002B17
:104F4C00BBBF5B4242F0020207930793B8BF0492C7
:104F5C0023782E2B0CD163782A2B35D1039B02346A
:104F6C001A1D1B680392002BB8BF4FF0FF3305933B
:104F7C00DFF8BCA003225046217800F0F7F940B1CD
:104F8C004023A0EB0A0003FA00F0049B0134034316
:104F9C00049314F8011B062226488DF8281000F003
:104FAC00E5F9002838D0244B1BBB039B073323F0B7
:104FBC00070308330393099B3344099367E70C46B3
:104FCC0001200CFB0232A5E700234FF00A0C194616
:104FDC0001340593204610F8012B303A092A03D9E5
:104FEC00002BC5D00591C3E7044601230CFB01211E
:104FFC00F0E703AB00932A463846104B04A9AFF3F5
:10500C000080421C0646D6D1AB895B063FF52CAF1F
:10501C0009981DB0BDE8F08F03AB00932A463846C3
:10502C00064B04A900F07CF8EBE700BF1F59000801
:10503C00255900082959000800000000954D00086A
:10504C002DE9F047164699468A680B690746934244
:10505C00B8BF1346336091F843200C46DDF820802E
:10506C000AB1013333602368990642BF33680233B7
:10507C003360256815F0060506D104F1190AE368BA
:10508C0032689B1AAB4228DC94F84320131E22682A
:10509C0018BF012392062DD44946384604F1430229
:1050AC00C047013020D02368E56803F00603042BC9
:1050BC0018BF002532684FF00006A36808BFAD1A70
:1050CC00226908BF25EAE5759342C4BF9B1AED1807
:1050DC001A34B5421AD1002008E001235246494641
:1050EC003846C047013003D14FF0FF30BDE8F087A0
:1050FC000135C4E73020E11881F843005A1C94F8BC
:10510C0045102244023382F84310C5E7012322469E
:10511C0049463846C0470130E6D00136D9E7000091
:10512C002DE9FF470F7E9146782F80460C469A4614
:10513C000C9D01F1430207D8622F0AD8002F00F012
:10514C00D980582F00F0A48004F1420584F84270F5
:10515C003AE0A7F16303152BF6D801A151F823F01F
:10516C00C5510008D9510008555100085551000887
:10517C005551000855510008D951000855510008E7
:10518C00555100085551000855510008E7520008C8
:10519C0009520008C9520008555100085551000821
:1051AC0009530008555100080952000855510008D0
:1051BC0055510008D15200082B681A1D1B682A6033
:1051CC0004F1420584F842300123A4E020682968E8
:1051DC00060601F104030AD50E682B60002E03DAD3
:1051EC002D23764284F843300A235E4819E00E687A
:1051FC0010F0400F2B6018BF36B2EFE72B68206819
:10520C00191D2960010601D51E6802E04606FBD572
:10521C001E886F2F0CBF08230A235248002184F8E4
:10522C0043106568002DA8BF2168A560A4BF21F0BC
:10523C00040121600EB9002D4DD01546B6FBF3F1DB
:10524C0003FB1167C75D05F8017D3746BB420E466F
:10525C00F4D9082B0BD12368DE0708D523696168C4
:10526C009942DEBF302305F8013C05F1FF35521B96
:10527C0022614B4621464046CDF800A003AAFFF719
:10528C00DFFE01304CD14FF0FF3004B0BDE8F087A9
:10529C00344881F845702968236851F8046B2960FB
:1052AC001D0614D5DF0744BF43F0200323601EB94D
:1052BC00236823F0200323601023AFE7236843F017
:1052CC00200323607823284884F84530E3E7590607
:1052DC0048BFB6B2E6E71546BBE72B682668181D33
:1052EC006169286035061B6801D5196002E07006FB
:1052FC00FBD51980002315462361BAE72B680021E2
:10530C001A1D2A601D686268284600F02FF808B143
:10531C00401B606063682361002384F84330A8E776
:10532C002A46494640462369D0470130ABD0236812
:10533C009B0713D4E068039B9842B8BF1846A4E7B8
:10534C000123324649464046D04701309BD00135B7
:10535C00E36803995B1AAB42F2DCEBE7002504F13E
:10536C001906F5E73059000841590008034610B5F5
:10537C00C9B202449342184601D1002003E00478DC
:10538C0001338C42F6D110BD0A44914200F1FF3337
:10539C0000D1704710B511F8014B914203F8014F41
:1053AC00F9D110BD884210B501EB020402D9844238
:1053BC00234607D8431EA14208D011F8012B03F84D
:1053CC00012FF8E7014602448A4200D110BD13F8C0
:1053DC00014D02F8014DF7E738B50546002940D0DC
:1053EC0051F8043C0C1F002BB8BFE41800F010F966
:1053FC001C4A136833B9636014602846BDE8384012
:10540C0000F00CB9A34208D9206821188B4201BFC7
:10541C0019685B6809182160EDE71A465B680BB1E7
:10542C00A342FAD911685018A0420BD1206801444C
:10543C00501883421160E0D118685B680144116018
:10544C005360DAE702D90C232B60D6E720682118C9
:10545C008B4201BF19685B68091821606360546056
:10546C00CBE738BDE82E002070B50E4E0C463168E7
:10547C00054611B900F0BCF830602146284600F012
:10548C00B7F8431C0AD0C41C24F00304A04207D074
:10549C00211A284600F0ACF8013001D14FF0FF344E
:1054AC00204670BDEC2E00202DE9F041CD1C25F0DE
:1054BC00030508350C2D38BF0C25002D074601DBE4
:1054CC00A94205D90C2300263B603046BDE8F0818B
:1054DC002E4E00F09DF833681C4634BB29463846E6
:1054EC00FFF7C2FF431C04464DD134682646002EFC
:1054FC0040D123683146384604EB030800F078F8B5
:10550C0080453AD1216803356D1A25F0030508351D
:10551C000C2D38BF0C2538462946FFF7A5FF013066
:10552C002BD023682B4423600EE02268521B1ED420
:10553C000B2A16D96119A342256018BF59606368FC
:10554C0008BF316062514B60384604F10B0600F025
:10555C0065F826F00706231DF21AB6D09B1BA35044
:10556C00B3E76268A3420CBF32605A60ECE7234693
:10557C006468B2E734467668B9E70C2338463B607A
:10558C0000F04CF8A1E72560DEE700BFE82E002014
:10559C002DE9F041804614460E4621B91146BDE86E
:1055AC00F041FFF781BF2AB9FFF716FF25462846C1
:1055BC00BDE8F08100F038F88442074602D8B4EB1D
:1055CC00500F12D821464046FFF76EFF05460028C3
:1055DC00EDD0BC422246314628BF3A46FFF7D4FEF6
:1055EC0031464046FFF7F8FEE1E73546DFE70000BD
:1055FC0038B50023054D044608462B60FBF7F2F93D
:10560C00431C02D12B6803B1236038BDF02E00205F
:10561C00014800F011B800BFF42E0020014800F042
:10562C000CB800BFF42E002051F8043C181F002BBE
:10563C00BCBF0B58C018704770477047F8B500BF17
:10564C00F8BC08BC9E467047F8B500BFF8BC08BC57
:04565C009E467047AF
:105660004E6F6E6500000000000000006C65640075
:105670000000000000000000000000000102030420
:1056800006070809000000000102030403040608DD
:105690000C101820300000003C2530782C25307884
:1056A0002C2530780D0000003C2530782C253078F2
:1056B0002C2530782C2530640D0000003C253078F6
:1056C0002C2530782C2530782C25730D0000000017
:1056D0003C2530782C2530782C2530782C25780DF9
:1056E000000000003F737461747573003F7479703B
:1056F000650000003F6E616D650000003F657272DD
:10570000000000003F76657200000000736572764D
:105710006963650061646472000000006E616D651C
:1057200000000000646F6E6500000000637263009B
:10573000736574007365746D756C00006F66660048
:105740006F66666D756C00003F6C6564000000005C
:105750006D617800E456000807000000E5140008B9
:10576000EC56000805000000B1140008F4560008CB
:10577000050000003D180008FC5600080400000069
:105780007D140008045700080400000059140008A4
:105790000C57000807010000F5170008145700080F
:1057A00004010000A91700081C57000804010000AC
:1057B00059170008245700080401000011170008B9
:1057C0002C57000803010000C916000830570008D4
:1057D00003020000651600083457000806020000A6
:1057E000051600083C57000803010000B515000825
:1057F00040570008060100006915000848570008D6
:1058000004010000091500085057000803020000B9
:10581000F513000810050304060200002C00002008
:105820002020202020202020282828282820202050
:105830002020202020202020202020202020208800
:105840001010101010101010101010101010100464
:1058500004040404040404040410101010101010B4
:1058600041414141414101010101010101010101A8
:1058700001010101010101010101101010101010BE
:105880004242424242420202020202020202020278
:105890000202020202020202020210101010200094
:1058A00000000000000000000000000000000000F8
:1058B00000000000000000000000000000000000E8
:1058C00000000000000000000000000000000000D8
:1058D00000000000000000000000000000000000C8
:1058E00000000000000000000000000000000000B8
:1058F00000000000000000000000000000000000A8
:105900000000000000000000000000000000000097
:105910000000000000000000000000000000002364
:105920002D302B2000686C4C0065666745464700AB
:1059300030313233343536373839414243444546C5
:10594000003031323334353637383961626364655B
:0459500066000000ED
:0859540068A8FF7F01000000BC
:04595C0061010008DD
:045960003D010008FD
:1059640068FF1F00000000000400000008000000A1
:105974000C0000000000000004000000080000000B
:105984000C0000006E6F6E650000000000006E6F7A
:105994006E65000000000000FF010000010000002F
:1059A400100000004800002000000000000000007B
:1059B40000000000000000000000000000000000E3
:1059C40000000000000000000000000000000000D3
:1059D40000000000000000000000000000000000C3
:1059E40000000000000000000000000000000000B3
:1059F40000000000000000000000000000000000A3
:085A040000000000000000009A
:047FE000000100009C
:04000005080018894E
:00000001FF
