:020000040800F2
:10000000004000204D1F0008A1080008A7080008B4
:10001000AD080008B3080008B90800080000000097
:10002000000000000000000000000000BF08000801
:10003000CB08000800000000D7080008E30800080B
:10004000951F0008951F0008951F0008951F0008C0
:10005000951F0008951F0008951F0008951F0008B0
:10006000951F0008951F0008951F0008951F0008A0
:10007000951F0008951F0008F108000805090008F1
:10008000951F0008951F0008951F0008951F000880
:10009000951F0008951F0008951F0008951F000870
:1000A00000000000951F0008951F0008951F00081C
:1000B000951F0008951F0008951F0008951F000850
:1000C000951F0008951F0008951F000819090008D2
:1000D000951F00082D090008951F0008951F0008AE
:1000E000951F0008951F0008951F0008951F000820
:1000F000951F000800000000000000000000000044
:1001000000000000000000000000000000000000EF
:1001100000000000000000000000000000000000DF
:1001200000000000000000000000000000000000CF
:0C01300000000000000000005FF808F173
:10013C0010B5054C237833B9044B13B10448AFF315
:10014C0000800123237010BD9800002000000000E7
:10015C00F46F000808B5034B1BB103490348AFF318
:10016C00008008BD000000009C000020F46F000817
:10017C00034613F8012B002AFBD1181A01387047DB
:10018C0053B94AB9002908BF00281CBF4FF0FF31F2
:10019C004FF0FF3000F076B9ADF1080C6DE904CEEC
:1001AC0000F006F8DDF804E0DDE9022304B0704746
:1001BC002DE9F047089E0D4604468846002B4DD18C
:1001CC008A42944668D9B2FA82F252B101FA02F329
:1001DC00C2F1200120FA01F10CFA02FC41EA0308F9
:1001EC0094404FEA1C41B8FBF1F71FFA8CFE01FB5F
:1001FC00178807FB0EF0230C43EA084398420AD9F0
:10020C001CEB030307F1FF3580F01E81984240F28E
:10021C001B81023F63441B1AB3FBF1F001FB10334B
:10022C0000FB0EFEA4B244EA0344A6450AD91CEB1B
:10023C00040400F1FF3380F00981A64540F20681E9
:10024C00644402380021A4EB0E0440EA07401EB1BE
:10025C000023D440C6E90043BDE8F0878B4208D99F
:10026C00002E00F0EE800021C6E900050846BDE82E
:10027C00F087B3FA83F100294AD1AB4202D3824210
:10028C0000F2FC80841A65EB030301209846002ED3
:10029C00E2D0C6E90048DFE702B9FFDEB2FA82F22B
:1002AC00002A40F09180A1EB0C0001214FEA1C4781
:1002BC001FFA8CFEB0FBF7F307FB1300250C45EA85
:1002CC0000450EFB03F0A84208D91CEB050503F111
:1002DC00FF3802D2A84200F2CE8043462D1AB5FB5D
:1002EC00F7F007FB10550EFB00FEA4B244EA0544E0
:1002FC00A64508D91CEB040400F1FF3502D2A64533
:10030C0000F2B6802846A4EB0E0440EA03409EE7B8
:10031C00C1F120078B4022FA07FC4CEA030C25FAAA
:10032C0007FA4FEA1C49BAFBF9F820FA07F309FB64
:10033C0018AA8D401FFA8CFE1D4300FA01F308FB2E
:10034C000EF02C0C44EA0A44A04202FA01F20BD93A
:10035C001CEB040408F1FF3A80F08880A04240F2C4
:10036C008580A8F102086444241AB4FBF9F009FB57
:10037C00104400FB0EFEADB245EA0444A64508D974
:10038C001CEB040400F1FF356CD2A6456AD9023887
:10039C00644440EA0840A0FB0295A4EB0E04AC4276
:1003AC00C846AE4656D353D0002E69D0B3EB0802E4
:1003BC0064EB0E0422FA01F304FA07F71F43CC4056
:1003CC00C6E90074002147E70CFA02FCC2F12001D7
:1003DC0025FA01F34FEA1C4720FA01F195400D4331
:1003EC00B3FBF7F107FB11331FFA8CFE280C40EA24
:1003FC00034001FB0EF3834204FA02F408D91CEB10
:10040C00000001F1FF382FD283422DD9023960440C
:10041C00C01AB0FBF7F307FB1300ADB245EA004579
:10042C0003FB0EF0A84208D91CEB050503F1FF38BD
:10043C0016D2A84214D9023B6544281A43EA01415A
:10044C0038E73146304607E72F46E4E61846F9E62A
:10045C004B45A9D2B9EB020865EB0C0E0138A3E7AA
:10046C004346EAE7284694E74146D1E7D0467BE786
:10047C006444023847E7023B65442FE7084606E729
:10048C003146E9E6704700BF80B582B000AF104B33
:10049C00DB690F4A43F08073D3610D4BDB6903F0CA
:1004AC0080737B607B68002200210E2002F031FCFF
:1004BC000E2002F04AFC002200210F2002F029FC41
:1004CC000F2002F042FC00BF0837BD4680BD00BFC4
:1004DC000038024080B588B000AF07F10C03002251
:1004EC001A605A609A60DA601A612B4BDB692A4AEF
:1004FC0043F02003D361284BDB6903F02003BB607E
:10050C00BB68254BDB69244A43F00103D361224BC2
:10051C00DB6903F001037B607B681F4BDB691E4AC0
:10052C0043F00203D3611C4BDB6903F002033B6015
:10053C003B68012248F23001184802F0B5FF002256
:10054C003321174802F0B0FF00224FF4807113489A
:10055C0002F0AAFF48F23013FB6001233B61002339
:10056C007B610023BB6107F10C0319460B4802F0B9
:10057C001BFE3323FB6001233B6100237B610023C3
:10058C00BB6107F10C031946054802F00DFE00BFD4
:10059C002037BD4680BD00BF00380240000002403D
:1005AC000004024080B500AF02F04CFA00F028F8CD
:1005BC00FFF790FFFFF768FF00F040FB00F0F6F943
:1005CC0000F088FA00F0A4F84FF48073084A052173
:1005DC00084801F07FFF00F0FBFB074B1B68074A44
:1005EC0013600A2002F09CFA01F0A0FFF9E700BFAB
:1005FC000000024090010020E07F0008BC030020B6
:10060C0080B592B000AF07F11403342200211846D4
:10061C0005F074FF3B4600221A605A609A60DA605B
:10062C001A611C4B1B6823F4C0531A4A43F4006331
:10063C00136002237B6101233B6210237B62022344
:10064C00BB630023FB6300233B644FF480037B6498
:10065C0007F11403184602F03FFF0346002B01D0AC
:10066C0000F050F80F233B6003237B600023BB603A
:10067C000023FB6000233B613B460121184603F03D
:10068C005BFA0346002B01D000F03CF800BF483762
:10069C00BD4680BD0070004080B582B000AF786070
:1006AC007B681B68044A934201D101F0C1FF00BF73
:1006BC000837BD4680BD00BF0038014080B582B010
:1006CC0000AF78607B681B68044A934202D100201B
:1006DC0001F0CAFF00BF0837BD4680BD003801409D
:1006EC0080B582B000AF78607B681B68044A934287
:1006FC0002D1012001F0B8FF00BF0837BD4680BD14
:10070C000038014080B400AF72B600BFFEE70000B5
:10071C0080B500AF114B124A1A60104B4FF4827225
:10072C005A600E4B00229A600C4B0022DA600B4B85
:10073C004FF400729A61094B3822DA61074B0022A0
:10074C009A62064B0A22DA62044803F079FC0346EB
:10075C00002B01D0FFF7D6FF00BF80BDB4000020F6
:10076C000030014080B58AB000AF786007F1140307
:10077C0000221A605A609A60DA601A617B681B6802
:10078C00294A93424CD1294B1B6A284A43F4805383
:10079C001362264B1B6A03F480533B613B69234B6A
:1007AC00DB69224A43F00103D361204BDB6903F080
:1007BC000103FB60FB681D4BDB691C4A43F0020321
:1007CC00D3611A4BDB6903F00203BB60BB684FF4C7
:1007DC00C0537B610223BB610023FB6103233B629B
:1007EC0005237B6207F114031946114802F0DCFC67
:1007FC0008237B610223BB610023FB6103233B6263
:10080C0005237B6207F1140319460A4802F0CCFC5D
:10081C0000220021232002F07CFA232002F095FA1A
:10082C0000BF2837BD4680BD003001400038024073
:10083C00000002400004024080B485B000AF144BAD
:10084C005B6A134A43F000435362114B5B6A03F03B
:10085C000043FB60FB680E4B1B6A0D4A43F001031F
:10086C0013620B4B1B6A03F00103BB60BB68084BA4
:10087C005B6A074A43F080535362054B5B6A03F093
:10088C0080537B607B6800BF1437BD4680BC7047CB
:10089C000038024080B400AFFEE780B400AFFEE742
:1008AC0080B400AFFEE780B400AFFEE780B400AFC9
:1008BC00FEE780B400AF00BFBD4680BC704780B47B
:1008CC0000AF00BFBD4680BC704780B400AF00BF16
:1008DC00BD4680BC704780B500AF02F005F900BF83
:1008EC0080BD000080B500AF024802F07FFB00BF66
:1008FC0080BD00BF1802002080B500AF024802F096
:10090C0075FB00BF80BD00BFD401002080B500AFD7
:10091C00024804F001F800BF80BD00BFB400002005
:10092C0080B500AF024805F063F800BF80BD00BF82
:10093C009001002080B586B000AF7860144A154B4A
:10094C00D31A7B617B693B61134B1B68002B02D173
:10095C00114B124A1A60104B1A687B6813443A699F
:10096C009A4207D205F0A0FD03460C221A604FF004
:10097C00FF3309E0084B1B68FB60074B1A687B6868
:10098C001344054A1360FB6818461837BD4680BDF2
:10099C0000400020000400000C010020382D002035
:1009AC0080B400AF00BFBD4680BC704780B58AB034
:1009BC0000AF07F1180300221A605A609A60DA60DF
:1009CC0007F1100300221A605A603B4600221A609D
:1009DC005A609A60DA603E4B4FF080421A603C4B92
:1009EC0000225A603A4B00229A60394B4FF6FF7244
:1009FC00DA60374B00221A61354B80225A61344839
:100A0C0004F0BEF90346002B01D0FFF77BFE4FF438
:100A1C008053BB6107F1180319462D4804F0CAFB3B
:100A2C000346002B01D0FFF76DFE294804F0E7F9CF
:100A3C000346002B01D0FFF765FE00233B6100232A
:100A4C007B6107F110031946214804F089FE034627
:100A5C00002B01D0FFF756FE60233B6000237B6028
:100A6C000023BB600023FB603B460022194618485C
:100A7C0004F0E2FA0346002B01D0FFF743FE3B469D
:100A8C0004221946124804F0D7FA0346002B01D071
:100A9C00FFF738FE3B46082219460D4804F0CCFA05
:100AAC000346002B01D0FFF72DFE3B460C221946C6
:100ABC00074804F0C1FA0346002B01D0FFF722FED1
:100ACC00034800F085F800BF2837BD4680BD00BF45
:100ADC001001002080B586B000AF07F1080300229A
:100AEC001A605A609A60DA603B4600221A605A60BB
:100AFC001D4B1E4A1A601C4B00225A601A4B0022D6
:100B0C009A60194B4FF6FF72DA60174B00221A618C
:100B1C00154B80225A61144804F032F90346002B1D
:100B2C0001D0FFF7EFFD4FF48053BB6007F10803D2
:100B3C0019460D4804F03EFB0346002B01D0FFF78D
:100B4C00E1FD00233B6000237B603B4619460648D1
:100B5C0004F006FE0346002B01D0FFF7D3FD00BFC7
:100B6C001837BD4680BD00BF500100200004004076
:100B7C0080B485B000AF78607B681B68B3F1804FA0
:100B8C000CD1114B5B6A104A43F0010353620E4BBC
:100B9C005B6A03F00103FB60FB6810E07B681B6879
:100BAC000A4A93420BD1084B5B6A074A43F0020393
:100BBC005362054B5B6A03F00203BB60BB6800BF6A
:100BCC001437BD4680BC704700380240000400401A
:100BDC0080B588B000AF786007F10C0300221A6072
:100BEC005A609A60DA601A617B681B68B3F1804FB7
:100BFC001BD1104BDB690F4A43F00103D3610D4B42
:100C0C00DB6903F00103BB60BB680F23FB600223AD
:100C1C003B6100237B610023BB610123FB6107F176
:100C2C000C031946044802F0BFFA00BF2037BD463A
:100C3C0080BD00BF003802400000024080B500AF0C
:100C4C00114B124A1A60104B4FF4E1325A600E4BA2
:100C5C0000229A600C4B0022DA600B4B00221A61C6
:100C6C00094B0C225A61084B00229A61064B002258
:100C7C00DA61054804F0D2FD0346002B01D0FFF7E2
:100C8C0041FD00BF80BD00BF900100200038014035
:100C9C0080B58AB000AF786007F1140300221A60A7
:100CAC005A609A60DA601A617B681B68414A934209
:100CBC007CD1414B1B6A404A43F4804313623E4B48
:100CCC001B6A03F480433B613B693B4BDB693A4A4B
:100CDC0043F00103D361384BDB6903F00103FB6084
:100CEC00FB684FF4C0637B610223BB610023FB6193
:100CFC0003233B6207237B6207F1140319462F4839
:100D0C0002F052FA2E4B2F4A1A602D4B00225A60D9
:100D1C002B4B00229A602A4B8022DA60284B00224F
:100D2C001A61274B00225A61254B00229A61244BF1
:100D3C000022DA61224802F023F80346002B01D08E
:100D4C00FFF7E0FC7B681E4A9A631D4A7B6853627E
:100D5C001D4B1E4A1A601C4B10225A601A4B002263
:100D6C009A60194B8022DA60174B00221A61164BDD
:100D7C0000225A61144B00229A61134B0022DA6153
:100D8C00114801F0FDFF0346002B01D0FFF7BAFC20
:100D9C007B680D4A5A630C4A7B685362002200211F
:100DAC00252001F0B6FF252001F0CFFF00BF28372A
:100DBC00BD4680BD003801400038024000000240B2
:100DCC00D401002058600240180200204460024008
:100DDC00B0B483B000AF0023FB7000237B6055E000
:100DEC007B68D8B22F497A6813469B0013441B01C9
:100DFC000B4402461A702B497A6813469B00134425
:100E0C001B010B44083300221A6026497A681346EA
:100E1C009B0013441B010B44023300221A8021490E
:100E2C007A6813469B0013441B010B44043340F6B1
:100E3C00FF721A801B497A6813469B0013441B01EE
:100E4C000B444D3300221A7016497A6813469B00E6
:100E5C0013441B010B444C3300221A7011497A685D
:100E6C0013469B0013441B010B4408330E4A1C1DF4
:100E7C0015460FCD0FC40FCD0FC40FCD0FC495E881
:100E8C000F0084E80F007B6801337B607B68032BC9
:100E9C00A6D9064B00221A70FB7818460C37BD46B3
:100EAC00B0BC70475C020020100100209C030020A5
:100EBC00F0B597B012AF03460A46FB711346BB80E0
:100ECC000023FB73FB79032B01D9022341E0FA7950
:100EDC00224913469B0013441B010B4404331B880B
:100EEC00BA889A4209D9FA791C4913469B001344D3
:100EFC001B010B4404331B88BB80FA79174913463A
:100F0C009B0013441B01CE18BB8810936D4606F151
:100F1C0010040FCC0FC50FCC0FC50FCC0FC594E828
:100F2C000F0085E80F0096E80F0000F0A5F90346C6
:100F3C00FB73FB7B002B01D0FB7B0AE0FA790749A2
:100F4C0013469B0013441B010B440233BA881A80CE
:100F5C00002318461437BD46F0BD00BF5C020020CC
:100F6C00F0B595B010AF0346FB710023FB73FB7912
:100F7C00032B01D902231FE0FA79114913469B0078
:100F8C0013441B01CE186D4606F110040FCC0FC58F
:100F9C000FCC0FC50FCC0FC594E80F0085E80F00E0
:100FAC0096E80F0000F0FEF90346FB73FB7B002B69
:100FBC0001D0FB7B00E0002318461437BD46F0BD82
:100FCC005C02002080B584B000AF03460A46FB717A
:100FDC001346BB800023FB73FB1D0121184600F058
:100FEC00C4FA0346002B0BD0BB8819460020FFF730
:100FFC005FFF0346FB73FB7B002B01D0FB7B3CE0CC
:10100C00FB1D0221184600F0B0FA0346002B0BD052
:10101C00BB8819460120FFF74BFF0346FB73FB7B94
:10102C00002B01D0FB7B28E0FB1D0421184600F0AF
:10103C009CFA0346002B0BD0BB8819460220FFF705
:10104C0037FF0346FB73FB7B002B01D0FB7B14E0CB
:10105C00FB1D0821184600F088FA0346002B0BD024
:10106C00BB8819460320FFF723FF0346FB73FB7B6A
:10107C00002B01D0FB7B00E0002318461037BD4647
:10108C0080BD80B584B000AF0346FB710023FB73B9
:10109C00FB1D0121184600F068FA0346002B09D00D
:1010AC000020FFF75DFF0346FB73FB7B002B01D099
:1010BC00FB7B36E0FB1D0221184600F056FA034676
:1010CC00002B09D00120FFF74BFF0346FB73FB7B82
:1010DC00002B01D0FB7B24E0FB1D0421184600F003
:1010EC0044FA0346002B09D00220FFF739FF0346D0
:1010FC00FB73FB7B002B01D0FB7B12E0FB1D08215B
:10110C00184600F032FA0346002B09D00320FFF7F3
:10111C0027FF0346FB73FB7B002B01D0FB7B00E01E
:10112C00002318461037BD4680BD000080B483B044
:10113C0000AF7860044B1A787B681A70002318464D
:10114C000C37BD4680BC70479C03002080B483B034
:10115C0000AF03460A46FB711346BB80FB79032B99
:10116C0001D9022311E0BB88B3F5805F02D340F6AE
:10117C00FF73BB80FA79074913469B0013441B018C
:10118C000B440433BA881A80002318460C37BD462A
:10119C0080BC70475C02002080B584B000AF034671
:1011AC00FB710023FB73FB79032B23D801A252F8AC
:1011BC0023F000BFD1110008DD110008E91100086F
:1011CC00F5110008012210210E4802F06DF914E00F
:1011DC00012220210B4802F067F90EE001220121C7
:1011EC00084802F061F908E001220221054802F0EA
:1011FC005BF902E00223FB7300BFFB7B1846103740
:10120C00BD4680BD0004024080B584B000AF0346EB
:10121C00FB710023FB73FB79032B23D801A252F83B
:10122C0023F000BF411200084D12000859120008AB
:10123C0065120008002210210E4802F035F914E066
:10124C00002220210B4802F02FF90EE00022012190
:10125C00084802F029F908E000220221054802F0B2
:10126C0023F902E00223FB7300BFFB7B1846103707
:10127C00BD4680BD0004024084B0B0B594B012AF3E
:10128C0007F1180484E80F000023FB713B7E1A461B
:10129C0001239340DBB21946414800F066F903463E
:1012AC0083F00103DBB2002B18D06D4607F1280444
:1012BC000FCC0FC50FCC0FC50FCC0FC594E80F008A
:1012CC0085E80F0007F118030FCB00F097F80346E1
:1012DC00FB71FB79002B01D0FB795AE0642310934E
:1012EC006D4607F128040FCC0FC50FCC0FC50FCCE2
:1012FC000FC594E80F0085E80F0007F118030FCB1A
:10130C0000F0DCF80346FB71FB79002B13D06D4623
:10131C0007F128040FCC0FC50FCC0FC50FCC0FC590
:10132C0094E80F0085E80F0007F118030FCB00F0CD
:10133C0039F8FB792DE0462310936D4607F128040C
:10134C000FCC0FC50FCC0FC50FCC0FC594E80F00F9
:10135C0085E80F0007F118030FCB00F0AFF8034638
:10136C00FB71FB79002B13D06D4607F128040FCCD1
:10137C000FC50FCC0FC50FCC0FC594E80F0085E837
:10138C000F0007F118030FCB00F00CF8FB7900E00D
:10139C00002318460837BD46BDE8B04004B070477E
:1013AC009C03002084B0B0B592B010AF07F11804C4
:1013BC0084E80F000023FB716D4607F128040FCC65
:1013CC000FC50FCC0FC50FCC0FC594E80F0085E8E7
:1013DC000F0007F118030FCB00F040F80346FB7128
:1013EC00FB79002B01D0FB7900E00023184608376D
:1013FC00BD46BDE8B04004B07047000084B080B575
:10140C0082B000AF07F1100C8CE80F003B7C1A4641
:10141C00104B53F8222007F11C031146184603F019
:10142C0037FD0346FB71FB79002B0AD13B7C1A4636
:10143C0001239340DBB21946074800F06DF80023F6
:10144C0000E0042318460837BD46BDE8804004B0D0
:10145C00704700BF040000209C03002084B080B5BE
:10146C0082B000AF07F1100C8CE80F003B7C1A46E1
:10147C00104B53F8222007F11C031146184603F0B9
:10148C009DFD0346FB71FB79002B0AD13B7C1A4670
:10149C0001239340DBB21946074800F04FF80023B4
:1014AC0000E0042318460837BD46BDE8804004B070
:1014BC00704700BF040000209C03002084B090B44F
:1014CC0000AF07F1080484E80F003B7A032B1BD80C
:1014DC0001A252F823F000BFF5140008FD14000817
:1014EC00051500080D1500087B69BA6D5A630DE0EF
:1014FC007B69BA6D9A6309E07B69BA6DDA6305E0C2
:10150C007B69BA6D1A6401E0052300E000231846DC
:10151C00BD4690BC04B0704780B483B000AF786017
:10152C000B46FB707B681A78FB781343DAB27B6846
:10153C001A7000BF0C37BD4680BC704780B483B0B6
:10154C0000AF78600B46FB707B681B785AB297F93A
:10155C000330DB435BB213405BB2DAB27B681A70C8
:10156C0000BF0C37BD4680BC704780B483B000AF61
:10157C0078600B46FB707B681A78FB781340DBB203
:10158C00002B14BF01230023DBB218460C37BD46D9
:10159C0080BC704780B483B000AF78600C4B5B7C30
:1015AC00013B042B0CD801A252F823F0CD150008F6
:1015BC00CD150008CD150008CD150008CD15000877
:1015CC0000BF022318460C37BD4680BC704700BFD5
:1015DC00742C002080B582B000AF7860084B1B796A
:1015EC0019467B68B3F894301A46064B1B8806489C
:1015FC0001F084F8002318460837BD4680BD00BFB3
:10160C00742C0020C00300209070000880B586B0B8
:10161C0002AF78600B4BFB600B4B1B7919467B6858
:10162C00B3F894301A46094B1B881846FB68009394
:10163C000346074801F062F8002318461037BD46F0
:10164C0080BD00BF14000020742C0020C0030020BB
:10165C00A070000880B588B002AF78600023FB75DD
:10166C0007F10C03184600F0D9FB0346FB75FB7D14
:10167C00002B03D008210C4800F050FC0B4B1B79BD
:10168C0019467B68B3F894301A46074B1B881846EA
:10169C0007F10C0300930346054801F02FF800BF37
:1016AC0018461837BD4680BDC0030020742C00209E
:1016BC00A070000880B584B002AF78600A4B1B792B
:1016CC0019467B68B3F894301A46084B1B881846A9
:1016DC00074B1B7800930346064801F00FF80023D4
:1016EC0018460837BD4680BD742C0020C00300206E
:1016FC00C2030020B470000880B582B000AF7860DF
:10170C00084B1B7919467B68B3F894301A46064B84
:10171C001B68064800F0F2FF002318460837BD4648
:10172C0080BD00BF742C0020BC030020907000080A
:10173C0080B584B000AF78600023FB737B6893F8AE
:10174C0091305A1C7B681A3253F822300022002147
:10175C00184604F0ABFF0346BB73BB7B184600F086
:10176C00BDFB0346FB73FB7B002B03D008210A480F
:10177C0000F0D4FB094B1B7919467B68B3F8943005
:10178C001A46054B1B88064800F0B8FF00BF1846E8
:10179C001037BD4680BD00BFC0030020742C002054
:1017AC009070000880B584B000AF78600023FB73A4
:1017BC007B6893F891305A1C7B681A3253F82230AC
:1017CC0010220021184604F071FF0346BB73BB7B4B
:1017DC00184600F0E1FA0346FB73FB7B002B03D0A9
:1017EC0008210B4800F09AFB0A4ABB7B1371094B8A
:1017FC001B7919467B68B3F894301A46044B1B8846
:10180C00054800F07BFF00BF18461037BD4680BD71
:10181C00C0030020742C00209070000880B586B0A6
:10182C0000AF78600023FB757B6893F891305A1CED
:10183C007B681A3253F8221007F108030A22184663
:10184C0004F078FE0A23BB82BA8A07F1080311461A
:10185C00184600F0C1FA0346FB75FB7D002B03D044
:10186C0008210A4800F05AFB094B1B7919467B6882
:10187C00B3F894301A46054B1B88064800F03EFF1F
:10188C0000BF18461837BD4680BD00BFC0030020FE
:10189C00742C00209070000880B584B000AF786084
:1018AC000023FB737B6893F891305A1C7B681A32C7
:1018BC0053F8223000220021184604F0F7FE0346AC
:1018CC00BB73BB7B184600F0C9FA0346FB73FB7B6A
:1018DC00002B03D008210A4800F020FB094B1B7990
:1018EC0019467B68B3F894301A46054B1B8806489A
:1018FC0000F004FF00BF18461037BD4680BD00BF86
:10190C00C0030020742C00209070000880B584B0B7
:10191C0000AF78600023FB737B6893F891305A1CFE
:10192C007B681A3253F8223000220021184604F04A
:10193C00BDFE0346BB73BB7B184600F0AFFA0346F3
:10194C00FB73FB7B002B03D008210A4800F0E6FA5E
:10195C00094B1B7919467B68B3F894301A46054B32
:10196C001B88064800F0CAFE00BF18461037BD465B
:10197C0080BD00BFC0030020742C002090700008B4
:10198C0080B584B000AF78600023FB8100237B73AB
:10199C0000233B737B6893F891305A1C7B681A3296
:1019AC0053F8223000220021184604F07FFE034633
:1019BC007B737B6893F891309A1C7B681A3253F8CE
:1019CC00223000220021184604F070FE0346FB81F1
:1019DC00FA897B7B11461846FFF76AFA03463B737C
:1019EC003B7B002B03D00821094800F097FA094BE8
:1019FC001B7919467B68B3F894301A46044B1B8844
:101A0C00054800F07BFE002318461037BD4680BD0C
:101A1C00C0030020742C00209070000880B584B0A6
:101A2C0000AF78600023FB730023BB737B6893F8D3
:101A3C0091305A1C7B681A3253F822300022002154
:101A4C00184604F033FE0346FB73FB7B1846FFF786
:101A5C0087FA0346BB73BB7B002B03D008210A48D3
:101A6C0000F05CFA094B1B7919467B68B3F894308B
:101A7C001A46054B1B88064800F040FE002318460A
:101A8C001037BD4680BD00BFC0030020742C002061
:101A9C009070000880B584B000AF78600023FB81A3
:101AAC0000237B7300233B737B6893F891305A1CA3
:101ABC007B681A3253F8223010220021184604F0A9
:101ACC00F5FD03467B737B6893F891309A1C7B6819
:101ADC001A3253F8223000220021184604F0E6FD99
:101AEC000346FB81FA897B7B11461846FFF76AFA9D
:101AFC0003463B733B7B002B03D00821094800F0C5
:101B0C000DFA094B1B7919467B68B3F894301A46C9
:101B1C00044B1B88054800F0F1FD002318461037D4
:101B2C00BD4680BDC0030020742C002090700008BE
:101B3C0080B584B000AF78600023FB730023BB73C7
:101B4C007B6893F891305A1C7B681A3253F8223018
:101B5C0010220021184604F0A9FD0346FB73FB7B01
:101B6C001846FFF78EFA0346BB73BB7B002B03D0E2
:101B7C0008210A4800F0D2F9094B1B7919467B68F9
:101B8C00B3F894301A46054B1B88064800F0B6FD96
:101B9C00002318461037BD4680BD00BFC00300208F
:101BAC00742C00209070000880B586B002AF78606D
:101BBC000023FB730023BB7307F10E031846FFF7DA
:101BCC00B5FA0346FB73FB7B002B03D008210C48B2
:101BDC0000F0A4F90B4B1B7919467B68B3F89430D1
:101BEC001A46074B1B881846BB7B009303460648D6
:101BFC0000F084FD002318461037BD4680BD00BFA1
:101C0C00C0030020742C0020C870000880B584B07C
:101C1C0000AF78600023FB8100237B7300233B73B0
:101C2C007B6893F891305A1C7B681A3253F8223037
:101C3C0000220021184604F039FD03467B737B68B3
:101C4C0093F891309A1C7B681A3253F82230002298
:101C5C000021184604F02AFD0346FB81FA897B7BA0
:101C6C0011461846FFF772FA03463B733B7B002B79
:101C7C0003D00821094800F051F9094B1B7919468A
:101C8C007B68B3F894301A46044B1B88054800F067
:101C9C0035FD002318461037BD4680BDC00300201B
:101CAC00742C00209070000880B584B000AF786070
:101CBC000023FB730023BB737B6893F891305A1C91
:101CCC007B681A3253F8223000220021184604F0A7
:101CDC00EDFC0346FB73FB7B1846FFF75DFA0346EE
:101CEC00BB73BB7B002B03D008210A4800F016F90C
:101CFC00094B1B7919467B68B3F894301A46054B8F
:101D0C001B88064800F0FAFC002318461037BD4625
:101D1C0080BD00BFC0030020742C00209070000810
:101D2C0080B584B000AF78600023FB730023BB73D5
:101D3C007B6893F891305A1C7B681A3253F8223026
:101D4C0000220021184604F0B1FC0346FB73FB7B18
:101D5C001846FFF759FA0346BB73BB7B002B03D025
:101D6C0008210A4800F0DAF8094B1B7919467B6800
:101D7C00B3F894301A46054B1B88064800F0BEFC9D
:101D8C00002318461037BD4680BD00BFC00300209D
:101D9C00742C00209070000880B582B000AF034610
:101DAC00FB71FB7900220121094800F0EFF8034692
:101DBC001A46084B1A70074B1B78002B02D0054BA8
:101DCC001B7800E0002318460837BD4680BD00BFD5
:101DDC00A0030020B803002080B584B002AF786067
:101DEC000B467B807B8800937B680122012109488C
:101DFC0000F050F903461A46074B1A70064B1B7835
:101E0C00002B02D0044B1B7800E000231846083747
:101E1C00BD4680BDA0030020B803002080B584B06F
:101E2C0002AF78600A2300937B68012201210948E4
:101E3C0000F0CEF803461A46074B1A70064B1B7877
:101E4C00002B02D0044B1B7800E000231846083707
:101E5C00BD4680BDA0030020B803002080B582B031
:101E6C0000AF0346FB71FB7901220221094800F007
:101E7C008DF803461A46084B1A70074B1B78002B3B
:101E8C0002D0054B1B7800E0002318460837BD46EE
:101E9C0080BD00BFA0030020B803002080B582B035
:101EAC0000AF0346FB71FB7902220221094800F0C6
:101EBC006DF803461A46084B1A70074B1B78002B1B
:101ECC0002D0054B1B7800E0002318460837BD46AE
:101EDC0080BD00BFA0030020B803002080B582B0F5
:101EEC0000AF0346FB71FB7900220221094800F088
:101EFC004DF803461A46084B1A70074B1B78002BFB
:101F0C0002D0054B1B7800E0002318460837BD466D
:101F1C0080BD00BFA0030020B803002080B483B0B4
:101F2C0000AF78600B467B807B681A887B881343F4
:101F3C009AB27B681A8000BF0C37BD4680BC7047D4
:101F4C000C480D490D4A002302E0D458C450043308
:101F5C00C4188C42F9D30A4A0A4C002301E01360DE
:101F6C000432A242FBD3FEF71BFD04F0A3FAFEF7EA
:101F7C0019FB704700000020980000202C7300080B
:101F8C0098000020342D0020FEE7000080B586B0BC
:101F9C0002AFF860084611461A4603467B810B4691
:101FAC003B811346FB71FB1D3A8979890120009016
:101FBC00F86800F03DF903461A46044B1A70034BBF
:101FCC001B7818461037BD4680BD00BFC4030020E7
:101FDC002DE9F0438BB002AFF8607B600B467B8140
:101FEC0013463B816B461E46B7F840100B46013B2F
:101FFC00BB618BB20022984691464FF000024FF025
:10200C0000034FEAC90343EA58734FEAC8028BB284
:10201C0000221C4615464FF000024FF00003EB0067
:10202C0043EA5473E2000B460733DB08DB00ADEBED
:10203C00030D02AB00337B613A897989B7F84030E4
:10204C0000937B69F86800F085F803461A46104B3C
:10205C001A700F4B1B78002B12D10023FB610AE086
:10206C00FB697A6813447969FA690A4412781A7020
:10207C00FB690133FB61B7F84030FA699A42EFDB38
:10208C00034B1B78B54618462437BD46BDE8F08394
:10209C00C40300202DE9F0438BB002AFF8607B60E5
:1020AC000B467B8113463B816B461E46B7F84010AE
:1020BC000B46013BBB618BB20022984691464FF018
:1020CC0000024FF000034FEAC90343EA58734FEA8A
:1020DC00C8028BB200221C4615464FF000024FF08E
:1020EC000003EB0043EA5473E2000B460733DB08B2
:1020FC00DB00ADEB030D02AB00337B610023FB6116
:10210C000BE0FB697A68134419787A69FB6913440C
:10211C000A461A70FB690133FB61B7F84030FA6963
:10212C009A42EEDB3A897989B7F8403000937B69A3
:10213C00F86800F07DF803461A46054B1A70044BFC
:10214C001B78B54618462437BD46BDE8F08300BF62
:10215C00C403002080B586B000AFF8607B600B46EE
:10216C007B8113463B813A897B891946F86800F0DC
:10217C0099F90346FB82FB685B8A7A899A4204D8F8
:10218C00FB681B8A7A899A4205D2274B06221A7061
:10219C00254B1B7843E0FB689B8A3A899A4205D908
:1021AC00214B05221A70204B1B7838E0FA8A3B8CA5
:1021BC001344013B1A46FB68DB689A4205D91A4B5B
:1021CC0005221A70184B1B7829E0FB8A1B0A9BB25C
:1021DC00DBB23B75FB8ADBB27B75F86800F0FEF86E
:1021EC00FB681B6801221149184600F027F9FB68AF
:1021FC001B6807F114010222184600F01FF9FB6856
:10220C001B683A8C7968184600F032F903461A4676
:10221C00054B1A70F86800F0F9F8034B1B78184658
:10222C001837BD4680BD00BFC4030020E371000811
:10223C0080B586B000AFF8607B600B467B8113469F
:10224C003B813A897B891946F86800F02BF90346E3
:10225C007B61FB685B8A7A899A4204D8FB681B8A8B
:10226C007A899A4205D2354B06221A70334B1B7869
:10227C0060E0FB689B8A3A899A4205D92F4B05226C
:10228C001A702E4B1B7855E03A893B8C1344FA6834
:10229C00928A934205DD294B07221A70274B1B7833
:1022AC0048E00023FB7407F113031946F86800F0AB
:1022BC006BF803461A46214B1A70012000F030FCD3
:1022CC00FB7C01221340DBB2002B01D0022331E056
:1022DC007B691B0ADBB23B747B69DBB27B74F868ED
:1022EC0000F030F8012000F01BFCF86800F076F8E4
:1022FC00FB681B6801221249184600F09FF8FB6826
:10230C001B6807F110010222184600F097F8FB68D1
:10231C001B683A8C7968184600F090F803461A4608
:10232C00064B1A70F86800F071F80F2000F0F8FBFB
:10233C00024B1B7818461837BD4680BDC4030020DD
:10234C00E471000880B582B000AF78600C4B0022BD
:10235C001A70786800F042F87B681B680122094902
:10236C00184600F06BF803461A46054B1A7078684D
:10237C0000F04CF8024B1B7818460837BD4680BD60
:10238C00C4030020E171000880B582B000AF786012
:10239C003960104B00221A70786800F01FF87B68C7
:1023AC001B6801220C49184600F048F87B681B6832
:1023BC0001223968184600F05BF803461A46054BB3
:1023CC001A70786800F022F8024B1B781846083710
:1023DC00BD4680BDC4030020E271000880B582B008
:1023EC0000AF7860084B00221A707B6858687B68D5
:1023FC001B890022194601F057F8034B1B7818462D
:10240C000837BD4680BD00BFC403002080B582B034
:10241C0000AF7860084B00221A707B6858687B68A4
:10242C001B890122194601F03FF8034B1B78184613
:10243C000837BD4680BD00BFC403002080B584B002
:10244C0000AFF860B9601346FB80FA886423B96862
:10245C00F86801F071FE03461A46044B1A70034BE0
:10246C001B7818461037BD4680BD00BFC303002043
:10247C0080B584B000AFF860B9601346FB80FA8871
:10248C006423B968F86801F093FF03461A46044BBD
:10249C001A70034B1B7818461037BD4680BD00BF21
:1024AC00C303002080B483B000AF78600B467B8000
:1024BC0013463B807B88013B9BB27A68928A02FB75
:1024CC0003F39AB23B8813449BB218460C37BD46B3
:1024DC0080BC704780B584B000AFF8607A601A4653
:1024EC000B46FB7213463B810E4AFB6813600D4A88
:1024FC00FB7A13710B4A7B6893600A4A3B89938180
:10250C00084B00229A73074B0022DA73054B1B68A9
:10251C0002220549184603F03BFA00BF1037BD46AE
:10252C0080BD00BF742C0020082C002080B500AFAB
:10253C00374B00221A74364B00225A74354B1B78D9
:10254C00002B3ED0344B1A78344B1B789A4238D03F
:10255C00314B1B781A46324B33F81230002B20D0FB
:10256C002D4B1B781A462E4B33F81230652B06D99F
:10257C00294B1B781A462A4B652123F81210264B3F
:10258C001B781A46652302FB03F3264A1344224A9E
:10259C0012781146224A32F811201146184600F0E2
:1025AC00E3F81D4B1B780133DAB21B4B1A701A4B34
:1025BC001B78632B02D9184B00221A70144B012282
:1025CC001A74194B1B78002B1FD0184800F0FEF81A
:1025DC000346002B16D0154800F0BEF903461A46E8
:1025EC000B4B5A740A4B5B7C002B07D00F48FEF741
:1025FC00D1FF03461A46064B1A7406E0044B03221D
:10260C001A7402E0024B02221A7400BF80BD00BF94
:10261C00742C002029000020052C0020042C002004
:10262C003C2B0020C8030020722C0020882C00209A
:10263C0080B500AF094B01221A70094B9B68084A00
:10264C0091890022184600F02FFF054B1B680222CF
:10265C000449184603F09CF900BF80BD29000020F6
:10266C00742C0020082C002080B582B000AF0346EB
:10267C00FB711D4B1B78642B07D91C4B002283F874
:10268C0064201B4B01221A7020E0FB79164A127849
:10269C001146184AD25C154B5A54FB79154AD35C37
:1026AC000A2B04D0FB79134AD35C0D2B08D10E4BAB
:1026BC001B781A460D4B002199540D4B01221A70B0
:1026CC00094B1B780133DAB2074B1A70FB79002BDC
:1026DC0006D0094B1B6802220649184603F058F92C
:1026EC0000BF0837BD4680BD712C00200C2C00208B
:1026FC00722C0020082C0020742C00200FB480B504
:10270C0084B000AF154B1B78FB73144B1B78013353
:10271C00DAB2124B1A70114B1B78632B02D90F4B88
:10272C0000221A7007F11C037B60FB7B652202FB05
:10273C0003F30B4A98187B68BA69652103F0ECFF28
:10274C00B860FB7BBA6891B2064A22F8131000BF3E
:10275C001037BD46BDE8804004B07047042C002003
:10276C00C80300203C2B002080B582B000AF7860FD
:10277C000B467B80104B00221A70104B9B680F4A43
:10278C0091890122184600F08FFE0C4B18680C4BF7
:10279C001B781A46652302FB03F30A4A1344084AC2
:1027AC0012781146084A32F81120194603F084F8C1
:1027BC0000BF0837BD4680BD29000020742C0020C6
:1027CC00052C0020C80300203C2B002080B586B0CF
:1027DC0000AF78607B6865225949184603F0AAFE61
:1027EC00584B00221A70574B1B781A46544B002139
:1027FC009954554B00221A707B681A78534B1B78EE
:10280C00D31A002B01D0002395E07B68002283F8BB
:10281C0090207B68002283F891207B68002283F84B
:10282C0092207B68FF2283F893207B680022A3F818
:10283C0094207B680022A3F896207B68013307F173
:10284C000C024349184603F0BCFE78617B69002BEF
:10285C001BD00421786903F080FE0346022B01D9BA
:10286C00002368E010220021786903F01FFF034663
:10287C00DAB27B6883F893207B6893F89320354B0E
:10288C001B799A4203D0002355E0002353E0002328
:10289C00FB741BE07B69002B1CD0FA7C7B681A3222
:1028AC00796943F822107B6893F890300133DAB2DF
:1028BC007B6883F8902007F10C031A46244900200A
:1028CC0003F07FFE7861FB7C0133FB74FB7C092BEE
:1028DC00E0D900E000BF7B6893F89030032B04D95B
:1028EC007B6893F890300A2B01D9002323E07B6896
:1028FC00DB6E0421184603F030FE0346042B01D98D
:10290C00002318E07B68DB6E10220021184603F0D0
:10291C00CDFE03469AB27B68A3F894207B68022212
:10292C0083F891207B6893F89030023BDAB27B6895
:10293C0083F89220012318461837BD4680BD00BF8E
:10294C000C2C0020712C0020722C0020DC70000854
:10295C00E0700008742C002090B585B000AF786052
:10296C007B6893F89030002B63D07B6893F89220AF
:10297C007B6893F89130D31ABB730023FB7353E03D
:10298C007B6893F891301A467B681A3253F8220010
:10299C00FA7B2A4913465B0013449B000B441968CD
:1029AC00FA7B264C13465B0013449B0023440433F0
:1029BC001B781A4603F0AAFD0346002B31D17B6825
:1029CC0093F891301A467B681A3253F82230184625
:1029DC00FDF7CEFB0146FA7B184813465B00134407
:1029EC009B00034404331B7899421AD1FA7B134998
:1029FC0013465B0013449B000B4405331B78BA7BD6
:102A0C009A420CD1FA7B0D4913465B0013449B0090
:102A1C000B4408331B687868984703460AE0012387
:102A2C0008E0FB7B0133FB73054B1B78FA7B9A4266
:102A3C00A6D3022318461437BD4690BD0871000872
:102A4C00E071000880B582B000AF0023FB71032059
:102A5C0000F054F90F2000F00DF80346002B02D0C3
:102A6C000123FB7101E0FDF7E7FEFB7918460837FF
:102A7C00BD4680BD80B584B000AF78600023FB7389
:102A8C00164B1B68002B22D0154B1A68134B1B6876
:102A9C004FF47A71B1FBF3F3B2FBF3F3184600F089
:102AAC0062F90346002B0FD17B680F2B09D800224B
:102ABC0079684FF0FF3000F02CF90A4A7B681360FC
:102ACC0007E00123FB7304E00123FB7301E0012306
:102ADC00FB73FB7B18461037BD4680BD30000020D1
:102AEC00000000202C00002080B400AF054B1A68B9
:102AFC00054B1B681344034A136000BFBD4680BCE2
:102B0C00704700BF202D00203000002080B400AFA3
:102B1C00024B1B681846BD4680BC7047202D002018
:102B2C0080B584B000AF7860FFF7F0FFB8607B68C9
:102B3C00FB60FB68B3F1FF3F04D0094B1B68FA68DC
:102B4C001344FB6000BFFFF7E1FF0246BB68D31ADA
:102B5C00FA689A42F7D800BF00BF1037BD4680BD57
:102B6C003000002080B485B000AF78607B6803F043
:102B7C000703FB600C4BDB68BB60BA684FF6FF03C6
:102B8C001340BB60FB681A02BB68134343F0BF637E
:102B9C0043F40033BB60044ABB68D36000BF1437F6
:102BAC00BD4680BC704700BF00ED00E080B400AFB4
:102BBC00044BDB681B0A03F007031846BD4680BCB8
:102BCC00704700BF00ED00E080B483B000AF034657
:102BDC00FB7197F90730002B0BDBFB7903F01F021D
:102BEC00064997F907305B09012000FA02F241F817
:102BFC00232000BF0C37BD4680BC704700E100E0CD
:102C0C0080B483B000AF03463960FB7197F907308D
:102C1C00002B0ADB3B68DAB20C4997F9073012013A
:102C2C00D2B20B4483F800230AE03B68DAB20849BD
:102C3C00FB7903F00F03043B1201D2B20B441A765A
:102C4C0000BF0C37BD4680BC704700BF00E100E000
:102C5C0000ED00E080B489B000AFF860B9607A6034
:102C6C00FB6803F00703FB61FB69C3F10703042B4B
:102C7C0028BF0423BB61FB690433062B02D9FB6913
:102C8C00033B00E000237B614FF0FF32BB6902FA8B
:102C9C0003F3DA43BB681A407B699A404FF0FF316B
:102CAC007B6901FA03F3D9437B680B401343184645
:102CBC002437BD4680BC704780B582B000AF7860C9
:102CCC007B68013BB3F1807F01D301230FE00A4AFB
:102CDC007B68013B53600F214FF0FF30FFF790FFF3
:102CEC00054B00229A60044B07221A6000231846F9
:102CFC000837BD4680BD00BF10E000E080B582B053
:102D0C0000AF78607868FFF72DFF00BF0837BD462D
:102D1C0080BD80B586B000AF0346B9607A60FB73A6
:102D2C0000237B61FFF742FF78617A68B9687869A4
:102D3C00FFF790FF024697F90F3011461846FFF740
:102D4C005FFF00BF1837BD4680BD80B582B000AFB5
:102D5C000346FB7197F907301846FFF735FF00BFA4
:102D6C000837BD4680BD80B582B000AF786078680A
:102D7C00FFF7A2FF034618460837BD4680BD00008A
:102D8C0080B485B000AF78607B68002B01D1012343
:102D9C0043E07B681B681A46224B1344224AA2FB71
:102DAC0003231B099A007B681A647B681F4ADA6349
:102DBC007B68022283F821207B681B681B68FB6000
:102DCC00FB6823F4FF4323F07003FB607B685A68B5
:102DDC007B689B681A437B68DB681A437B681B69BA
:102DEC001A437B685B691A437B689B691A437B684F
:102DFC00DB691343FA681343FB607B681B68FA6852
:102E0C001A607B6800229A637B68012283F8212078
:102E1C007B68002283F82020002318461437BD4617
:102E2C0080BC7047F89FFDBFCDCCCCCC006002407D
:102E3C0080B586B000AFF860B9607A603B60002363
:102E4C00FB75FB6893F82030012B01D102234BE07A
:102E5C00FB68012283F82020FB6893F82130DBB259
:102E6C00012B3AD1FB68022283F82120FB68002257
:102E7C009A63FB681B681A68FB681B6822F00102E6
:102E8C001A603B687A68B968F86800F05EF9FB680C
:102E9C00DB6A002B08D0FB681B681A68FB681B6890
:102EAC0042F00E021A600FE0FB681B681A68FB68A0
:102EBC001B6822F004021A60FB681B681A68FB6826
:102ECC001B6842F00A021A60FB681B681A68FB68F0
:102EDC001B6842F001021A6005E0FB68002283F8CF
:102EEC0020200223FB75FB7D18461837BD4680BD9C
:102EFC0080B485B000AF78600023FB737B6893F8D7
:102F0C002130DBB2022B08D07B6804229A637B68E9
:102F1C00002283F82020012322E07B681B681A68BA
:102F2C007B681B6822F00E021A607B681B681A68AB
:102F3C007B681B6822F001021A607B681B6C03F033
:102F4C001C027B68DB6B012101FA02F25A607B6880
:102F5C00012283F821207B68002283F82020FB7B50
:102F6C0018461437BD4680BC704780B584B000AF9E
:102F7C0078600023FB737B6893F82130DBB2022B63
:102F8C0005D07B6804229A630123FB7329E07B68DC
:102F9C001B681A687B681B6822F00E021A607B683B
:102FAC001B681A687B681B6822F001021A607B6838
:102FBC001B6C03F01C027B68DB6B012101FA02F233
:102FCC005A607B68012283F821207B68002283F8F9
:102FDC0020207B685B6B002B03D07B685B6B786875
:102FEC009847FB7B18461037BD4680BD80B584B032
:102FFC0000AF78607B68DB6B1B68FB607B681B68D1
:10300C001B68BB607B681B6C03F01C0304229A409A
:10301C00FB681340002B26D0BB6803F00403002B85
:10302C0021D07B681B681B6803F02003002B07D1A1
:10303C007B681B681A687B681B6822F004021A60A4
:10304C007B681B6C03F01C027B68DB6B042101FAB0
:10305C0002F25A607B68DB6A002B71D07B68DB6AFA
:10306C00786898476CE07B681B6C03F01C030222A9
:10307C009A40FB681340002B2ED0BB6803F0020370
:10308C00002B29D07B681B681B6803F02003002BE6
:10309C000BD17B681B681A687B681B6822F00A02DC
:1030AC001A607B68012283F821207B681B6C03F07B
:1030BC001C027B68DB6B022101FA02F25A607B680E
:1030CC00002283F820207B689B6A002B38D07B6819
:1030DC009B6A7868984733E07B681B6C03F01C0391
:1030EC0008229A40FB681340002B2AD0BB6803F0DF
:1030FC000803002B25D07B681B681A687B681B684B
:10310C0022F00E021A607B681B6C03F01C027B68B9
:10311C00DB6B012101FA02F25A607B6801229A638F
:10312C007B68012283F821207B68002283F8202011
:10313C007B681B6B002B04D07B681B6B78689847F3
:10314C0000BF00BF1037BD4680BD80B485B000AF56
:10315C00F860B9607A603B60FB681B6C03F01C0282
:10316C00FB68DB6B012101FA02F25A60FB681B68F9
:10317C003A685A60FB685B68102B08D1FB681B68C7
:10318C007A689A60FB681B68BA68DA6007E0FB68CB
:10319C001B68BA689A60FB681B687A68DA6000BFC3
:1031AC001437BD4680BC704780B487B000AF7860E0
:1031BC00396000237B610023FB6000233B6154E1F9
:1031CC003B681A6801217B6901FA03F31340FB6029
:1031DC00FB68002B00F046813B685B6803F003033F
:1031EC00012B05D03B685B6803F00303022B30D145
:1031FC007B689B683B617B695B00032202FA03F3EB
:10320C00DB433A6913403B613B68DA687B695B00DE
:10321C0002FA03F33A6913433B617B683A699A609B
:10322C007B685B683B6101227B6902FA03F3DB4339
:10323C003A6913403B613B685B681B0903F0010270
:10324C007B6902FA03F33A6913433B617B683A6981
:10325C005A603B685B6803F00303032B17D07B6851
:10326C00DB683B617B695B00032202FA03F3DB43FF
:10327C003A6913403B613B689A687B695B0002FAD0
:10328C0003F33A6913433B617B683A69DA603B6844
:10329C005B6803F00303022B23D17B69DA087B689C
:1032AC00083253F822303B617B6903F007039B0023
:1032BC000F2202FA03F3DB433A6913403B613B688C
:1032CC001A697B6903F007039B0002FA03F33A695E
:1032DC0013433B617B69DA087B680832396943F830
:1032EC0022107B681B683B617B695B00032202FA3E
:1032FC0003F3DB433A6913403B613B685B6803F0C3
:10330C0003027B695B0002FA03F33A6913433B61E6
:10331C007B683A691A603B685B6803F44033002BA6
:10332C0000F0A080584B1B6A574A43F0010313620C
:10333C00554B1B6A03F00103BB60BB68534A7B69A6
:10334C009B08023352F823303B617B6903F0030383
:10335C009B000F2202FA03F3DB433A6913403B61F3
:10336C007B684B4A934219D07B684A4A934213D0EC
:10337C007B68494A93420DD07B68484A934207D0F8
:10338C007B68474A934201D1042308E0052306E0F9
:10339C00032304E0022302E0012300E000237A6906
:1033AC0002F00302920093403A6913433B613749A0
:1033BC007B699B0802333A6941F82320394B1B681F
:1033CC003B61FB68DB433A6913403B613B685B68DC
:1033DC0003F48033002B03D03A69FB6813433B6141
:1033EC00304A3B6913602F4B5B683B61FB68DB43E6
:1033FC003A6913403B613B685B6803F40033002B74
:10340C0003D03A69FB6813433B61264A3B6953601E
:10341C00244B9B683B61FB68DB433A6913403B617F
:10342C003B685B6803F48013002B03D03A69FB689C
:10343C0013433B611B4A3B6993601A4BDB683B614E
:10344C00FB68DB433A6913403B613B685B6803F400
:10345C000013002B03D03A69FB6813433B61114AFC
:10346C003B69D3607B6901337B613B681A687B697C
:10347C0022FA03F3002B7FF4A3AE00BF00BF1C376E
:10348C00BD4680BC704700BF0038024000000140C0
:10349C00000002400004024000080240000C024000
:1034AC00001002400004014080B483B000AF78608B
:1034BC000B467B8013467B707B78002B03D07A887D
:1034CC007B689A6103E07B881A047B689A6100BF71
:1034DC000C37BD4680BC704780B588B000AF7860B3
:1034EC007B68002B01D101231DE3944B9B6803F0F7
:1034FC000C03BB61914B9B6803F480337B617B684D
:10350C001B6803F00103002B7BD0BB69082B06D092
:10351C00BB690C2B0FD17B69B3F5803F0BD1874B6B
:10352C001B6803F40033002B6AD07B685B68002BAC
:10353C0066D10123F7E27B685B68012B06D17F4BD8
:10354C001B687E4A43F4803313602DE07B685B6814
:10355C00002B0CD1794B1B68784A23F48033136011
:10356C00764B1B68754A23F4802313601CE07B6840
:10357C005B68052B0CD1714B1B68704A43F480239C
:10358C0013606E4B1B686D4A43F4803313600BE081
:10359C006A4B1B68694A23F480331360674B1B68C2
:1035AC00664A23F4802313607B685B68002B13D07E
:1035BC00FFF7ACFA386108E0FFF7A8FA02463B695E
:1035CC00D31A642B01D90323ADE25C4B1B6803F4C3
:1035DC000033002BF0D014E0FFF798FA386108E0C4
:1035EC00FFF794FA02463B69D31A642B01D90323E3
:1035FC0099E2524B1B6803F40033002BF0D100E02E
:10360C0000BF7B681B6803F00203002B5AD0BB6918
:10361C00042B05D0BB690C2B19D17B69002B16D15F
:10362C00464B1B6803F00203002B05D07B68DB685C
:10363C00012B01D0012376E2404B5B6823F4F85256
:10364C007B681B691B023D4913434B603AE07B6866
:10365C00DB68002B20D03A4B01221A60FFF756FA98
:10366C00386108E0FFF752FA02463B69D31A022B85
:10367C0001D9032357E2314B1B6803F00203002BE3
:10368C00F0D02E4B5B6823F4F8527B681B691B024D
:10369C002A4913434B6015E0294B00221A60FFF7AF
:1036AC0035FA386108E0FFF731FA02463B69D31A64
:1036BC00022B01D9032336E2204B1B6803F00203D3
:1036CC00002BF0D17B681B6803F01003002B00F07B
:1036DC00B880BB69002B70D1184B1B6803F40073C6
:1036EC00002B05D07B689B69002B01D101231AE2CA
:1036FC007B681A6A114B5B6803F460439A4221D9C8
:10370C007B681B6A184600F03BFC0346002B01D07B
:10371C00012308E2094B5B6823F460427B681B6A57
:10372C00064913434B60054B5B6823F07F427B6873
:10373C00DB691B06014913434B6020E00038024053
:10374C0000004742994B5B6823F460427B681B6A1C
:10375C00964913434B60954B5B6823F07F427B6823
:10376C00DB691B06914913434B607B681B6A184647
:10377C0000F006FC0346002B01D00123D3E17B684B
:10378C001B6A5B0B01334FF4004202FA03F3874AC6
:10379C009268120902F00F0285498A5CD340854A6F
:1037AC001360854B1B681846FFF764F90346FB73DF
:1037BC00FB7B002B45D0FB7BB5E17B689B69002B29
:1037CC0029D07E4B01221A60FFF7A0F9386108E07E
:1037DC00FFF79CF902463B69D31A022B01D903234C
:1037EC00A1E1724B1B6803F40073002BF0D06F4BFC
:1037FC005B6823F460427B681B6A6C4913434B6023
:10380C006A4B5B6823F07F427B68DB691B06674968
:10381C0013434B6015E0694B00221A60FFF776F9F1
:10382C00386108E0FFF772F902463B69D31A022BA4
:10383C0001D9032377E15D4B1B6803F40073002B64
:10384C00F0D17B681B6803F00803002B30D07B6839
:10385C005B69002B16D05A4B01221A60FFF756F900
:10386C00386108E0FFF752F902463B69D31A022B84
:10387C0001D9032357E14D4B5B6B03F00203002B83
:10388C00F0D015E04E4B00221A60FFF73FF938617B
:10389C0008E0FFF73BF902463B69D31A022B01D92A
:1038AC00032340E1414B5B6B03F00203002BF0D18F
:1038BC007B681B6803F00403002B00F0B580002329
:1038CC00FB773A4B5B6A03F08053002B0DD1374BDF
:1038DC005B6A364A43F080535362344B5B6A03F0A5
:1038EC008053BB60BB680123FB77364B1B6803F42A
:1038FC008073002B18D1334B1B68324A43F480730E
:10390C001360FFF703F9386108E0FFF7FFF8024690
:10391C003B69D31A642B01D9032304E1294B1B689F
:10392C0003F48073002BF0D07B689B68012B06D1CD
:10393C001E4B5B6B1D4A43F4807353632DE07B6815
:10394C009B68002B0CD1194B5B6B184A23F48073CA
:10395C005363164B5B6B154A23F4806353631CE073
:10396C007B689B68052B0CD1104B5B6B0F4A43F4A7
:10397C00806353630D4B5B6B0C4A43F4807353634E
:10398C000BE00A4B5B6B094A23F480735363074BC0
:10399C005B6B064A23F4806353637B689B68002B44
:1039AC0024D0FFF7B3F8386119E000BF00380240AB
:1039BC00F0700008000000202C000020200047427E
:1039CC008006474200700040FFF7A0F802463B69B2
:1039DC00D31A41F28832934201D90323A3E0544B0A
:1039EC005B6B03F40073002BEED014E0FFF78EF842
:1039FC0038610AE0FFF78AF802463B69D31A41F2B4
:103A0C008832934201D903238DE0494B5B6B03F45D
:103A1C000073002BEED1FB7F012B05D1444B5B6A6D
:103A2C00434A23F0805353627B685B6A002B79D046
:103A3C00BB690C2B56D07B685B6A022B3BD13D4B90
:103A4C0000221A60FFF762F8386108E0FFF75EF8B1
:103A5C0002463B69D31A022B01D9032363E0344B92
:103A6C001B6803F00073002BF0D1314B9B6823F4DF
:103A7C007D027B68996A7B68DB6A19437B681B6BE8
:103A8C000B432B4913438B602A4B01221A60FFF71F
:103A9C003DF8386108E0FFF739F802463B69D31A64
:103AAC00022B01D903233EE0214B1B6803F000736A
:103ABC00002BF0D036E01F4B00221A60FFF726F8DF
:103ACC00386108E0FFF722F802463B69D31A022B53
:103ADC0001D9032327E0164B1B6803F00073002B5E
:103AEC00F0D11FE07B685B6A012B01D101231AE046
:103AFC000F4B9B687B617B6903F480327B689B6A0C
:103B0C009A420DD17B6903F470127B68DB6A9A428E
:103B1C0006D17B6903F440027B681B6B9A4201D08F
:103B2C00012300E0002318462037BD4680BD00BFAE
:103B3C00003802406000474280B584B000AF786026
:103B4C0039607B68002B01D101231AE18F4B1B6874
:103B5C0003F001033A689A4219D93B68012B05D14D
:103B6C008A4B1B68894A43F004031360874B1B681C
:103B7C0023F0010285493B6813430B60834B1B68A0
:103B8C0003F001033A689A4201D00123F9E07B6803
:103B9C001B6803F00203002B08D07D4B9B6823F0BD
:103BAC00F0027B689B687A4913438B607B681B68C7
:103BBC0003F00103002B00F08E807B685B68022B06
:103BCC0007D1734B1B6803F40033002B21D1012365
:103BDC00D7E07B685B68032B07D16D4B1B6803F048
:103BEC000073002B15D10123CBE07B685B68012BA4
:103BFC0007D1674B1B6803F00203002B09D101238B
:103C0C00BFE0634B1B6803F40073002B01D101234D
:103C1C00B7E05F4B9B6823F003027B685B685C49F1
:103C2C0013438B60FEF772FFF8607B685B68022BB6
:103C3C0012D10AE0FEF76AFF0246FB68D31A41F282
:103C4C008832934201D903239BE0514B9B6803F0CC
:103C5C000C03082BEED13EE07B685B68032B12D182
:103C6C000AE0FEF753FF0246FB68D31A41F2883292
:103C7C00934201D9032384E0454B9B6803F00C036A
:103C8C000C2BEED127E07B685B68012B1DD10AE081
:103C9C00FEF73CFF0246FB68D31A41F2883293428E
:103CAC0001D903236DE03A4B9B6803F00C03042B02
:103CBC00EED110E0FEF72AFF0246FB68D31A41F260
:103CCC008832934201D903235BE0314B9B6803F0AC
:103CDC000C03002BEED12D4B1B6803F001033A684B
:103CEC009A4219D23B68012B05D1284B1B68274AF5
:103CFC0043F004031360254B1B6823F00102234996
:103D0C003B6813430B60214B1B6803F001033A68BB
:103D1C009A4201D0012334E07B681B6803F0040352
:103D2C00002B08D01A4B9B6823F4E0627B68DB689D
:103D3C00174913438B607B681B6803F00803002B47
:103D4C0009D0134B9B6823F460527B681B69DB0022
:103D5C000F4913438B6000F023F802460C4B9B6811
:103D6C001B0903F00F030B49CB5C22FA03F30A4A3D
:103D7C0013600A4B1B681846FEF77CFE0346FB7269
:103D8C00FB7A18461037BD4680BD00BF003C024090
:103D9C0000380240F0700008000000202C000020C9
:103DAC002DE9B04F8EB000AF584B9B68FB62FB6A9D
:103DBC0003F00C030C2B0DD00C2B00F29280042B77
:103DCC0002D0082B03D08CE0514B3B6397E0514B56
:103DDC003B6394E0FB6A9B0C03F00F024E4B9B5C25
:103DEC00BB62FB6A9B0D03F0030301337B62474B01
:103DFC009B6803F48033002B21D0BB6A0022BB618B
:103E0C00FA61444BD7E906894A4603FB02F20023C8
:103E1C00444604FB03F313443E4A4446A4FB02010C
:103E2C000B4419467B6A00223B617A61D7E9042373
:103E3C00FCF7A6F902460B4613467B634EE0BB6AC1
:103E4C0000229A46934652465B464FF000004FF0D4
:103E5C000001590141EAD261500102460B46B2EB16
:103E6C000A0863EB0B094FF000024FF000034FEA16
:103E7C00891343EA98634FEA8812B2EB080463EBA8
:103E8C0009054FF000024FF00003EB0043EA5473B6
:103E9C00E20014461D4614EB0A033B6045EB0B0392
:103EAC007B604FF000024FF00003D7E90045294634
:103EBC008B0220462946044643EA945301468A0263
:103ECC00104619467B6A0022BB60FA60D7E90223D0
:103EDC00FCF756F902460B4613467B637B6B3B6340
:103EEC000DE00A4B5B685B0B03F007033B623B6A1C
:103EFC0001334FF4004202FA03F33B6300BF3B6B08
:103F0C0018463837BD46BDE8B08F00BF00380240B8
:103F1C000024F40000366E01E470000880B400AF99
:103F2C00024B1B681846BD4680BC70470000002041
:103F3C0080B500AFFFF7F2FF0246054B9B681B0AEA
:103F4C0003F007030349CB5C22FA03F3184680BD48
:103F5C00003802400071000880B500AFFFF7DEFFAB
:103F6C000246054B9B68DB0A03F007030349CB5C55
:103F7C0022FA03F3184680BD003802400071000895
:103F8C0080B487B000AF786000233B61294B9B68FD
:103F9C0003F0F003002B2CD1264B5B6A03F080530B
:103FAC00002B05D0244B1B6803F4C0537B6116E037
:103FBC00204B5B6A1F4A43F0805353621D4B5B6A74
:103FCC0003F08053FB60FB681B4B1B6803F4C0536E
:103FDC007B61184B5B6A174A23F0805353627B69F1
:103FEC00B3F5C05F05D17B68B3F5404F01D1012318
:103FFC003B613B69012B05D1104B1B680F4A43F009
:10400C00040313600D4B1B6823F001020B493B6941
:10401C0013430B60094B1B6803F001033A699A4286
:10402C0001D0012300E0002318461C37BD4680BC9C
:10403C00704700BF0038024000700040003C024056
:10404C0080B582B000AF78607B68002B01D1012372
:10405C006EE07B685B6A002B08D17B685B68B3F50C
:10406C00827F09D07B680022DA6105E07B68002240
:10407C001A617B6800225A617B6800229A627B6815
:10408C0093F85130DBB2002B06D17B68002283F809
:10409C0050207868FCF766FB7B68022283F851207D
:1040AC007B681B681A687B681B6822F040021A60E8
:1040BC007B685B6803F482727B689B6803F404433F
:1040CC001A437B68DB6803F400631A437B681B6943
:1040DC0003F002031A437B685B6903F001031A4384
:1040EC007B689B6903F400731A437B68DB6903F0FC
:1040FC0038031A437B681B6A03F0800342EA03010E
:10410C007B689B6A03F400527B681B680A431A6045
:10411C007B689B691A0C7B681B6802F004025A606E
:10412C007B6800225A657B68012283F851200023AA
:10413C0018460837BD4680BD80B588B000AFF86022
:10414C00B9603B601346FB800023FB77FB6893F858
:10415C005030012B01D1022326E1FB68012283F8A8
:10416C005020FEF7D3FCB861FB88FB82FB6893F808
:10417C005130DBB2012B02D00223FB770BE1BB6881
:10418C00002B02D0FB88002B02D10123FB7702E12C
:10419C00FB68032283F85120FB6800225A65FB68F8
:1041AC00BA681A63FB68FA889A86FB68FA88DA861A
:1041BC00FB6800229A63FB6800229A87FB68002246
:1041CC00DA87FB6800225A64FB6800221A64FB68D9
:1041DC009B68B3F5004F0FD1FB681B681A68FB682E
:1041EC001B6822F040021A60FB681B681A68FB68A7
:1041FC001B6842F480421A60FB681B681B6803F062
:10420C004003402B07D0FB681B681A68FB681B68CF
:10421C0042F040021A60FB68DB68B3F5006F4BD1CB
:10422C00FB685B68002B02D0FB8A012B3ED1FB683C
:10423C001B6B1A88FB681B68DA60FB681B6B9A1C8B
:10424C00FB681A63FB68DB8E9BB2013B9AB2FB687E
:10425C00DA862BE0FB681B689B6803F00203022BD9
:10426C0012D1FB681B6B1A88FB681B68DA60FB6851
:10427C001B6B9A1CFB681A63FB68DB8E9BB2013BC1
:10428C009AB2FB68DA8611E0FEF740FC0246BB6985
:10429C00D31A3A689A4203D83B68B3F1FF3F02D174
:1042AC003B68002B02D10323FB7774E0FB68DB8EA9
:1042BC009BB2002BCED14CE0FB685B68002B02D08C
:1042CC00FB8A012B40D1FB681A6BFB681B680C3313
:1042DC0012781A70FB681B6B5A1CFB681A63FB681C
:1042EC00DB8E9BB2013B9AB2FB68DA862CE0FB6852
:1042FC001B689B6803F00203022B13D1FB681A6B3B
:10430C00FB681B680C3312781A70FB681B6B5A1C09
:10431C00FB681A63FB68DB8E9BB2013B9AB2FB68AD
:10432C00DA8611E0FEF7F2FB0246BB69D31A3A6853
:10433C009A4203D83B68B3F1FF3F02D13B68002B94
:10434C0002D10323FB7726E0FB68DB8E9BB2002BAC
:10435C00CDD1BA693968F86800F0D0FC0346002B5F
:10436C0002D0FB6820225A65FB689B68002B0AD19F
:10437C0000233B61FB681B68DB683B61FB681B68C7
:10438C009B683B613B69FB685B6D002B02D0012392
:10439C00FB7700E000BFFB68012283F85120FB682B
:1043AC00002283F85020FB7F18462037BD4680BD85
:1043BC0080B588B002AFF860B9603B601346FB80F3
:1043CC000023FB75FB685B68B3F5827F12D1FB6839
:1043DC009B68002B0ED1FB68042283F85120FA88CD
:1043EC003B6800931346BA68B968F86800F0F1F8B6
:1043FC000346EAE0FB6893F85030012B01D102230D
:10440C00E3E0FB68012283F85020FEF77FFB386164
:10441C00FB6893F85130DBB2012B02D00223FB7501
:10442C00CAE0BB68002B02D0FB88002B02D1012311
:10443C00FB75C1E0FB68042283F85120FB68002265
:10444C005A65FB68BA689A63FB68FA889A87FB68B6
:10445C00FA88DA87FB6800221A63FB6800229A86C6
:10446C00FB680022DA86FB6800221A64FB680022D3
:10447C005A64FB689B68B3F5004F0FD1FB681B684F
:10448C001A68FB681B6822F040021A60FB681B6804
:10449C001A68FB681B6822F480421A60FB681B6870
:1044AC001B6803F04003402B07D0FB681B681A689D
:1044BC00FB681B6842F040021A60FB68DB68002B4B
:1044CC0062D12EE0FB681B689B6803F00103012B93
:1044DC0015D1FB681B6803F10C02FB689B6B12780F
:1044EC00D2B21A70FB689B6B5A1CFB689A63FB6810
:1044FC00DB8F9BB2013B9AB2FB68DA8711E0FEF7C7
:10450C0005FB02463B69D31A3A689A4203D83B68CA
:10451C00B3F1FF3F02D13B68002B02D10323FB75A3
:10452C004AE0FB68DB8F9BB2002BCBD131E0FB6800
:10453C001B689B6803F00103012B13D1FB681B68FC
:10454C00DA68FB689B6B92B21A80FB689B6B9A1CB7
:10455C00FB689A63FB68DB8F9BB2013B9AB2FB68EA
:10456C00DA8711E0FEF7D2FA02463B69D31A3A68B1
:10457C009A4203D83B68B3F1FF3F02D13B68002B52
:10458C0002D10323FB7517E0FB68DB8F9BB2002B7A
:10459C00CDD13A693968F86800F04AFB0346002B24
:1045AC0002D0FB6820225A65FB685B6D002B02D0A1
:1045BC000123FB7500E000BFFB68012283F851204A
:1045CC00FB68002283F85020FB7D18461837BD4647
:1045DC0080BD80B58CB000AFF860B9607A607B802C
:1045EC000123FB62002387F82B30FB6893F85030D3
:1045FC00012B01D102238AE1FB68012283F85020B0
:10460C00FEF784FA7862FB6893F8513087F8233010
:10461C00FB685B68FB617B887B8397F82330012BFD
:10462C000FD0FB69B3F5827F07D1FB689B68002B29
:10463C0003D197F82330042B03D0022387F82B30B7
:10464C005BE1BB68002B05D07B68002B02D07B881C
:10465C00002B03D1012387F82B304EE1FB6893F834
:10466C005130DBB2042B03D0FB68052283F85120B8
:10467C00FB6800225A65FB687A689A63FB687A8843
:10468C00DA87FB687A889A87FB68BA681A63FB68D2
:10469C007A88DA86FB687A889A86FB6800221A6424
:1046AC00FB6800225A64FB681B681B6803F040031C
:1046BC00402B07D0FB681B681A68FB681B6842F02C
:1046CC0040021A60FB68DB68B3F5006F78D1FB68B9
:1046DC005B68002B02D07B8B012B66D1FB681B6BBC
:1046EC001A88FB681B68DA60FB681B6B9A1CFB68FA
:1046FC001A63FB68DB8E9BB2013B9AB2FB68DA86CD
:10470C0053E0FB681B689B6803F00203022B1BD170
:10471C00FB68DB8E9BB2002B16D0FB6A012B13D1EE
:10472C00FB681B6B1A88FB681B68DA60FB681B6BE9
:10473C009A1CFB681A63FB68DB8E9BB2013B9AB236
:10474C00FB68DA860023FB62FB681B689B6803F03E
:10475C000103012B19D1FB68DB8F9BB2002B14D00A
:10476C00FB681B68DA68FB689B6B92B21A80FB686B
:10477C009B6B9A1CFB689A63FB68DB8F9BB2013BBB
:10478C009AB2FB68DA870123FB62FEF7BFF9024697
:10479C007B6AD31ABA6B9A4207D8BB6BB3F1FF3F53
:1047AC0003D0032387F82B30A7E0FB68DB8E9BB28A
:1047BC00002BA6D1FB68DB8F9BB2002BA1D17CE038
:1047CC00FB685B68002B02D07B8B012B6BD1FB68E9
:1047DC001A6BFB681B680C3312781A70FB681B6B26
:1047EC005A1CFB681A63FB68DB8E9BB2013B9AB2C6
:1047FC00FB68DA8657E0FB681B689B6803F00203D2
:10480C00022B1CD1FB68DB8E9BB2002B17D0FB6AF2
:10481C00012B14D1FB681A6BFB681B680C331278E4
:10482C001A70FB681B6B5A1CFB681A63FB68DB8EE7
:10483C009BB2013B9AB2FB68DA860023FB62FB68F1
:10484C001B689B6803F00103012B19D1FB68DB8FFC
:10485C009BB2002B14D0FB681B68DA68FB689B6B5F
:10486C00D2B21A70FB689B6B5A1CFB689A63FB688C
:10487C00DB8F9BB2013B9AB2FB68DA870123FB62A8
:10488C00FEF744F902467B6AD31ABA6B9A4203D8F4
:10489C00BB6BB3F1FF3F02D1BB6B002B03D10323E6
:1048AC0087F82B3029E0FB68DB8E9BB2002BA2D162
:1048BC00FB68DB8F9BB2002B9DD17A6AB96BF868D1
:1048CC0000F01CFA0346002B06D0012387F82B308E
:1048DC00FB6820225A6510E0FB689B68002B0BD10B
:1048EC0000237B61FB681B68DB687B61FB681B68D2
:1048FC009B687B617B6900E000BFFB68012283F849
:10490C005120FB68002283F8502097F82B30184672
:10491C003037BD4680BD000080B588B000AF7860F0
:10492C007B681B685B68FB617B681B689B68BB6171
:10493C00BB699B0903F00103002B0FD1BB6903F08A
:10494C000103002B0AD0FB699B0903F00103002B28
:10495C0004D07B681B6C78689847BEE0BB695B0829
:10496C0003F00103002B0AD0FB69DB0903F0010300
:10497C00002B04D07B685B6C78689847ADE0BB6912
:10498C005B0903F00103002B06D1BB699B0903F003
:10499C000103002B00F0A180FB695B0903F001030C
:1049AC00002B00F09A80BB699B0903F00103002BDC
:1049BC0023D07B6893F85130DBB2032B11D07B688A
:1049CC005B6D43F004027B685A6500237B617B6856
:1049DC001B68DB687B617B681B689B687B617B6900
:1049EC000BE000233B617B681B68DB683B617B68E9
:1049FC001B689B683B613B696FE0BB695B0903F01B
:104A0C000103002B14D07B685B6D43F001027B68C3
:104A1C005A650023FB607B681B689B68FB607B68A6
:104A2C001B681A687B681B6822F040021A60FB68DE
:104A3C007B685B6D002B4FD07B681B685A687B686A
:104A4C001B6822F0E0025A607B68012283F8512037
:104A5C00FB6903F00203002B04D1FB6903F0010393
:104A6C00002B34D07B681B685A687B681B6822F06B
:104A7C0003025A607B68DB6C002B11D07B68DB6C0B
:104A8C00174A5A637B68DB6C1846FEF76EFA0346CE
:104A9C00002B05D07B685B6D43F040027B685A6548
:104AAC007B689B6C002B16D07B689B6C0C4A5A6302
:104ABC007B689B6C1846FEF758FA0346002B0AD00D
:104ACC007B685B6D43F040027B685A6503E0786855
:104ADC0000F008F800E000BF00BF2037BD4680BDE5
:104AEC00034B000880B483B000AF786000BF0C3774
:104AFC00BD4680BC704780B584B000AF78607B68E1
:104B0C005B6AFB60FB680022DA87FB680022DA86AE
:104B1C00F868FFF7E7FF00BF1037BD4680BD000007
:104B2C0080B588B000AFF860B9603B601346FB718C
:104B3C00FDF7ECFF0246BB6A9B1A3A681344FB6113
:104B4C00FDF7E4FFB861394B1B685B011B0DFA697B
:104B5C0002FB03F37B6154E03B68B3F1FF3F50D0A1
:104B6C00FDF7D4FF0246BB69D31AFA699A4202D9FF
:104B7C00FB69002B3DD1FB681B685A68FB681B68FE
:104B8C0022F0E0025A60FB685B68B3F5827F11D1BA
:104B9C00FB689B68B3F5004F04D0FB689B68B3F5CA
:104BAC00806F07D1FB681B681A68FB681B6822F0D2
:104BBC0040021A60FB689B6AB3F5005F0FD1FB687B
:104BCC001B681A68FB681B6822F400521A60FB68A9
:104BDC001B681A68FB681B6842F400521A60FB6879
:104BEC00012283F85120FB68002283F85020032314
:104BFC0017E07B69002B01D10023FB617B69013B32
:104C0C007B61FB681B689A68BB681340BA689A4260
:104C1C000CBF01230023DBB21A46FB799A429BD1CD
:104C2C00002318462037BD4680BD00BF0000002081
:104C3C0080B586B002AFF860B9607A60FB685B68DB
:104C4C00B3F5827F11D1FB689B68B3F5004F04D09C
:104C5C00FB689B68B3F5806F07D1FB681B681A680B
:104C6C00FB681B6822F040021A60FB685B68B3F5B6
:104C7C00827F2AD1FB689B68B3F5806F12D07B686A
:104C8C000093BB6800228021F868FFF749FF0346B8
:104C9C00002B2DD0FB685B6D43F02002FB685A653E
:104CAC00032326E07B680093BB6800220121F8688F
:104CBC00FFF736FF0346002B1AD0FB685B6D43F001
:104CCC002002FB685A65032313E07B680093BB68E2
:104CDC0000220121F868FFF723FF0346002B07D0C1
:104CEC00FB685B6D43F02002FB685A65032300E010
:104CFC00002318461037BD4680BD000080B588B033
:104D0C0002AFF860B9607A601B4B1B681B4AA2FBB0
:104D1C0003235B0D4FF47A7202FB03F37B61FB6898
:104D2C005B68B3F5827F12D17B680093BB6800226D
:104D3C008021F868FFF7F4FE0346002B16D0FB68C1
:104D4C005B6D43F02002FB685A6503230FE07B691F
:104D5C00002B0AD07B69013B7B61FB681B689B685D
:104D6C0003F08003802BF2D000E000BF0023184634
:104D7C001837BD4680BD00BF00000020819F5E1625
:104D8C0080B582B000AF78607B68002B01D1012325
:104D9C0031E07B6893F83930DBB2002B06D17B68AD
:104DAC00002283F838207868FBF7E2FE7B68022249
:104DBC0083F839207B681A687B68043319461046DF
:104DCC0000F0BCFA7B68012283F83E207B6801224C
:104DDC0083F83A207B68012283F83B207B68012210
:104DEC0083F83C207B68012283F83D207B680122FC
:104DFC0083F83920002318460837BD4680BD80B59E
:104E0C0082B000AF78607B68002B01D1012331E0C8
:104E1C007B6893F83930DBB2002B06D17B6800221B
:104E2C0083F83820786800F029F87B68022283F830
:104E3C0039207B681A687B6804331946104600F0E9
:104E4C007DFA7B68012283F83E207B68012283F87F
:104E5C003A207B68012283F83B207B68012283F88F
:104E6C003C207B68012283F83D207B68012283F87B
:104E7C003920002318460837BD4680BD80B483B066
:104E8C0000AF786000BF0C37BD4680BC7047000097
:104E9C0080B584B000AF786039603B68002B09D1D5
:104EAC007B6893F83A30DBB2012B14BF012300234B
:104EBC00DBB222E03B68042B09D17B6893F83B30D2
:104ECC00DBB2012B14BF01230023DBB215E03B68DE
:104EDC00082B09D17B6893F83C30DBB2012B14BF53
:104EEC0001230023DBB208E07B6893F83D30DBB292
:104EFC00012B14BF01230023DBB2002B01D00123B3
:104F0C0051E03B68002B04D17B68022283F83A20E5
:104F1C0013E03B68042B04D17B68022283F83B200E
:104F2C000BE03B68082B04D17B68022283F83C2001
:104F3C0003E07B68022283F83D207B681B6801221A
:104F4C003968184600F0E7FB7B681B68B3F1804FAB
:104F5C000ED07B681B68164A934209D07B681B688D
:104F6C00144A934204D07B681B68134A934211D1B4
:104F7C007B681B689B6803F00703FB60FB68062BD0
:104F8C0010D07B681B681A687B681B6842F00102B2
:104F9C001A6007E07B681B681A687B681B6842F024
:104FAC0001021A60002318461037BD4680BD00BFB1
:104FBC0000040040000800400008014080B582B0A9
:104FCC0000AF786039607B681B680022396818462E
:104FDC0000F0A1FB7B681B681A6A41F211131340A5
:104FEC00002B07D17B681B681A687B681B6822F052
:104FFC0001021A603B68002B04D17B68012283F804
:10500C003A2013E03B68042B04D17B68012283F81F
:10501C003B200BE03B68082B04D17B68012283F812
:10502C003C2003E07B68012283F83D2000231846D6
:10503C000837BD4680BD000080B584B000AFF86075
:10504C00B9607A60FB6893F83830012B01D10223E8
:10505C00ACE0FB68012283F838207B680C2B00F253
:10506C009F8001A252F823F0A9500008AD5100080E
:10507C00AD510008AD510008E9500008AD510008D1
:10508C00AD510008AD5100082B510008AD5100087E
:10509C00AD510008AD5100086B510008FB681B684E
:1050AC00B968184600F0ACF9FB681B689A69FB6894
:1050BC001B6842F008029A61FB681B689A69FB68DE
:1050CC001B6822F004029A61FB681B689969BB6833
:1050DC00DA68FB681B680A439A6162E0FB681B682C
:1050EC00B968184600F0C8F9FB681B689A69FB6838
:1050FC001B6842F400629A61FB681B689A69FB6842
:10510C001B6822F480629A61FB681B689969BB6812
:10511C00DB681A02FB681B680A439A6141E0FB6872
:10512C001B68B968184600F0E5F9FB681B68DA697A
:10513C00FB681B6842F00802DA61FB681B68DA69DD
:10514C00FB681B6822F00402DA61FB681B68D969F2
:10515C00BB68DA68FB681B680A43DA6121E0FB680C
:10516C001B68B968184600F002FAFB681B68DA691C
:10517C00FB681B6842F40062DA61FB681B68DA6941
:10518C00FB681B6822F48062DA61FB681B68D969D2
:10519C00BB68DB681A02FB681B680A43DA6100E033
:1051AC0000BFFB68002283F8382000231846103714
:1051BC00BD4680BD80B584B000AF786039607B6837
:1051CC0093F83830012B01D10223B3E07B68012224
:1051DC0083F838207B68022283F839207B681B68AF
:1051EC009B68FB60FB6823F07703FB60FB6823F490
:1051FC007F43FB607B681B68FA689A603B681B689E
:10520C00B3F5005F3ED0B3F5005F00F28780B3F5D5
:10521C00805F00F08580B3F5805F7FD8702B1AD04B
:10522C00702B7BD8602B50D0602B77D8502B3CD078
:10523C00502B73D8402B58D0402B6FD8302B64D0C8
:10524C00302B6BD8202B60D0202B67D8002B5CD058
:10525C00102B5AD062E07B6818683B6899683B68F1
:10526C005A683B68DB6800F037FA7B681B689B6800
:10527C00FB60FB6843F07703FB607B681B68FA6894
:10528C009A604EE07B6818683B6899683B685A687E
:10529C003B68DB6800F020FA7B681B689A687B68C7
:1052AC001B6842F480429A603BE07B6818683B685C
:1052BC0059683B68DB681A4600F097F97B681B68F5
:1052CC005021184600F0EEF92BE07B6818683B681B
:1052DC0059683B68DB681A4600F0B5F97B681B68B7
:1052EC006021184600F0DEF91BE07B6818683B680B
:1052FC0059683B68DB681A4600F077F97B681B68D5
:10530C004021184600F0CEF90BE07B681A683B6828
:10531C001B681946104600F0C5F902E000BF00E01A
:10532C0000BF7B68012283F839207B68002283F858
:10533C003820002318461037BD4680BD80B485B098
:10534C0000AF786039607B681B68FB607B68B3F1E9
:10535C00804F07D07B68254A934203D07B68244A50
:10536C00934208D1FB6823F07003FB603B685B68D9
:10537C00FA681343FB607B68B3F1804F13D07B68F2
:10538C001A4A93420FD07B68194A93420BD07B6820
:10539C00184A934207D07B68174A934203D07B6824
:1053AC00164A934208D1FB6823F44073FB603B68B8
:1053BC00DB68FA681343FB60FB6823F080023B68F0
:1053CC001B691343FB607B68FA681A603B689A6838
:1053DC007B68DA623B681A687B689A627B68012298
:1053EC005A6100BF1437BD4680BC704700040040B2
:1053FC000008004000080140000C01400010014072
:10540C0080B487B000AF786039607B681B6A23F08A
:10541C0001027B681A627B681B6A7B617B685B6834
:10542C003B617B689B69FB60FB6823F07003FB604E
:10543C00FB6823F00303FB603B681B68FA681343AB
:10544C00FB607B6923F002037B613B689B687A6994
:10545C0013437B617B683A695A607B68FA689A618E
:10546C003B685A687B685A637B687A691A6200BF2A
:10547C001C37BD4680BC704780B487B000AF7860E5
:10548C0039607B681B6A23F010027B681A627B68A8
:10549C001B6A7B617B685B683B617B689B69FB601B
:1054AC00FB6823F4E043FB60FB6823F44073FB6070
:1054BC003B681B681B02FA681343FB607B6923F093
:1054CC0020037B613B689B681B017A6913437B61FA
:1054DC007B683A695A607B68FA689A613B685A68DB
:1054EC007B689A637B687A691A6200BF1C37BD4679
:1054FC0080BC704780B487B000AF786039607B683F
:10550C001B6A23F480727B681A627B681B6A7B615E
:10551C007B685B683B617B68DB69FB60FB6823F045
:10552C007003FB60FB6823F00303FB603B681B68A4
:10553C00FA681343FB607B6923F400737B613B685F
:10554C009B681B027A6913437B617B683A695A60DA
:10555C007B68FA68DA613B685A687B68DA637B6857
:10556C007A691A6200BF1C37BD4680BC704780B494
:10557C0087B000AF786039607B681B6A23F4805277
:10558C007B681A627B681B6A7B617B685B683B612A
:10559C007B68DB69FB60FB6823F4E043FB60FB6822
:1055AC0023F44073FB603B681B681B02FA681343CF
:1055BC00FB607B6923F400537B613B689B681B0396
:1055CC007A6913437B617B683A695A607B68FA6835
:1055DC00DA613B685A687B681A647B687A691A627C
:1055EC0000BF1C37BD4680BC704780B487B000AF8D
:1055FC00F860B9607A60FB681B6A7B61FB681B6AA8
:10560C0023F00102FB681A62FB689B693B613B69F2
:10561C0023F0F0033B617B681B013A6913433B6148
:10562C007B6923F00A037B617A69BB6813437B6156
:10563C00FB683A699A61FB687A691A6200BF1C3789
:10564C00BD4680BC704780B487B000AFF860B960CD
:10565C007A60FB681B6A23F01002FB681A62FB6815
:10566C009B697B61FB681B6A3B617B6923F470431C
:10567C007B617B681B037A6913437B613B6923F075
:10568C00A0033B61BB681B013A6913433B61FB6898
:10569C007A699A61FB683A691A6200BF1C37BD4689
:1056AC0080BC704780B485B000AF786039607B688F
:1056BC009B68FB60FB6823F07003FB603A68FB6837
:1056CC00134343F00703FB607B68FA689A6000BFE2
:1056DC001437BD4680BC704780B487B000AFF8600B
:1056EC00B9607A603B60FB689B687B617B6923F4E3
:1056FC007F437B613B681A027B681A43BB68134388
:10570C007A6913437B61FB687A699A6000BF1C3726
:10571C00BD4680BC704780B487B000AFF860B960FC
:10572C007A60BB6803F01F03012202FA03F37B616A
:10573C00FB681A6A7B69DB431A40FB681A62FB68D8
:10574C001A6ABB6803F01F03796801FA03F31A4362
:10575C00FB681A6200BF1C37BD4680BC7047000056
:10576C0080B485B000AF786039607B6893F83830CE
:10577C00012B01D1022346E07B68012283F83820FB
:10578C007B68022283F839207B681B685B68FB60AE
:10579C007B681B689B68BB60FB6823F07003FB6035
:1057AC003B681B68FA681343FB607B681B68FA68EC
:1057BC005A607B681B68B3F1804F0ED07B681B6806
:1057CC00134A934209D07B681B68124A934204D057
:1057DC007B681B68104A93420CD1BB6823F0800392
:1057EC00BB603B685B68BA681343BB607B681B6833
:1057FC00BA689A607B68012283F839207B680022A2
:10580C0083F83820002318461437BD4680BC7047F7
:10581C0000040040000800400008014080B582B040
:10582C0000AF78607B68002B01D101233FE07B68DF
:10583C0093F83D30DBB2002B06D17B68002283F855
:10584C003C207868FBF724FA7B68242283F83D20FF
:10585C007B681B68DA687B681B6822F40052DA608C
:10586C00786800F03DFD7B681B681A697B681B68D3
:10587C0022F490421A617B681B685A697B681B682A
:10588C0022F02A025A617B681B68DA687B681B6805
:10589C0042F40052DA607B6800221A647B68202292
:1058AC0083F83D207B68202283F83E200023184695
:1058BC000837BD4680BD000080B586B000AFF860EB
:1058CC00B9601346FB80FB6893F83D30DBB2202BAC
:1058DC0053D1BB68002B02D0FB88002B01D10123D4
:1058EC004CE0FB6893F83C30012B01D1022345E0DE
:1058FC00FB68012283F83C20BA68FB681A62FB68DB
:10590C00FA889A84FB68FA88DA84FB6800221A64A5
:10591C00FB68212283F83D20FB685B6B194A9A6275
:10592C00FB685B6B184ADA62FB685B6B174A1A639D
:10593C00FB685B6B00225A6307F108037B61FB6811
:10594C00586B7B691968FB681B6804331A46FB8823
:10595C00FDF76EFAFB681B686FF040021A60FB687B
:10596C00002283F83C20FB681B685A69FB681B68A3
:10597C0042F080025A61002300E0022318461837D7
:10598C00BD4680BD8B5D0008DD5D0008C55E00086E
:10599C0080B584B000AFF860B9601346FB80FB683B
:1059AC0093F83E30DBB2202B1DD1BB68002B02D00C
:1059BC00FB88002B01D1012316E0FB6893F83C30E7
:1059CC00012B01D102230FE0FB68012283F83C205C
:1059DC00FB6800221A63FB881A46B968F86800F065
:1059EC00B5FA034600E0022318461037BD4680BDC9
:1059FC0080B58AB000AF78607B681B681B687B62DF
:105A0C007B681B68DB683B627B681B685B69FB61BE
:105A1C000023BB6100237B617B6A03F00F03BB6136
:105A2C00BB69002B0DD17B6A03F02003002B08D03F
:105A3C003B6A03F02003002B03D0786800F0A6FB30
:105A4C007BE1BB69002B00F0B180FB6903F0010323
:105A5C00002B05D13B6A03F49073002B00F0A68059
:105A6C007B6A03F00103002B0AD03B6A03F48073BA
:105A7C00002B05D07B681B6C43F001027B681A6419
:105A8C007B6A03F00403002B0AD0FB6903F00103CB
:105A9C00002B05D07B681B6C43F002027B681A64F8
:105AAC007B6A03F00203002B0AD0FB6903F00103AD
:105ABC00002B05D07B681B6C43F004027B681A64D6
:105ACC007B6A03F00803002B0FD03B6A03F0200322
