:020000040800F2
:1000000000000420E9440008E9370008EF37000841
:10001000F5370008FB3700080138000839450008AB
:100020000000000000000000000000000738000889
:100030001538000800000000233800083138000897
:100040003945000839450008394500083945000898
:100050003945000839450008394500083945000888
:100060003945000839450008394500083945000878
:100070003945000839450008394500083945000868
:100080003945000839450008394500083945000858
:100090003945000839450008394500083945000848
:1000A0003945000839450008394500083945000838
:1000B0003945000839450008394500083945000828
:1000C0003945000839450008394500083945000818
:1000D0003945000839450008394500083945000808
:1000E00039450008394500083D3800083945000801
:1000F00039450008394500083945000839450008E8
:1001000039450008394500083945000839450008D7
:1001100039450008394500083945000839450008C7
:1001200039450008394500083945000839450008B7
:1001300039450008394500083945000839450008A7
:100140003945000839450008394500083945000897
:100150003945000839450008394500083945000887
:10016000394500085138000839450008394500086C
:100170003945000800000000394500080000000073
:100180003945000839450008394500083945000857
:100190003945000839450008394500083945000847
:1001A0003945000839450008394500083945000837
:1001B00039450008000000003945000839450008AD
:1001C000394500080000000039450008394500089D
:1001D0003945000839450008394500083945000807
:1001E00039450008394500083945000839450008F7
:0401F000000000000B
:1001F40010B5054C237833B9044B13B1044800E01F
:1002040000BF0123237010BDD413002000000000A0
:10021400DC08010808B5034B1BB10349034800E09F
:1002240000BF08BD00000000D8130020DC0801084E
:1002340053B94AB9002908BF00281CBF4FF0FF3149
:100244004FF0FF3000F082B9ADF1080C6DE904CE37
:1002540000F006F8DDF804E0DDE9022304B070479D
:100264002DE9F04F099D04460F46002B48D18A42E0
:10027400944661D9B2FA82F343B1C3F120019F409D
:1002840002FA03FC9C4020FA01F10F434FEA1C419F
:100294001FFA8CFE220CB7FBF1F601FB167706FB66
:1002A4000EF042EA0742904208D91CEB020206F122
:1002B400FF3702D2904200F237813E46121AA4B2AE
:1002C400B2FBF1F001FB102200FB0EFE44EA0244F3
:1002D400A64508D91CEB040400F1FF3202D2A6455E
:1002E40000F21C81104640EA0640A4EB0E040026EE
:1002F4001DB1DC400023C5E900433146BDE8F08F61
:100304008B4209D9002D00F0FD800026C5E90001CB
:1003140030463146BDE8F08FB3FA83F6002E4BD158
:100324008B42C0F0F280824240F2EF803046002DD2
:10033400E3D0C5E90047E0E702B9FFDEB2FA82F391
:10034400002B40F09D80891A4FEA124E97B2012685
:10035400200CB1FBFEF20EFB121140EA014107FB37
:1003640002F088420FD91CEB010102F1FF382CBFC7
:100374004FF001094FF00009884203D9B9F1000F89
:1003840000F0CF804246091AA4B2B1FBFEF00EFB86
:10039400101100FB07F744EA0144A74208D91CEBFB
:1003A400040400F1FF3102D2A74200F2B4800846EF
:1003B400E41B40EA02409BE7C6F12007B34001FA80
:1003C40006F422FA07FCF940B2404CEA030C20FA86
:1003D40007F34FEA1C491C431FFA8CFE00FA06F38C
:1003E400200CB1FBF9F809FB181140EA014108FBA4
:1003F4000EF088420FD91CEB010108F1FF3A2CBF23
:100404004FF0010B4FF0000B884203D9BBF1000FF2
:1004140000F08D80D046091AA4B2B1FBF9F009FBB3
:10042400101100FB0EFE44EA01418E4507D91CEB76
:10043400010100F1FF3401D28E457FD8204640EA05
:100444000840A1EB0E01A0FB029841454C46C6466C
:1004540002D306D14B4504D20138B9EB020468EB50
:100464000C0E002D70D01A1B61EB0E0122FA06F35C
:1004740001FA07F7F14000261F43C5E900713CE784
:1004840002FA03FCC3F1200001FA03F221FA00F698
:100494004FEA1C4E24FA00F11FFA8CF79C401143DA
:1004A400B6FBFEF00A0C0EFB106642EA064200FBA5
:1004B40007F696420ED91CEB020200F1FF382CBF5E
:1004C4004FF001094FF00009964202D9B9F1000F2B
:1004D40031D04046921B89B2B2FBFEF60EFB1622C7
:1004E40041EA024106FB07F28A4207D91CEB0101EB
:1004F40006F1FF3801D28A4223D84646891A46EAD1
:10050400004625E72E462846F7E6841A61EB0303E6
:1005140001201F460BE76444023849E7644402386B
:10052400E1E6023A61442EE7023E6244C6E6A8F1DF
:10053400020861446FE702386244CBE70238614441
:100544007DE7023E6144D9E72E46D6E6704700BFF8
:1005540080B584B000AF786039600023FB737B689A
:10056400002B14BF01230023DAB23B68002B14BF15
:1005740001230023DBB21340DBB2002B22D07B68C3
:10058400BB60BB685A783B681A70BB689A783B6852
:100594005A70BB685A793B68DA70BB681B79002BC8
:1005A4000DD0BB681A793B689A703B68181DBB680C
:1005B400991D3B689B781A460EF0FAFF04E0FD2370
:1005C400FB7301E0FE23FB730EF06EFB97F90F3013
:1005D40018461037BD4680BD80B584B000AF786042
:1005E4000023FB737B68002B14D07B681B78032BE0
:1005F4000DD87B685B7818467B681B781946094AD6
:1006040083000B4452F823307868984704E0FC23B5
:10061400FB7301E0FE23FB7397F90F301846103784
:10062400BD4680BD0000002080B5ADF5027D00AF61
:1006340007F50273A3F50173186007F50273A3F5B8
:10064400FE7207F50273A3F501731968104601F0F1
:100654003FFF07F58673184AF72118460EF0D6FFB8
:100664000346A7F80632B7F80632DAB207F5027382
:10067400A3F5FE735A7107F50273A3F5FE735B7954
:100684001A4607F5867107F10C03063318460EF077
:100694008FFF07F10C030121184601F087FF07F1D2
:1006A4000C034FF4807118460EF0C6FA00BF07F52C
:1006B4000277BD4680BD00BFF408010880B5ADF5E2
:1006C400047D02AF07F50273A3F50173186007F503
:1006D4000273A3F5FE7207F50273A3F5017319689B
:1006E400104601F0F5FE07F50273A3F501731B68CC
:1006F4005B781A4607F58670184B019340F6EF7342
:1007040000931346164AF8210EF080FF0346A7F81B
:100714000632B7F80632DAB207F50273A3F5FE73B0
:100724005A71B7F8062207F5867107F10C030633F0
:1007340018460EF03DFF07F10C030121184601F0A5
:1007440035FF07F10C034FF4807118460EF074FA6C
:1007540000BF07F50277BD4680BD00BF1009010840
:100764000409010880B5ADF5067D02AF07F50473F1
:10077400A3F50373186007F50473A3F5017207F575
:100784000473A3F503731968104601F0A1FE07F57D
:100794000473A3F503731B689B78002B09D107F539
:1007A4008673264AF82118460EF030FFC7F80C026B
:1007B4001FE007F50473A3F503731B681B7987F81F
:1007C4000B3240F6AD43A7F808327F23A7F8063270
:1007D40097F80B12B7F80832B7F8062207F58670B7
:1007E400019200930B46164AF8210EF00FFFC7F84A
:1007F4000C02D7F80C32DAB207F50473A3F50173CF
:100804005A71D7F80C2207F5867107F10C030633E9
:1008140018460EF0CDFE07F10C030121184601F035
:10082400C5FE07F10C034FF4807118460EF004FA6C
:1008340000BF07F50477BD4680BD00BFF40801087A
:100844002C09010880B5ADF5027D00AF07F50273F0
:10085400A3F50173186007F50273A3F5FE7207F59B
:100864000273A3F501731968104601F031FE07F510
:100874000273A3F501731B689B78002B0BD107F55A
:100884008873274AF72118460EF0C0FE03469BB230
:10089400A7F80E311EE007F50273A3F501731B6878
:1008A4001A1D07F50273A3F501731B689B789BB2AD
:1008B4001946104601F0BCFE07F50273A3F5017357
:1008C4001B68DB7899B207F5877207F58870C8232F
:1008D40001F0C0FEB7F80E31DAB207F50273A3F5E2
:1008E400FE735A71B7F80E311A4607F5887107F18D
:1008F4000C03063318460EF05BFE07F10C030121CE
:10090400184601F053FE07F10C034FF480711846AA
:100914000EF092F900BF07F50277BD4680BD00BF17
:10092400F408010880B5ADF5027D00AF07F5027348
:10093400A3F5017318600023C7F8103107F58A7313
:10094400F322002118460EF040FE07F50273A3F5CA
:10095400FE7207F50273A3F501731968104601F0DE
:10096400B7FD002387F8073207F50273A3F5017377
:100974001B689B78002B0BD107F58873284AF72155
:1009840018460EF043FE03469BB2A7F80E311FE053
:1009940007F50273A3F501731B681A1D07F50273AB
:1009A400A3F501731B689B789BB21946104601F0AE
:1009B40089FE07F50273A3F501731B68DB7899B20E
:1009C40007F5877207F5887042F2107302F0A2F8F7
:1009D400B7F80E31DAB207F50273A3F5FE735A7154
:1009E40007F50273A3F5FE735B791A4607F5887160
:1009F40007F10C03063318460EF0DAFD07F10C0379
:100A04000121184601F0D2FD07F10C034FF4807167
:100A140018460EF011F900BF07F50277BD4680BDF8
:100A2400F408010880B5ADF5027D00AF07F5027347
:100A3400A3F50173186007F50273A3F5FE7207F5B9
:100A44000273A3F501731968104601F041FD07F51F
:100A54000273A3F501731B689B78002B0AD107F579
:100A640086733D4AF72118460EF0D0FD0346A7F8D9
:100A7400063249E007F50273A3F501731B689B78FE
:100A8400022B40D107F50273A3F501731B681B7990
:100A9400184602F08BF8034687F8053207F502730F
:100AA400A3F501731B685B79184602F07FF80346CF
:100AB40087F8043297F80432002B02D0012B11D0AE
:100AC40022E097F80532184603F0FAFC97F805324D
:100AD40007F58670214AF7210EF098FD0346A7F822
:100AE400063211E097F80532184603F0CDFC97F86A
:100AF400053207F586701A4AF7210EF087FD034682
:100B0400A7F8063200E000BFB7F80632DAB207F5FC
:100B14000273A3F5FE735A7107F50273A3F5FE730E
:100B24005B791A4607F5867107F10C0306331846FC
:100B34000EF03EFD07F10C030121184601F036FDCD
:100B440007F10C034FF4807118460EF075F800BFDE
:100B540007F50277BD4680BDF4080108380901088D
:100B64004009010880B5ADF5027D00AF07F50273B9
:100B7400A3F50173186007F50273A3F5FE7207F578
:100B84000273A3F501731968104601F0A1FC07F57F
:100B94000273A3F501731B689B78002B0BD107F537
:100BA4008873284AF72118460EF030FD03469BB29D
:100BB400A7F80E311EE007F50273A3F501731B6855
:100BC4001A1D07F50273A3F501731B689B789BB28A
:100BD4001946104601F02CFD07F50273A3F50173C5
:100BE4001B68DB7899B207F5877207F58870C8230C
:100BF40001F030FDB7F80E31DAB207F50273A3F550
:100C0400FE735A7107F50273A3F5FE735B791A46F6
:100C140007F5887107F10C03063318460EF0C8FC7B
:100C240007F10C030121184601F0C0FC07F10C0385
:100C34004FF4807118460DF0FFFF00BF07F50277EF
:100C4400BD4680BDF408010880B5ADF5027D00AF56
:100C540007F50273A3F50173186007F50273A3F592
:100C6400FE7207F50273A3F501731968104601F0CB
:100C74002FFC07F50273A3F501731B689B78002B07
:100C84000BD107F58873294AF72118460EF0BEFCEC
:100C940003469BB2A7F80E311FE007F50273A3F5D4
:100CA40001731B681A1D07F50273A3F501731B6812
:100CB4009B789BB21946104601F016FD07F50273A6
:100CC400A3F501731B68DB7899B207F5877207F502
:100CD400887042F2107301F043FFB7F80E31DAB2B4
:100CE40007F50273A3F5FE735A7107F50273A3F5B2
:100CF400FE735B791A4607F5887107F10C03063316
:100D040018460EF055FC07F10C030121184601F0BA
:100D14004DFC07F10C034FF4807118460DF08CFF65
:100D240000BF07F50277BD4680BD00BFF408010887
:100D340080B5ADF5027D00AF07F50273A3F501732D
:100D4400186007F50273A3F5FE7207F50273A3F5A5
:100D540001731968104601F0BBFB07F50273A3F594
:100D640001731B689B78002B0BD107F58873284A05
:100D7400F72118460EF04AFC03469BB2A7F80E3141
:100D84001EE007F50273A3F501731B681A1D07F52E
:100D94000273A3F501731B689B789BB21946104636
:100DA40001F07EFC07F50273A3F501731B68DB7881
:100DB40099B207F5877207F58870C82301F084FE9D
:100DC400B7F80E31DAB207F50273A3F5FE735A7160
:100DD40007F50273A3F5FE735B791A4607F588716C
:100DE40007F10C03063318460EF0E2FB07F10C037F
:100DF4000121184601F0DAFB07F10C034FF480716E
:100E040018460DF019FF00BF07F50277BD4680BDF7
:100E1400F408010880B5ADF5027D00AF07F5027353
:100E2400A3F50173186007F50273A3F5FE7207F5C5
:100E34000273A3F501731968104601F049FB07F525
:100E44000273A3F501731B689B78002B0BD107F584
:100E54008873284AF72118460EF0D8FB03469BB244
:100E6400A7F80E311EE007F50273A3F501731B68A2
:100E74001A1D07F50273A3F501731B689B789BB2D7
:100E84001946104601F0D4FB07F50273A3F501736C
:100E94001B68DB7899B207F5877207F58870C82359
:100EA40001F0D8FBB7F80E31DAB207F50273A3F5F7
:100EB400FE735A7107F50273A3F5FE735B791A4644
:100EC40007F5887107F10C03063318460EF070FB22
:100ED40007F10C030121184601F068FB07F10C032C
:100EE4004FF4807118460DF0A7FE00BF07F5027796
:100EF400BD4680BDF408010880B5ADF5027D00AFA4
:100F040007F50273A3F50173186007F50273A3F5DF
:100F1400FE7207F50273A3F501731968104601F018
:100F2400D7FA07F50273A3F501731B689B78002BAE
:100F34000BD107F58873284AF72118460EF066FB93
:100F440003469BB2A7F80E311EE007F50273A3F522
:100F540001731B681A1D07F50273A3F501731B685F
:100F64009B789BB21946104601F062FB07F50273A9
:100F7400A3F501731B68DB7899B207F5877207F54F
:100F84008870C82301F066FBB7F80E31DAB207F5B2
:100F94000273A3F5FE735A7107F50273A3F5FE738A
:100FA4005B791A4607F5887107F10C030633184676
:100FB4000EF0FEFA07F10C030121184601F0F6FACF
:100FC40007F10C034FF4807118460DF035FE00BF95
:100FD40007F50277BD4680BDF408010880B5ADF57C
:100FE400027D00AF07F50273A3F50173186007F5DE
:100FF4000273A3F5FE7207F50273A3F50173196872
:10100400104601F065FA07F50273A3F501731B6836
:101014009B78002B0BD107F58873284AF7211846D3
:101024000EF0F4FA03469BB2A7F80E311EE007F562
:101034000273A3F501731B681A1D07F50273A3F568
:1010440001731B689B789BB21946104601F0F0FAB5
:1010540007F50273A3F501731B68DB7899B207F5F2
:10106400877207F58870C82301F0F4FAB7F80E31D7
:10107400DAB207F50273A3F5FE735A7107F502732A
:10108400A3F5FE735B791A4607F5887107F10C0323
:10109400063318460EF08CFA07F10C0301211846AA
:1010A40001F084FA07F10C034FF4807118460DF037
:1010B400C3FD00BF07F50277BD4680BDF4080108F3
:1010C40080B5ADF5027D00AF07F50273A3F501739A
:1010D400186007F50273A3F5FE7207F50273A3F512
:1010E40001731968104601F0F3F907F50273A3F5CB
:1010F40001731B689B78002B0BD107F58873284A72
:10110400F72118460EF082FA03469BB2A7F80E3177
:101114001EE007F50273A3F501731B681A1D07F59A
:101124000273A3F501731B689B789BB219461046A2
:1011340001F0B6FA07F50273A3F501731B68DB78B7
:1011440099B207F5877207F58870C82301F0BCFCD3
:10115400B7F80E31DAB207F50273A3F5FE735A71CC
:1011640007F50273A3F5FE735B791A4607F58871D8
:1011740007F10C03063318460EF01AFA07F10C03B4
:101184000121184601F012FA07F10C034FF48071A3
:1011940018460DF051FD00BF07F50277BD4680BD2E
:1011A400F408010880B5ADF5047D00AF07F50473BC
:1011B400A3F50373186007F50473A3F5FE7207F52E
:1011C4000473A3F503731968104601F081F907F558
:1011D4000473A3F501734D4A92E8030083E8030006
:1011E40007F50473A3F503731B689B78002B0AD1DE
:1011F40007F58A73464AF72118460EF007FA0346A4
:10120400A7F80E3259E007F50473A3F503731B68BE
:101214009B78022B50D107F50473A3F503731B6865
:101224001B79184601F0C2FC034687F80D3207F516
:101234000473A3F503731B685B79184601F0B6FCCD
:10124400034687F80C3297F80C32002B02D0012B9E
:1012540019D032E097F80D3207F50472A2F5017245
:10126400D35C9BB2002219462A4803F081FE97F80A
:101274000D3207F58A70284AF7210EF0C7F90346A4
:10128400A7F80E3219E097F80D3207F50472A2F5AB
:101294000172D35C9BB2012219461E4803F068FE1A
:1012A40097F80D3207F58A701C4AF7210EF0AEF953
:1012B4000346A7F80E3200E000BFB7F80E32DAB2E8
:1012C40007F50473A3F5FE735A7107F50473A3F5C8
:1012D400FE735B791A4607F58A7107F11403063326
:1012E40018460EF065F907F114030121184601F0C0
:1012F4005DF907F114034FF4807118460DF09CFC5E
:1013040000BF07F50477BD4680BD00BF480901084A
:10131400F4080108001002423809010840090108D4
:1013240080B5ADF5027D00AF07F50273A3F5017337
:10133400186007F50273A3F5FE7207F50273A3F5AF
:1013440001731968104601F0C3F807F50273A3F599
:1013540001731B689B78002B0AD107F586731E4A1C
:10136400F72118460EF052F90346A7F806320AE0B0
:101374001A4B1B6807F58670194AF7210EF046F9D7
:101384000346A7F80632B7F80632DAB207F5027355
:10139400A3F5FE735A7107F50273A3F5FE735B7927
:1013A4001A4607F5867107F10C03063318460EF04A
:1013B400FFF807F10C030121184601F0F7F807F1D3
:1013C4000C034FF4807118460DF036FC00BF07F58E
:1013D4000277BD4680BD00BFF4080108281800202C
:1013E4005009010880B5ADF5027D00AF07F5027321
:1013F400A3F50173186007F50273A3F5FE7207F5F0
:101404000273A3F501731968104601F061F807F53A
:101414000273A3F501731B689B78002B0BD107F5AE
:101424008873284AF72118460EF0F0F803469BB259
:10143400A7F80E311EE007F50273A3F501731B68CC
:101444001A1D07F50273A3F501731B689B789BB201
:101454001946104601F0ECF807F50273A3F5017381
:101464001B68DB7899B207F5877207F58870C82383
:1014740001F0F0F8B7F80E31DAB207F50273A3F50C
:10148400FE735A7107F50273A3F5FE735B791A466E
:1014940007F5887107F10C03063318460EF088F837
:1014A40007F10C030121184601F080F807F10C0341
:1014B4004FF4807118460DF0BFFB00BF07F50277AB
:1014C400BD4680BDF408010880B5ADF5027D00AFCE
:1014D40007F50273A3F50173186007F50273A3F50A
:1014E400FE7207F50273A3F501731968104600F044
:1014F400EFFF07F50273A3F501731B689B78002BBC
:101504000BD107F58873284AF72118460EF07EF8A8
:1015140003469BB2A7F80E311EE007F50273A3F54C
:1015240001731B681A1D07F50273A3F501731B6889
:101534009B789BB21946104601F07AF807F50273BE
:10154400A3F501731B68DB7899B207F5877207F579
:101554008870C82301F07EF8B7F80E31DAB207F5C7
:101564000273A3F5FE735A7107F50273A3F5FE73B4
:101574005B791A4607F5887107F10C0306331846A0
:101584000EF016F807F10C030121184601F00EF8CD
:1015940007F10C034FF4807118460DF04DFB00BFAA
:1015A40007F50277BD4680BDF408010880B5ADF5A6
:1015B400027D00AF07F50273A3F50173186007F508
:1015C4000273A3F5FE7207F50273A3F5017319689C
:1015D400104600F07DFF07F50273A3F501731B6845
:1015E4009B78002B0BD107F58873284AF7211846FE
:1015F4000EF00CF803469BB2A7F80E311EE007F577
:101604000273A3F501731B681A1D07F50273A3F592
:1016140001731B689B789BB21946104601F008F8C9
:1016240007F50273A3F501731B68DB7899B207F51C
:10163400877207F58870C82301F00CF8B7F80E31EB
:10164400DAB207F50273A3F5FE735A7107F5027354
:10165400A3F5FE735B791A4607F5887107F10C034D
:10166400063318460DF0A4FF07F10C0301211846B8
:1016740000F09CFF07F10C034FF4807118460DF045
:10168400DBFA00BF07F50277BD4680BDF408010808
:1016940080B5ADF5027D00AF07F50273A3F50173C4
:1016A400186007F50273A3F5FE7207F50273A3F53C
:1016B40001731968104600F00BFF07F50273A3F5D8
:1016C40001731B689B78002B0BD107F58873284A9C
:1016D400F72118460DF09AFF03469BB2A7F80E3186
:1016E4001EE007F50273A3F501731B681A1D07F5C5
:1016F4000273A3F501731B689B789BB219461046CD
:1017040000F0CEFF07F50273A3F501731B68DB78C5
:1017140099B207F5877207F58870C82301F0D4F9E8
:10172400B7F80E31DAB207F50273A3F5FE735A71F6
:1017340007F50273A3F5FE735B791A4607F5887102
:1017440007F10C03063318460DF032FF07F10C03C2
:101754000121184600F02AFF07F10C034FF48071B1
:1017640018460DF069FA00BF07F50277BD4680BD43
:10177400F408010880B5ADF5027D00AF07F50273EA
:10178400A3F50173186007F50273A3F5FE7207F55C
:101794000273A3F501731968104600F099FE07F56A
:1017A4000273A3F501731B689B78002B0BD107F51B
:1017B4008873284AF72118460DF028FF03469BB288
:1017C400A7F80E311EE007F50273A3F501731B6839
:1017D4001A1D07F50273A3F501731B689B789BB26E
:1017E4001946104600F024FF07F50273A3F50173B0
:1017F4001B68DB7899B207F5877207F58870C823F0
:1018040000F028FFB7F80E31DAB207F50273A3F53A
:10181400FE735A7107F50273A3F5FE735B791A46DA
:1018240007F5887107F10C03063318460DF0C0FE66
:1018340007F10C030121184600F0B8FE07F10C0370
:101844004FF4807118460DF0F7F900BF07F50277E1
:10185400BD4680BDF408010880B5ADF5027D00AF3A
:1018640007F50273A3F50173186007F50273A3F576
:10187400FE7207F50273A3F501731968104600F0B0
:1018840027FE07F50273A3F501731B689B78002BF1
:101894000BD107F58873284AF72118460DF0B6FED8
:1018A40003469BB2A7F80E311EE007F50273A3F5B9
:1018B40001731B681A1D07F50273A3F501731B68F6
:1018C4009B789BB21946104600F0B2FE07F50273EE
:1018D400A3F501731B68DB7899B207F5877207F5E6
:1018E4008870C82300F0B6FEB7F80E31DAB207F5F7
:1018F4000273A3F5FE735A7107F50273A3F5FE7321
:101904005B791A4607F5887107F10C03063318460C
:101914000DF04EFE07F10C030121184600F046FEBF
:1019240007F10C034FF4807118460DF085F900BFE0
:1019340007F50277BD4680BDF408010880B5ADF512
:10194400027D00AF07F50273A3F50173186007F574
:101954000273A3F5FE7207F50273A3F50173196808
:10196400104600F0B5FD07F50273A3F501731B687B
:101974009B78002B0BD107F58873284AF72118466A
:101984000DF044FE03469BB2A7F80E311EE007F5A6
:101994000273A3F501731B681A1D07F50273A3F5FF
:1019A40001731B689B789BB21946104600F078FEC1
:1019B40007F50273A3F501731B68DB7899B207F589
:1019C400877207F58870C82301F07EF8B7F80E31E6
:1019D400DAB207F50273A3F5FE735A7107F50273C1
:1019E400A3F5FE735B791A4607F5887107F10C03BA
:1019F400063318460DF0DCFD07F10C0301211846EF
:101A040000F0D4FD07F10C034FF4807118460DF07B
:101A140013F900BF07F50277BD4680BDF40801083D
:101A240080B5ADF5027D00AF07F50273A3F5017330
:101A3400186007F50273A3F5FE7207F50273A3F5A8
:101A440001731968104600F043FD07F50273A3F50E
:101A540001731B689B78002B0BD107F58873284A08
:101A6400F72118460DF0D2FD03469BB2A7F80E31BC
:101A74001EE007F50273A3F501731B681A1D07F531
:101A84000273A3F501731B689B789BB21946104639
:101A940000F0CEFD07F50273A3F501731B68DB7834
:101AA40099B207F5877207F58870C82300F0D2FD54
:101AB400B7F80E31DAB207F50273A3F5FE735A7163
:101AC40007F50273A3F5FE735B791A4607F588716F
:101AD40007F10C03063318460DF06AFD07F10C03F9
:101AE4000121184600F062FD07F10C034FF48071E8
:101AF40018460DF0A1F800BF07F50277BD4680BD7A
:101B0400F408010880B5ADF5027D00AF07F5027356
:101B1400A3F50173186007F50273A3F5FE7207F5C8
:101B24000273A3F501731968104600F0D1FC07F5A0
:101B34000273A3F501731B689B78002B0BD107F587
:101B44008873284AF72118460DF060FD03469BB2BE
:101B5400A7F80E311EE007F50273A3F501731B68A5
:101B64001A1D07F50273A3F501731B689B789BB2DA
:101B74001946104600F094FD07F50273A3F50173AE
:101B84001B68DB7899B207F5877207F58870C8235C
:101B940000F09AFFB7F80E31DAB207F50273A3F535
:101BA400FE735A7107F50273A3F5FE735B791A4647
:101BB40007F5887107F10C03063318460DF0F8FC9D
:101BC40007F10C030121184600F0F0FC07F10C03A7
:101BD4004FF4807118460DF02FF800BF07F5027717
:101BE400BD4680BDF408010880B5ADF5027D00AFA7
:101BF40007F50273A3F50173186007F50273A3F5E3
:101C0400FE7207F50273A3F501731968104600F01C
:101C14005FFC07F50273A3F501731B689B78002B27
:101C24000BD107F58873284AF72118460DF0EEFC0E
:101C340003469BB2A7F80E311EE007F50273A3F525
:101C440001731B681A1D07F50273A3F501731B6862
:101C54009B789BB21946104600F0EAFC07F5027324
:101C6400A3F501731B68DB7899B207F5877207F552
:101C74008870C82300F0EEFCB7F80E31DAB207F52D
:101C84000273A3F5FE735A7107F50273A3F5FE738D
:101C94005B791A4607F5887107F10C030633184679
:101CA4000DF086FC07F10C030121184600F07EFCC0
:101CB40007F10C034FF4807118460CF0BDFF00BF10
:101CC40007F50277BD4680BDF408010880B5ADF57F
:101CD400027D00AF07F50273A3F50173186007F5E1
:101CE4000273A3F5FE7207F50273A3F50173196875
:101CF400104600F0EDFB07F50273A3F501731B68B2
:101D04009B78002B0BD107F58873284AF7211846D6
:101D14000DF07CFC03469BB2A7F80E311EE007F5DC
:101D24000273A3F501731B681A1D07F50273A3F56B
:101D340001731B689B789BB21946104600F0B0FCF7
:101D440007F50273A3F501731B68DB7899B207F5F5
:101D5400877207F58870C82300F0B6FEB7F80E3115
:101D6400DAB207F50273A3F5FE735A7107F502732D
:101D7400A3F5FE735B791A4607F5887107F10C0326
:101D8400063318460DF014FC07F10C030121184624
:101D940000F00CFC07F10C034FF4807118460CF0B2
:101DA4004BFF00BF07F50277BD4680BDF40801086C
:101DB40080B5ADF5027D00AF07F50273A3F501739D
:101DC400186007F50273A3F5FE7207F50273A3F515
:101DD40001731968104600F07BFB07F50273A3F545
:101DE40001731B689B78002B0BD107F58873284A75
:101DF400F72118460DF00AFC03469BB2A7F80E31F2
:101E04001EE007F50273A3F501731B681A1D07F59D
:101E14000273A3F501731B689B789BB219461046A5
:101E240000F006FC07F50273A3F501731B68DB7869
:101E340099B207F5877207F58870C82300F00AFC89
:101E4400B7F80E31DAB207F50273A3F5FE735A71CF
:101E540007F50273A3F5FE735B791A4607F58871DB
:101E640007F10C03063318460DF0A2FB07F10C032F
:101E74000121184600F09AFB07F10C034FF480711E
:101E840018460CF0D9FE00BF07F50277BD4680BDA9
:101E9400F408010880B5ADF5027D00AF07F50273C3
:101EA400A3F50173186007F50273A3F5FE7207F535
:101EB4000273A3F501731968104600F009FB07F5D6
:101EC4000273A3F501731B689B78002B0BD107F5F4
:101ED4008873284AF72118460DF098FB03469BB2F5
:101EE400A7F80E311EE007F50273A3F501731B6812
:101EF4001A1D07F50273A3F501731B689B789BB247
:101F04001946104600F0CCFB07F50273A3F50173E4
:101F14001B68DB7899B207F5877207F58870C823C8
:101F240000F0D2FDB7F80E31DAB207F50273A3F56B
:101F3400FE735A7107F50273A3F5FE735B791A46B3
:101F440007F5887107F10C03063318460DF030FBD2
:101F540007F10C030121184600F028FB07F10C03DC
:101F64004FF4807118460CF067FE00BF07F5027746
:101F7400BD4680BDF408010880B5ADF5027D00AF13
:101F840007F50273A3F50173186007F50273A3F54F
:101F9400FE7207F50273A3F501731968104600F089
:101FA40097FA07F50273A3F501731B689B78002B5E
:101FB4000BD107F58873284AF72118460DF026FB44
:101FC40003469BB2A7F80E311EE007F50273A3F592
:101FD40001731B681A1D07F50273A3F501731B68CF
:101FE4009B789BB21946104600F022FB07F502735A
:101FF400A3F501731B68DB7899B207F5877207F5BF
:102004008870C82300F026FBB7F80E31DAB207F562
:102014000273A3F5FE735A7107F50273A3F5FE73F9
:102024005B791A4607F5887107F10C0306331846E5
:102034000DF0BEFA07F10C030121184600F0B6FAC0
:1020440007F10C034FF4807118460CF0F5FD00BF46
:1020540007F50277BD4680BDF408010880B5ADF5EB
:10206400027D00AF07F50273A3F50173186007F54D
:102074000273A3F5FE7207F50273A3F501731968E1
:10208400104600F025FA07F50273A3F501731B68E7
:102094009B78002B0BD107F58873284AF721184643
:1020A4000DF0B4FA03469BB2A7F80E311EE007F513
:1020B4000273A3F501731B681A1D07F50273A3F5D8
:1020C40001731B689B789BB21946104600F0E8FA2E
:1020D40007F50273A3F501731B68DB7899B207F562
:1020E400877207F58870C82300F0EEFCB7F80E314C
:1020F400DAB207F50273A3F5FE735A7107F502739A
:10210400A3F5FE735B791A4607F5887107F10C0392
:10211400063318460DF04CFA07F10C03012118465A
:1021240000F044FA07F10C034FF4807118460CF0E8
:1021340083FD00BF07F50277BD4680BDF4080108A2
:1021440080B5ADF5027D00AF07F50273A3F5017309
:10215400186007F50273A3F5FE7207F50273A3F581
:1021640001731968104600F0B3F907F50273A3F57B
:1021740001731B689B78002B0BD107F58873284AE1
:10218400F72118460DF042FA03469BB2A7F80E3128
:102194001EE007F50273A3F501731B681A1D07F50A
:1021A4000273A3F501731B689B789BB21946104612
:1021B40000F03EFA07F50273A3F501731B68DB78A0
:1021C40099B207F5877207F58870C82300F042FAC0
:1021D400B7F80E31DAB207F50273A3F5FE735A713C
:1021E40007F50273A3F5FE735B791A4607F5887148
:1021F40007F10C03063318460DF0DAF907F10C0366
:102204000121184600F0D2F907F10C034FF4807154
:1022140018460CF011FD00BF07F50277BD4680BDDE
:10222400F408010880B5ADF5027D00AF07F502732F
:10223400A3F50173186007F50273A3F5FE7207F5A1
:102244000273A3F501731968104600F041F907F50C
:102254000273A3F501731B689B78002B0BD107F560
:102264008873284AF72118460DF0D0F903469BB22B
:10227400A7F80E311EE007F50273A3F501731B687E
:102284001A1D07F50273A3F501731B689B789BB2B3
:102294001946104600F004FA07F50273A3F501731A
:1022A4001B68DB7899B207F5877207F58870C82335
:1022B40000F00AFCB7F80E31DAB207F50273A3F5A1
:1022C400FE735A7107F50273A3F5FE735B791A4620
:1022D40007F5887107F10C03063318460DF068F909
:1022E40007F10C030121184600F060F907F10C0313
:1022F4004FF4807118460CF09FFC00BF07F502777D
:10230400BD4680BDF408010880B5ADF5027D00AF7F
:1023140007F50273A3F50173186007F50273A3F5BB
:10232400FE7207F50273A3F501731968104600F0F5
:10233400CFF807F50273A3F501731B689B78002B94
:102344000BD107F58873284AF72118460DF05EF97A
:1023540003469BB2A7F80E311EE007F50273A3F5FE
:1023640001731B681A1D07F50273A3F501731B683B
:102374009B789BB21946104600F092F907F5027358
:10238400A3F501731B68DB7899B207F5877207F52B
:102394008870C82300F098FBB7F80E31DAB207F55D
:1023A4000273A3F5FE735A7107F50273A3F5FE7366
:1023B4005B791A4607F5887107F10C030633184652
:1023C4000DF0F6F807F10C030121184600F0EEF8C1
:1023D40007F10C034FF4807118460CF02DFC00BF7C
:1023E40007F50277BD4680BDF408010880B5ADF558
:1023F400027D00AF07F50273A3F50173186007F5BA
:102404000273A3F5FE7207F50273A3F5017319684D
:10241400104600F05DF807F50273A3F501731B681D
:102424009B78002B0BD107F58873284AF7211846AF
:102434000DF0ECF803469BB2A7F80E311EE007F549
:102444000273A3F501731B681A1D07F50273A3F544
:1024540001731B689B789BB21946104600F020F963
:1024640007F50273A3F501731B68DB7899B207F5CE
:10247400877207F58870C82300F026FBB7F80E3181
:10248400DAB207F50273A3F5FE735A7107F5027306
:10249400A3F5FE735B791A4607F5887107F10C03FF
:1024A400063318460DF084F807F10C030121184691
:1024B40000F07CF807F10C034FF4807118460CF01F
:1024C400BBFB00BF07F50277BD4680BDF4080108D9
:1024D40080B5C2B000AF07F58473A3F582731860AA
:1024E40007F58473A3F58473196007F58473A3F562
:1024F400807324221A7007F58473A3F584731B6810
:102504001A7807F58473A3F580735A7007F58473FA
:10251400A3F584731B685A7807F58473A3F5807355
:102524009A7007F58473A3F580730E22DA7007F1AD
:1025340008030633F722002118460DF046F807F584
:102544008473A3F5807300221A7107F58473A3F5CD
:10255400807300225A7107F58473A3F580730022F7
:1025640083F8FD20002283F8FE2007F58473A3F589
:1025740080730D2283F8FF2007F58473A3F582731B
:102584001A6807F58473A3F58073104619464FF44F
:1025940080731A460DF00CF807F58473A3F5827363
:1025A400186807F58477BD4680BD000080B485B007
:1025B40000AF78600B46FB704FF6FF73FB8100237E
:1025C400BB81FB78012B05D17B685B799BB2063319
:1025D400BB8104E07B681B799BB20633BB8101237A
:1025E4007B8114E0FB891B021AB2FB891B0A9BB294
:1025F40018467B897968CB5C43400C4931F8133029
:102604001BB253401BB2FB817B8901337B817A89E6
:10261400BB899A42E6D37B68FA89A3F8FD2000BF00
:102624001437BD465DF8047B704700BFF00F0020EF
:1026340080B582B000AF78600B467B807A886423D3
:102644007968034807F024F900BF0837BD4680BD08
:102654007816002080B586B000AFF8607A603B60E1
:102664000B467B817A893B68F9680C4807F0A6F928
:102674000346FB75FB7D002B02D0FB7D032B08D1A9
:10268400064BB3F85E309BB27A89D31A9AB27B6850
:102694001A8000BF1837BD4680BD00BF78160020E1
:1026A40080B582B000AF78600B467B807A88642363
:1026B4007968034807F0ECF800BF0837BD4680BDD1
:1026C4000817002080B582B000AF78600B467B808D
:1026D4007A8864237968034807F0DAF800BF08377A
:1026E400BD4680BD9817002080B582B000AF7860E9
:1026F4000B467B807A8864237968034807F0C8F81E
:1027040000BF0837BD4680BDE815002080B58AB0FB
:1027140002AFF860B9603B601346FB80FB68D3F8F6
:102724008830202B40F0DC80BB68002B02D0FB8873
:10273400002B01D10123D4E0FB6893F88030012BF6
:1027440001D10223CDE0FB68012283F88020FB68DD
:102754000022C3F88C20FB682222C3F88820FB687F
:102764000022DA6601F052FF7861FB68FA88A3F868
:102774005C20FB68FA88A3F85E20FB689B68B3F5CD
:10278400805F0ED1FB681B69002B05D1FB6840F20A
:10279400FF12A3F860202DE0FB68FF22A3F860205D
:1027A40028E0FB689B68002B0DD1FB681B69002B9C
:1027B40004D1FB68FF22A3F860201BE0FB687F22A2
:1027C400A3F8602016E0FB689B68B3F1805F0DD12D
:1027D400FB681B69002B04D1FB687F22A3F86020EF
:1027E40008E0FB683F22A3F8602003E0FB680022B6
:1027F400A3F86020FB68B3F860307B82FB689B68B9
:10280400B3F5805F08D1FB681B69002B04D100235A
:10281400FB61BB68BB6103E0BB68FB610023BB6178
:10282400FB68002283F880204EE03B6800937B69BC
:1028340000222021F86807F082FD0346002B01D016
:1028440003234EE0FB69002B1AD1FB681B685B6A0B
:102854009AB27B8A13409AB2BB691A80BB691B88FF
:102864000D2B09D1FB68B3F85E309BB2013B9AB2E1
:10287400FB68A3F85E202DE0BB690233BB611AE05C
:10288400FB681B685B6ADAB27B8ADBB21340DAB29C
:10289400FB691A70FB691B780D2B09D1FB68B3F82F
:1028A4005E309BB2013B9AB2FB68A3F85E2011E054
:1028B400FB690133FB61FB68B3F85E309BB2013BFB
:1028C4009AB2FB68A3F85E20FB68B3F85E309BB253
:1028D400002BAAD1FB682022C3F88820002300E043
:1028E400022318462037BD4680BD80B58AB002AFAA
:1028F400F860B9603B601346FB80FB68D3F888300E
:10290400202B40F0DC80BB68002B02D0FB88002B1E
:1029140001D10123D4E0FB6893F88030012B01D16D
:102924000223CDE0FB68012283F88020FB680022AB
:10293400C3F88C20FB682222C3F88820FB6800229D
:10294400DA6601F063FE7861FB68FA88A3F85C201C
:10295400FB68FA88A3F85E20FB689B68B3F5805F88
:102964000ED1FB681B69002B05D1FB6840F2FF12F6
:10297400A3F860202DE0FB68FF22A3F8602028E084
:10298400FB689B68002B0DD1FB681B69002B04D1ED
:10299400FB68FF22A3F860201BE0FB687F22A3F8FA
:1029A400602016E0FB689B68B3F1805F0DD1FB6883
:1029B4001B69002B04D1FB687F22A3F8602008E088
:1029C400FB683F22A3F8602003E0FB680022A3F821
:1029D4006020FB68B3F860307B82FB689B68B3F5CA
:1029E400805F08D1FB681B69002B04D10023FB61C5
:1029F400BB68BB6103E0BB68FB610023BB61FB6890
:102A0400002283F880204EE03B6800937B6900221B
:102A14002021F86807F093FC0346002B01D0032320
:102A24004EE0FB69002B1AD1FB681B685B6A9AB203
:102A34007B8A13409AB2BB691A80BB691B880A2B34
:102A440009D1FB68B3F85E309BB2013B9AB2FB68D4
:102A5400A3F85E202DE0BB690233BB611AE0FB687A
:102A64001B685B6ADAB27B8ADBB21340DAB2FB69B9
:102A74001A70FB691B780A2B09D1FB68B3F85E3026
:102A84009BB2013B9AB2FB68A3F85E2011E0FB699C
:102A94000133FB61FB68B3F85E309BB2013B9AB231
:102AA400FB68A3F85E20FB68B3F85E309BB2002B92
:102AB400AAD1FB682022C3F88820002300E0022367
:102AC40018462037BD4680BD80B586B000AFF8609B
:102AD4007A603B600B467B817A893B68F9680C48D5
:102AE400FFF714FE0346FB75FB7D002B02D0FB7D34
:102AF400032B08D1064BB3F85E309BB27A89D31A04
:102B04009AB27B681A8000BF1837BD4680BD00BFEB
:102B14000817002080B586B000AFF8607A603B608B
:102B24000B467B817A893B68F9680C48FFF7DDFE28
:102B34000346FB75FB7D002B02D0FB7D032B08D1E4
:102B4400064BB3F85E309BB27A89D31A9AB27B688B
:102B54001A8000BF1837BD4680BD00BF98170020FB
:102B640080B586B000AFF8607A603B600B467B812D
:102B74007A893B68F9680C48FFF7B7FE0346FB7592
:102B8400FB7D002B02D0FB7D032B08D1064BB3F851
:102B94005E309BB27A89D31A9AB27B681A8000BFDE
:102BA4001837BD4680BD00BFE815002080B485B04D
:102BB40000AF0346FB710023FB73FB792F2B06D96F
:102BC400FB79392B03D8FB79303BFB7367E0FB7946
:102BD400413B252B60D801A252F823F0792C000840
:102BE4007F2C0008852C00088B2C0008912C0008F1
:102BF400972C00089D2C00089D2C00089D2C000893
:102C04009D2C00089D2C00089D2C00089D2C00087C
:102C14009D2C00089D2C00089D2C00089D2C00086C
:102C24009D2C00089D2C00089D2C00089D2C00085C
:102C34009D2C00089D2C00089D2C00089D2C00084C
:102C44009D2C00089D2C00089D2C00089D2C00083C
:102C54009D2C00089D2C00089D2C0008792C000850
:102C64007F2C0008852C00088B2C0008912C000870
:102C7400972C00080A23FB7311E00B23FB730EE06F
:102C84000C23FB730BE00D23FB7308E00E23FB7393
:102C940005E00F23FB7302E00023FB7300BFFB7B03
:102CA40018461437BD465DF8047B704780B500AF05
:102CB400204B214A1A601F4B00225A601D4B4FF4CF
:102CC40040729A601B4B0022DA601A4B00221A747D
:102CD400184B00225A74174B00229A74154B012288
:102CE4005A61144B01229A61124B0222DA61114B90
:102CF40002221A620F4B01225A620E4B01229A627F
:102D04000C4B0122DA620B4B01221A63094B00229D
:102D14005A63084B00229A63064B0022DA63054883
:102D240001F0FEFD0346002B01D000F09FFC00BF24
:102D340080BD00BFF013002000A4004080B5AEB0F9
:102D440000AF786007F1A40300221A605A609A6009
:102D5400DA601A6107F110039422002118460CF07E
:102D640034FC7B681B68224A93423CD14FF00073C9
:102D74003B614FF08073BB6707F11003184605F001
:102D840033FB0346002B01D000F070FC194BDB6DC4
:102D9400184A43F40073D365164BDB6D03F40073D8
:102DA400FB60FB68134BDB6C124A43F00803D364EB
:102DB400104BDB6C03F00803BB60BB680323C7F84C
:102DC400A4300223C7F8A8300023C7F8AC3000238E
:102DD400C7F8B0300923C7F8B43007F1A403194683
:102DE400054801F045FF00BFB837BD4680BD00BFB0
:102DF40000A4004000100240000C024280B58CB0D8
:102E040000AF07F11C0300221A605A609A60DA606E
:102E14001A61AB4BDB6CAA4A43F01003D364A84B92
:102E2400DB6C03F01003BB61BB69A54BDB6CA44AEC
:102E340043F00403D364A24BDB6C03F004037B6113
:102E44007B699F4BDB6C9E4A43F02003D3649C4B0D
:102E5400DB6C03F020033B613B69994BDB6C984AC4
:102E640043F00103D364964BDB6C03F00103FB6076
:102E7400FB68934BDB6C924A43F00203D364904BA0
:102E8400DB6C03F00203BB60BB688D4BDB6C8C4ACC
:102E940043F04003D3648A4BDB6C03F040037B6054
:102EA4007B6804F09FFA864BDB6C854A43F0080389
:102EB400D364834BDB6C03F008033B603B68002264
:102EC40048F6FF717F4802F053F800224FF47C610A
:102ED4007D4802F04DF8002203217C4802F048F8B6
:102EE40001220421794802F043F801221021784894
:102EF40002F03EF80022E721764802F039F8012278
:102F04000221754802F034F801224FF4E0416D4883
:102F140002F02EF800220C216F4802F029F848F63E
:102F2400FF73FB6101233B6200237B620023BB62CE
:102F340007F11C031946634801F09AFE3C23FB6128
:102F440000233B6200237B6207F11C0319465E48A1
:102F540001F08EFE4FF47073FB6101233B62012389
:102F64007B620023BB6207F11C031946564801F03B
:102F74007FFE4FF44063FB6101233B6200237B62CD
:102F84000023BB6207F11C0319464F4801F070FE91
:102F94000323FB6101233B6202237B620023BB62A8
:102FA40007F11C031946494801F062FE0423FB6142
:102FB40001233B6201237B620023BB6207F11C03F4
:102FC4001946424801F054FE0823FB6100233B628A
:102FD40001237B6207F11C0319463C4801F048FEBB
:102FE4001023FB6101233B6201237B620023BB624C
:102FF40007F11C031946364801F03AFEE723FB614A
:1030040001233B6200237B620023BB6207F11C03A4
:103014001946304801F02CFE0123FB6100233B627A
:1030240001237B6207F11C0319462B4801F020FEA3
:103034000223FB6101233B6201237B620023BB6209
:1030440007F11C031946244801F012FE4FF4E04333
:10305400FB6101233B6201237B620023BB6207F116
:103064001C031946174801F003FE0C23FB610123DE
:103074003B6202237B620023BB6207F11C031946F7
:10308400154801F0F5FD4023FB6100233B6200235A
:103094007B6207F11C031946104801F0E9FD102377
:1030A400FB610F4B3B6200237B6207F11C03194653
:1030B400084801F0DDFD00BF3037BD4680BD00BFCC
:1030C40000100240001002420014024200080242B2
:1030D400000002420004024200180242000C0242B4
:1030E4000000111080B500AF1B4B1C4A1A601A4B2C
:1030F4001B4A5A60184B00229A60174B0122DA606F
:10310400154B00221A61144B00225A61124B002203
:103114009A61114B0022DA610F4B00221A620E48A9
:1031240001F03EFF0346002B01D000F09FFA00217E
:10313400094802F095FB0346002B01D000F096FAF3
:103144000021054802F0D7FB0346002B01D000F014
:103154008DFA00BF80BD00BF54140020005400400D
:10316400CC88802080B5AEB000AF786007F1A403AE
:1031740000221A605A609A60DA601A6107F110033B
:103184009422002118460CF020FA7B681B68224A1E
:1031940093423DD140233B610023FB6507F11003BB
:1031A400184605F021F90346002B01D000F05EFA21
:1031B4001A4BDB6C194A43F04003D364174BDB6CA6
:1031C40003F04003FB60FB6804F00CF94FF4C043C8
:1031D400C7F8A4301223C7F8A8300123C7F8AC30CD
:1031E4000023C7F8B0300423C7F8B43007F1A403B0
:1031F40019460B4801F03CFD084B9B6D074A43F40C
:1032040000139365054B9B6D03F40013BB60BB680F
:1032140000BFB837BD4680BD0054004000100240D6
:103224000018024280B500AF02F0B2FB0346002B47
:1032340001D000F01BFA00BF80BD000080B582B051
:1032440000AF7860391D4FF6FF730122034806F082
:103254001FFB7B6818460837BD4680BD5815002003
:1032640080B586B000AFF860B9607A6000237B61F6
:1032740009E0BB685A1CBA601B781846FFF7DEFFEA
:103284007B6901337B617A697B689A42F1DB7B68F5
:1032940018461837BD4680BD80B483B000AF2A4BB2
:1032A400D3F89430002B02DA0123FB713DE0264B66
:1032B400D3F8943003F08043002B02D00223FB7137
:1032C40033E0214BD3F8943003F00053002B02D0A9
:1032D4000323FB7129E01C4BD3F8943003F0805393
:1032E400002B02D00423FB711FE0174BD3F894305A
:1032F40003F08063002B02D00723FB7115E0124B0F
:10330400D3F8943003F00073002B02D00523FB7133
:103314000BE00D4BD3F8943003F00063002B02D084
:103324000823FB7101E00023FB71074BD3F89430B1
:10333400054A43F40003C2F89430FB7918460C376D
:10334400BD465DF8047B70470010024080B485B030
:1033540000AF0346FB71204BFB60FB79082B30D890
:1033640001A252F823F000BF9133000897330008FC
:103374009D330008A3330008A9330008BB330008B9
:10338400AF330008B5330008C1330008134BFB60AA
:103394001AE0134BFB6017E0124BFB6014E0124B76
:1033A400FB6011E0114BFB600EE0114BFB600BE086
:1033B400104BFB6008E0104BFB6005E00F4BFB601B
:1033C40002E0064BFB6000BFFB6818461437BD469D
:1033D4005DF8047B704700BF580901085C090108C7
:1033E40064090108740901088C090108A809010885
:1033F400B8090108E8090108040A0108200A0108BB
:10340400B0B5C0B000AF01F096F8FFF745FF034632
:103414001A465D4B1A7000F0D7F8FFF7EFFCFFF780
:1034240045FC00F0DDFB00F027FC00F071FC00F02F
:10343400BFFC00F00DFD0BF039FBFFF7F3FEFFF7C7
:1034440051FE00F019F900F051FB4F4B1B78184660
:10345400FFF77CFF034619464C480CF0BFF84C4973
:103464004C480CF0BBF801F001F9034619464A48F0
:103474000CF0B4F801F012F90346194647480CF071
:10348400ADF801F019F9044601F022F9054601F0FE
:103494002BF903462A46214641480CF09FF801F0D7
:1034A400EFF8034619463F480CF098F804F0E8FD9D
:1034B400034619463C480CF091F804F07DFE03469F
:1034C40019463A480CF08AF80BF0EEFB00F0B6FF10
:1034D4000E2000F0D9FF4FF4FA7001F0A3F8012296
:1034E4004FF48061324801F043FD01224FF4006142
:1034F4002F4801F03DFD01224FF400612D4801F0F9
:1035040037FD01224FF400712A4801F031FD0620F5
:1035140000F0BAFF4FF4FA7001F084F8264B1B68F0
:10352400264A1360264B1B78012B29D13B461946AA
:103534002448FDF70DF8034687F8FF3097F9FF306C
:10354400002B1DD13B461846FDF746F8034687F885
:10355400FE3097F9FE300633062B13D801A252F839
:1035640023F000BF89350008893500088935000833
:10357400893500088935000889350008893500082F
:1035840000BFCFE700BFCDE7A0140020380A010830
:10359400540A0108700A0108880A0108A80A0108E7
:1035A400C00A0108E00A0108000B01082C0B0108FD
:1035B400001402420010024200FC070828180020F0
:1035C400102C0020102B002080B598B000AF07F11C
:1035D40018034822002118460BF0F7FF3B1D002278
:1035E4001A605A609A60DA601A61002003F08EFE55
:1035F4000346002B01D000F039F82223BB614FF4BD
:1036040080737B6201233B644023BB6202237B649F
:103614000223BB640123FB640D233B6507237B6505
:103624000223BB650223FB6507F11803184603F068
:103634001DFF0346002B01D000F018F80F237B6018
:103644000323BB600023FB6000233B6100237B61F9
:103654003B1D0521184604F0EBFB0346002B01D06B
:1036640000F004F800BF6037BD4680BD80B400AFF1
:1036740072B600BFFEE7000080B500AF1B4B1C4ACA
:103684001A601A4B4FF482725A60184B00229A60E7
:10369400164B4FF4E062DA60144B00221A61134BAC
:1036A40000225A61114B4FF400729A610F4B282289
:1036B400DA610E4B00221A620C4B00225A620B4B49
:1036C40000229A62094B0722DA62084B00221A632D
:1036D400064B08225A63054805F09CFB0346002B61
:1036E40001D0FFF7C3FF00BF80BD00BFA4140020BA
:1036F4000030014080B58AB000AF786007F1140350
:1037040000221A605A609A60DA601A617B681B684A
:103714001F4A934237D11F4B1B6E1E4A43F48053FA
:1037240013661C4B1B6E03F480533B613B69194BBE
:10373400DB6C184A43F00103D364164BDB6C03F0D3
:103744000103FB60FB68A0237B610223BB610023B0
:10375400FB6100233B6205237B6207F114031946D6
:103764000D4801F085FA40237B610223BB610123EC
:10377400FB6100233B6205237B6207F114031946B6
:10378400054801F075FA00BF2837BD4680BD00BF6B
:1037940000300140001002400000024280B582B0B7
:1037A40000AF0F4B1B6E0E4A43F0010313660C4B24
:1037B4001B6E03F001037B607B68094B9B6D084A19
:1037C40043F080539365064B9B6D03F080533B603D
:1037D4003B6803F017FE00BF0837BD4680BD00BF3D
:1037E4000010024080B400AFFEE780B400AFFEE7F3
:1037F40080B400AFFEE780B400AFFEE780B400AF52
:10380400FEE780B400AF00BFBD465DF8047B70479F
:1038140080B400AF00BFBD465DF8047B704780B440
:1038240000AF00BFBD465DF8047B704780B500AFB4
:1038340000F0D8FE00BF80BD80B500AF024805F09F
:10384400E3FB00BF80BD00BF0C15002080B500AFB6
:10385400024802F0B4F900BF80BD00BF142E00205E
:1038640080B586B000AFF860B9607A6000237B61F0
:103874000AE000E000BF0146BB685A1CBA60CAB245
:103884001A707B6901337B617A697B689A42F0DB49
:103894007B6818461837BD4680BD80B483B000AF3E
:1038A40078604FF0FF3318460C37BD465DF8047B53
:1038B400704780B483B000AF786039603B684FF4E0
:1038C40000525A60002318460C37BD465DF8047B4D
:1038D400704780B483B000AF7860012318460C377A
:1038E400BD465DF8047B704780B485B000AFF860D6
:1038F400B9607A60002318461437BD465DF8047B2E
:103904007047000080B586B000AF7860144A154B4C
:10391400D31A7B617B693B61134B1B68002B02D17B
:10392400114B124A1A60104B1A687B6813443A69A7
:103934009A4207D20BF012FE03460C221A604FF093
:10394400FF3309E0084B1B68FB60074B1A687B6870
:103954001344054A1360FB6818461837BD4680BDFA
:103964000000042000040000081500203833002063
:1039740080B400AF064BD3F88830054A43F4700393
:10398400C2F8883000BFBD465DF8047B704700BFB5
:1039940000ED00E080B487B000AF4F4B1B6803F02C
:1039A4000803002B07D14C4BD3F894301B0A03F0C7
:1039B4000F037B6105E0484B1B681B0903F00F03F1
:1039C4007B61464A7B6952F823307B61424B9B689A
:1039D40003F00C030C2B66D801A252F823F000BFAD
:1039E400193A0008AB3A0008AB3A0008AB3A0008B1
:1039F400213A0008AB3A0008AB3A0008AB3A000899
:103A0400293A0008AB3A0008AB3A0008AB3A000880
:103A1400313A0008324A7B69136048E0304B314A3E
:103A24001A6044E02E4B2F4A1A6040E02A4BDB68B0
:103A340003F00303FB60284BDB681B0903F00F034F
:103A44000133BB60FB68022B03D0FB68032B06D059
:103A54000BE0244ABB68B2FBF3F33B610BE0214A61
:103A6400BB68B2FBF3F33B6105E07A69BB68B2FB68
:103A7400F3F33B6100BF184BDB681B0A03F07F02C2
:103A84003B6902FB03F33B61134BDB685B0E03F002
:103A9400030301335B007B603A697B68B2FBF3F399
:103AA4000F4A136003E00E4A7B69136000BF0A4BA0
:103AB4009B681B0903F00F030B4AD35C3B60084B64
:103AC4001A683B6822FA03F3054A136000BF1C37E7
:103AD400BD465DF8047B704700100240BC0B010832
:103AE400F01100200024F400A40B010880B588B074
:103AF40000AF07F1100300221A605A609A60DA607E
:103B04003B1D00221A605A609A60204B204A1A60BA
:103B14001E4B67225A601D4B00229A601B4B4FF6C6
:103B2400FF72DA60194B00221A61184B00225A61A5
:103B3400164B00229A61154805F00FFA0346002B34
:103B440001D0FFF793FD4FF480533B6107F110035D
:103B540019460E4805F077FB0346002B01D0FFF70A
:103B640085FD00237B600023BB600023FB603B1DBD
:103B74001946064805F096FD0346002B01D0FFF7D1
:103B840075FD00BF2037BD4680BD00BF0C15002069
:103B9400002C014080B584B000AF78607B681B685E
:103BA4000D4A934213D10D4B1B6E0C4A43F4006330
:103BB40013660A4B1B6E03F40063FB60FB68002270
:103BC40000212A2000F077FE2A2000F08EFE00BF9C
:103BD4001037BD4680BD00BF002C014000100240DC
:103BE40080B500AF224B234A1A60214B4FF4E132D7
:103BF4005A601F4B00229A601D4B0022DA601C4B56
:103C040000221A611A4B0C225A61194B00229A6144
:103C1400174B00221A62164B00225A62144B0022E0
:103C24009A62134B00225A66114805F0E1FD0346DF
:103C3400002B01D0FFF71AFD00210D4806F0A1FC6E
:103C44000346002B01D0FFF711FD0021084806F0C0
:103C5400D6FC0346002B01D0FFF708FD044806F00C
:103C640057FC0346002B01D0FFF700FD00BF80BDC9
:103C7400581500200080004080B500AF224B234A35
:103C84001A60214B4FF416525A601F4B00229A605F
:103C94001D4B0022DA601C4B00221A611A4B0C22C5
:103CA4005A61194B00229A61174B0022DA61164BB4
:103CB40000221A62144B00225A62134B00229A62A9
:103CC400114805F095FD0346002B01D0FFF7CEFC0B
:103CD40000210D4806F055FC0346002B01D0FFF7E8
:103CE400C5FC0021084806F08AFC0346002B01D0DD
:103CF400FFF7BCFC044806F00BFC0346002B01D084
:103D0400FFF7B4FC00BF80BDE8150020004C004064
:103D140080B500AF244B254A1A60234B4FF4E1329F
:103D24005A60214B00229A601F4B0022DA601E4B1E
:103D340000221A611C4B0C225A611B4B00229A610F
:103D4400194B0022DA61184B00221A62164B00222A
:103D54005A62154B00229A62002300220021124865
:103D640006F06DFB0346002B01D0FFF77FFC00211A
:103D74000D4806F006FC0346002B01D0FFF776FC45
:103D84000021094806F03BFC0346002B01D0FFF755
:103D94006DFC054806F0BCFB0346002B01D0FFF781
:103DA40065FC00BF80BD00BF7816002000380140CC
:103DB40080B500AF244B254A1A60234B4FF4E132FF
:103DC4005A60214B00229A601F4B0022DA601E4B7E
:103DD40000221A611C4B0C225A611B4B00229A616F
:103DE400194B0022DA61184B00221A62164B00228A
:103DF4005A62154B00229A620023002200211248C5
:103E040006F01DFB0346002B01D0FFF72FFC002119
:103E14000D4806F0B6FB0346002B01D0FFF726FC45
:103E24000021094806F0EBFB0346002B01D0FFF705
:103E34001DFC054806F06CFB0346002B01D0FFF780
:103E440015FC00BF80BD00BF0817002000440040DF
:103E540080B500AF224B234A1A60214B4FF416520F
:103E64005A601F4B00229A601D4B0022DA601C4BE3
:103E740000221A611A4B0C225A61194B00229A61D2
:103E8400174B0022DA61164B00221A62144B0022EF
:103E94005A62134B00229A62114805F0A9FC0346AA
:103EA400002B01D0FFF7E2FB00210D4806F069FB6F
:103EB4000346002B01D0FFF7D9FB0021084806F088
:103EC4009EFB0346002B01D0FFF7D0FB044806F00D
:103ED4001FFB0346002B01D0FFF7C8FB00BF80BDCA
:103EE400981700200048004080B5B8B000AF786053
:103EF40007F1CC0300221A605A609A60DA601A61F2
:103F040007F138039422002118460BF05EFB7B680E
:103F14001B68A64A93423FD12023BB630023C7F802
:103F2400803007F13803184604F05EFA0346002B8C
:103F340001D0FFF79BFB9E4BDB6D9D4A43F00103D1
:103F4400D3659B4BDB6D03F001037B637B6B984B69
:103F5400DB6C974A43F04003D364954BDB6C03F06E
:103F640040033B633B6B03F03DFA4FF4C073C7F867
:103F7400CC300223C7F8D0300023C7F8D430002354
:103F8400C7F8D8300823C7F8DC3007F1CC0319464A
:103F9400884800F06DFE5AE17B681B68864A9342AC
:103FA4003BD10823BB630023BB6707F138031846E2
:103FB40004F01AFA0346002B01D0FFF757FB7C4BA1
:103FC4009B6D7B4A43F400239365794B9B6D03F40B
:103FD4000023FB62FB6A764BDB6C754A43F00103FA
:103FE400D364734BDB6C03F00103BB62BB6A032332
:103FF400C7F8CC300223C7F8D0300023C7F8D43038
:104004000023C7F8D8300823C7F8DC3007F1CC0305
:1040140019466A4800F02CFE19E17B681B68684A5F
:10402400934260D10123BB630023FB6607F138038D
:10403400184604F0D9F90346002B01D0FFF716FB0C
:104044005B4B1B6E5A4A43F480431366584B1B6EFA
:1040540003F480437B627B6A554BDB6C544A43F028
:104064000103D364524BDB6C03F001033B623B6AF4
:104074004F4BDB6C4E4A43F04003D3644C4BDB6C38
:1040840003F04003FB61FB6903F0ACF94FF4C06338
:10409400C7F8CC300223C7F8D0300023C7F8D43097
:1040A4000023C7F8D8300723C7F8DC3007F1CC0366
:1040B4001946424800F0DCFD4FF48053C7F8CC3079
:1040C4000223C7F8D0300023C7F8D4300023C7F840
:1040D400D8300723C7F8DC3007F1CC03194635483C
:1040E40000F0C6FDB3E07B681B68364A93426DD18D
:1040F4000223BB6300233B6707F13803184604F02F
:1041040073F90346002B01D0FFF7B0FA284B9B6DDF
:10411400274A43F400339365254B9B6D03F4003326
:10412400BB61BB69224BDB6C214A43F00103D364BE
:104134001F4BDB6C03F001037B617B691C4BDB6C65
:104144001B4A43F00803D364194BDB6C03F00803E8
:104154003B613B690C23C7F8CC300223C7F8D0304D
:104164000023C7F8D4300023C7F8D8300723C7F892
:10417400DC3007F1CC031946104800F079FD102318
:10418400C7F8CC300223C7F8D0300023C7F8D430A6
:104194000023C7F8D8300723C7F8DC3007F1CC0375
:1041A4001946094800F064FD51E000BF008000405A
:1041B4000010024000180242004C0040000002427D
:1041C4000038014000440040000C02427B681B6838
:1041D400214A93423BD10423BB6300237B6707F14D
:1041E4003803184604F000F90346002B01D0FFF70A
:1041F4003DFA1A4B9B6D194A43F480239365174B80
:104204009B6D03F48023FB60FB68144BDB6C134A47
:1042140043F00203D364114BDB6C03F00203BB6075
:10422400BB684FF44063C7F8CC300223C7F8D030E2
:104234000023C7F8D4300023C7F8D8300723C7F8C1
:10424400DC3007F1CC031946054800F011FD00BF2E
:10425400E037BD4680BD00BF00480040001002406A
:104264000004024280B584B000AFF860B960134620
:10427400FB71FB68BA681A60FB795B00DAB2FB6811
:104284001A71F86800F05EF8FB685B791A46002141
:10429400F86800F06FF8FB689B791A460121F8680A
:1042A40000F068F800BF1037BD4680BD80B582B00D
:1042B40000AF78600B46FB701346BB70BB78002BD5
:1042C40007D0F97800234FF48052786800F00CF896
:1042D40006E0F9784FF480530022786800F004F87F
:1042E40000BF0837BD4680BD80B586B000AFF8601A
:1042F400084611461A460346FB720B463B81134699
:10430400FB80FB7A9B00DBB206221344FB753B89DE
:10431400DBB23B743B891B0A9BB2DBB27B74FB8828
:10432400DBB2BB74FB881B0A9BB2DBB2FB7407F1E4
:104334001002F97D0423F86800F03FF800BF183735
:10434400BD4680BD80B586B002AF786006233B735E
:104354007B68186807F10C02642300930123002191
:1043640000F0AEFE03461A467B68DA7100BF1037D0
:10437400BD4680BD80B588B004AF78600B46FB7045
:104384001346BB70BB783B737B6818687B681B79EA
:1043940099B2FB789AB2642302930123019307F143
:1043A4000C030093012300F07FFF03461A467B6849
:1043B400DA7100BF1037BD4680BD90B58BB004AF35
:1043C400F8607A601A460B46FB721346BB72FB68B0
:1043D4005B7903F02003DBB2002B15D0FB6818686F
:1043E400FB681B7999B2FB7A9AB2BB7A9BB26424BC
:1043F400029401937B680093012300F055FF034668
:104404001A46FB68DA7115E00023FB750EE0FA7AB0
:10441400FB7D1344D9B2FB7D7A6813441B781A469A
:10442400F868FFF7A7FFFB7D0133FB75FA7DBB7AC4
:104434009A42ECD300BF1C37BD4690BD80B500AF97
:104444000F4A53796FF3041353710D4A537943F0B0
:10445400200353710A4A537943F080035371084A85
:1044640093796FF304139371054A937943F004032A
:104474009371402203490248FFF7F4FE00BF80BD58
:104484002C1800205414002080B582B000AF0346DD
:10449400FB71FB79012219460848FFF707FF0A2040
:1044A40000F0C0F8F97900234FF400620348FFF7E5
:1044B4001BFF00BF0837BD4680BD00BF2C1800207D
:1044C40080B582B000AF0346FB71FB790022194628
:1044D4000348FFF7EBFE00BF0837BD4680BD00BFB1
:1044E4002C180020DFF834D0FFF742FA002103E053
:1044F4000B4B5B58435004310A480B4B42189A4209
:10450400F6D30A4A02E0002342F8043B084B9A42DD
:10451400F9D30BF029F8FEF773FFFEE7000004203F
:10452400CC0C010800000020D4130020D413002078
:1045340038330020FEE780B582B000AF0023FB7162
:10454400042000F0ADF9FFF725FA002000F00EF882
:104554000346002B02D00123FB7101E0FFF71EF993
:10456400FB7918460837BD4680BD000080B584B08D
:1045740000AF78600023FB73174B1B78002B23D00C
:10458400164B1A68144B1B7819464FF47A73B3FB15
:10459400F1F3B2FBF3F3184600F0B5F90346002B30
:1045A4000FD17B68072B09D8002279684FF0FF30C0
:1045B40000F081F90A4A7B68136007E00123FB736A
:1045C40004E00123FB7301E00123FB73FB7B18462A
:1045D4001037BD4680BD00BFF8110020F011002047
:1045E400F411002080B400AF064B1B781A46064B2A
:1045F4001B681344044A136000BFBD465DF8047B86
:10460400704700BFF81100203418002080B400AFB8
:10461400034B1B681846BD465DF8047B704700BF1A
:104624003418002080B584B000AF7860FFF7EEFF47
:10463400B8607B68FB60FB68B3F1FF3F05D00A4BB1
:104644001B781A46FB681344FB6000BFFFF7DEFFCC
:104654000246BB68D31AFA689A42F7D800BF00BF73
:104664001037BD4680BD00BFF811002080B400AFF4
:10467400024B1846BD465DF8047B704700040001F8
:1046840080B400AF044B1B681B0C9BB21846BD469C
:104694005DF8047B704700BF004004E080B400AFC5
:1046A400044B1B68C3F30B031846BD465DF8047B3B
:1046B400704700BF004004E080B400AF034B1B68A8
:1046C4001846BD465DF8047B704700BF9005FA0BA1
:1046D40080B400AF034B1B681846BD465DF8047BED
:1046E400704700BF9405FA0B80B400AF034B1B68FE
:1046F4001846BD465DF8047B704700BF9805FA0B69
:1047040080B485B000AF78607B6803F00703FB607A
:104714000C4BDB68BB60BA684FF6FF031340BB6009
:10472400FB681A02BB68134343F0BF6343F40033CE
:10473400BB60044ABB68D36000BF1437BD465DF854
:10474400047B704700ED00E080B400AF044BDB68ED
:104754001B0A03F007031846BD465DF8047B704747
:1047640000ED00E080B483B000AF0346FB7197F91D
:104774000730002B0BDBFB7903F01F02074997F985
:1047840007305B09012000FA02F241F8232000BF40
:104794000C37BD465DF8047B704700BF00E100E0C4
:1047A40080B483B000AF03463960FB7197F90730DA
:1047B400002B0ADB3B68DAB20C4997F90730520147
:1047C400D2B20B4483F800230AE03B68DAB208490A
:1047D400FB7903F00F03043B5201D2B20B441A7667
:1047E40000BF0C37BD465DF8047B704700E100E074
:1047F40000ED00E080B489B000AFF860B9607A6081
:10480400FB6803F00703FB61FB69C3F10703032B98
:1048140028BF0323BB61FB690333062B02D9FB6961
:10482400043B00E000237B614FF0FF32BB6902FAD6
:1048340003F3DA43BB681A407B699A404FF0FF31B7
:104844007B6901FA03F3D9437B680B401343184691
:104854002437BD465DF8047B7047000080B582B004
:1048640000AF78607B68013BB3F1807F01D3012303
:104874000FE00A4A7B68013B536007214FF0FF3089
:10488400FFF78EFF054B00229A60044B07221A6043
:10489400002318460837BD4680BD00BF10E000E085
:1048A40080B582B000AF78607868FFF729FF00BF59
:1048B4000837BD4680BD80B586B000AF0346B960F9
:1048C4007A60FB73FFF740FF78617A68B9687869AA
:1048D400FFF790FF024697F90F3011461846FFF78D
:1048E4005FFF00BF1837BD4680BD80B582B000AF02
:1048F4000346FB7197F907301846FFF733FF00BFF3
:104904000837BD4680BD80B582B000AF7860786856
:10491400FFF7A4FF034618460837BD4680BD0000D4
:1049240080B584B000AF78607B68002B01D101238F
:1049340042E17B6893F85C30DBB2002B06D17B68E4
:10494400002283F85D207868FEF7F8F97B681B681D
:104954009A697B681B6822F010029A61FFF756FE81
:10496400F86012E0FFF752FE0246FB68D31A0A2BE6
:104974000BD97B681B6E43F001027B681A667B6867
:10498400032283F85C20012316E17B681B689B6982
:1049940003F00803082BE5D07B681B689A697B68E1
:1049A4001B6842F001029A61FFF730FEF86012E0E2
:1049B400FFF72CFE0246FB68D31A0A2B0BD97B683F
:1049C4001B6E43F001027B681A667B68032283F83E
:1049D4005C200123F0E07B681B689B6903F0010302
:1049E400002BE5D07B681B689A697B681B6842F0E2
:1049F40002029A61724A7B685B6813607B681B7C65
:104A0400012B08D17B681B689A697B681B6822F0BC
:104A140040029A6107E07B681B689A697B681B689F
:104A240042F040029A617B685B7C012B08D17B6871
:104A34001B689A697B681B6842F480429A6107E0AC
:104A44007B681B689A697B681B6822F480429A61C0
:104A54007B689B7C012B08D17B681B689A697B6807
:104A64001B6822F480529A6107E07B681B689A698C
:104A74007B681B6842F480529A617B681B689B695F
:104A840023F440717B689A687B681B680A439A61C7
:104A94007B681B689A697B681B6822F0A4029A6190
:104AA4007B681B681A697B681B6822F010021A6114
:104AB4007B68DB68012B08D17B681B689A697B687B
:104AC4001B6842F004029A612CE07B68DB68002BCF
:104AD40028D07B68DB68022B1CD07B681B689A6932
:104AE4007B681B6842F080029A617B681B681A69C4
:104AF4007B681B6842F010021A617B68DB68032B39
:104B040010D17B681B689A697B681B6842F020029D
:104B14009A6107E07B681B689A697B681B6842F0AE
:104B240020029A617B689B69013B5A067B68DB69BA
:104B3400013B1B021A437B681B6A013B42EA0301E7
:104B44007B685B69013B1A047B681B680A43DA6172
:104B54007B689B68B3F5407F15D17B689B6A5A1EBE
:104B64007B68DB6A013B1B021A437B681B6B013BBE
:104B74001B0142EA03017B685B6A013B1A047B6800
:104B84001B680A43DA607B681B68D3F8C0107B6833
:104B9400DA6B7B681B680A43C3F8C020786800F0AE
:104BA40011F87B6800229A657B6800221A667B688C
:104BB400012283F85C20002318461037BD4680BDCF
:104BC40000A5004080B485B000AF7860274BBB607F
:104BD4007B68BA681A647B681B68D3F8803023F456
:104BE400F8117B685B6B1A047B681B680A43C3F883
:104BF4008020BB6803F170027B685A647B681B6881
:104C0400D3F8803023F070617B689B6B1A067B6855
:104C14001B680A43C3F88020BB6803F1B0027B68B9
:104C24009A64BB6803F5C4727B68DA64BB6803F5F5
:104C340018727B681A65BB6803F51E727B685A6537
:104C4400BB68FB6005E0FB6800221A60FB68043364
:104C5400FB60BB6803F55473FA689A42F3D300BF50
:104C640000BF1437BD465DF8047B704700AC0040BC
:104C740080B487B000AF7860396000237B6158E16D
:104C84003B681A6801217B6901FA03F31340FB6056
:104C9400FB68002B00F04A813B685B68012B0BD05A
:104CA4003B685B68022B07D03B685B68112B03D021
:104CB4003B685B68122B30D17B689B683B617B69E6
:104CC4005B00032202FA03F3DB433A6913403B61BE
:104CD4003B68DA687B695B0002FA03F33A691343C1
:104CE4003B617B683A699A607B685B683B6101223F
:104CF4007B6902FA03F3DB433A6913403B613B6887
:104D04005B681B0903F001027B6902FA03F33A6949
:104D140013433B617B683A695A607B68DB683B619B
:104D24007B695B00032202FA03F3DB433A69134015
:104D34003B613B689A687B695B0002FA03F33A695A
:104D440013433B617B683A69DA603B685B68022B1A
:104D540003D03B685B68122B23D17B69DA087B683C
:104D6400083253F822303B617B6903F007039B0050
:104D74000F2202FA03F3DB433A6913403B613B68B9
:104D84001A697B6903F007039B0002FA03F33A698B
:104D940013433B617B69DA087B680832396943F85D
:104DA40022107B681B683B617B695B00032202FA6B
:104DB40003F3DB433A6913403B613B685B6803F0F0
:104DC40003027B695B0002FA03F33A6913433B6114
:104DD4007B683A691A603B685B6803F08053002B78
:104DE40000F0A4805A4A7B699B08183352F8233098
:104DF4003B617B6903F00303DB000F2202FA03F338
:104E0400DB433A6913403B617B68524A934225D0A5
:104E14007B68514A93421FD07B68504A934219D011
:104E24007B684F4A934213D07B684E4A93420DD01D
:104E34007B684D4A934207D07B684C4A934201D128
:104E440006230CE007230AE0052308E0042306E018
:104E5400032304E0022302E0012300E000237A6933
:104E640002F00302D20093403A6913433B6138498C
:104E74007B699B0818333A6941F82320344BD3F8F3
:104E840080303B61FB68DB433A6913403B613B681C
:104E94005B6803F48033002B03D03A69FB68134347
:104EA4003B612B4A3B69C2F88030294BD3F88430EC
:104EB4003B61FB68DB433A6913403B613B685B68D9
:104EC40003F40033002B03D03A69FB6813433B61BE
:104ED4001F4A3B69C2F884301D4B1B683B61FB6869
:104EE400DB433A6913403B613B685B6803F480131E
:104EF400002B03D03A69FB6813433B61144A3B69B6
:104F04001360134B5B683B61FB68DB433A691340F6
:104F14003B613B685B6803F40013002B03D03A69E0
:104F2400FB6813433B610A4A3B6953607B69013365
:104F34007B613B681A687B6922FA03F3002B7FF4D8
:104F44009FAE00BF00BF1C37BD465DF8047B7047B1
:104F540000F402400000024200040242000802423F
:104F6400000C0242001002420014024200180242E5
:104F740080B483B000AF78600B467B8013467B70AF
:104F84007B78002B03D07A887B689A6102E07A8868
:104F94007B689A6200BF0C37BD465DF8047B70479E
:104FA40080B582B000AF78607B68002B01D101230B
:104FB40081E07B6893F84130DBB2002B06D17B683B
:104FC400002283F840207868FEF7CCF87B6824221E
:104FD40083F841207B681B681A687B681B6822F091
:104FE40001021A607B685A687B681B6822F0706251
:104FF4001A617B681B689A687B681B6822F400420C
:105004009A607B68DB68012B07D17B689A687B68B0
:105014001B6842F400429A6006E07B689A687B68E9
:105024001B6842F404429A607B68DB68022B04D15B
:105034007B681B684FF400625A607B681B685B687E
:105044007A68126843F0007343F4004353607B684A
:105054001B68DA687B681B6822F40042DA607B68AC
:105064001A697B685B6942EA03017B689B691A02DF
:105074007B681B680A43DA607B68D9697B681A6AB3
:105084007B681B680A431A607B681B681A687B6824
:105094001B6842F001021A607B6800225A647B6834
:1050A400202283F841207B6800221A637B68002257
:1050B40083F84220002318460837BD4680BD00000F
:1050C40080B588B002AFF8607A601A460B467B81DF
:1050D40013463B81FB6893F84130DBB2202B40F050
:1050E400DA80FB6893F84030012B01D10223D3E02E
:1050F400FB68012283F84020FFF788FA78617B6916
:105104000093192301224FF40041F86800F058FA83
:105114000346002B01D00123BEE0FB68212283F863
:105124004120FB68102283F84220FB6800225A6465
:10513400FB687A685A62FB683A895A85FB680022E0
:105144005A63FB685B8D9BB2FF2B0ED9FB68FF2271
:105154001A85FB681B8DDAB27989514B00934FF0A5
:105164008073F86800F04EFB6CE0FB685B8D9AB2CC
:10517400FB681A85FB681B8DDAB27989484B00936A
:105184004FF00073F86800F03DFB5BE07A69396A20
:10519400F86800F055FA0346002B01D001237BE0A8
:1051A400FB685B6A1A78FB681B689A62FB685B6A37
:1051B4005A1CFB685A62FB685B8D9BB2013B9AB236
:1051C400FB685A85FB681B8D013B9AB2FB681A8504
:1051D400FB685B8D9BB2002B34D0FB681B8D002BCE
:1051E40030D17B6900933B6A00228021F86800F08B
:1051F400E7F90346002B01D001234DE0FB685B8DEA
:105204009BB2FF2B0ED9FB68FF221A85FB681B8D0E
:10521400DAB27989002300934FF08073F86800F0C4
:10522400F1FA0FE0FB685B8D9AB2FB681A85FB68A4
:105234001B8DDAB27989002300934FF00073F8686C
:1052440000F0E0FAFB685B8D9BB2002B9ED17A697B
:10525400396AF86800F034FA0346002B01D00123C0
:105264001AE0FB681B682022DA61FB681B68596836
:10527400FB681A680B4B0B405360FB68202283F8D1
:105284004120FB68002283F84220FB68002283F857
:105294004020002300E0022318461837BD4680BD95
:1052A4000020008000E800FE80B588B002AFF860FE
:1052B400084611461A4603467B810B463B8113463A
:1052C400FB80FB6893F84130DBB2202B40F0F9807F
:1052D4003B6A002B02D0BB8C002B05D1FB684FF43A
:1052E40000725A640123EDE0FB6893F84030012B0F
:1052F40001D10223E6E0FB68012283F84020FFF796
:1053040085F978617B690093192301224FF40041E8
:10531400F86800F055F90346002B01D00123D1E0D1
:10532400FB68212283F84120FB68402283F8422055
:10533400FB6800225A64FB683A6A5A62FB68BA8CBA
:105344005A85FB6800225A63F8883A8979897B690F
:105354000193BB6A00930346F86800F0B9F803466A
:10536400002B05D0FB68002283F840200123A9E02C
:10537400FB685B8D9BB2FF2B0ED9FB68FF221A855D
:10538400FB681B8DDAB27989002300934FF0807398
:10539400F86800F037FA0FE0FB685B8D9AB2FB689F
:1053A4001A85FB681B8DDAB27989002300934FF0CC
:1053B4000073F86800F026FA7A69B96AF86800F0B0
:1053C4003FF90346002B01D001237BE0FB685B6AB5
:1053D4001A78FB681B689A62FB685B6A5A1CFB6854
:1053E4005A62FB685B8D9BB2013B9AB2FB685A859B
:1053F400FB681B8D013B9AB2FB681A85FB685B8DC9
:105404009BB2002B34D0FB681B8D002B30D17B6901
:105414000093BB6A00228021F86800F0D1F80346AB
:10542400002B01D001234DE0FB685B8D9BB2FF2B69
:105434000ED9FB68FF221A85FB681B8DDAB27989C5
:10544400002300934FF08073F86800F0DBF90FE05D
:10545400FB685B8D9AB2FB681A85FB681B8DDAB218
:105464007989002300934FF00073F86800F0CAF9BB
:10547400FB685B8D9BB2002B9ED17A69B96AF86890
:1054840000F01EF90346002B01D001231AE0FB684B
:105494001B682022DA61FB681B685968FB681A687C
:1054A4000A4B0B405360FB68202283F84120FB68C1
:1054B400002283F84220FB68002283F84020002366
:1054C40000E0022318461837BD4680BD00E800FE00
:1054D40080B586B002AFF860084611461A46034606
:1054E4007B810B463B811346FB80FB88DAB27989CA
:1054F400204B00934FF08073F86800F083F9FA6949
:10550400B969F86800F09CF80346002B01D0012328
:105514002CE0FB88012B05D13B89DAB2FB681B68C0
:105524009A6215E03B891B0A9BB2DAB2FB681B68DE
:105534009A62FA69B969F86800F082F80346002BA8
:1055440001D0012312E03B89DAB2FB681B689A623E
:10555400FB690093BB6900228021F86800F030F8F1
:105564000346002B01D0012300E000231846103726
:10557400BD4680BD0020008080B483B000AF786059
:105584007B681B689B6903F00203022B03D17B68D1
:105594001B6800229A627B681B689B6903F0010305
:1055A400012B07D07B681B689A697B681B6842F0F3
:1055B40001029A6100BF0C37BD465DF8047B704759
:1055C40080B584B000AFF860B9603B601346FB71EE
:1055D40022E03B68B3F1FF3F1ED0FFF717F8024605
:1055E400BB69D31A3A689A4202D33B68002B13D1A1
:1055F400FB685B6C43F02002FB685A64FB68202262
:1056040083F84120FB68002283F84220FB680022D3
:1056140083F8402001230FE0FB681B689A69BB688C
:105624001340BA689A420CBF01230023DBB21A4626
:10563400FB799A42CDD0002318461037BD4680BD71
:1056440080B584B000AFF860B9607A602CE07A6805
:10565400B968F86800F070F80346002B01D0012304
:105664002AE0BB68B3F1FF3F1ED0FEF7CFFF02462E
:105674007B68D31ABA689A4202D3BB68002B13D151
:10568400FB685B6C43F02002FB685A64FB682022D1
:1056940083F84120FB68002283F84220FB68002243
:1056A40083F84020012307E0FB681B689B6903F033
:1056B4000203022BCBD1002318461037BD4680BD10
:1056C40080B584B000AFF860B9607A6028E07A6889
:1056D400B968F86800F030F80346002B01D00123C4
:1056E40026E0FEF793FF02467B68D31ABA689A4213
:1056F40002D3BB68002B13D1FB685B6C43F0200220
:10570400FB685A64FB68202283F84120FB6800226E
:1057140083F84220FB68002283F84020012307E03D
:10572400FB681B689B6903F02003202BCFD1002367
:1057340018461037BD4680BD80B584B000AFF86010
:10574400B9607A60FB681B689B6903F01003102B37
:1057540051D122E0BB68B3F1FF3F1ED0FEF756FFE4
:1057640002467B68D31ABA689A4202D3BB68002BFC
:1057740013D1FB685B6C43F02002FB685A64FB683E
:10578400202283F84120FB68002283F84220FB6832
:10579400002283F8402001232EE0FB681B689B69EC
:1057A40003F02003202BD5D1FB681B681022DA619B
:1057B400FB681B682022DA61F868FFF7DDFEFB68EE
:1057C4001B685968FB681A680D4B0B405360FB68F3
:1057D4005B6C43F00402FB685A64FB68202283F884
:1057E4004120FB68002283F84220FB68002283F8F2
:1057F4004020012300E0002318461037BD4680BD39
:1058040000E800FE80B485B000AFF8607B600B4612
:105814007B8113467B72FB681B685A68BB695B0D0E
:1058240003F480610D4B0B43DB4302EA03017B89E4
:10583400C3F309027B7A1B0403F47F031A437B68D6
:105844001A43BB691A43FB681B680A435A6000BFCA
:105854001437BD465DF8047B704700BFFF63FF0348
:1058640080B483B000AF786039607B6893F84130CE
:10587400DBB2202B38D17B6893F84030012B01D167
:10588400022332E07B68012283F840207B682422D3
:1058940083F841207B681B681A687B681B6822F0C8
:1058A40001021A607B681B681A687B681B6822F413
:1058B40080521A607B681B6819687B681B683A68A9
:1058C4000A431A607B681B681A687B681B6842F08D
:1058D40001021A607B68202283F841207B68002241
:1058E40083F84020002300E0022318460C37BD460D
:1058F4005DF8047B704780B485B000AF7860396090
:105904007B6893F84130DBB2202B39D17B6893F864
:105914004030012B01D1022333E07B68012283F85C
:1059240040207B68242283F841207B681B681A6826
:105934007B681B6822F001021A607B681B681B6885
:10594400FB60FB6823F47063FB603B681B02FA682E
:105954001343FB607B681B68FA681A607B681B68EA
:105964001A687B681B6842F001021A607B68202277
:1059740083F841207B68002283F84020002300E064
:10598400022318461437BD465DF8047B70470000B7
:1059940080B400AF054B1B68044A43F00103136055
:1059A40000231846BD465DF8047B7047000403409D
:1059B400F0B58BB006AF78607B68002B01D1012372
:1059C400D7E07B6893F8A932DBB2002B06D17B6861
:1059D400002283F8A822786809F0C2FA7B680322BF
:1059E40083F8A9227B681B68184604F0ACFE0023E8
:1059F400FB734CE0FB7B79685A1C13469B001344F1
:105A0400DB000B44013301221A70FB7B79685A1CBA
:105A140013469B001344DB000B44FA7B1A70FA7B99
:105A2400FB7B98B2796813469B001344DB000B445C
:105A3400363302461A80FB7B79685A1C13469B0056
:105A44001344DB000B44033300221A70FA7B796899
:105A540013469B001344DB000B44383300221A60C6
:105A6400FA7B796813469B001344DB000B443C33F8
:105A740000221A60FA7B796813469B001344DB000A
:105A84000B44403300221A60FB7B0133FB73FA7B27
:105A94007B685B689A42ADD30023FB7344E0FA7BD6
:105AA400796813469B001344DB000B4403F269132B
:105AB40000221A70FA7B796813469B001344DB00BA
:105AC4000B4403F5B473FA7B1A70FA7B79681346B6
