:020000040800F2
:10000000004000209D2700086D12000873120008B0
:10001000791200087F120008851200080000000015
:100020000000000000000000000000008B1200082B
:100030009712000800000000A3120008AF12000889
:10004000E5270008E5270008E5270008E527000860
:10005000E5270008E5270008E5270008E527000850
:10006000E5270008E5270008E5270008E527000840
:10007000E5270008E5270008BD120008D112000896
:10008000E5270008E5270008E5270008E527000820
:10009000E5270008E5270008E5270008E527000810
:1000A00000000000E5270008E5270008E527000814
:1000B000E5270008E5270008E5270008E5270008F0
:1000C000E5270008E5270008E5270008E5270008E0
:1000D000E5270008E5120008E5270008E5270008E5
:1000E000F9120008E5270008E5270008E5270008C1
:1000F000E5270008000000000000000000000000EC
:1001000000000000000000000000000000000000EF
:1001100000000000000000000000000000000000DF
:1001200000000000000000000000000000000000CF
:0C01300000000000000000005FF808F173
:10013C0010B5054C237833B9044B13B10448AFF315
:10014C0000800123237010BD74000020000000000B
:10015C00D06B000808B5034B1BB103490348AFF340
:10016C00008008BD0000000078000020D06B000863
:10017C00034613F8012B002AFBD1181A01387047DB
:10018C0080F0004002E000BF81F0004142001FBF40
:10019C005FEA410392EA030F7FEA226C7FEA236C49
:1001AC006AD04FEA1262D2EB1363C1BFD21841403E
:1001BC0048404140B8BF5B42192B88BF704710F0D4
:1001CC00004F40F4000020F07F4018BF404211F077
:1001DC00004F41F4000121F07F4118BF494292EADF
:1001EC00030F3FD0A2F1010241FA03FC10EB0C000B
:1001FC00C3F1200301FA03F100F0004302D5494298
:10020C0060EB4000B0F5000F13D3B0F1807F06D344
:10021C0040084FEA310102F10102FE2A51D2B1F13C
:10022C00004F40EBC25008BF20F0010040EA030031
:10023C007047490040EB0000013A28BFB0F5000FB1
:10024C00EDD2B0FA80FCACF1080CB2EB0C0200FA67
:10025C000CF0AABF00EBC25052421843BCBFD040B6
:10026C001843704792F0000F81F4000106BF80F430
:10027C0000000132013BB5E74FEA41037FEA226CF3
:10028C0018BF7FEA236C21D092EA030F04D092F0BE
:10029C00000F08BF0846704790EA010F1CBF0020F2
:1002AC00704712F07F4F04D1400028BF40F000404F
:1002BC00704712F100723CBF00F50000704700F06F
:1002CC00004343F0FE4040F4000070477FEA226296
:1002DC0016BF08467FEA23630146420206BF5FEA67
:1002EC00412390EA010F40F4800070474FF0000367
:1002FC0004E000BF10F0004348BF40425FEA000C2E
:10030C0008BF704743F0964301464FF000001CE0D5
:10031C0050EA010208BF70474FF000030AE000BF2B
:10032C0050EA010208BF704711F0004302D5404269
:10033C0061EB41015FEA010C02BF844601460020DB
:10034C0043F0B64308BFA3F18053A3F50003BCFAF6
:10035C008CF2083AA3EBC25310DB01FA02FC6344A3
:10036C0000FA02FCC2F12002BCF1004F20FA02F2AA
:10037C0043EB020008BF20F00100704702F120029D
:10038C0001FA02FCC2F1200250EA4C0021FA02F2FE
:10039C0043EB020008BF20EADC7070474FF0FF0C03
:1003AC001CEAD0521EBF1CEAD15392EA0C0F93EAFE
:1003BC000C0F6FD01A4480EA010C400218BF5FEAA0
:1003CC0041211ED04FF0006343EA501043EA511113
:1003DC00A0FB01310CF00040B1F5000F3EBF49000D
:1003EC0041EAD3715B0040EA010062F17F02FD2A11
:1003FC001DD8B3F1004F40EBC25008BF20F00100F4
:10040C00704790F0000F0CF0004C08BF49024CEA0A
:10041C00502040EA51207F3AC2BFD2F1FF0340EA9C
:10042C00C250704740F400004FF00003013A5DDC0D
:10043C0012F1190FDCBF00F000407047C2F100024E
:10044C00410021FA02F1C2F1200200FA02FC5FEA3B
:10045C00310040F1000053EA4C0308BF20EADC7085
:10046C00704792F0000F00F0004C02BF400010F4F7
:10047C00000F013AF9D040EA0C0093F0000F01F0A4
:10048C00004C02BF490011F4000F013BF9D041EAC6
:10049C000C018FE70CEAD15392EA0C0F18BF93EAC8
:1004AC000C0F0AD030F0004C18BF31F0004CD8D1F2
:1004BC0080EA010000F00040704790F0000F17BF79
:1004CC0090F0004F084691F0000F91F0004F14D0BF
:1004DC0092EA0C0F01D142020FD193EA0C0F03D117
:1004EC004B0218BF084608D180EA010000F000401A
:1004FC0040F0FE4040F40000704740F0FE4040F4F5
:10050C00400070474FF0FF0C1CEAD0521EBF1CEA93
:10051C00D15392EA0C0F93EA0C0F69D0A2EB0302B1
:10052C0080EA010C49024FEA402037D04FF080534B
:10053C0043EA111143EA10130CF000408B4238BF10
:10054C005B0042F17D024FF4000C8B4224BF5B1A1E
:10055C0040EA0C00B3EB510F24BFA3EB510340EA6C
:10056C005C00B3EB910F24BFA3EB910340EA9C001A
:10057C00B3EBD10F24BFA3EBD10340EADC001B018A
:10058C0018BF5FEA1C1CE0D1FD2A3FF650AF8B422E
:10059C0040EBC25008BF20F0010070470CF0004C3B
:1005AC004CEA50207F32C2BFD2F1FF0340EAC25066
:1005BC00704740F400004FF00003013A37E792F027
:1005CC00000F00F0004C02BF400010F4000F013A85
:1005DC00F9D040EA0C0093F0000F01F0004C02BF80
:1005EC00490011F4000F013BF9D041EA0C0195E7E9
:1005FC000CEAD15392EA0C0F08D142027FF47DAF82
:10060C0093EA0C0F7FF470AF084676E793EA0C0F71
:10061C0004D14B023FF44CAF08466EE730F0004C6F
:10062C0018BF31F0004CCAD130F000427FF45CAFFF
:10063C0031F000437FF43CAF5FE700BF42000ED2C5
:10064C00B2F1FE4F0BD34FF09E03B3EB126209D401
:10065C004FEA002343F0004323FA02F070474FF0B7
:10066C000000704712F1610F01D1420202D14FF02C
:10067C00FF3070474FF00000704700BF53B94AB9C4
:10068C00002908BF00281CBF4FF0FF314FF0FF308E
:10069C0000F076B9ADF1080C6DE904CE00F006F867
:1006AC00DDF804E0DDE9022304B070472DE9F047E2
:1006BC00089E0D4604468846002B4DD18A4294462E
:1006CC0068D9B2FA82F252B101FA02F3C2F12001F6
:1006DC0020FA01F10CFA02FC41EA030894404FEABB
:1006EC001C41B8FBF1F71FFA8CFE01FB178807FBC6
:1006FC000EF0230C43EA084398420AD91CEB03037F
:10070C0007F1FF3580F01E81984240F21B81023FB9
:10071C0063441B1AB3FBF1F001FB103300FB0EFE1C
:10072C00A4B244EA0344A6450AD91CEB040400F124
:10073C00FF3380F00981A64540F2068164440238FB
:10074C000021A4EB0E0440EA07401EB10023D44064
:10075C00C6E90043BDE8F0878B4208D9002E00F0B3
:10076C00EE800021C6E900050846BDE8F087B3FA23
:10077C0083F100294AD1AB4202D3824200F2FC80C1
:10078C00841A65EB030301209846002EE2D0C6E9DB
:10079C000048DFE702B9FFDEB2FA82F2002A40F02D
:1007AC009180A1EB0C0001214FEA1C471FFA8CFE33
:1007BC00B0FBF7F307FB1300250C45EA00450EFBD5
:1007CC0003F0A84208D91CEB050503F1FF3802D24F
:1007DC00A84200F2CE8043462D1AB5FBF7F007FB7A
:1007EC0010550EFB00FEA4B244EA0544A64508D9F8
:1007FC001CEB040400F1FF3502D2A64500F2B680D2
:10080C002846A4EB0E0440EA03409EE7C1F1200702
:10081C008B4022FA07FC4CEA030C25FA07FA4FEA44
:10082C001C49BAFBF9F820FA07F309FB18AA8D400A
:10083C001FFA8CFE1D4300FA01F308FB0EF02C0C82
:10084C0044EA0A44A04202FA01F20BD91CEB04045C
:10085C0008F1FF3A80F08880A04240F28580A8F130
:10086C0002086444241AB4FBF9F009FB104400FBA1
:10087C000EFEADB245EA0444A64508D91CEB0404AF
:10088C0000F1FF356CD2A6456AD90238644440EABF
:10089C000840A0FB0295A4EB0E04AC42C846AE4641
:1008AC0056D353D0002E69D0B3EB080264EB0E0480
:1008BC0022FA01F304FA07F71F43CC40C6E900748F
:1008CC00002147E70CFA02FCC2F1200125FA01F3E2
:1008DC004FEA1C4720FA01F195400D43B3FBF7F1A9
:1008EC0007FB11331FFA8CFE280C40EA034001FB76
:1008FC000EF3834204FA02F408D91CEB000001F158
:10090C00FF382FD283422DD902396044C01AB0FB74
:10091C00F7F307FB1300ADB245EA004503FB0EF0FD
:10092C00A84208D91CEB050503F1FF3816D2A842E2
:10093C0014D9023B6544281A43EA014138E7314691
:10094C00304607E72F46E4E61846F9E64B45A9D2B0
:10095C00B9EB020865EB0C0E0138A3E74346EAE756
:10096C00284694E74146D1E7D0467BE764440238F9
:10097C0047E7023B65442FE7084606E73146E9E6C0
:10098C00704700BF80B582B000AF104BDB690F4AD7
:10099C0043F08073D3610D4BDB6903F080737B6094
:1009AC007B68002200210E2002F093FD0E2002F045
:1009BC00ACFD002200210F2002F08BFD0F2002F075
:1009CC00A4FD00BF0837BD4680BD00BF0038024003
:1009DC0080B58AB000AF07F1140300221A605A6088
:1009EC009A60DA601A61514BDB69504A43F0040398
:1009FC00D3614E4BDB6903F004033B613B694B4B0A
:100A0C00DB694A4A43F02003D361484BDB6903F0AE
:100A1C002003FB60FB68454BDB69444A43F002034F
:100A2C00D361424BDB6903F00203BB60BB683F4BF5
:100A3C00DB693E4A43F00103D3613C4BDB6903F0B5
:100A4C0001037B607B6800224FF40051384803F0AF
:100A5C0022F9002242F2F401364803F01CF900227C
:100A6C004FF40141344803F016F94FF400537B6105
:100A7C000123BB610123FB6100233B6207F11403DB
:100A8C0019462B4802F070FF4FF440437B61002362
:100A9C00BB610023FB6107F114031946244802F0E3
:100AAC0063FF42F2F4037B610123BB610023FB6112
:100ABC0000233B6207F1140319461E4802F054FF51
:100ACC004FF4A0437B610023BB610023FB6107F162
:100ADC0014031946174802F047FF4FF400437B619B
:100AEC004FF48813BB610023FB6107F11403194613
:100AFC00104802F039FF4FF401437B610123BB61C5
:100B0C000023FB6100233B6207F1140319460A48DA
:100B1C0002F02AFF00220021282002F0DAFC282013
:100B2C0002F0F3FC00BF2837BD4680BD0038024000
:100B3C0000080240000402400000024080B400AFF4
:100B4C00BFF34F8F00BF064BDB6803F4E062044930
:100B5C00044B1343CB60BFF34F8F00BF00BFFDE7C7
:100B6C0000ED00E00400FA0580B582B000AF02F0A1
:100B7C0049FB00F04DF8FFF72BFFFFF703FF00F0E8
:100B8C00C3FC00F0F7FB00F041FC00F0AFFA194B8E
:100B9C0004221A73174800F0EDF80023FB714FF490
:100BAC000041154803F060F80346002B14BF0123E5
:100BBC000023FB71FB7983F00103DBB2002BEED138
:100BCC0041F2883002F08CFB0A490C4800F0B2F874
:100BDC00084B597B4FF48073094A0A4801F0FEFD1B
:100BEC00094B1B68094A13600A2002F079FB01F0DB
:100BFC0021FEF9E79000002000040240480200208A
:100C0C00000002407C010020E07F00084807002023
:100C1C0080B592B000AF07F11403342200211846BE
:100C2C0005F0D4F93B4600221A605A609A60DA60EB
:100C3C001A611C4B1B6823F4C0531A4A43F400631B
:100C4C00136002237B6101233B6210237B6202232E
:100C5C00BB630023FB6300233B644FF480037B6482
:100C6C0007F11403184603F047F80346002B01D094
:100C7C0000F036FA0F233B6003237B600023BB603C
:100C8C000023FB6000233B613B460121184603F027
:100C9C0063FB0346002B01D000F022FA00BF48375B
:100CAC00BD4680BD0070004080B582B000AF0346E9
:100CBC00FB80FB88B3F5004F01D1FFF73FFF00BF6E
:100CCC000837BD4680BD000080B582B000AF7860AB
:100CDC007B681B68044A934201D101F02DFE00BFD2
:100CEC000837BD4680BD00BF0038014080B582B0DA
:100CFC0000AF78607B681B68044A934202D10020E5
:100D0C0001F036FE00BF0837BD4680BD00380140FB
:100D1C0080B582B000AF78607B681B68044A934250
:100D2C0002D1012001F024FE00BF0837BD4680BD72
:100D3C000038014080B582B000AF786039603B6804
:100D4C001946786800F004FD3B681B7B19467868EF
:100D5C0000F034FE3B68DB791946786800F05BFEE6
:100D6C003B6808331946786800F083FE00BF0837EB
:100D7C00BD4680BD80B483B000AF78607B681B7BC0
:100D8C00013B102B00F2868101A252F823F000BF28
:100D9C00E10D0008110E00083F0E00086D0E000852
:100DAC00E11000089B0E0008C90E0008F70E0008A1
:100DBC00250F0008E1100008550F0008830F0008EC
:100DCC00B10F0008E10F00081110000841100008D5
:100DDC00711000087B6801225A737B6844F620620C
:100DEC001A607B684CF250329A807B6801229A71AF
:100DFC007B680122DA717B6807221A727B680E22EB
:100E0C005A7268E17B6802225A737B68AD4A1A6099
:100E1C007B6842F210729A807B6800229A717B6820
:100E2C000122DA717B680E221A727B681C225A72BC
:100E3C0051E17B6803225A737B68A34A1A607B6872
:100E4C0042F210729A807B6801229A717B680122AF
:100E5C00DA717B680A221A727B6814225A723AE1A0
:100E6C007B6804225A737B68964A1A607B6842F24C
:100E7C0010729A807B6801229A717B680122DA7168
:100E8C007B680A221A727B6814225A7223E17B68EF
:100E9C0001225A737B688D4A1A607B684CF250327F
:100EAC009A807B6801229A717B680122DA717B68D7
:100EBC0006221A727B680C225A720CE17B680222A1
:100ECC005A737B68824A1A607B684CF250329A8063
:100EDC007B6800229A717B680022DA717B680E2293
:100EEC001A727B681C225A72F5E07B6803225A73D3
:100EFC007B68774A1A607B684CF250329A807B6828
:100F0C0001229A717B680122DA717B6806221A72BF
:100F1C007B680C225A72DEE07B6804225A737B6871
:100F2C0040F6B8321A607B684FF6E8529A807B68BC
:100F3C0000229A717B680022DA717B6803221A7294
:100F4C007B6806225A72C6E07B6806225A737B685D
:100F5C005C4A1A607B684CF250329A807B680022A3
:100F6C009A717B680122DA717B6805221A727B68A0
:100F7C000A225A72AFE07B6807225A737B68514A87
:100F8C001A607B684CF250329A807B6800229A710E
:100F9C007B680122DA717B6805221A727B680A224F
:100FAC005A7298E07B6808225A737B684CF2503274
:100FBC001A607B684CF250329A807B6800229A71DE
:100FCC007B680122DA717B680D221A727B681A2207
:100FDC005A7280E07B6809225A737B684CF250325B
:100FEC001A607B684CF250329A807B6800229A71AE
:100FFC007B680122DA717B680D221A727B681A22D7
:10100C005A7268E07B680A225A737B684CF2503241
:10101C001A607B684CF250329A807B6800229A717D
:10102C007B680122DA717B680D221A727B681A22A6
:10103C005A7250E07B680B225A737B684CF2503228
:10104C001A607B684CF250329A807B6800229A714D
:10105C007B680122DA717B680D221A727B681A2276
:10106C005A7238E07B6806225A737B6844F6206219
:10107C001A607B684CF250329A807B6801229A711C
:10108C007B680022DA717B6802221A727B68052267
:10109C005A7220E07B6800225A737B6844F6206207
:1010AC001A607B684CF250329A807B6801229A71EC
:1010BC007B680122DA717B6802221A727B68052236
:1010CC005A7208E0F049020080380100400D03001C
:1010DC00A086010000BF00BF0C37BD4680BC704726
:1010EC0080B400AF72B600BFFEE7000080B500AF61
:1010FC00114B124A1A60104B4FF482725A600E4B0D
:10110C0000229A600C4B0022DA600B4B4FF40072F9
:10111C009A61094B1822DA61074B00229A62064B3E
:10112C000A22DA62044803F09BFB0346002B01D031
:10113C00FFF7D6FF00BF80BDA000002000300140AB
:10114C0080B58AB000AF786007F1140300221A60F2
:10115C005A609A60DA601A617B681B68254A934270
:10116C0044D1254B1B6A244A43F480531362224B0F
:10117C001B6A03F480533B613B691F4BDB691E4ABE
:10118C0043F00103D3611C4BDB6903F00103FB60EB
:10119C00FB68194BDB69184A43F00203D361164B09
:1011AC00DB6903F00203BB60BB684FF4C0537B6187
:1011BC000223BB610023FB6103233B6205237B629B
:1011CC0007F1140319460D4802F0CEFB08237B618E
:1011DC000223BB610023FB6103233B6205237B627B
:1011EC0007F114031946064802F0BEFB00BF28376E
:1011FC00BD4680BD00300140003802400000024076
:10120C000004024080B485B000AF144B5B6A134AF3
:10121C0043F000435362114B5B6A03F00043FB60E5
:10122C00FB680E4B1B6A0D4A43F0010313620B4B18
:10123C001B6A03F00103BB60BB68084B5B6A074A7F
:10124C0043F080535362054B5B6A03F080537B6021
:10125C007B6800BF1437BD4680BC70470038024025
:10126C0080B400AFFEE780B400AFFEE780B400AFFF
:10127C00FEE780B400AFFEE780B400AFFEE780B4B9
:10128C0000AF00BFBD4680BC704780B400AF00BF4C
:10129C00BD4680BC704780B400AF00BFBD4680BC6B
:1012AC00704780B500AF01F0FFFF00BF80BD0000AC
:1012BC0080B500AF024802F079FA00BF80BD00BFD4
:1012CC000402002080B500AF024802F06FFA00BFA4
:1012DC0080BD00BFC001002080B500AF024804F003
:1012EC00EBF800BF80BD00BF7C01002080B500AFD3
:1012FC004FF4004002F0E8FC00BF80BD80B586B022
:10130C0000AF7860144A154BD31A7B617B693B6143
:10131C00134B1B68002B02D1114B124A1A60104B55
:10132C001A687B6813443A699A4207D204F024FE87
:10133C0003460C221A604FF0FF3309E0084B1B6880
:10134C00FB60074B1A687B681344054A1360FB6803
:10135C0018461837BD4680BD004000200004000030
:10136C00F8000020B830002080B400AF00BFBD46AC
:10137C0080BC704780B586B000AF07F1080300222F
:10138C001A605A609A60DA603B4600221A605A6012
:10139C001D4B4FF080421A601B4B00225A601A4BB7
:1013AC0000229A60184B4FF6FF72DA60164B00223F
:1013BC001A61154B80225A61134803F039FD03461C
:1013CC00002B01D0FFF78CFE4FF48053BB6007F16C
:1013DC00080319460C4803F06AFD0346002B01D0A4
:1013EC00FFF77EFE00233B6000237B603B461946E3
:1013FC00054803F019FF0346002B01D0FFF770FEE0
:10140C0000BF1837BD4680BDFC00002080B586B0FB
:10141C0000AF07F1080300221A605A609A60DA6084
:10142C003B4600221A605A601D4B1E4A1A601C4B28
:10143C0000225A601A4B00229A60194B4FF6FF7229
:10144C00DA60174B00221A61154B80225A6114483E
:10145C0003F0EEFC0346002B01D0FFF741FE4FF4E6
:10146C008053BB6007F1080319460D4803F01FFDBC
:10147C000346002B01D0FFF733FE00233B60002313
:10148C007B603B461946064803F0CEFE0346002B14
:10149C0001D0FFF725FE00BF1837BD4680BD00BF49
:1014AC003C0100200004004080B485B000AF78609F
:1014BC007B681B68B3F1804F0CD1114B5B6A104AEF
:1014CC0043F0010353620E4B5B6A03F00103FB60B4
:1014DC00FB6810E07B681B680A4A93420BD1084BEF
:1014EC005B6A074A43F002035362054B5B6A03F0E5
:1014FC000203BB60BB6800BF1437BD4680BC70479D
:10150C00003802400004004080B500AF114B124A75
:10151C001A60104B4FF4E1325A600E4B00229A6065
:10152C000C4B0022DA600B4B00221A61094B0C2287
:10153C005A61084B00229A61064B0022DA61054879
:10154C0003F0D0FE0346002B01D0FFF7C9FD00BF0E
:10155C0080BD00BF7C0100200038014080B58AB0FE
:10156C0000AF786007F1140300221A605A609A6089
:10157C00DA601A617B681B68414A93427CD1414B0B
:10158C001B6A404A43F4804313623E4B1B6A03F4CC
:10159C0080433B613B693B4BDB693A4A43F00103B7
:1015AC00D361384BDB6903F00103FB60FB684FF43C
:1015BC00C0637B610223BB610023FB6103233B629D
:1015CC0007237B6207F1140319462F4802F0CCF96C
:1015DC002E4B2F4A1A602D4B00225A602B4B0022A7
:1015EC009A602A4B8022DA60284B00221A61274B22
:1015FC0000225A61254B00229A61244B0022DA61A9
:10160C00224801F09DFF0346002B01D0FFF768FD37
:10161C007B681E4A9A631D4A7B6853621D4B1E4AA7
:10162C001A601C4B10225A601A4B00229A60194BFC
:10163C008022DA60174B00221A61164B00225A6185
:10164C00144B00229A61134B0022DA61114801F00D
:10165C0077FF0346002B01D0FFF742FD7B680D4A54
:10166C005A630C4A7B68536200220021252001F04A
:10167C0030FF252001F049FF00BF2837BD4680BD53
:10168C00003801400038024000000240C001002038
:10169C0058600240040200204460024080B58AB0C9
:1016AC0002AF0346B9607A60FB730023BB61002371
:1016BC003B7700233B6100233B750023FB770BE05A
:1016CC00FB7FBA681A44FB7F127820333B4403F843
:1016DC00082CFB7F0133FB77FB7F7A689A42EFD8AB
:1016EC0000224FF40051184802F0D5FA7B689BB2E7
:1016FC0007F1100207F118014FF47A7000901348AB
:10170C0003F02AF903467B7701224FF400510E486F
:10171C0002F0C1FA7B7F002B11D10023BB770BE0C9
:10172C00BA7FBB7FB9680B4420323A4412F8102CB4
:10173C001A70BB7F0133BB77BB7F042BF0D900BF82
:10174C002037BD4680BD00BF00080240A00000202D
:10175C0090B587B000AF7860396078687B6803F526
:10176C002472934B002101F0A9FB7B68184601F011
:10177C00F1FB0346002B0ED007E07C6801F0A6FDC0
:10178C0003461946204601F0A7FC7B681B681B78B2
:10179C00002BF2D101E0052305E17B6800211846FE
:1017AC0001F042FB03461A467B68C3F8A4247B680D
:1017BC000921184601F038FB03461A467B68C3F82A
:1017CC00AC247B680A21184601F02EFB03461A460E
:1017DC007B68C3F8B0247B683421184601F024FBE5
:1017EC0003461A467B68C3F8B4247B683821184634
:1017FC0001F01AFB03461A467B68C3F8B8247B68D1
:10180C006C21184601F010FB03461A467B68C3F89E
:10181C00BC247B687021184601F006FB03461A466F
:10182C007B68C3F8C4247B681021184601F0FCFACD
:10183C0003461A467B68C3F8C8247B680122C3F8A8
:10184C00D0247B684FF47A72A3F8D4247B684CF2D2
:10185C005032C3F8D8247B6842F21072A3F8DC240F
:10186C007B68544AC3F8E0243B689A887B68A3F8E9
:10187C00E4247B684FF4AF62A3F8E8247B680A2267
:10188C00C3F8EC247B680122A3F8F0243B681A68A7
:10189C007B68C3F8F42478687B68D3F8D0341A4694
:1018AC00232101F0A3FA78687B68B3F8D4341A4684
:1018BC00242101F09BFA78687B68D3F8D8341A4657
:1018CC00252101F093FA78687B68B3F8DC341A466A
:1018DC00262101F08BFA78687B68D3F8E0341A463D
:1018EC00272101F083FA78687B68B3F8E4341A4650
:1018FC00282101F07BFA78687B68B3F8E8341A4643
:10190C002A2101F073FA78687B68D3F8EC34DBB2E7
:10191C000A22194601F06AFA7B6800222021184637
:10192C0001F064FA08233B613B7C43F008033B74F1
:10193C003B7C43F004033B743B689A793B7C62F339
:10194C0004133B747B683A690021184601F04EFA87
:10195C007B68194A6C21184601F048FA0023BB60D9
:10196C003B7A0A2262F304033B727B7A0F2262F306
:10197C0004037B72BB7A062262F30303BB727B689F
:10198C00BA681021184601F031FA7B680A2211213D
:10199C00184601F02BFA7B684FF4FA7213211846A3
:1019AC0001F024FA002318461C37BD4690BD00BF39
:1019BC00386D000890D00300C300410080B584B09E
:1019CC0000AF78600B46FB707B683421184601F041
:1019DC002BFAF860FB6843F40063FB60FB78092B7F
:1019EC0003D0FB6843F00103FB60FB6843F0020388
:1019FC00FB60FB6843F02003FB60FB6843F0800353
:101A0C00FB607B68FA683421184601F0EFF900BFDF
:101A1C001037BD4680BD80B584B000AF78600B46F2
:101A2C00FB70FB78012B02D0FB78002B1DD17B685F
:101A3C003421184601F0F8F90346FB60FB7803F0FB
:101A4C000103DAB23B7B62F382033B73FB7803F056
:101A5C000103DAB23B7B62F3C3033B737B68FA6826
:101A6C003421184601F0C2F900E000BF1037BD4622
:101A7C0080BD80B584B000AF786039604FF400232E
:101A8C00FB603B6893F900301A46FB681344FB601B
:101A9C003B6893F901301B02FA681344FB607B68C6
:101AAC00FA681021184601F0A1F900BF1037BD46A5
:101ABC0080BD80B582B000AF786039607B683968D2
:101ACC00184601F04DFB002318460837BD4680BD73
:101ADC0080B584B000AFF860B9607A60FB687A6852
:101AEC0007F10801184601F072FB00231846103765
:101AFC00BD4680BD80B584B000AFF860B9607A6037
:101B0C00FB6800222021184601F070F9FB687A6806
:101B1C002721184601F06AF9FB68BA682D2118468E
:101B2C0001F064F9002318461037BD4680BD80B51E
:101B3C0082B000AF7860396039687868FFF7B9FF18
:101B4C00002318460837BD4680BD80B483B000AF73
:101B5C0078600B46FB7013463B80012318460C370C
:101B6C00BD4680BC704780B582B000AF78607B68A2
:101B7C0000222321184601F039F97B680022272125
:101B8C00184601F033F9002318460837BD4680BDCE
:101B9C0080B584B000AF786039607B68212118462D
:101BAC0001F042F9F8603B68FA681A6000231846A5
:101BBC001037BD4680BD80B584B000AF78607B68BF
:101BCC003521184601F030F9F860FB689B12DBB246
:101BDC0003F00103FB72FB7A18461037BD4680BD3B
:101BEC0080B584B000AF78600B46FB707B68002139
:101BFC00184601F019F90346BB6097F90330B3F1AD
:101C0C00FF3F04D13B7A43F010033B7203E03B7A75
:101C1C006FF304133B727B68BA680021184601F01D
:101C2C00E5F8002318461037BD4680BD80B483B05C
:101C3C0000AF786039607B683A68C3F8F4240023FD
:101C4C0018460C37BD4680BC704780B582B000AFDB
:101C5C0078600B46FB70FB7819467868FFF7DBFE63
:101C6C00012318460837BD4680BD80B483B000AF51
:101C7C0078600B467B80012318460C37BD4680BC30
:101C8C00704780B483B000AF78600B46FB700123C3
:101C9C0018460C37BD4680BC704780B584B000AF89
:101CAC0078600B467B8013463B807B885BB23B7332
:101CBC003B885BB27B7307F10C0319467868FFF71E
:101CCC00D8FE002318461037BD4680BD80B582B0C3
:101CDC0000AF786039603B689AB27B68A3F8DC246B
:101CEC0078687B68B3F8DC341A46262101F07EF85C
:101CFC00002318460837BD4680BD80B582B000AFC2
:101D0C0078600B46FB707B68FA781146184601F038
:101D1C008BF8034618460837BD4680BD80B584B0A5
:101D2C0000AFF8600B467A60FB72FB687A68F97A50
:101D3C00184601F05BF8002318461037BD4680BDED
:101D4C0080B483B000AF78600C4B5B7C013B042B00
:101D5C000CD801A252F823F0791D0008791D000857
:101D6C00791D0008791D0008791D000800BF0223A9
:101D7C0018460C37BD4680BC704700BFF82F0020BA
:101D8C0080B483B000AF7860032318460C37BD468F
:101D9C0080BC704780B584B000AF7860084BFB60A6
:101DAC00084B1B7919467B68B3F894301A46FB68CC
:101DBC00054800F027FE002318461037BD4680BDAD
:101DCC00B46C0008F82F0020BC6C000880B483B001
:101DDC0000AF7860032318460C37BD4680BC7047B3
:101DEC0080B483B000AF7860032318460C37BD462F
:101DFC0080BC704780B483B000AF78600323184672
:101E0C000C37BD4680BC704780B582B000AF78609F
:101E1C00084B1B7919467B68B3F894301A46064B6D
:101E2C001B68064800F0EEFD002318460837BD4637
:101E3C0080BD00BFF82F002048070020CC6C0008A4
:101E4C0080B483B000AF7860032318460C37BD46CE
:101E5C0080BC704780B483B000AF78600323184611
:101E6C000C37BD4680BC704780B483B000AF78603F
:101E7C00032318460C37BD4680BC704780B483B032
:101E8C0000AF7860032318460C37BD4680BC704702
:101E9C0080B483B000AF7860032318460C37BD467E
:101EAC0080BC704780B584B000AF78600023FB73B2
:101EBC002A4BD3F8F43419462848FFF738FE03466A
:101ECC00FB731AE0264B1B7883F00103DBB2002B6B
:101EDC000ED0244B1B7919467B68B3F894301A4604
:101EEC00214B1B88214800F08DFD1D4B01221A70DF
:101EFC0000F0A0FC0A2001F0F3F91848FFF75BFE94
:101F0C000346012BDED1164B1B7883F00103DBB2A9
:101F1C00002B0CD0134B1B7919467B68B3F894300B
:101F2C001A46114B1B88114800F06CFD02E00C4B5B
:101F3C0000221A7000222121084800F057FFFB7B79
:101F4C00002B03D00121084800F010FC044B0022A8
:101F5C001A70002318461037BD4680BD4802002079
:101F6C0046070020F82F002044070020CC6C000806
:101F7C0080B586B000AF786000237B6100233B61A5
:101F8C000023FB737B6893F891305A1C7B681A32E0
:101F9C0053F822300A220021184604F0F9F878612F
:101FAC007B6893F891309A1C7B681A3253F8223074
:101FBC000A220021184604F0EBF838613A69796975
:101FCC000E48FFF785FD0346FB73FB7B002B03D00C
:101FDC0001210B4800F0CAFB0A4B1B7919467B68A0
:101FEC00B3F894301A46064B1B88074800F00AFDDC
:101FFC00002318461837BD4680BD00BF480200209C
:10200C0044070020F82F0020CC6C000880B586B067
:10201C0000AF786000237B6100233B610023FB73DE
:10202C007B6893F891305A1C7B681A3253F8223033
:10203C00184603F09DFF78617B6893F891309A1CE9
:10204C007B681A3253F82230184603F091FF38613E
:10205C003A6979690E48FFF74DFD0346FB73FB7B2C
:10206C00002B03D001210B4800F080FB0A4B1B799D
:10207C0019467B68B3F894301A46064B1B88074800
:10208C0000F0C0FC002318461837BD4680BD00BFC9
:10209C004802002044070020F82F0020CC6C0008D8
:1020AC0080B584B000AF78600023FB600023FB7226
:1020BC007B6893F891305A1C7B681A3253F82230A3
:1020CC000A220021184604F063F8F860F9680E48FB
:1020DC00FFF72DFD0346FB72FB7A002B03D0012189
:1020EC000A4800F043FB0A4B1B7919467B68B3F88E
:1020FC0094301A46054B1B88064800F083FC0023DD
:10210C0018461037BD4680BD480200204407002009
:10211C00F82F0020CC6C000880B584B000AF78603C
:10212C000023FB810023BB810023FB727B6893F8A7
:10213C0091305A1C7B681A3253F82230002200214D
:10214C00184604F0A1F80346FB817B6893F89130A4
:10215C009A1C7B681A3253F8223000220021184650
:10216C0004F092F80346BB81FB89DBB2BA891946AD
:10217C000E48FFF7EAFC0346FB72FB7A002B03D0F8
:10218C0001210B4800F0F2FA0A4B1B7919467B68C7
:10219C00B3F894301A46064B1B88074800F032FC03
:1021AC00002318461037BD4680BD00BF48020020F2
:1021BC0044070020F82F0020CC6C000880B584B0B8
:1021CC0000AF78600023FB730E48FFF7CCFC03468E
:1021DC00FB73FB7B002B03D001210B4800F0C6FAEC
:1021EC000A4B1B7919467B68B3F894301A46064B98
:1021FC001B88074800F006FC002318461037BD4624
:10220C0080BD00BF4802002044070020F82F0020AA
:10221C00CC6C000880B586B002AF78600023BB6040
:10222C000023FB7307F1080319461048FFF7B0FCB5
:10223C000346FB73FB7B002B03D001210C4800F001
:10224C0095FA0C4B1B7919467B68B3F894301A46F7
:10225C00074B1B881846BB6800930346064800F0E2
:10226C00D1FB002318461037BD4680BD4802002024
:10227C0044070020F82F0020DC6C000880B584B0E7
:10228C0000AF78600023FB730E48FFF794FC034605
:10229C00FB73FB7B002B03D001210B4800F066FA8B
:1022AC000A4B1B7919467B68B3F894301A46064BD7
:1022BC001B88074800F0A6FB002318461037BD46C4
:1022CC0080BD00BF4802002044070020F82F0020EA
:1022DC00CC6C000880B584B000AF78600023FB8123
:1022EC0000237B737B6893F891305A1C7B681A32FD
:1022FC0053F8223000220021184603F0C5FF034694
:10230C00FB81FB895BB219460E48FFF769FC03465B
:10231C007B737B7B002B03D001210B4800F026FA4A
:10232C000A4B1B7919467B68B3F894301A46064B56
:10233C001B88074800F066FB002318461037BD4683
:10234C0080BD00BF4802002044070020F82F002069
:10235C00CC6C000880B584B000AF78600023FB81A2
:10236C0000237B737B6893F891305A1C7B681A327C
:10237C0053F8223000220021184603F085FF034653
:10238C00FB81FB8919460E48FFF750FC03467B7313
:10239C007B7B002B03D001210A4800F0E7F90A4BA4
:1023AC001B7919467B68B3F894301A46054B1B8889
:1023BC00064800F027FB002318461037BD4680BDA9
:1023CC004802002044070020F82F0020CC6C0008A5
:1023DC0080B584B000AF78600023FB8100237B7351
:1023EC007B6893F891305A1C7B681A3253F8223070
:1023FC0000220021184603F047FF0346FB81FB89AE
:10240C00DBB219460E48FFF720FC03467B737B7B3F
:10241C00002B03D001210B4800F0A8F90A4B1B79C3
:10242C0019467B68B3F894301A46064B1B8807484C
:10243C0000F0E8FA002318461037BD4680BD00BFF7
:10244C004802002044070020F82F0020CC6C000824
:10245C0080B584B000AF78600023FB8100237B73D0
:10246C007B6893F891305A1C7B681A3253F82230EF
:10247C0000220021184603F007FF0346FB81FB896D
:10248C0019460E48FFF7F1FB03467B737B7B002B51
:10249C0003D001210A4800F069F90A4B1B7919464F
:1024AC007B68B3F894301A46054B1B88064800F03D
:1024BC00A9FA002318461037BD4680BD48020020FB
:1024CC0044070020F82F0020CC6C000880B584B0A5
:1024DC0000AF78600023FB8100237B737B6893F84B
:1024EC0091305A1C7B681A3253F82230002200219A
:1024FC00184603F0C9FE0346FB81FB89DBB2194683
:10250C000E48FFF7BEFB03467B737B7B002B03D08F
:10251C0001210B4800F02AF90A4B1B7919467B68FC
:10252C00B3F894301A46064B1B88074800F06AFA39
:10253C00002318461037BD4680BD00BF480200205E
:10254C0044070020F82F0020CC6C000880B584B024
:10255C0000AF78600023FB810023BB810023FB725A
:10256C007B6893F891305A1C7B681A3253F82230EE
:10257C0000220021184603F087FE0346FB817B688E
:10258C0093F891309A1C7B681A3253F8223000224F
:10259C000021184603F078FE0346BB81BA89FB89FB
:1025AC0019460E48FFF779FB0346FB72FB7A002BAA
:1025BC0003D001210A4800F0D9F80A4B1B791946BF
:1025CC007B68B3F894301A46054B1B88064800F01C
:1025DC0019FA002318461037BD4680BD480200206A
:1025EC0044070020F82F0020CC6C000880B584B084
:1025FC0000AF78600023FB600023FB727B6893F8CC
:10260C0091305A1C7B681A3253F822300022002178
:10261C00184603F039FEF860F9680E48FFF756FBD0
:10262C000346FB72FB7A002B03D001210A4800F011
:10263C009DF80A4B1B7919467B68B3F894301A46FF
:10264C00054B1B88064800F0DDF9002318461037AF
:10265C00BD4680BD4802002044070020F82F002012
:10266C00CC6C000880B586B002AF78600023FB60AC
:10267C007B6893F891305A1C7B681A3253F82230DD
:10268C0010220021184603F0FFFD0346FB72FB7A73
:10269C0019460C48FFF731FBF8600B4B1B791946B8
:1026AC007B68B3F894301A46084B1B881846FB68B5
:1026BC0000930346064800F0A5F90023184610378E
:1026CC00BD4680BD48020020F82F002044070020A2
:1026DC00F06C000880B584B000AF78600023FB7309
:1026EC007B6893F891305A1C7B681A3253F822306D
:1026FC0010220021184603F0C7FD0346BB737B680C
:10270C0093F891309A1C7B681A3253F822301022BD
:10271C000021184603F0B8FD0346BB60BA68BB7BCA
:10272C0019460E48FFF7FAFA0346FB73FB7B002BA6
:10273C0003D001210A4800F019F80A4B1B791946FD
:10274C007B68B3F894301A46054B1B88064800F09A
:10275C0059F9002318461037BD4680BD48020020A9
:10276C0044070020F82F0020CC6C000880B483B004
:10277C0000AF78600B467B807B681A887B8813439C
:10278C009AB27B681A8000BF0C37BD4680BC70477C
:10279C000C480D490D4A002302E0D458C4500433B0
:1027AC00C4188C42F9D30A4A0A4C002301E0136086
:1027BC000432A242FBD3FEF7D7FD03F0E3FBFEF796
:1027CC00D3F97047000000207400002050720008FC
:1027DC0074000020B8300020FEE7000080B584B003
:1027EC0000AFF8607A601A460B46FB7213463B81C9
:1027FC000E4AFB6813600D4AFB7A13710B4A7B6817
:10280C0093600A4A3B899381084B00229A73074BC9
:10281C000022DA73054B1B6802220549184602F0A8
:10282C001BFE00BF1037BD4680BD00BFF82F002037
:10283C008C2F002080B500AF374B00221A74364B1A
:10284C0000225A74354B1B78002B3ED0344B1A782F
:10285C00344B1B789A4238D0314B1B781A46324B8A
:10286C0033F81230002B20D02D4B1B781A462E4BF0
:10287C0033F81230652B06D9294B1B781A462A4B94
:10288C00652123F81210264B1B781A46652302FB90
:10289C0003F3264A1344224A12781146224A32F88C
:1028AC0011201146184600F0E3F81D4B1B7801333C
:1028BC00DAB21B4B1A701A4B1B78632B02D9184BCC
:1028CC0000221A70144B01221A74194B1B78002B1E
:1028DC001FD0184800F0FEF80346002B16D0154800
:1028EC0000F0BEF903461A460B4B5A740A4B5B7C3C
:1028FC00002B07D00F48FFF723FA03461A46064B66
:10290C001A7406E0044B03221A7402E0024B0222F2
:10291C001A7400BF80BD00BFF82F002004000020F7
:10292C00892F0020882F0020C02E00204C0700206B
:10293C00F62F00200C30002080B500AF094B01228F
:10294C001A70094B9B68084A91890022184601F0BD
:10295C00A2F9054B1B6802220449184602F07CFDC3
:10296C0000BF80BD04000020F82F00208C2F002019
:10297C0080B582B000AF0346FB711D4B1B78642BF6
:10298C0007D91C4B002283F864201B4B01221A70C0
:10299C0020E0FB79164A12781146184AD25C154B86
:1029AC005A54FB79154AD35C0A2B04D0FB79134A91
:1029BC00D35C0D2B08D10E4B1B781A460D4B002106
:1029CC0099540D4B01221A70094B1B780133DAB262
:1029DC00074B1A70FB79002B06D0094B1B6802229F
:1029EC000649184602F038FD00BF0837BD4680BDC9
:1029FC00F52F0020902F0020F62F00208C2F002088
:102A0C00F82F00200FB480B584B000AF154B1B78A5
:102A1C00FB73144B1B780133DAB2124B1A70114B47
:102A2C001B78632B02D90F4B00221A7007F11C0381
:102A3C007B60FB7B652202FB03F30B4A98187B68D7
:102A4C00BA69652103F056FCB860FB7BBA6891B299
:102A5C00064A22F8131000BF1037BD46BDE880406F
:102A6C0004B07047882F00204C070020C02E002097
:102A7C0080B582B000AF78600B467B80104B002293
:102A8C001A70104B9B680F4A91890122184601F06D
:102A9C0002F90C4B18680C4B1B781A46652302FB89
:102AAC0003F30A4A1344084A12781146084A32F8CA
:102ABC001120194602F064FC00BF0837BD4680BDEA
:102ACC0004000020F82F0020892F00204C07002044
:102ADC00C02E002080B586B000AF78607B68652280
:102AEC005949184603F08EFA584B00221A70574B6E
:102AFC001B781A46544B00219954554B00221A70DE
:102B0C007B681A78534B1B78D31A002B01D0002307
:102B1C0095E07B68002283F890207B68002283F884
:102B2C0091207B68002283F892207B68FF2283F837
:102B3C0093207B680022A3F894207B680022A3F8E2
:102B4C0096207B68013307F10C024349184603F0C9
:102B5C00A0FA78617B69002B1BD00421786903F003
:102B6C0064FA0346022B01D9002368E010220021ED
:102B7C00786903F089FB0346DAB27B6883F893200B
:102B8C007B6893F89320354B1B799A4203D0002332
:102B9C0055E0002353E00023FB741BE07B69002B02
:102BAC001CD0FA7C7B681A32796943F822107B6856
:102BBC0093F890300133DAB27B6883F8902007F1F8
:102BCC000C031A462449002003F063FA7861FB7C5D
:102BDC000133FB74FB7C092BE0D900E000BF7B6860
:102BEC0093F89030032B04D97B6893F890300A2B20
:102BFC0001D9002323E07B68DB6E0421184603F027
:102C0C0014FA0346042B01D9002318E07B68DB6E11
:102C1C0010220021184603F037FB03469AB27B685A
:102C2C00A3F894207B68022283F891207B6893F8A8
:102C3C009030023BDAB27B6883F89220012318466D
:102C4C001837BD4680BD00BF902F0020F52F002007
:102C5C00F62F0020046D0008086D0008F82F0020E6
:102C6C0090B585B000AF78607B6893F89030002BFE
:102C7C0063D07B6893F892207B6893F89130D31AD9
:102C8C00BB730023FB7353E07B6893F891301A46B7
:102C9C007B681A3253F82200FA7B2A4913465B00F0
:102CAC0013449B000B441968FA7B264C13465B00BB
:102CBC0013449B00234404331B781A4603F08EF90B
:102CCC000346002B31D17B6893F891301A467B6810
:102CDC001A3253F822301846FDF74AFA0146FA7BAD
:102CEC00184813465B0013449B00034404331B78C1
:102CFC0099421AD1FA7B134913465B0013449B008B
:102D0C000B4405331B78BA7B9A420CD1FA7B0D49E4
:102D1C0013465B0013449B000B4408331B68786814
:102D2C00984703460AE0012308E0FB7B0133FB7361
:102D3C00054B1B78FA7B9A42A6D30223184614370C
:102D4C00BD4690BD386F00088870000880B586B00D
:102D5C0000AF7860084611461A460346FB700B46D6
:102D6C00BB7013467B70FB7863F07F03DBB23B7365
:102D7C00BB787B737B78BB7397F82030FB7397F829
:102D8C0024303B747B681B6893F8103207F10C01FC
:102D9C0005221846FEF782FCBB781A067B781B04CA
:102DAC00134397F8202012021A4397F82430134348
:102DBC007B61FB7803F07F03FB707B681A68FB7800
:102DCC009B0013447A695A60FB787A68134493F831
:102DDC001022FB7842F00802D1B27A6813440A46FA
:102DEC0083F8102200BF1837BD4680BD90B587B060
:102DFC0002AFF8600B467A60FB727B681B0ED8B290
:102E0C007B681B14DCB27B681B12DBB27A68D2B213
:102E1C00F97A0192009323460246F868FFF796FF71
:102E2C0000BF1437BD4690BD80B584B000AF78604C
:102E3C000B46FB70FB7803F07F03FB70FB787A6822
:102E4C00134493F8103203F00103002B06D17B6876
:102E5C001A68FB789B0013445B6829E0164A07F15B
:102E6C00080392E80300186004331970FB783B7276
:102E7C007B681B6893F8103207F10801052218468D
:102E8C00FEF70CFCFB783B727B681B6893F81032E6
:102E9C0007F1080105221846FEF700FC7B7A1A069A
:102EAC00BB7A1B041343FA7A120213433A7B134383
:102EBC0018461037BD4680BD0C6D000880B487B035
:102ECC0000AFF8607A603B600B46FB72FB68002237
:102EDC005A60FB680022DA60FB6800229A60FB688B
:102EEC007A681A60FB681B680022C3F80C22FB6826
:102EFC001B68FA7A83F81022FB681B6800225A7050
:102F0C00FB681B6800221A7000237B6117E0104AD3
:102F1C007B6913441978FA687B69134403F50473CD
:102F2C000A461A707B699B003A6813441968FB685F
:102F3C007A69043243F822107B6901337B617B6927
:102F4C007F2BE4D900BF00BF1C37BD4680BC704747
:102F5C008C70000880B485B000AF78607B681B680B
:102F6C001B78002B01D0002328E00023FB6019E024
:102F7C007A68FB68134403F504731B7823F0080389
:102F8C00D9B27A68FB68134403F504730A461A70C5
:102F9C007B681A68FB689B00134400225A60FB682C
:102FAC000133FB60FB687F2BE2D97B681B68012235
:102FBC001A707B681B6800225A700123184614375C
:102FCC00BD4680BC704780B584B000AF78607B682C
:102FDC001B680133BB607B681B681B78022B31D1EB
:102FEC007B681B680433FB6005E0BB681B7801330E
:102FFC00DAB2BB681A70BB681B785BB2002B3BDB88
:10300C00BB681B781A467B68134493F8103203F0A4
:10301C000203002BE9D0BB681B781A467B6813446B
:10302C0093F8103203F04003002B25D0BB681B78BB
:10303C001A467B68134493F8103203F00803002BF4
:10304C00D3D019E07B681033FB6005E0BB681B78BC
:10305C000133DAB2BB681A70BB681B785BB2002B09
:10306C000ADBBB681B781A467B68134493F8103252
:10307C0003F04203022BE9D1BB681B785BB2002B37
:10308C0012DBBB681978BB681B789B00FA68134489
:10309C001B681A467868FFF7A9FEBB681B780133DA
:1030AC00DAB2BB681A7013E07B681B68D3F80C3279
:1030BC00002B09D07B681B68D3F80C327A68126835
:1030CC0012781146786898477B681B6800221A7042
:1030DC0000BF1037BD4680BD90B585B000AF78609D
:1030EC0039607B681B681B78002B03D07868FFF76E
:1030FC006AFF2FE07B68DB683A68D31AFB60FB68D9
:10310C00042B27D921217868FFF78EFEB8607B68E5
:10311C009B68BA68D31A1846FDF7ECF80446F868B1
:10312C00FDF7E4F8034619462046FDF7EBF9034694
:10313C000A491846FDF732F903461846FDF77EFAA0
:10314C0003461A467B685A607B68BA689A607B684B
:10315C003A68DA601437BD4690BD00BF6F128344E5
:10316C0080B582B000AF786039603B68002BB8BF87
:10317C005B421A4627217868FFF738FE3B68002B24
:10318C0001DB012300E002231A4620217868FFF7B7
:10319C002DFE00BF0837BD4680BD80B584B000AFA2
:1031AC00F860B9607A6000222021F868FFF71EFEF3
:1031BC007B681A462721F868FFF718FEBA682D219C
:1031CC00F868FFF713FE00BF1037BD4680BD80B511
:1031DC0084B000AFF860B9607A602121F868FFF71D
:1031EC0023FE0246BB681B681A44BB681A60BB68A6
:1031FC001B687A681946F868FFF7CFFF00BF1037D5
:10320C00BD4680BD80B582B000AF0023FB710320AA
:10321C0000F054F90F2000F00DF80346002B02D0FB
:10322C000123FB7101E0FDF7EDFFFB791846083730
:10323C00BD4680BD80B584B000AF78600023FB73C1
:10324C00164B1B68002B22D0154B1A68134B1B68AE
:10325C004FF47A71B1FBF3F3B2FBF3F3184600F0C1
:10326C0062F90346002B0FD17B680F2B09D8002283
:10327C0079684FF0FF3000F02CF90A4A7B68136034
:10328C0007E00123FB7304E00123FB7301E001233E
:10329C00FB73FB7B18461037BD4680BD0C0000202D
:1032AC00000000200800002080B400AF054B1A6815
:1032BC00054B1B681344034A136000BFBD4680BC1A
:1032CC00704700BFA43000200C00002080B400AF79
:1032DC00024B1B681846BD4680BC7047A4300020CA
:1032EC0080B584B000AF7860FFF7F0FFB8607B6802
:1032FC00FB60FB68B3F1FF3F04D0094B1B68FA6815
:10330C001344FB6000BFFFF7E1FF0246BB68D31A12
:10331C00FA689A42F7D800BF00BF1037BD4680BD8F
:10332C000C00002080B485B000AF78607B6803F09F
:10333C000703FB600C4BDB68BB60BA684FF6FF03FE
:10334C001340BB60FB681A02BB68134343F0BF63B6
:10335C0043F40033BB60044ABB68D36000BF14372E
:10336C00BD4680BC704700BF00ED00E080B400AFEC
:10337C00044BDB681B0A03F007031846BD4680BCF0
:10338C00704700BF00ED00E080B483B000AF03468F
:10339C00FB7197F90730002B0BDBFB7903F01F0255
:1033AC00064997F907305B09012000FA02F241F84F
:1033BC00232000BF0C37BD4680BC704700E100E005
:1033CC0080B483B000AF03463960FB7197F90730C6
:1033DC00002B0ADB3B68DAB20C4997F90730120173
:1033EC00D2B20B4483F800230AE03B68DAB20849F6
:1033FC00FB7903F00F03043B1201D2B20B441A7693
:10340C0000BF0C37BD4680BC704700BF00E100E038
:10341C0000ED00E080B489B000AFF860B9607A606C
:10342C00FB6803F00703FB61FB69C3F10703042B83
:10343C0028BF0423BB61FB690433062B02D9FB694B
:10344C00033B00E000237B614FF0FF32BB6902FAC3
:10345C0003F3DA43BB681A407B699A404FF0FF31A3
:10346C007B6901FA03F3D9437B680B40134318467D
:10347C002437BD4680BC704780B582B000AF786001
:10348C007B68013BB3F1807F01D301230FE00A4A33
:10349C007B68013B53600F214FF0FF30FFF790FF2B
:1034AC00054B00229A60044B07221A600023184631
:1034BC000837BD4680BD00BF10E000E080B582B08B
:1034CC0000AF78607868FFF72DFF00BF0837BD4666
:1034DC0080BD80B586B000AF0346B9607A60FB73DF
:1034EC0000237B61FFF742FF78617A68B9687869DD
:1034FC00FFF790FF024697F90F3011461846FFF779
:10350C005FFF00BF1837BD4680BD80B582B000AFED
:10351C000346FB7197F907301846FFF735FF00BFDC
:10352C000837BD4680BD80B582B000AF7860786842
:10353C00FFF7A2FF034618460837BD4680BD0000C2
:10354C0080B485B000AF78607B68002B01D101237B
:10355C0043E07B681B681A46224B1344224AA2FBA9
:10356C0003231B099A007B681A647B681F4ADA6381
:10357C007B68022283F821207B681B681B68FB6038
:10358C00FB6823F4FF4323F07003FB607B685A68ED
:10359C007B689B681A437B68DB681A437B681B69F2
:1035AC001A437B685B691A437B689B691A437B6887
:1035BC00DB691343FA681343FB607B681B68FA688A
:1035CC001A607B6800229A637B68012283F82120B1
:1035DC007B68002283F82020002318461437BD4650
:1035EC0080BC7047F89FFDBFCDCCCCCC00600240B6
:1035FC0080B586B000AFF860B9607A603B6000239C
:10360C00FB75FB6893F82030012B01D102234BE0B2
:10361C00FB68012283F82020FB6893F82130DBB291
:10362C00012B3AD1FB68022283F82120FB6800228F
:10363C009A63FB681B681A68FB681B6822F001021E
:10364C001A603B687A68B968F86800F05EF9FB6844
:10365C00DB6A002B08D0FB681B681A68FB681B68C8
:10366C0042F00E021A600FE0FB681B681A68FB68D8
:10367C001B6822F004021A60FB681B681A68FB685E
:10368C001B6842F00A021A60FB681B681A68FB6828
:10369C001B6842F001021A6005E0FB68002283F807
:1036AC0020200223FB75FB7D18461837BD4680BDD4
:1036BC0080B485B000AF78600023FB737B6893F80F
:1036CC002130DBB2022B08D07B6804229A637B6822
:1036DC00002283F82020012322E07B681B681A68F3
:1036EC007B681B6822F00E021A607B681B681A68E4
:1036FC007B681B6822F001021A607B681B6C03F06C
:10370C001C027B68DB6B012101FA02F25A607B68B8
:10371C00012283F821207B68002283F82020FB7B88
:10372C0018461437BD4680BC704780B584B000AFD6
:10373C0078600023FB737B6893F82130DBB2022B9B
:10374C0005D07B6804229A630123FB7329E07B6814
:10375C001B681A687B681B6822F00E021A607B6873
:10376C001B681A687B681B6822F001021A607B6870
:10377C001B6C03F01C027B68DB6B012101FA02F26B
:10378C005A607B68012283F821207B68002283F831
:10379C0020207B685B6B002B03D07B685B6B7868AD
:1037AC009847FB7B18461037BD4680BD80B584B06A
:1037BC0000AF78607B68DB6B1B68FB607B681B6809
:1037CC001B68BB607B681B6C03F01C0304229A40D3
:1037DC00FB681340002B26D0BB6803F00403002BBE
:1037EC0021D07B681B681B6803F02003002B07D1DA
:1037FC007B681B681A687B681B6822F004021A60DD
:10380C007B681B6C03F01C027B68DB6B042101FAE8
:10381C0002F25A607B68DB6A002B71D07B68DB6A32
:10382C00786898476CE07B681B6C03F01C030222E1
:10383C009A40FB681340002B2ED0BB6803F00203A8
:10384C00002B29D07B681B681B6803F02003002B1E
:10385C000BD17B681B681A687B681B6822F00A0214
:10386C001A607B68012283F821207B681B6C03F0B3
:10387C001C027B68DB6B022101FA02F25A607B6846
:10388C00002283F820207B689B6A002B38D07B6851
:10389C009B6A7868984733E07B681B6C03F01C03C9
:1038AC0008229A40FB681340002B2AD0BB6803F017
:1038BC000803002B25D07B681B681A687B681B6883
:1038CC0022F00E021A607B681B6C03F01C027B68F2
:1038DC00DB6B012101FA02F25A607B6801229A63C8
:1038EC007B68012283F821207B68002283F820204A
:1038FC007B681B6B002B04D07B681B6B786898472C
:10390C0000BF00BF1037BD4680BD80B485B000AF8E
:10391C00F860B9607A603B60FB681B6C03F01C02BA
:10392C00FB68DB6B012101FA02F25A60FB681B6831
:10393C003A685A60FB685B68102B08D1FB681B68FF
:10394C007A689A60FB681B68BA68DA6007E0FB6803
:10395C001B68BA689A60FB681B687A68DA6000BFFB
:10396C001437BD4680BC704780B487B000AF786018
:10397C00396000237B610023FB6000233B6154E131
:10398C003B681A6801217B6901FA03F31340FB6061
:10399C00FB68002B00F046813B685B6803F0030377
:1039AC00012B05D03B685B6803F00303022B30D17D
:1039BC007B689B683B617B695B00032202FA03F323
:1039CC00DB433A6913403B613B68DA687B695B0017
:1039DC0002FA03F33A6913433B617B683A699A60D4
:1039EC007B685B683B6101227B6902FA03F3DB4372
:1039FC003A6913403B613B685B681B0903F00102A9
:103A0C007B6902FA03F33A6913433B617B683A69B9
:103A1C005A603B685B6803F00303032B17D07B6889
:103A2C00DB683B617B695B00032202FA03F3DB4337
:103A3C003A6913403B613B689A687B695B0002FA08
:103A4C0003F33A6913433B617B683A69DA603B687C
:103A5C005B6803F00303022B23D17B69DA087B68D4
:103A6C00083253F822303B617B6903F007039B005B
:103A7C000F2202FA03F3DB433A6913403B613B68C4
:103A8C001A697B6903F007039B0002FA03F33A6996
:103A9C0013433B617B69DA087B680832396943F868
:103AAC0022107B681B683B617B695B00032202FA76
:103ABC0003F3DB433A6913403B613B685B6803F0FB
:103ACC0003027B695B0002FA03F33A6913433B611F
:103ADC007B683A691A603B685B6803F44033002BDF
:103AEC0000F0A080584B1B6A574A43F00103136245
:103AFC00554B1B6A03F00103BB60BB68534A7B69DF
:103B0C009B08023352F823303B617B6903F00303BB
:103B1C009B000F2202FA03F3DB433A6913403B612B
:103B2C007B684B4A934219D07B684A4A934213D024
:103B3C007B68494A93420DD07B68484A934207D030
:103B4C007B68474A934201D1042308E0052306E031
:103B5C00032304E0022302E0012300E000237A693E
:103B6C0002F00302920093403A6913433B613749D8
:103B7C007B699B0802333A6941F82320394B1B6857
:103B8C003B61FB68DB433A6913403B613B685B6814
:103B9C0003F48033002B03D03A69FB6813433B6179
:103BAC00304A3B6913602F4B5B683B61FB68DB431E
:103BBC003A6913403B613B685B6803F40033002BAC
:103BCC0003D03A69FB6813433B61264A3B69536057
:103BDC00244B9B683B61FB68DB433A6913403B61B8
:103BEC003B685B6803F48013002B03D03A69FB68D5
:103BFC0013433B611B4A3B6993601A4BDB683B6187
:103C0C00FB68DB433A6913403B613B685B6803F438
:103C1C000013002B03D03A69FB6813433B61114A34
:103C2C003B69D3607B6901337B613B681A687B69B4
:103C3C0022FA03F3002B7FF4A3AE00BF00BF1C37A6
:103C4C00BD4680BC704700BF0038024000000140F8
:103C5C00000002400004024000080240000C024038
:103C6C00001002400004014080B485B000AF7860C1
:103C7C000B467B807B681A697B881340002B02D033
:103C8C000123FB7301E00023FB73FB7B1846143705
:103C9C00BD4680BC704780B483B000AF78600B46E3
:103CAC007B8013467B707B78002B03D07A887B68F3
:103CBC009A6103E07B881A047B689A6100BF0C3719
:103CCC00BD4680BC7047000080B582B000AF034693
:103CDC00FB80084B5A69FB881340002B06D0054A21
:103CEC00FB885361FB881846FCF7DEFF00BF0837E2
:103CFC00BD4680BD0004014080B588B000AF78603F
:103D0C007B68002B01D101231DE3944B9B6803F0CE
:103D1C000C03BB61914B9B6803F480337B617B6824
:103D2C001B6803F00103002B7BD0BB69082B06D06A
:103D3C00BB690C2B0FD17B69B3F5803F0BD1874B43
:103D4C001B6803F40033002B6AD07B685B68002B84
:103D5C0066D10123F7E27B685B68012B06D17F4BB0
:103D6C001B687E4A43F4803313602DE07B685B68EC
:103D7C00002B0CD1794B1B68784A23F480331360E9
:103D8C00764B1B68754A23F4802313601CE07B6818
:103D9C005B68052B0CD1714B1B68704A43F4802374
:103DAC0013606E4B1B686D4A43F4803313600BE059
:103DBC006A4B1B68694A23F480331360674B1B689A
:103DCC00664A23F4802313607B685B68002B13D056
:103DDC00FFF77CFA386108E0FFF778FA02463B6996
:103DEC00D31A642B01D90323ADE25C4B1B6803F49B
:103DFC000033002BF0D014E0FFF768FA386108E0CC
:103E0C00FFF764FA02463B69D31A642B01D90323EA
:103E1C0099E2524B1B6803F40033002BF0D100E005
:103E2C0000BF7B681B6803F00203002B5AD0BB69F0
:103E3C00042B05D0BB690C2B19D17B69002B16D137
:103E4C00464B1B6803F00203002B05D07B68DB6834
:103E5C00012B01D0012376E2404B5B6823F4F8522E
:103E6C007B681B691B023D4913434B603AE07B683E
:103E7C00DB68002B20D03A4B01221A60FFF726FAA0
:103E8C00386108E0FFF722FA02463B69D31A022B8D
:103E9C0001D9032357E2314B1B6803F00203002BBB
:103EAC00F0D02E4B5B6823F4F8527B681B691B0225
:103EBC002A4913434B6015E0294B00221A60FFF787
:103ECC0005FA386108E0FFF701FA02463B69D31A9C
:103EDC00022B01D9032336E2204B1B6803F00203AB
:103EEC00002BF0D17B681B6803F01003002B00F053
:103EFC00B880BB69002B70D1184B1B6803F400739E
:103F0C00002B05D07B689B69002B01D101231AE2A1
:103F1C007B681A6A114B5B6803F460439A4221D99F
:103F2C007B681B6A184600F03BFC0346002B01D053
:103F3C00012308E2094B5B6823F460427B681B6A2F
:103F4C00064913434B60054B5B6823F07F427B684B
:103F5C00DB691B06014913434B6020E0003802402B
:103F6C0000004742994B5B6823F460427B681B6AF4
:103F7C00964913434B60954B5B6823F07F427B68FB
:103F8C00DB691B06914913434B607B681B6A18461F
:103F9C0000F006FC0346002B01D00123D3E17B6823
:103FAC001B6A5B0B01334FF4004202FA03F3874A9E
:103FBC009268120902F00F0285498A5CD340854A47
:103FCC001360854B1B681846FFF734F90346FB73E7
:103FDC00FB7B002B45D0FB7BB5E17B689B69002B01
:103FEC0029D07E4B01221A60FFF770F9386108E086
:103FFC00FFF76CF902463B69D31A022B01D9032354
:10400C00A1E1724B1B6803F40073002BF0D06F4BD3
:10401C005B6823F460427B681B6A6C4913434B60FA
:10402C006A4B5B6823F07F427B68DB691B06674940
:10403C0013434B6015E0694B00221A60FFF746F9F9
:10404C00386108E0FFF742F902463B69D31A022BAC
:10405C0001D9032377E15D4B1B6803F40073002B3C
:10406C00F0D17B681B6803F00803002B30D07B6811
:10407C005B69002B16D05A4B01221A60FFF726F908
:10408C00386108E0FFF722F902463B69D31A022B8C
:10409C0001D9032357E14D4B5B6B03F00203002B5B
:1040AC00F0D015E04E4B00221A60FFF70FF9386183
:1040BC0008E0FFF70BF902463B69D31A022B01D932
:1040CC00032340E1414B5B6B03F00203002BF0D167
:1040DC007B681B6803F00403002B00F0B580002301
:1040EC00FB773A4B5B6A03F08053002B0DD1374BB7
:1040FC005B6A364A43F080535362344B5B6A03F07D
:10410C008053BB60BB680123FB77364B1B6803F401
:10411C008073002B18D1334B1B68324A43F48073E5
:10412C001360FFF7D3F8386108E0FFF7CFF80246C9
:10413C003B69D31A642B01D9032304E1294B1B6877
:10414C0003F48073002BF0D07B689B68012B06D1A5
:10415C001E4B5B6B1D4A43F4807353632DE07B68ED
:10416C009B68002B0CD1194B5B6B184A23F48073A2
:10417C005363164B5B6B154A23F4806353631CE04B
:10418C007B689B68052B0CD1104B5B6B0F4A43F47F
:10419C00806353630D4B5B6B0C4A43F48073536326
:1041AC000BE00A4B5B6B094A23F480735363074B98
:1041BC005B6B064A23F4806353637B689B68002B1C
:1041CC0024D0FFF783F8386119E000BF00380240B3
:1041DC00206D00080000002008000020200047424D
:1041EC008006474200700040FFF770F802463B69BA
:1041FC00D31A41F28832934201D90323A3E0544BE2
:10420C005B6B03F40073002BEED014E0FFF75EF849
:10421C0038610AE0FFF75AF802463B69D31A41F2BB
:10422C008832934201D903238DE0494B5B6B03F435
:10423C000073002BEED1FB7F012B05D1444B5B6A45
:10424C00434A23F0805353627B685B6A002B79D01E
:10425C00BB690C2B56D07B685B6A022B3BD13D4B68
:10426C0000221A60FFF732F8386108E0FFF72EF8E9
:10427C0002463B69D31A022B01D9032363E0344B6A
:10428C001B6803F00073002BF0D1314B9B6823F4B7
:10429C007D027B68996A7B68DB6A19437B681B6BC0
:1042AC000B432B4913438B602A4B01221A60FFF7F7
:1042BC000DF8386108E0FFF709F802463B69D31A9C
:1042CC00022B01D903233EE0214B1B6803F0007342
:1042DC00002BF0D036E01F4B00221A60FEF7F6FFE1
:1042EC00386108E0FEF7F2FF02463B69D31A022B55
:1042FC0001D9032327E0164B1B6803F00073002B36
:10430C00F0D11FE07B685B6A012B01D101231AE01D
:10431C000F4B9B687B617B6903F480327B689B6AE3
:10432C009A420DD17B6903F470127B68DB6A9A4266
:10433C0006D17B6903F440027B681B6B9A4201D067
:10434C00012300E0002318462037BD4680BD00BF86
:10435C00003802406000474280B584B000AF7860FE
:10436C0039607B68002B01D101231AE18F4B1B684C
:10437C0003F001033A689A4219D93B68012B05D125
:10438C008A4B1B68894A43F004031360874B1B68F4
:10439C0023F0010285493B6813430B60834B1B6878
:1043AC0003F001033A689A4201D00123F9E07B68DB
:1043BC001B6803F00203002B08D07D4B9B6823F095
:1043CC00F0027B689B687A4913438B607B681B689F
:1043DC0003F00103002B00F08E807B685B68022BDE
:1043EC0007D1734B1B6803F40033002B21D101233D
:1043FC00D7E07B685B68032B07D16D4B1B6803F020
:10440C000073002B15D10123CBE07B685B68012B7B
:10441C0007D1674B1B6803F00203002B09D1012362
:10442C00BFE0634B1B6803F40073002B01D1012325
:10443C00B7E05F4B9B6823F003027B685B685C49C9
:10444C0013438B60FEF742FFF8607B685B68022BBE
:10445C0012D10AE0FEF73AFF0246FB68D31A41F28A
:10446C008832934201D903239BE0514B9B6803F0A4
:10447C000C03082BEED13EE07B685B68032B12D15A
:10448C000AE0FEF723FF0246FB68D31A41F288329A
:10449C00934201D9032384E0454B9B6803F00C0342
:1044AC000C2BEED127E07B685B68012B1DD10AE059
:1044BC00FEF70CFF0246FB68D31A41F28832934296
:1044CC0001D903236DE03A4B9B6803F00C03042BDA
:1044DC00EED110E0FEF7FAFE0246FB68D31A41F269
:1044EC008832934201D903235BE0314B9B6803F084
:1044FC000C03002BEED12D4B1B6803F001033A6823
:10450C009A4219D23B68012B05D1284B1B68274ACC
:10451C0043F004031360254B1B6823F0010223496D
:10452C003B6813430B60214B1B6803F001033A6893
:10453C009A4201D0012334E07B681B6803F004032A
:10454C00002B08D01A4B9B6823F4E0627B68DB6875
:10455C00174913438B607B681B6803F00803002B1F
:10456C0009D0134B9B6823F460527B681B69DB00FA
:10457C000F4913438B6000F023F802460C4B9B68E9
:10458C001B0903F00F030B49CB5C22FA03F30A4A15
:10459C0013600A4B1B681846FEF74CFE0346FB7271
:1045AC00FB7A18461037BD4680BD00BF003C024068
:1045BC0000380240206D0008000000200800002098
:1045CC002DE9B04F8EB000AF584B9B68FB62FB6A75
:1045DC0003F00C030C2B0DD00C2B00F29280042B4F
:1045EC0002D0082B03D08CE0514B3B6397E0514B2E
:1045FC003B6394E0FB6A9B0C03F00F024E4B9B5CFD
:10460C00BB62FB6A9B0D03F0030301337B62474BD8
:10461C009B6803F48033002B21D0BB6A0022BB6162
:10462C00FA61444BD7E906894A4603FB02F20023A0
:10463C00444604FB03F313443E4A4446A4FB0201E4
:10464C000B4419467B6A00223B617A61D7E904234B
:10465C00FCF714F802460B4613467B634EE0BB6A2C
:10466C0000229A46934652465B464FF000004FF0AC
:10467C000001590141EAD261500102460B46B2EBEE
:10468C000A0863EB0B094FF000024FF000034FEAEE
:10469C00891343EA98634FEA8812B2EB080463EB80
:1046AC0009054FF000024FF00003EB0043EA54738E
:1046BC00E20014461D4614EB0A033B6045EB0B036A
:1046CC007B604FF000024FF00003D7E9004529460C
:1046DC008B0220462946044643EA945301468A023B
:1046EC00104619467B6A0022BB60FA60D7E90223A8
:1046FC00FBF7C4FF02460B4613467B637B6B3B63A5
:10470C000DE00A4B5B685B0B03F007033B623B6AF3
:10471C0001334FF4004202FA03F33B6300BF3B6BDF
:10472C0018463837BD46BDE8B08F00BF0038024090
:10473C000024F40000366E01146D000880B400AF44
:10474C00024B1B681846BD4680BC70470000002019
:10475C0080B500AFFFF7F2FF0246054B9B681B0AC2
:10476C0003F007030349CB5C22FA03F3184680BD20
:10477C0000380240306D000880B500AFFFF7DEFF57
:10478C000246054B9B68DB0A03F007030349CB5C2D
:10479C0022FA03F3184680BD00380240306D000841
:1047AC0080B487B000AF786000233B61294B9B68D5
:1047BC0003F0F003002B2CD1264B5B6A03F08053E3
:1047CC00002B05D0244B1B6803F4C0537B6116E00F
:1047DC00204B5B6A1F4A43F0805353621D4B5B6A4C
:1047EC0003F08053FB60FB681B4B1B6803F4C05346
:1047FC007B61184B5B6A174A23F0805353627B69C9
:10480C00B3F5C05F05D17B68B3F5404F01D10123EF
:10481C003B613B69012B05D1104B1B680F4A43F0E0
:10482C00040313600D4B1B6823F001020B493B6919
:10483C0013430B60094B1B6803F001033A699A425E
:10484C0001D0012300E0002318461C37BD4680BC74
:10485C00704700BF0038024000700040003C02402E
:10486C0080B582B000AF78607B68002B01D101234A
:10487C006EE07B685B6A002B08D17B685B68B3F5E4
:10488C00827F09D07B680022DA6105E07B68002218
:10489C001A617B6800225A617B6800229A627B68ED
:1048AC0093F85130DBB2002B06D17B68002283F8E1
:1048BC0050207868FCF744FC7B68022283F8512076
:1048CC007B681B681A687B681B6822F040021A60C0
:1048DC007B685B6803F482727B689B6803F4044317
:1048EC001A437B68DB6803F400631A437B681B691B
:1048FC0003F002031A437B685B6903F001031A435C
:10490C007B689B6903F400731A437B68DB6903F0D3
:10491C0038031A437B681B6A03F0800342EA0301E5
:10492C007B689B6A03F400527B681B680A431A601D
:10493C007B689B691A0C7B681B6802F004025A6046
:10494C007B6800225A657B68012283F85120002382
:10495C0018460837BD4680BD80B58CB000AFF860F6
:10496C00B9607A607B800123FB62002387F82B30CF
:10497C00FB6893F85030012B01D102238AE1FB68CC
:10498C00012283F85020FEF7A1FC7862FB6893F8B3
:10499C00513087F82330FB685B68FB617B887B8335
:1049AC0097F82330012B0FD0FB69B3F5827F07D129
:1049BC00FB689B68002B03D197F82330042B03D0A2
:1049CC00022387F82B305BE1BB68002B05D07B689A
:1049DC00002B02D07B88002B03D1012387F82B30CE
:1049EC004EE1FB6893F85130DBB2042B03D0FB682B
:1049FC00052283F85120FB6800225A65FB687A680F
:104A0C009A63FB687A88DA87FB687A889A87FB68EE
:104A1C00BA681A63FB687A88DA86FB687A889A86A1
:104A2C00FB6800221A64FB6800225A64FB681B684E
:104A3C001B6803F04003402B07D0FB681B681A6807
:104A4C00FB681B6842F040021A60FB68DB68B3F538
:104A5C00006F78D1FB685B68002B02D07B8B012B3D
:104A6C0066D1FB681B6B1A88FB681B68DA60FB68F5
:104A7C001B6B9A1CFB681A63FB68DB8E9BB2013BB9
:104A8C009AB2FB68DA8653E0FB681B689B6803F0FC
:104A9C000203022B1BD1FB68DB8E9BB2002B16D0C2
:104AAC00FB6A012B13D1FB681B6B1A88FB681B6814
:104ABC00DA60FB681B6B9A1CFB681A63FB68DB8E65
:104ACC009BB2013B9AB2FB68DA860023FB62FB685F
:104ADC001B689B6803F00103012B19D1FB68DB8F6A
:104AEC009BB2002B14D0FB681B68DA68FB689B6BCD
:104AFC0092B21A80FB689B6B9A1CFB689A63FB68EA
:104B0C00DB8F9BB2013B9AB2FB68DA870123FB6215
:104B1C00FEF7DCFB02467B6AD31ABA6B9A4207D8C3
:104B2C00BB6BB3F1FF3F03D0032387F82B30A7E017
:104B3C00FB68DB8E9BB2002BA6D1FB68DB8F9BB294
:104B4C00002BA1D17CE0FB685B68002B02D07B8B37
:104B5C00012B6BD1FB681A6BFB681B680C3312784A
:104B6C001A70FB681B6B5A1CFB681A63FB68DB8EA4
:104B7C009BB2013B9AB2FB68DA8657E0FB681B6874
:104B8C009B6803F00203022B1CD1FB68DB8E9BB2EB
:104B9C00002B17D0FB6A012B14D1FB681A6BFB6836
:104BAC001B680C3312781A70FB681B6B5A1CFB6861
:104BBC001A63FB68DB8E9BB2013B9AB2FB68DA8608
:104BCC000023FB62FB681B689B6803F00103012B4D
:104BDC0019D1FB68DB8F9BB2002B14D0FB681B68D0
:104BEC00DA68FB689B6BD2B21A70FB689B6B5A1C21
:104BFC00FB689A63FB68DB8F9BB2013B9AB2FB6844
:104C0C00DA870123FB62FEF761FB02467B6AD31A4B
:104C1C00BA6B9A4203D8BB6BB3F1FF3F02D1BB6BAB
:104C2C00002B03D1032387F82B3029E0FB68DB8EA4
:104C3C009BB2002BA2D1FB68DB8F9BB2002B9DD1CA
:104C4C007A6AB96BF86800F0B1F80346002B06D00D
:104C5C00012387F82B30FB6820225A6510E0FB6893
:104C6C009B68002B0BD100237B61FB681B68DB6806
:104C7C007B61FB681B689B687B617B6900E000BF04
:104C8C00FB68012283F85120FB68002283F8502036
:104C9C0097F82B3018463037BD4680BD80B588B0AC
:104CAC0000AFF860B9603B601346FB71FEF70EFB7A
:104CBC000246BB6A9B1A3A681344FB61FEF706FB7B
:104CCC00B861394B1B685B011B0DFA6902FB03F3DE
:104CDC007B6154E03B68B3F1FF3F50D0FEF7F6FA2E
:104CEC000246BB69D31AFA699A4202D9FB69002BB6
:104CFC003DD1FB681B685A68FB681B6822F0E00218
:104D0C005A60FB685B68B3F5827F11D1FB689B68C6
:104D1C00B3F5004F04D0FB689B68B3F5806F07D1E7
:104D2C00FB681B681A68FB681B6822F040021A605B
:104D3C00FB689B6AB3F5005F0FD1FB681B681A68B0
:104D4C00FB681B6822F400521A60FB681B681A6827
:104D5C00FB681B6842F400521A60FB68012283F85E
:104D6C005120FB68002283F85020032317E07B6955
:104D7C00002B01D10023FB617B69013B7B61FB684C
:104D8C001B689A68BB681340BA689A420CBF01232F
:104D9C000023DBB21A46FB799A429BD100231846BA
:104DAC002037BD4680BD00BF0000002080B588B014
:104DBC0002AFF860B9607A601B4B1B681B4AA2FB00
:104DCC0003235B0D4FF47A7202FB03F37B61FB68E8
:104DDC005B68B3F5827F12D17B680093BB680022BD
:104DEC008021F868FFF75AFF0346002B16D0FB68AA
:104DFC005B6D43F02002FB685A6503230FE07B696F
:104E0C00002B0AD07B69013B7B61FB681B689B68AC
:104E1C0003F08003802BF2D000E000BF0023184683
:104E2C001837BD4680BD00BF00000020819F5E1674
:104E3C0080B582B000AF78607B68002B01D1012374
:104E4C0031E07B6893F83930DBB2002B06D17B68FC
:104E5C00002283F838207868FCF726FB7B68022256
:104E6C0083F839207B681A687B680433194610462E
:104E7C0000F0E2F87B68012283F83E207B68012277
:104E8C0083F83A207B68012283F83B207B6801225F
:104E9C0083F83C207B68012283F83D207B6801224B
:104EAC0083F83920002318460837BD4680BD80B5ED
:104EBC0084B000AF786039607B6893F83830012B90
:104ECC0001D10223B3E07B68012283F838207B6890
:104EDC00022283F839207B681B689B68FB60FB68A7
:104EEC0023F07703FB60FB6823F47F43FB607B6854
:104EFC001B68FA689A603B681B68B3F5005F3ED08C
:104F0C00B3F5005F00F28780B3F5805F00F0858019
:104F1C00B3F5805F7FD8702B1AD0702B7BD8602BA9
:104F2C0050D0602B77D8502B3CD0502B73D8402BC3
:104F3C0058D0402B6FD8302B64D0302B6BD8202B13
:104F4C0060D0202B67D8002B5CD0102B5AD062E09D
:104F5C007B6818683B6899683B685A683B68DB68F3
:104F6C0000F043F97B681B689B68FB60FB6843F0AF
:104F7C007703FB607B681B68FA689A604EE07B687D
:104F8C0018683B6899683B685A683B68DB6800F0B6
:104F9C002CF97B681B689A687B681B6842F480421A
:104FAC009A603BE07B6818683B6859683B68DB6833
:104FBC001A4600F0A3F87B681B685021184600F0D5
:104FCC00FAF82BE07B6818683B6859683B68DB682B
:104FDC001A4600F0C1F87B681B686021184600F087
:104FEC00EAF81BE07B6818683B6859683B68DB682B
:104FFC001A4600F083F87B681B684021184600F0C5
:10500C00DAF80BE07B681A683B681B681946104697
:10501C0000F0D1F802E000BF00E000BF7B68012285
:10502C0083F839207B68002283F838200023184647
:10503C001037BD4680BD000080B485B000AF7860ED
:10504C0039607B681B68FB607B68B3F1804F07D0CD
:10505C007B68254A934203D07B68244A934208D14B
:10506C00FB6823F07003FB603B685B68FA681343D2
:10507C00FB607B68B3F1804F13D07B681A4A934274
:10508C000FD07B68194A93420BD07B68184A934225
:10509C0007D07B68174A934203D07B68164A934229
:1050AC0008D1FB6823F44073FB603B68DB68FA684B
:1050BC001343FB60FB6823F080023B681B691343BE
:1050CC00FB607B68FA681A603B689A687B68DA62F6
:1050DC003B681A687B689A627B6801225A6100BF40
:1050EC001437BD4680BC70470004004000080040E7
:1050FC0000080140000C01400010014080B487B052
:10510C0000AFF860B9607A60FB681B6A7B61FB6872
:10511C001B6A23F00102FB681A62FB689B693B6106
:10512C003B6923F0F0033B617B681B013A69134335
:10513C003B617B6923F00A037B617A69BB6813438B
:10514C007B61FB683A699A61FB687A691A6200BFF5
:10515C001C37BD4680BC704780B487B000AFF86088
:10516C00B9607A60FB681B6A23F01002FB681A6254
:10517C00FB689B697B61FB681B6A3B617B6923F461
:10518C0070437B617B681B037A6913437B613B69CA
:10519C0023F0A0033B61BB681B013A6913433B61DD
:1051AC00FB687A699A61FB683A691A6200BF1C371E
:1051BC00BD4680BC704780B485B000AF7860396064
:1051CC007B689B68FB60FB6823F07003FB603A68AC
:1051DC00FB68134343F00703FB607B68FA689A6033
:1051EC0000BF1437BD4680BC704780B487B000AF99
:1051FC00F860B9607A603B60FB689B687B617B6997
:10520C0023F47F437B613B681A027B681A43BB68BB
:10521C0013437A6913437B61FB687A699A6000BF18
:10522C001C37BD4680BC704780B485B000AF786039
:10523C0039607B6893F83830012B01D1022346E0AA
:10524C007B68012283F838207B68022283F839209E
:10525C007B681B685B68FB607B681B689B68BB603A
:10526C00FB6823F07003FB603B681B68FA68134310
:10527C00FB607B681B68FA685A607B681B68B3F13B
:10528C00804F0ED07B681B68134A934209D07B6811
:10529C001B68124A934204D07B681B68104A9342E5
:1052AC000CD1BB6823F08003BB603B685B68BA68B9
:1052BC001343BB607B681B68BA689A607B680122E9
:1052CC0083F839207B68002283F8382000231846A5
:1052DC001437BD4680BC70470004004000080040F5
:1052EC000008014080B582B000AF78607B68002B6D
:1052FC0001D101233FE07B6893F83D30DBB2002BFA
:10530C0006D17B68002283F83C207868FCF726F9EC
:10531C007B68242283F83D207B681B68DA687B68F5
:10532C001B6822F40052DA60786800F03DFD7B685F
:10533C001B681A697B681B6822F490421A617B68AF
:10534C001B685A697B681B6822F02A025A617B68C9
:10535C001B68DA687B681B6842F40052DA607B6871
:10536C0000221A647B68202283F83D207B6820226F
:10537C0083F83E20002318460837BD4680BD000048
:10538C0080B586B000AFF860B9601346FB80FB684F
:10539C0093F83D30DBB2202B53D1BB68002B02D0ED
:1053AC00FB88002B01D101234CE0FB6893F83C30C7
:1053BC00012B01D1022345E0FB68012283F83C203C
:1053CC00BA68FB681A62FB68FA889A84FB68FA88E8
:1053DC00DA84FB6800221A64FB68212283F83D20E2
:1053EC00FB685B6B194A9A62FB685B6B184ADA6262
:1053FC00FB685B6B174A1A63FB685B6B00225A6392
:10540C0007F108037B61FB68586B7B691968FB68C3
:10541C001B6804331A46FB88FEF7EAF8FB681B6826
:10542C006FF040021A60FB68002283F83C20FB6896
:10543C001B685A69FB681B6842F080025A610023A2
:10544C0000E0022318461837BD4680BD53580008AB
:10545C00A55800088D59000880B584B000AFF860DD
:10546C00B9601346FB80FB6893F83E30DBB2202B0F
:10547C001DD1BB68002B02D0FB88002B01D101236E
:10548C0016E0FB6893F83C30012B01D102230FE0AE
:10549C00FB68012283F83C20FB6800221A63FB881E
:1054AC001A46B968F86800F0B5FA034600E0022322
:1054BC0018461037BD4680BD80B58AB000AF786005
:1054CC007B681B681B687B627B681B68DB683B62C4
:1054DC007B681B685B69FB610023BB6100237B61FC
:1054EC007B6A03F00F03BB61BB69002B0DD17B6A98
:1054FC0003F02003002B08D03B6A03F02003002BA1
:10550C0003D0786800F0A6FB7BE1BB69002B00F0B0
:10551C00B180FB6903F00103002B05D13B6A03F456
:10552C009073002B00F0A6807B6A03F00103002B24
:10553C000AD03B6A03F48073002B05D07B681B6C8C
:10554C0043F001027B681A647B6A03F00403002BAE
:10555C000AD0FB6903F00103002B05D07B681B6CA0
:10556C0043F002027B681A647B6A03F00203002B8F
:10557C000AD0FB6903F00103002B05D07B681B6C80
:10558C0043F004027B681A647B6A03F00803002B67
:10559C000FD03B6A03F02003002B04D1FB6903F00E
:1055AC000103002B05D07B681B6C43F008027B6861
:1055BC001A647B681B6C002B00F01E817B6A03F065
:1055CC002003002B07D03B6A03F02003002B02D0F2
:1055DC00786800F03FFB7B681B685B6903F0400355
:1055EC00402B0CBF01230023DBB27B617B681B6C5F
:1055FC0003F00803002B02D17B69002B31D07868B3
:10560C0000F081FA7B681B685B6903F04003402B58
:10561C0023D17B681B685A697B681B6822F04002A7
:10562C005A617B689B6B002B13D07B689B6B764A13
:10563C005A637B689B6B1846FEF777F80346002B82
:10564C0016D07B689B6B5B6B7A68926B10469847A5
:10565C000EE0786800F0E3F80AE0786800F0DFF814
:10566C0006E0786800F0DBF87B6800221A64C3E07F
:10567C0000BFC1E07B681B6B012B40F0A1807B6AF3
:10568C0003F01003002B00F09B803B6A03F0100327
:10569C00002B00F095800023FB607B681B681B6867
:1056AC00FB607B681B685B68FB60FB687B681B6846
:1056BC005B6903F04003402B4ED17B689B6B1B68EE
:1056CC005B683B823B8A002B00F098807B689B8D4B
:1056DC003A8A9A4280F092807B683A8ADA857B68B3
:1056EC009B6B9B69202B2BD07B681B68DA687B68D3
:1056FC001B6822F48072DA607B681B685A697B68CD
:10570C001B6822F001025A617B681B685A697B682E
:10571C001B6822F040025A617B68202283F83E20ED
:10572C007B6800221A637B681B68DA687B681B68DD
:10573C0022F01002DA607B689B6B1846FDF7B8FF0D
:10574C007B689A8D7B68DB8D9BB2D31A9BB2194612
:10575C00786800F06DF851E07B689A8D7B68DB8D82
:10576C009BB2D31A7B827B68DB8D9BB2002B47D01C
:10577C007B8A002B44D07B681B68DA687B681B68CB
:10578C0022F49072DA607B681B685A697B681B682C
:10579C0022F001025A617B68202283F83E207B684C
:1057AC0000221A637B681B68DA687B681B6822F02E
:1057BC001002DA607B8A1946786800F039F81FE02D
:1057CC007B6A03F08003002B08D03B6A03F0800354
:1057DC00002B03D0786800F0D6F912E07B6A03F056
:1057EC004003002B0DD03B6A03F04003002B08D084
:1057FC00786800F017FA04E000BF02E000BF00E098
:10580C0000BF2837BD4680BD6B5B000880B483B0F9
:10581C0000AF786000BF0C37BD4680BC704780B4C9
:10582C0083B000AF786000BF0C37BD4680BC7047BA
:10583C0080B483B000AF78600B467B8000BF0C3720
:10584C00BD4680BC704780B584B000AF78607B6883
:10585C005B6AFB607B681B681B6803F02003002BF2
:10586C0013D1FB680022DA84FB681B685A69FB6859
:10587C001B6822F080025A61FB681B68DA68FB68BF
:10588C001B6842F04002DA6002E0F868FBF71CFA91
:10589C0000BF1037BD4680BD80B584B000AF7860C6
:1058AC007B685B6AFB60F868FFF7B0FF00BF1037DE
:1058BC00BD4680BD80B584B000AF78607B685B6A04
:1058CC00FB607B681B681B6803F02003002B2AD14C
:1058DC00FB680022DA85FB681B68DA68FB681B68CA
:1058EC0022F48072DA60FB681B685A69FB681B68DB
:1058FC0022F001025A61FB681B685A69FB681B683D
:10590C0022F040025A61FB68202283F83E20FB689B
:10591C001B6B012B07D1FB681B68DA68FB681B68E3
:10592C0022F01002DA60FB681B6B012B06D1FB68BE
:10593C009B8D1946F868FFF77BFF02E0F868FBF7D0
:10594C00E7F900BF1037BD4680BD80B584B000AF0D
:10595C0078607B685B6AFB60FB681B6B012B08D172
:10596C00FB689B8D5B089BB21946F868FFF760FFDC
:10597C0002E0F868FBF7BAF900BF1037BD4680BDEE
:10598C0080B584B000AF78600023FB607B685B6AF5
:10599C00BB60BB681B685B6903F08003802B0CBF8A
:1059AC0001230023DBB2FB60BB6893F83D30DBB214
:1059BC00212B08D1FB68002B05D0BB680022DA84B0
:1059CC00B86800F08BF8BB681B685B6903F0400398
:1059DC00402B0CBF01230023DBB2FB60BB6893F8A8
:1059EC003E30DBB2222B08D1FB68002B05D0BB6804
:1059FC000022DA85B86800F086F8BB681B6C43F0AF
:105A0C001002BB681A64B868FFF709FF00BF1037B3
:105A1C00BD4680BD80B586B000AFF860B960134656
:105A2C00FB80BA68FB689A62FB68FA889A85FB6807
:105A3C0000221A64FB68222283F83E20FB689B6BD1
:105A4C00234A9A62FB689B6B224ADA62FB689B6B67
:105A5C00214A1A63FB689B6B00225A6307F1080307
:105A6C007B61FB68986BFB681B68043319467B6988
:105A7C001A68FB88FDF7BCFD00233B61FB681B68C3
:105A8C001B683B61FB681B685B683B613B69FB689F
:105A9C00002283F83C20FB681B68DA68FB681B68F3
:105AAC0042F48072DA60FB681B685A69FB681B68F9
:105ABC0042F001025A61FB681B685A69FB681B685B
:105ACC0042F040025A61002318461837BD4680BD8B
